:020000040800F2
:1000000080420020F101000859480008333D0008F3
:100010005548000809090008A95D00080000000013
:10002000000000000000000000000000A94C0008D3
:10003000D5090008000000005D480008AB4C00082E
:100040000B0200080B0200080B0200080B0200085C
:100050000B0200080B0200080B0200080B0200084C
:100060000B0200080B0200080B0200080D09000833
:100070000B0200080B0200080B0200080B0200082C
:100080000B020008000000000B0200080B02000831
:100090000B0200080B0200080B0200080B0200080C
:1000A0000B0200080B0200080B0200080B020008FC
:1000B0000B020008314D00080B0200080B0200087B
:1000C0000B0200080B0200080B0200080B020008DC
:1000D0000B020008995D00080B0200080B020008E3
:1000E0000B0200080B0200080B0200080B020008BC
:1000F0000B0200080B0200080B02000800000000C1
:10010000000000000B020008000000000B020008C5
:100110000B020008000000000B0200080B020008A0
:100120000B0200080B0200080B0200080B0200087B
:100130000B02000800000000000000000B02000895
:100140000B0200080B020008000000000000000085
:10015000000000000000000000000000000000009F
:100160000000000000000000000000000B0200087A
:100170000B0200080000000000000000000000006A
:10018000000000000B02000800000000000000005A
:10019000000000000000000000000000000000005F
:1001A00000000000000000000B0200080B02000825
:1001B0000B0200080B0200080B0200080000000000
:1001C000000000000B02000800000000000000001A
:1001D0000B0200080B020008DFF810D000F0C2FA92
:1001E000004800473D6A0008AFF3008080420020CD
:1001F0000648804706480047FEE7FEE7FEE7FEE7C1
:10020000FEE7FEE7FEE7FEE7FEE7FEE71D4D00081E
:10021000D90100082DE9F05F0546002092469B4673
:1002200088460646814640241BE02846414647460C
:10023000224600F053F953465A46C01A914110D352
:1002400011461846224600F03AF92D1A67EB0108CC
:100250004F4622460120002100F031F917EB00093A
:100260004E41201EA4F10104DFDC484631462A46F7
:100270004346BDE8F09FD2B201E000F8012B491ED1
:10028000FBD270470022F6E710B513460A46044633
:100290001946FFF7F0FF204610BD10B5002200E020
:1002A000521C835C8C5CA34201D1002BF8D1D8B2E4
:1002B000E1B2401A10BD2DE9FE4F81EA030404F0BB
:1002C000004421F0004100944FF0000B23F0004364
:1002D00050EA01045ED052EA03045BD0C3F30A542F
:1002E000C1F30A552C44A4F2F3340194A0FB025448
:1002F000C1F3130141F48011C3F3130343F48013DA
:1003000001FB024400FB034E840A970A44EA81542D
:1003100047EA8357A4FB076802958D0A05FB07850A
:100320004FEA932C04FB0C542705029D4FEA065814
:1003300047EA1637B5EB08056EEB070C870E920EF1
:1003400047EA811742EA8312A7FB0201B6EB0B01D1
:1003500064EB00042B0D43EA0C335E1844EB1C5095
:10036000DA465146E7FB0201C5F313044FEA0B33AB
:1003700043EA14534FEA0432019C43EA0603A4F112
:100380000C040294009CCDE900B400F0C6F803B060
:10039000BDE8F08F00200146F9E72DE9F04D81EA34
:1003A000030404F0004B21F0004514464FF0000A0E
:1003B00023F0004150EA050220D054EA01021DD08A
:1003C000C5F30A570246C5F31303C1F31300C1F383
:1003D0000A5640F4801543F48013A7EB0608101B5F
:1003E000D64608F2FD3873EB050002D308F1010888
:1003F00001E092185B41B8F1000F03DA00200146DA
:10040000BDE8F08D00204FF48011064684460EE0D2
:10041000171B73EB050705D3121B63EB050306439C
:100420004CEA010C49084FEA300092185B4150EA4F
:100430000107EDD152EA030012D082EA040083EAF8
:100440000501084305D0101BAB4106D20122002351
:1004500006E000224FF0004302E06FF0010253106B
:100460001AEB06004CEB085110EB0A0041EB0B01B4
:10047000BDE8F04D00F042B80EB540F233410291B4
:100480000021CDE900110A460B4600F046F803B002
:1004900000BD30B50B46014600202022012409E0B2
:1004A00021FA02F59D4205D303FA02F5491B04FA2D
:1004B00002F52844151EA2F10102F1DC30BD202A0C
:1004C00004DB203A00FA02F1002070479140C2F1AB
:1004D000200320FA03F3194390407047202A04DBDD
:1004E000203A21FA02F00021704721FA02F3D040AD
:1004F000C2F12002914008431946704710B5141EFE
:1005000073F1000408DA401C41F1000192185B41CC
:100510001A4301D120F0010010BD2DE9F04D9246A3
:100520009B4611B1B1FA81F202E0B0FA80F22032BA
:100530009046FFF7C4FF04460F4640EA0A0041EA2E
:100540000B0153465A46084313D0114653EA0100A3
:1005500019D0C8F140025046FFF7C0FF05460E46CD
:10056000504659464246FFF7AAFF084305D00120EE
:1005700004E020463946BDE8F08D0020054346EAF8
:10058000E0762C4337430A986305E40AA0EB0800A1
:100590000022FD0A44EA47540A3002D500200146F1
:1005A000E9E7010510196941DDE9084500196941CC
:1005B000BDE8F04DA2E72DE9FE4F804681EA030039
:1005C000C00F0C46009021F0004123F00045B8EB2D
:1005D0000200A94105D24046214690461C460B46E2
:1005E000024623F00040104347D0270DC7F30A000E
:1005F000C3F30A510290401A019040286BDAC3F30A
:10060000130040F4801B0098924620B10023D2EBE7
:10061000030A63EB0B0B01985946C0F140025046A8
:10062000FFF74DFF06460D4650465946019A00F029
:10063000ABF810EB08006141002487EA115284EA0C
:10064000E7731A4340D0009A62B3019A012A4FEA35
:10065000075215DC001B61EB02014FF0004202EA79
:100660000752CDE90042001C41F5801132462B466D
:10067000FFF753FF03B0BDE8F08F40462146F9E78E
:10068000001B61EB0201001C41F5801300185B4167
:100690002018A2F5001747EB030140EAD570B61900
:1006A0006D4111E06D084FEA360645EAC0754FEA24
:1006B0000752001B61EB0201001C41F58011490843
:1006C0004FEA30000019514132462B4603B0BDE8D5
:1006D000F04FFFF713BF0098012240000023D0EB3A
:1006E000020263EBE073009821464FEAE074B8EB36
:1006F000000061EB0401E9E783F000435BE781F070
:10070000004158E7C1F30A52C1F3130140F2FF332D
:1007100041F480119A4202DA00200146704740F20B
:1007200033439A42A2F2334202DC5242FFF7D6BE72
:10073000FFF7C5BE30B5041E71F1000404DB4FF0B5
:100740000044404264EB0101141E73F1000405DB18
:100750001C464FF00043524263EB0403994208BF2A
:10076000904230BD064C074D06E0E06840F00103C2
:1007700094E8070098471034AC42F6D3FFF730FDF9
:10078000847D0008A47D0008202A06DBCB17203AD0
:1007900041FA02F043EAE07306E041FA02F3D04086
:1007A000C2F12002914008431946704770B50446D3
:1007B000206803F008FE0646206803F009FE98B39F
:1007C00096BB2068806800F00D0001280AD12068DF
:1007D00081681A4A1140891C816000BF032021688A
:1007E000086009E0E06D40F01000E065206E40F028
:1007F00001002066012070BD01F04CF9054614E0AF
:1008000001F048F9401B02280FD92068806800F0E9
:10081000010050B1E06D40F01000E065206E40F046
:10082000010020660120E6E705E02068806800F00E
:1008300001000028E4D10020DDE70000C0FFFF7FB9
:1008400038B5044600200090206803F0C1FD002860
:100850004FD1206880682849084048B1E06D40F0D9
:100860001000E065206E40F001002066012038BDD8
:10087000206803F08DFD00BF2048806800F0E07024
:1008800000F4000080B11E4800681E49B0FBF1F082
:10089000401C00EB40008000009002E00098401EE9
:1008A000009000980028F9D101F0F4F805461AE00C
:1008B000206803F08DFD10B9206803F069FD01F098
:1008C000E9F8401B02280ED92068006800F00100FA
:1008D00048B9E06D40F01000E065206E40F0010086
:1008E00020660120C3E72068006800F001000028AE
:1008F000DED00020BBE700003F0000800003005076
:100900000C000020400D030000BFFEE710B50248B8
:1009100000F065FE10BD0000E801002030B5114D6B
:100920000468AC4206D210490478083C1425B4FB94
:10093000F5F207E00C4920310478083C1425B4FB9B
:10094000F5F4A21D0B46446CA40803EB84048464F4
:10095000054C8034C46402F01F050124AC400465DA
:1009600030BD00000804024000080240027902F095
:100970007F014A1E064B03EB82024265044A403265
:1009800082654A1E02F01F0301229A40C265704729
:100990000009024030B5D0E913546C60446D14B1C5
:1009A000D0E916546C6090F8444004F01F0501240F
:1009B000AC40056C6C60046863608468102C04D1E2
:1009C0000468A2600468E16003E00468A160046850
:1009D000E26030BD7047002109E0002201E0531CB5
:1009E0009AB240F6B8339A42F9DB4B1C99B2814275
:1009F000F3DB704772B600BFFEE70000F8B50446AF
:100A00000D460020009000BF94F85800012801D145
:100A10000220F8BD012084F8580000BF2046FFF7EF
:100A2000C5FE06468EBBE06D20F4885040F0020003
:100A3000E065206881681B4A114005F0804242F061
:100A400000421143816000BF13E00098401C0090F9
:100A50001549009888420CD3E06D20F0020040F068
:100A60001000E06500BF002084F8580000BF01209E
:100A7000CFE720688168C90F0029E6D1E06D20F03A
:100A8000020040F00100E06504E0FFE7E06D40F0A7
:100A90001000E06500BF002084F8580000BF304619
:100AA000B7E70000C0FFFF3F02DE04002DE9F0437E
:100AB0009BB004460E464FF00008306800B100BFFE
:100AC00000BF94F85800012803D102201BB0BDE8F4
:100AD000F083012084F8580000BF00201790189080
:100AE0002068B0F1A04F02D13148009001E0002011
:100AF0000090009850B9E06D40F02000E06500BF24
:100B0000002084F8580000BF0120DFE7009803F0C0
:100B100073FC0746206803F06FFCD8BBD7BB254D9C
:100B2000306800B394F83800716841EA4030A96831
:100B300021F460410843A8604FF0A04003F04DFC51
:100B400081461B4803F049FC49EA0009B9F1000F4E
:100B500027D1B16830680843A96840F61F729143F5
:100B60000843A8601DE0A86820F46040A8604FF02A
:100B7000A04003F032FC81460D4803F02EFC49EA08
:100B80000009B9F1000F0CD1A86840F61F71884325
:100B9000A86006E0FFE7E06D40F02000E0654FF060
:100BA000010800BF002084F8580000BF40468DE7D0
:100BB00000010050000300502DE9F84F05460C4697
:100BC0004FF0000A00200090FE49E068884200D003
:100BD00000E000BF00BF95F85800012802D10220B4
:100BE000BDE8F88F012085F8580000BF286803F0A1
:100BF000FEFB00287DD12968D4E9002001F1300CEA
:100C0000C0F3012B0CEB8B03D3F800C000F01F0ED8
:100C10004FF01F0B0BFA0EFB2CEA0B0C00F01F0B16
:100C2000C2F3846E0EFA0BFE4CEA0E0CC3F800C041
:100C300000BF286803F0DBFB8146286803F0BEFB99
:100C40008046B9F1000F64D1B8F1000FFBD1A06864
:100C5000B0F1004F0AD121680022286803F0DAFBC6
:100C60004FF00041286803F0FAFB08E0A268216811
:100C7000286803F0CFFB0021286803F0F0FB6069CF
:100C80002968C968C1F3C101490000FA01F7206968
:100C900004283FD028682268216900F1600C0CEB21
:100CA0008103D3F800C0DFF820B30CEA0B0C02F08C
:100CB000F84B4BF0004B4BEA070B4CEA0B0CC3F81C
:100CC00000C000BF2868A269216900F1600C0CEB2C
:100CD0008103D3F800C02CF0807C4CEA020CC3F8EE
:100CE00000C000BF2868227F2169012A02D1520674
:100CF00001E0C6E10022134600F1600C0CEB81021A
:100D0000D2F800C02CF0007C4CEA030CC2F800C002
:100D100000BFA7E00021286803F047FBC0F31200E2
:100D200030B90021286803F040FBC0F3846007E07D
:100D30000021286803F039FB90FAA0F0B0FA80F0A7
:100D40002168C1F3120119B92168C1F3846104E07B
:100D5000216891FAA1F1B1FA81F1884204D100220F
:100D60001146286803F070FB0121286803F01DFB81
:100D7000C0F3120030B90121286803F016FBC0F35C
:100D8000846007E00121286803F00FFB90FAA0F0CF
:100D9000B0FA80F02168C1F3120119B92168C1F3DA
:100DA000846104E0216891FAA1F1B1FA81F18842ED
:100DB00004D100220121286803F046FB02212868A3
:100DC00003F0F3FAC0F3120030B90221286803F0EF
:100DD000ECFAC0F3846007E00221286803F0E5FA2A
:100DE00090FAA0F0B0FA80F02168C1F3120119B9AD
:100DF0002168C1F3846104E0216891FAA1F1B1FA9C
:100E000081F1884204D100220221286803F01CFBF2
:100E10000321286803F0C9FAC0F3120030B9032196
:100E2000286803F0C2FAC0F3846007E00321286851
:100E300003F0BBFA90FAA0F0B0FA80F02168C1F399
:100E4000120119B92168C1F3846104E0216891FAA3
:100E5000A1F1B1FA81F1884204D10022032128686E
:100E600003F0F2FA286803F0B3FA002872D1286878
:100E7000E2682168D0F8B030C1F3120C23EA0C0309
:100E800002F0180BDFF844C12CFA0BFC0CEA010C41
:100E900043EA0C03C0F8B03000BF4A49E06888421A
:100EA00058D12368C3F312031BB92368C3F38463C7
:100EB00004E0236893FAA3F3B3FA83F35B1C03F013
:100EC0001F03092B3ED82368C3F312031BB9236801
:100ED000C3F3846304E0236893FAA3F3B3FA83F3C0
:100EE0005B1C03F01F034FF0010C0CFA03FC23689A
:100EF000C3F312031BB92368C3F3846304E02368BC
:100F000093FAA3F3B3FA83F35B1C03F01F034CEAD9
:100F1000836C2368C3F312031BB92368C3F3846390
:100F200004E0236893FAA3F3B3FA83F35B1C03F0A2
:100F30001F0303EB43034FF0000B4BEA03534CEA50
:100F4000030347E02368C3F3120323B92368C3F301
:100F5000846305E043E0236893FAA3F3B3FA83F3D1
:100F60005B1C03F01F034FF0010C0CFA03FC236819
:100F7000C3F312031BB92368C3F3846304E023683B
:100F800093FAA3F3B3FA83F35B1C03F01F034CEA59
:100F9000836C2368C3F312031BB92368C3F3846310
:100FA00004E0236893FAA3F3B3FA83F35B1C03F022
:100FB0001F030A3B03EB43034FF0007B4BEA035351
:100FC00006E0000000007F4000F0FF03FFFF070085
:100FD0004CEA03031946A268286803F01BFA2F495C
:100FE0002068084050B300BF2D48806800F0E076CC
:100FF00000BF2C492068884203D02B4920688842D2
:101000001DD106F40000D0B92868B0F1A04F3ED140
:1010100046F40001224803F011FA244800682449EC
:10102000B0FBF1F0401C00EB40008000009002E0BB
:101030000098401E009000980028F9D127E01D4933
:10104000206888420CD106F0807048B91A49286897
:1010500088421CD046F08071114803F0EFF916E089
:1010600016492068884212D106F4800078B91249E6
:10107000286888420BD046F48001094803F0DEF965
:1010800005E0E86D40F02000E8654FF0010A00BF80
:10109000002085F8580000BF5046A1E500000880F8
:1010A00000030050000021C31000C0900C0000207D
:1010B000400D0300000052C700010050000084CB27
:1010C00001460868006C70472DE9F84304464FF06C
:1010D00000080020009014B90120BDE8F883606981
:1010E00020B194F82400012800D100BFE06D30B990
:1010F000204600F017F90020206684F85800206888
:101100008168C1F3407131B1206881687E4A114025
:10111000816000BF00BF206803F064F9B0B92068A7
:1011200081687A4A114041F08051816000BF78485F
:1011300000687849B0FBF1F0401C4000009002E0EC
:101140000098401E009000980028F9D1206803F014
:1011500049F948B9E06D40F01000E065206E40F0BC
:10116000010020664FF00108206803F040F90646B0
:10117000E06D00F01000002877D1002EFCD1E06D6A
:1011800020F4807040F00200E065206803F020F950
:10119000B0B94FF0A04003F01BF981465E4803F060
:1011A00017F949EA0009B9F1000F09D160685B49F4
:1011B000896821F47C110143584A916000BF00BF47
:1011C000607FE16B41EA4030E1680843A168084371
:1011D00094F8241040EA014594F82400012803D132
:1011E000208D401E45EA4045E06A28B1A08D00F4FC
:1011F0007870216B084305432068C068484908405F
:1012000028432168C8602068006920F04060616B55
:10121000084321680861206803F0D0F80746002ED3
:1012200050D1EFBB207F002141EA803194F8380093
:1012300041EA40052068C06844F20201884328431F
:101240002168C860206988B12068006940F4803056
:10125000216808612068D0F8C0006FF30D00216993
:1012600008432168C1F8C0000EE045E0206800692D
:1012700020F48030216808612068D0F8C0006FF346
:101280000D002168C1F8C00094F84000012813D176
:10129000606C40F00101A06C0843E16C084300E081
:1012A00010E0216D08432168096940F2FC72914306
:1012B00008432168086105E02068006920F001000A
:1012C000216808616069012809D12068006B20F05D
:1012D0000F00216A491E08432168086305E0206861
:1012E000006B20F00F0021680863E06D20F0020021
:1012F00040F00100E06505E0E06D40F01000E065C1
:101300004FF001084046E8E6C0FFFF5FC0FFFF7FE7
:101310000C000020400D03000001005000030050AD
:101320000740F0FF10B598B00446142113A8FEF74B
:10133000A9FF442102A8FEF7A5FF2068B0F1A04F45
:1013400030D14FF4004002908003119002A800F0C9
:101350000DFD08B1FFF74EFB00BF1348C06C40F411
:1013600000501149C8640846C06C00F40050019058
:1013700000BF00BF00BF0846C06C40F00200C86458
:101380000846C06C00F00200019000BF00BF4FF49F
:10139000A0401390032014900020159013A9034837
:1013A00000F07CFA18B010BD0010024000040048A4
:1013B0002DE9F0410446434802F0F2FF064620685A
:1013C00003F015F800287AD100BF94F858000128DE
:1013D00002D10220BDE8F081012084F8580000BF4E
:1013E0002046FFF72DFA0546002D63D1E06D40F64B
:1013F0000161884340F48070E06533492068884289
:1014000002D14FF0A04000E020682168884200D05F
:101410001EB9E06D20F48010E065E06D00F48050AE
:10142000B0F5805F04D1206E20F00600206601E058
:10143000002020661C202168086000BF002084F87E
:10144000580000BF20492068884202D14FF0A040D8
:1014500000E020682168884204D01EB1052E01D02A
:10146000092E0ED12068C06800F0007028B1E06D30
:1014700020F4005040F48050E065206802F0C2FF84
:101480001EE0E06D40F48010E0650F49206888425E
:1014900002D14FF0A04000E020680746F86800F055
:1014A000007068B1E06D20F4005040F48050E065B9
:1014B00006E004E000BF002084F8580000E00225A8
:1014C000284687E700030050000100500146002233
:1014D00009B90120704791F82500022803D00420A3
:1014E000C863012227E00868006820F001000B684B
:1014F00018600868006820F00E000B681860886C9F
:10150000006820F480708B6C186091F8440000F043
:101510001F03012098400B6C5860D1E913305860CC
:10152000486D40B1486D006820F480704B6D1860C4
:10153000D1E916305860012081F8250000BF002055
:1015400081F8240000BF1046C4E770B504460025AA
:1015500094F8250002280BD00420E063012084F8D1
:10156000250000BF002084F8240000BF012534E0DE
:101570002068006820F00100216808602068006889
:1015800020F00E0021680860A06C006820F48070D4
:10159000A16C086094F8440000F01F01012088400D
:1015A000216C4860D4E913104860606D40B1606DF3
:1015B000006820F48070616D0860D4E916104860FE
:1015C000012084F8250000BF002084F8240000BF1B
:1015D000A06B10B12046A16B8847284670BD70B53E
:1015E0000446206C05682068066894F8440000F002
:1015F0001F01042088402840E0B106F00400C8B173
:101600002068006800F0200028B92068006820F0F9
:1016100004002168086094F8440000F01F010420D1
:101620008840216C4860206B002856D02046216BF2
:10163000884752E094F8440000F01F0102208840DF
:10164000284018B306F0020000B32068006800F0DC
:10165000200040B92068006820F00A002168086076
:10166000012084F8250094F8440000F01F010220B6
:101670008840216C486000BF002084F8240000BF2F
:10168000E06A50B32046E16A884726E094F84400B7
:1016900000F01F01082088402840F0B106F0080043
:1016A000D8B12068006820F00E002168086094F826
:1016B000440000F01F0101208840216C4860012097
:1016C000E06384F8250000BF002084F8240000BFF8
:1016D000606B10B12046616B884770BD70B50446E1
:1016E0000CB9012070BD3049206888420BD22F49C7
:1016F0002068401A1421B0FBF1F0800060642B4890
:10170000083820640AE028492068401A1421B0FBF8
:10171000F1F080006064244808382064022084F8D6
:1017200025002068056847F6F0708543D4E902017A
:1017300008432169084361690843A1690843E169D5
:101740000843216A08430543206805602046FFF7E7
:10175000E5F8A068B0F5804F01D1002060602079E5
:1017600000F07F00A16C0860D4E913104860606845
:1017700060B16068042809D82046FFF7F7F8002018
:10178000616D0860D4E91610486003E000206065D0
:10179000A065E0650020E063012084F825000020BA
:1017A00084F8240000BF9DE70804024008000240BE
:1017B0002DE9F04104460D4616461F464FF000083D
:1017C00000BF94F82400012802D10220BDE8F08176
:1017D000012084F8240000BF94F8250001283FD19F
:1017E000022084F825000020E0632068006820F0D3
:1017F0000100216808603B46324629462046FFF733
:10180000C9F8206B30B12068006840F00E002168F4
:1018100008600BE02068006820F004002168086080
:101820002068006840F00A0021680860A06C006829
:1018300000F4803028B1A06C006840F48070A16C86
:101840000860606D28B1606D006840F48070616D63
:1018500008602068006840F001002168086006E028
:1018600000BF002084F8240000BF4FF0020840466B
:10187000ACE7000070B5044600F00CF906462546BA
:10188000681C10B104480068054400BF00F002F96C
:10189000801BA842FAD370BD0800002078B503462B
:1018A0000022D2E0012696400D6805EA0604002CCD
:1018B0007BD00D7905F00305012D04D00D7905F0DD
:1018C0000305022D13D1986856000325B540A8439F
:1018D0005600CD68B540284398605868012595406A
:1018E000A8430D79C5F300159540284358600D793C
:1018F00005F00305032D07D10D7905F00305032D30
:101900000CD18D68012D09D0D86856000325B5404B
:10191000A84356008D68B5402843D8600D7905F07E
:101920000305022D13D1D60803F1200555F8260032
:101930005507EE0E0F25B540A8435607F60E0D6964
:10194000B5402843D60803F1200545F8260018685D
:1019500056000325B540A8430D7905F00305560050
:10196000B540284318604D6805F44035002D6BD014
:1019700000BF394D2D6E45F00105374E35663546B1
:101980002D6E05F00105009500BF00BF4FEAB6358A
:10199000960855F8260095072E0F0F25B540A84349
:1019A000B3F1904F02D100251AE04DE02B4DAB4230
:1019B00001D1012514E02A4DAB4201D102250FE0EF
:1019C000284DAB4201D103250AE0274DAB4201D19E
:1019D000042505E0254DAB4201D1052500E0062593
:1019E0009607360FB5402843214D960845F8260046
:1019F000204D2868A0434D6805F4801505B12043AB
:101A00001C4D28602D1D2868A0434D6805F4001565
:101A100005B12043174D2D1D2860164D2D1F286838
:101A2000A0434D6805F4003505B12043114D2D1F2D
:101A300028602D1F2868A0434D6805F4803505B146
:101A400020430C4D083D2860521C0D68D540002DE8
:101A50007FF428AF78BD0000001002400004004869
:101A600000080048000C004800100048001400481E
:101A70000800014008040140024613690B400BB105
:101A8000012000E0002070470AB1816100E081621E
:101A90007047000001480068704700000000002007
:101AA0000348006803490968084401490860704711
:101AB000000000200800002010B50024032000F0E2
:101AC000ABF80F2000F008F808B1012401E000F0A5
:101AD0002FF8204610BD000070B5044600251148BF
:101AE0000068D8B10F4800684FF47A71B1FBF0F08C
:101AF0000D490968B1FBF0F6304600F025FF58B9F2
:101B0000102C07D200222146501E00F047F807484B
:101B1000046004E0012502E0012500E001252846DB
:101B200070BD0000080000200C0000200400002010
:101B300008B500BF0E48006E40F001000C49086671
:101B40000846006E00F00100009000BF00BF00BF1B
:101B50000846806D40F0805088650846806D00F032
:101B60008050009000BF00BF00F0F6F808BD0000F4
:101B7000001002400146084600280DDB00BF00BFF0
:101B800000F01F0301229A4043099B0003F1E02368
:101B9000C3F8002100BF00BF00BF70472DE9F05F10
:101BA00080460D46164604F025F9074639462A4672
:101BB000334601F00700C0F1070ABAF1040F02D959
:101BC0004FF0040A01E0C0F1070AD14600F1040A0F
:101BD000BAF1070F02D24FF0000A01E0A0F1030AA8
:101BE000D4464FF0010A0AFA09FAAAF1010A0AEAF0
:101BF000020A0AFA0CFA4FF0010B0BFA0CFBABF1DC
:101C0000010B0BEA030B4AEA0B042146404604F0A1
:101C1000F9F8BDE8F09F000000BF00F00702064B96
:101C200019684FF6FF031940044B0B4343EA0221A6
:101C3000014B196000BF70470CED00E00000FA0591
:101C400002468ABB4148006800F4C060B0F5806F6E
:101C50002BD13E488030006820F480703B4BC3F8A5
:101C600080001846006820F4C06040F400701860DE
:101C70003748006832235843364BB0FBF3F0411C21
:101C800000E0491E3148406900F48060B0F5806F83
:101C900001D10029F5D12D48406900F48060B0F5EC
:101CA000806F51D10320704708E0284880300068D9
:101CB00020F48070254BC3F8800045E0B2F5007F2A
:101CC0003AD12248006800F4C060B0F5806F2AD194
:101CD0001E488030006840F480701C4BC3F88000C0
:101CE0001846006820F4C06040F40070186018487E
:101CF000006832235843174BB0FBF3F0411C00E05F
:101D0000491E1248406900F48060B0F5806F01D12F
:101D10000029F5D10D48406900F48060B0F5806F6E
:101D200012D10320BFE709488030006840F480707A
:101D3000064BC3F8800007E00448006820F4C06048
:101D400040F48060014B18600020ACE70070004058
:101D50000C00002040420F000348806840F480409F
:101D60000149886070470000007000402DE9F84389
:101D700004460027B846206800F40020B0F5002F84
:101D800073D1B946D348806D00F0805078B900BF58
:101D9000D048806D40F08050CE4988650846806DFF
:101DA00000F08050009000BF00BF4FF00109CA480A
:101DB000006840F48070C8490860FFF76BFE064673
:101DC00006E0FFF767FE801B022801D9032705E024
:101DD000C148006800F480700028F2D000BF002FD6
:101DE00046D1BC489030006800F44075CDB1206CFD
:101DF000A84216D0B7489030006820F44075B54826
:101E0000D0F8900040F48030B249C1F89000084604
:101E1000D0F8900020F48030C1F890000846C0F857
:101E2000905005F00100A0B1FFF734FE064608E02F
:101E3000FFF730FE801B41F28831884201D9032729
:101E400006E0A4489030006800F002000028EFD0BF
:101E500000BF5FB99F489030006820F44070216C4B
:101E600008439C49C1F8900003E00CE0B84600E04C
:101E7000B846B9F1010F05D19648806D20F0805029
:101E80009449886500BF207800F0010048B191486E
:101E90008830006820F00300616808438D49C1F86C
:101EA0008800207800F00200022809D18948883093
:101EB000006820F00C00A16808438649C1F888003A
:101EC000207800F00400042809D182488830006896
:101ED00020F03000E16808437E49C1F8880020788E
:101EE00000F00800082809D17A488830006820F0FE
:101EF000C000216908437749C1F88800207800F0C4
:101F00002000202809D173488830006820F4406000
:101F1000616908436F49C1F88800207800F04000EB
:101F2000402809D16B488830006820F44050A169EE
:101F300008436849C1F88800207800F080008028B4
:101F400009D164488830006820F44040E1690843C2
:101F50006049C1F88800208800F48070B0F5807F67
:101F600009D15C488830006820F44030216A084379
:101F70005849C1F88800208800F40070B0F5007F4F
:101F800009D154488830006820F44020616A084331
:101F90005049C1F88800208800F48060B0F5806F57
:101FA00013D14C488830006820F44010A16A0843DF
:101FB000484988310860A06AB0F5801F05D14548BE
:101FC000C06840F480104349C860208800F4006075
:101FD000B0F5006F13D13F488830006820F440000E
:101FE000E16A08433B4988310860E06AB0F5800F38
:101FF00005D13848C06840F480103649C860208850
:1020000000F48050B0F5805F13D13248883000680A
:1020100020F04070216B08432E4988310860206B06
:10202000B0F1807F05D12B48C06840F48010294969
:10203000C860208800F40050B0F5005F13D1254837
:102040008830006820F04060616B08432149883186
:102050000860606BB0F1006F05D11E48C06840F4A5
:1020600080101C49C860208800F48040B0F5804F83
:1020700013D118488830006820F04060A16B0843F5
:10208000144988310860A06BB0F1006F05D1114888
:10209000C06840F480100F49C860208800F40040F8
:1020A000B0F5004F13D10B488830006820F0405045
:1020B000E16B0843074988310860E06BB0F1805F4D
:1020C00005D10448C06840F480300249C8604046E9
:1020D000BDE8F88300100240007000402DE9F04197
:1020E00004460D464FF0000814B90120BDE8F08108
:1020F0007D48006800F00F00A8420ED27A480068C0
:1021000020F00F002843784908600846006800F076
:102110000F00A84201D00120E8E7207800F001007C
:10212000002864D06068032823D17048006800F05C
:10213000007008B90120D9E702F092FB06466C480E
:10214000864237D96948806800F0F00030B12078C5
:1021500000F0020002282DD1A06858BB63488068B7
:1021600020F0F00040F08000604988604FF0800867
:1021700020E06068022806D15C48006800F4003066
:1021800040B90120B2E75948006800F4806008B9FE
:102190000120ABE700F0DEF806465548864209D933
:1021A0005248806820F0F00040F080004F4988607D
:1021B0004FF080084D48806820F0030061680843B4
:1021C0004A498860FFF766FC074608E0FFF762FCB3
:1021D000C01B41F28831884201D9032086E7434879
:1021E000806800F00C006168B0EB810FEED12078C0
:1021F00000F00200022820D1207800F0040004281A
:1022000005D13A48806840F4E06038498860207819
:1022100000F00800082807D13448806820F4605096
:1022200040F4E060314988603048806820F0F00078
:10223000A16808432D49886008E0B8F1800F05D1F6
:102240002A48806820F0F000284988602648006805
:1022500000F00F00A84219D92348006820F00F00B1
:10226000284321490860FFF715FC074608E0FFF7FF
:1022700011FCC01B41F28831884201D9032035E7A7
:102280001948006800F00F00A842F0D1207800F053
:102290000400042807D11548806820F4E060E16854
:1022A000084312498860207800F00800082808D107
:1022B0000E48806820F46050216940EAC1000B4953
:1022C000886000F047F809498968C1F30311094A99
:1022D000515C01F01F01C8400749086007480068C9
:1022E000FFF7FAFB02E70000002002400010024066
:1022F00000B4C4049C6B00080C0000200400002003
:1023000001480068704700000C00002000B5FFF78E
:10231000F7FF05498968C1F30221044A515C01F0C5
:102320001F01C84000BD000000100240AC6B000857
:1023300000B5FFF7E5FF05498968C1F3C221044AEA
:10234000515C01F01F01C84000BD000000100240B8
:10235000AC6B000870B5224DAD6805F00C05042D7E
:1023600001D120483AE01E4DAD6805F00C05082D5E
:1023700001D11D4832E01A4DAD6805F00C050C2D59
:102380002BD1174DED6805F00304154DED68C5F32D
:1023900003156A1C022C0CD0032C09D1124DB5FB7D
:1023A000F2F50F4EF668C6F3062605FB06F10AE0C5
:1023B00000BF0C4DB5FBF2F5094EF668C6F30626D4
:1023C00005FB06F100BF00BF054DED68C5F3416593
:1023D0006D1C6B00B1FBF3F000E0002070BD00004D
:1023E000001002400024F40000366E012DE9F8438D
:1023F000044614B90120BDE8F883207800F00100FC
:10240000002865D0FC48806800F00C07FA48C068D6
:1024100000F003060C2F01D1032E01D0082F0AD1A2
:10242000F548006800F40030002851D060680028AA
:102430004ED10120DFE700BF6068B0F5803F06D1D4
:10244000ED48006840F48030EB4908601AE06068AD
:10245000B0F5A02F0BD1E848006840F48020E64991
:1024600008600846006840F4803008600AE0E248EE
:10247000006820F48030E04908600846006820F4D5
:102480008020086000BF606888B1FFF703FB054645
:1024900006E0FFF7FFFA401B642801D90320AAE7F2
:1024A000D548006800F400300028F2D010E0FFF7B3
:1024B000F1FA054606E0FFF7EDFA401B642801D962
:1024C000032098E7CC48006800F400300028F2D1DF
:1024D000207800F00200022860D1C748806800F030
:1024E0000C07C548C06800F003060C2F01D1022E6E
:1024F00001D0042F18D1C048006800F4806018B1E2
:10250000E06808B9012076E7BB48406820F0FE404B
:10251000217C40EA0160B8494860B8480068FFF78C
:10252000DBFA18B3012066E7E06800B3B248006840
:1025300040F48070B0490860FFF7ACFA054606E049
:10254000FFF7A8FA401B022801D9032053E7AA4845
:10255000006800F480600028F2D0A748406820F0AE
:10256000FE40217C40EA0160A349486016E0A24891
:10257000006820F48070A0490860FFF78BFA0546D8
:1025800006E0FFF787FA401B022801D9032032E753
:102590009948006800F480600028F2D1207800F0AB
:1025A0000800082836D16069D0B19348943000689B
:1025B00040F001009049C1F89400FFF76BFA05461E
:1025C00006E0FFF767FA401B022801D9032012E753
:1025D00089489430006800F002000028F1D019E02A
:1025E00085489430006820F001008349C1F89400C8
:1025F000FFF750FA054606E0FFF74CFA401B0228A9
:1026000001D90320F7E67C489430006800F002000E
:102610000028F1D1207800F00400042872D14FF096
:1026200000087548806D012121EA107078B100BF63
:102630007148806D40F080506F4988650846806D14
:1026400000F08050009000BF00BF4FF001086C48C0
:10265000006800F48070B0B96948006840F4807088
:1026600067490860FFF716FA054606E0FFF712FA19
:10267000401B022801D90320BDE66148006800F430
:1026800080700028F2D000BFA068012808D15A4805
:102690009030006840F001005749C1F8900021E0F7
:1026A000A06805280FD154489030006840F004001D
:1026B0005149C1F890000846D0F8900040F0010060
:1026C000C1F890000EE04C489030006820F0010006
:1026D0004949C1F890000846D0F8900020F0040065
:1026E000C1F8900000BFA068A8B1FFF7D3F9054674
:1026F00009E0FFF7CFF9401B41F28831884202D947
:10270000032078E625E03C489030006800F00200A5
:102710000028EED013E0FFF7BDF9054608E0FFF70B
:10272000B9F9401B41F28831884201D9032062E6A1
:1027300031489030006800F002000028EFD1B8F175
:10274000010F05D12C48806D20F080502A49886502
:1027500000BF207800F02000202836D1A069D0B139
:1027600025489830006840F001002349C1F89800DE
:10277000FFF790F9054606E0FFF78CF9401B0228A9
:1027800001D9032037E61C489830006800F00200A9
:102790000028F1D019E018489830006820F00100B6
:1027A0001549C1F89800FFF775F9054606E0FFF7EF
:1027B00071F9401B022801D903201CE60E4898300D
:1027C000006800F002000028F1D1E069002860D024
:1027D0000948806800F00C000C287AD0E0690228D3
:1027E00058D10548006820F0807003490860FFF761
:1027F00051F905460DE000000010024004000020E1
:1028000000700040FFF746F9401B022801D9032061
:10281000F1E54A48006800F000700028F2D1D4E9E0
:102820000810401E41EA0011A06A41EA0021208EF2
:102830000122C2EB500041EA40513420005DC2EB5E
:10284000500041EA40612C20005D41EAC0603B49F4
:10285000C9683B4A114008433849C86008460068C7
:1028600040F0807008600846C06840F08070C86022
:10287000FFF710F9054606E0FFF70CF9401B0228A8
:1028800001D90320B7E52D48006800F0007000284A
:10289000F2D051E02948006820F080702749086094
:1028A000FFF7F8F8054606E0FFF7F4F8401B0228AA
:1028B00001D903209FE52148006800F0007000283E
:1028C000F2D11E48C0681F4908401C49C86033E067
:1028D000FFE7E069012800D18DE51848C66806F0D9
:1028E0000301206A814225D106F0F001606A401E92
:1028F000B1EB001F1ED106F4FE41A06AB1EB002F20
:1029000018D106F078412C20005DB1EBC06F11D1D9
:1029100006F4C001208E0122C2EB5000B1EB405FF3
:1029200008D106F0C0613420005DC2EB5000B1EB6D
:10293000406F01D001205EE500205CE50010024000
:102940000C809F01FCFFEEFE70B504462546681E14
:10295000B0F1807F01D301200FE0681E4FF0E0212D
:1029600048610F214FF0FF3003F04CFA00204FF088
:10297000E021886107200861002070BD7047704722
:102980007047000010B50346002200BF93F83C00DA
:10299000012801D1022010BD012083F83C0000BFB6
:1029A00022F0FF00CC6840EA040222F440708C68F8
:1029B00040EA040222F480604C6840EA040222F4F7
:1029C00000600C6840EA040222F480500C6940EA7E
:1029D000040222F400504C6940EA040222F48040D0
:1029E0000C6B40EA040222F470200C8B40EA044293
:1029F00022F08050CC6940EA0402124C1868A042D0
:102A000003D0114C1868A04213D122F470000C8D31
:102A100040EA045222F080700C6A40EA040222F07C
:102A200000704C6A40EA040222F00050CC6A40EA8E
:102A300004021868426400BF002083F83C0000BF15
:102A400000BFA8E7002C01400034014070477047E8
:102A50007047000030B502460B4600BF92F83C00BC
:102A6000012801D1022030BD012082F83C0000BFC6
:102A7000022082F83D0010684168106884681D4D8E
:102A80001068A84203D01C4D1068A84203D121F45D
:102A900070015868014319480140186801431068E3
:102AA0004160144D1068A84213D01068B0F1804FF7
:102AB0000FD0134D1068A8420BD0124D1068A842D9
:102AC00007D00D4D1068A84203D00F4D1068A842E2
:102AD00005D124F0800498680443106884600120C4
:102AE00082F83D0000BF002082F83C0000BF00BF1C
:102AF000B9E70000002C0140003401408FFFFFFDCA
:102B00000004004000080040004001407047000001
:102B1000324A016891425FD1017F01292CD13049AD
:102B2000097841B92D49343109682E4A11800121B3
:102B30002B4A117020E0294A34321268294B5A80FE
:102B40001A4652881B889A4205DD264A5288254B30
:102B50001B88D21A06E0234A1288C2F58032214B24
:102B60005B881A4491B2204A92FBF1F21F4B1A8003
:102B700000221B4B1A7000BF017F02292CD11C4977
:102B8000097841B91549383109681A4A118001217B
:102B9000174A117020E0114A38321268154B5A80DA
:102BA0001A4652881B889A4205DD124A5288114BF8
:102BB0001B88D21A06E00F4A1288C2F580320D4BEC
:102BC0005B881A4491B2084A92FBF1F20A4B1A80D0
:102BD0000022074B1A7000BF70470000000400403D
:102BE0002C0000202E00002040420F002800002072
:102BF0002D000020320000202A0000202DE9F041A5
:102C000004460D461646002700BF94F83C000128F4
:102C100002D10220BDE8F081012084F83C0000BF11
:102C200096B9EB68D5E90012206802F0D9FA20685D
:102C3000806920F00C002168886120688069A9689B
:102C400008432168886141E0042E13D1EB68D5E97F
:102C50000012206802F01EFB2068806920F44060AA
:102C60002168886120688069A96840EA012021689C
:102C700088612BE0082E12D1EB68D5E9001220689C
:102C800002F048FB2068C06920F00C002168C86190
:102C90002068C069A96808432168C86116E00C2E45
:102CA00013D1EB68D5E90012206802F071FB2068AF
:102CB000C06920F440602168C8612068C069A968C3
:102CC00040EA01202168C86100E0012700BF002020
:102CD00084F83C0000BF38469CE710B504460CB9A8
:102CE000012010BD94F83D0028B9002084F83C0074
:102CF000204600F029F8022084F83D00211D2068BC
:102D000002F01EF8012084F8480000BF84F83E005D
:102D100001213F200155402001554120015542200D
:102D200001554320015500BF00BF012084F8440035
:102D300045200155462001554720015500BF01207F
:102D400084F83D000020CCE710B586B0044614217D
:102D500001A8FDF797FA2849206888424AD100BFA8
:102D60002648806D40F00200244988650846806D41
:102D700000F00200009000BF00BF00BF0846C06C1A
:102D800040F00100C8640846C06C00F001000090EB
:102D900000BF00BF00BF0846C06C40F00200C8641E
:102DA0000846C06C00F00200009000BF00BF802009
:102DB00001900220029000200390049002200590D0
:102DC00001A94FF09040FEF769FD1020019002200C
:102DD00002900020039004900220059001A9084869
:102DE000FEF75CFD002211461D20FEF7D7FE1D20D8
:102DF000FEF7C0FE06B010BD000400400010024007
:102E0000000400482DE9F04304460D46002715B99B
:102E100094F83E0015E0042D02D13F20005D10E043
:102E2000082D02D14020005D0BE00C2D02D1412085
:102E3000005D06E0102D02D14220005D01E043203C
:102E4000005D804615B994F844000BE0042D02D1D2
:102E50004520005D06E0082D02D14620005D01E01E
:102E60004720005D8146B8F1010F02D1B9F1010F91
:102E700002D00120BDE8F0831DB9022084F83E0095
:102E80001AE0042D03D102213F20015514E0082D42
:102E900003D10221402001550EE00C2D03D1022167
:102EA0004120015508E0102D03D102214220015597
:102EB00002E00221432001551DB9022084F844009C
:102EC0000EE0042D03D102214520015508E0082D14
:102ED00003D102214620015502E00221472001557D
:102EE00035B1042D0BD0082D10D00C2D1CD114E0C1
:102EF0002068C06840F002002168C86016E02068C1
:102F0000C06840F004002168C8600FE02068C06815
:102F100040F008002168C86008E02068C06840F000
:102F200010002168C86001E0012700BF00BF67BB37
:102F300001222946206801F065FF1849206888426F
:102F400013D02068B0F1804F0FD015492068884217
:102F50000BD014492068884207D013492068884262
:102F600003D012492068884210D120688068104937
:102F700000EA0106062E0FD0B6F5803F0CD020687F
:102F8000006840F001002168086005E020680068E2
:102F900040F001002168086038466BE7002C0140D2
:102FA000000400400008004000340140004001409F
:102FB0000700010070B504462068C66820680569EE
:102FC00005F00200022819D106F00200022815D1EE
:102FD000401F21680861012020772068806900F087
:102FE000030018B12046FFF793FD05E0204600F0EE
:102FF0001DF9204600F022FA0020207705F0040099
:10300000042819D106F00400042815D1C043216812
:103010000861022020772068806900F4407018B1B0
:103020002046FFF775FD05E0204600F0FFF820463A
:1030300000F004FA0020207705F00800082819D1D4
:1030400006F00800082815D1C04321680861042053
:1030500020772068C06900F0030018B12046FFF710
:1030600057FD05E0204600F0E1F8204600F0E6F9C3
:103070000020207705F01000102819D106F010006C
:10308000102815D1C04321680861082020772068E6
:10309000C06900F4407018B12046FFF739FD05E023
:1030A000204600F0C3F8204600F0C8F90020207741
:1030B00005F0010048B106F0010030B16FF00100E9
:1030C00021680861204600F061FA05F08000802840
:1030D00004D005F40050B0F5005F0AD106F080007E
:1030E000802806D16FF40250216808612046FFF75E
:1030F00046FC05F48070B0F5807F0AD106F08000B0
:10310000802806D16FF48070216808612046FFF79F
:1031100035FC05F04000402809D106F04000402869
:1031200005D1C04321680861204600F030FA05F05F
:103130002000202809D106F02000202805D1C04316
:10314000216808612046FFF71BFC05F48010B0F5EC
:10315000801F0BD106F48010B0F5801F06D16FF4EC
:103160008010216808612046FFF771FC05F400100B
:10317000B0F5001F0BD106F40010B0F5001F06D10A
:103180006FF40010216808612046FFF75FFC05F42A
:103190008000B0F5800F0BD106F48000B0F5800FF1
:1031A00006D16FF48000216808612046FFF750FCCB
:1031B00005F40000B0F5000F0BD106F40000B0F5E7
:1031C000000F06D16FF40000216808612046FFF768
:1031D0009DFC70BD10B586B00446142101A8FDF712
:1031E00051F81049206888421AD100BF0E48C06CBF
:1031F00040F001000C49C8640846C06C00F00100B2
:10320000009000BF00BF0820019002200290002023
:10321000039004900920059001A9C006FEF73EFB2B
:1032200006B010BD004001400010024070472DE97B
:10323000F04104460D461646002700BF94F83C00B6
:10324000012802D10220BDE8F081012084F83C0071
:1032500000BF0C2E51D005DC4EB1042E1ED0082E1E
:103260007AD133E0102E60D0142EF9D175E02946C2
:10327000206801F0D9FD2068806940F008002168CD
:1032800088612068806920F00400216888612068D6
:103290008069296908432168886178E029462068A7
:1032A00001F01AFE2068806940F40060216888619E
:1032B0002068806920F480602168886120688069C6
:1032C000296940EA01202168886160E02946206878
:1032D00001F05EFE2068C06940F008002168C86106
:1032E0002068C06920F004002168C8612068C069B6
:1032F000296908432168C86149E02946206801F02E
:10330000A3FE2068C06940F400602168C86120689D
:10331000C06920F480602168C8612068C06929699B
:1033200040EA01202168C86131E02946206801F0A7
:10333000E7FE2068006D40F00800216808652068FD
:10334000006D20F00400216808652068006D29697F
:103350000843216808651AE017E02946206801F053
:1033600007FF2068006D40F4006021680865206850
:10337000006D20F48060216808652068006D29696F
:1033800040EA01202168086501E0012700BF00BF75
:1033900000BF002084F83C0000BF384653E710B55A
:1033A00004460CB9012010BD94F83D0028B9002056
:1033B00084F83C00204600F029F8022084F83D0003
:1033C000211D206801F0BCFC012084F8480000BFEA
:1033D00084F83E0001213F20015540200155412045
:1033E0000155422001554320015500BF00BF012077
:1033F00084F84400452001554620015547200155D9
:1034000000BF012084F83D000020CCE708B5094A40
:10341000016891420DD100BF0749096E41F4803126
:10342000054A11661146096E01F48031009100BF12
:1034300000BF08BD0040014000100240704700007E
:1034400070B504460D4615B994F83E0015E0042DFC
:1034500002D13F20005D10E0082D02D14020005D28
:103460000BE00C2D02D14120005D06E0102D02D1B1
:103470004220005D01E04320005D012801D00120D1
:1034800070BD1DB9022084F83E001AE0042D03D15E
:1034900002213F20015514E0082D03D102214020D4
:1034A00001550EE00C2D03D102214120015508E009
:1034B000102D03D102214220015502E002214320B8
:1034C000015501222946206801F09CFC274920680B
:1034D00088420FD02649206888420BD025492068B1
:1034E000884207D024492068884203D023492068B5
:1034F000884201D1012000E0002028B12068406C02
:1035000040F400402168486418492068884213D07C
:103510002068B0F1804F0FD01949206888420BD045
:1035200018492068884207D011492068884203D092
:1035300010492068884210D120688068124900EA4A
:103540000106062E0FD0B6F5803F0CD0206800682B
:1035500040F001002168086005E02068006840F044
:1035600001002168086000208AE70000002C01406B
:103570000034014000400140004401400048014047
:103580000004004000080040070001007047704739
:10359000014600BF91F88400012801D10220704744
:1035A000012081F8840000BF2420C1F88800086849
:1035B00002680868006820F001000B68186022F0BB
:1035C000005200204866086802602020C1F8880088
:1035D00000BF002081F8840000BF00BFDFE72DE9B5
:1035E000F04104460E461746D4F88C00202825D119
:1035F00006B117B90120BDE8F0810120E066002086
:1036000020673A463146204602F00CFB05469DB93C
:10361000E06E01280FD110202168086200BF00BFB2
:10362000216851E8001F41F01000226842E80001C3
:103630000029F5D100E001252846DCE70220DAE781
:1036400070B504460D4606492068884207D11E22FF
:1036500004492046FFF7C3FF01200349087070BDED
:10366000003801405C02002036000020704770B531
:1036700004460D4600BF94F88400012801D10220C1
:1036800070BD012084F8840000BF2420C4F88800A5
:10369000206806682068006820F001002168086042
:1036A0002068806820F06060284321688860204698
:1036B00001F0AEFE206806602020C4F8880000BF3C
:1036C000002084F8840000BF00BFD9E770B504462D
:1036D0000D4600BF94F88400012801D1022070BD7E
:1036E000012084F8840000BF2420C4F888002068EA
:1036F00006682068006820F00100216808602068E2
:10370000806820F06040284321688860204601F0EE
:103710007FFE206806602020C4F8880000BF0020DB
:1037200084F8840000BF00BFD9E770477047704736
:103730002DE9F04704462068C569206806682068BE
:10374000876840F60F0005EA0009B9F1000F0FD1B4
:1037500005F0200060B106F0200010B907F080509D
:1037600030B1606F10B12046616F8847BDE8F087C7
:10377000B9F1000F7ED0DF48384018B9DE4830403C
:103780000028F7D005F0010058B106F4807040B170
:10379000012021680862D4F8900040F00100C4F8CC
:1037A000900005F0020058B107F0010040B102207E
:1037B00021680862D4F8900040F00400C4F890003A
:1037C00005F0040058B107F0010040B10420216861
:1037D0000862D4F8900040F00200C4F8900005F0B0
:1037E000080070B106F0200010B9C248384040B15E
:1037F000082021680862D4F8900040F00800C4F85E
:10380000900005F4006060B106F0806048B14FF4AC
:10381000006021680862D4F8900040F02000C4F8ED
:103820009000D4F89000002852D005F0200050B14C
:1038300006F0200010B907F0805020B1606F10B181
:103840002046616F8847D4F890A02068806800F017
:103850004000402802D00AF0280070B3204601F052
:10386000B1FF2068806800F04000402826D100BFEA
:1038700000BF00E02DE02168083151E8001F21F071
:1038800040002168083141E80002002AF1D100BF60
:10389000D4F8800068B19948D4F880108863D4F8CF
:1038A0008000FDF752FE98B1D4F88000816B884704
:1038B0000EE02046FFF73BFF0AE003E02046FFF75B
:1038C00036FF05E02046FFF732FF0020C4F89000E5
:1038D0004CE7E06E012865D105F01000002861D0AA
:1038E00006F010000028FAD0102021680862206835
:1038F000806800F0400040287AD1D4F88000006849
:1039000040681FFA80F8B8F1000F5CD0B4F85C0092
:10391000404558DDA4F85E80D4F880000068006857
:1039200000F02000E8BB00BF00BF216851E8001F85
:1039300021F48070226842E800010029F5D100BF1F
:1039400000BF00BF2168083151E8001F21F00100CD
:103950002168083141E80002002AF3D100BF00BF0E
:1039600000BF2168083151E8001F21F040002168A4
:10397000083141E80002002AF3D100BF2020C4F83A
:103980008C000020E06600BF00BF216851E8001FE6
:1039900021F01000226842E800010029F5D100BFA3
:1039A00001E004E068E0D4F88000FDF78FFD02201C
:1039B0002067B4F85C00B4F85E20801A81B220461B
:1039C000FFF73EFE12E0B4F85C0040450ED1D4F89B
:1039D00080000068006800F02000202806D1022046
:1039E0002067B4F85C102046FFF72AFEBEE6FFE72A
:1039F00034F85C0F6188401A1FFA80F860885C3CDC
:103A0000C8B3B8F1000F36D000BF00BF216851E83D
:103A1000001F21F49070226842E800010029F5D1CE
:103A200000BF00BF00BF2168083151E8001F314AC4
:103A3000D24301EA02002168083141E80002002A6D
:103A4000F1D100BF2020C4F88C000020E066606740
:103A500000BF00BF216851E8001F21F0100022685C
:103A600042E800010029F5D100BF0220206741464D
:103A70002046FFF7E5FD79E605F4801050B107F424
:103A8000800038B14FF48010216808622046FFF7AB
:103A90004DFE6BE605F0800058B106F0800010B9CD
:103AA00007F4000028B1A06F10B12046A16F88472D
:103AB0005CE605F0400030B106F0400018B1204649
:103AC00001F0B6FE52E605F4000030B106F0804089
:103AD00018B12046FFF729FE48E605F0807030B1A6
:103AE00006F0004018B12046FFF7C0FD3EE600BFDB
:103AF0003CE6000001000010200100044B560008C5
:103B000010B504460CB9012010BDA06900B100E059
:103B100000BFD4F8880028B9002084F8840020462B
:103B200000F02AF82420C4F888002068006820F0FB
:103B3000010021680860A06A10B1204601F094FCE1
:103B4000204601F0ADFE012800D1DDE72068406885
:103B500020F49040216848602068806820F02A00A6
:103B6000216888602068006840F0010021680860D2
:103B7000204601F0F5FCC7E710B598B004461421C3
:103B800013A8FCF77FFB442102A8FCF77BFB2E491E
:103B90002068884256D1012002900020039002A89C
:103BA000FEF7E4F808B1FCF725FF00BF2748006ED8
:103BB00040F48040254908660846006E00F48040C5
:103BC000019000BF00BF00BF0846C06C40F001007C
:103BD000C8640846C06C00F00100019000BF00BF3F
:103BE0004FF4C0601390022014900020159016909E
:103BF0000720179013A94FF09040FDF74FFE14488F
:103C00001449086018204860002112488160C16092
:103C100080210161002141618161C1610162FDF783
:103C20005DFD08B1FCF7E6FE00BF0A48C4F880005D
:103C3000846200BF002211462520FDF7AFFF25203A
:103C4000FDF798FF18B010BD003801400010024089
:103C500008000240E8010020704770472DE9F84F46
:103C600004460E4617469946D4F8880020285DD1B0
:103C700006B117B90120BDE8F88F00205434E06385
:103C800021206063FDF706FF824627806780543C51
:103C9000A068B0F5805F04D1206910B90025B04656
:103CA00002E035464FF0000829E05346002280210B
:103CB0002046CDF8009002F019F820B12020C4F879
:103CC00088000320D7E745B9B8F80000C0F3080022
:103CD0002168886208F1020803E028782168886278
:103CE0006D1CD4F8880000F02100212805D1B4F81B
:103CF0005600401EA4F8560001E00120BBE7B4F8CE
:103D000056000028D1D15346002240212046CDF84C
:103D1000009001F0EBFF20B12020C4F888000320C0
:103D2000A9E72020C4F888000020A4E70220A2E729
:103D3000704700BFFEE7000000B585B0142168465B
:103D4000FCF7A0FAC0200090012001900290022010
:103D5000039069460248FDF7A1FD05B000BD0000D3
:103D60000004004870B50825002400F05DFF13E052
:103D70006006040E002000F037FF142002F0FCFC67
:103D8000142002F0F9FC012000F02EFF142002F0B4
:103D9000F3FC00F03DFF0443281EA5F10101CDB264
:103DA000E6D100F021FF142002F0E6FC00F066FFEF
:103DB000204670BD70B50446082517E0002000F0CD
:103DC00013FF142002F0D8FC04F0800000F042FF42
:103DD000142002F0D1FC6006040E142002F0CCFC8A
:103DE000012000F001FF142002F0C6FC281EA5F1FE
:103DF0000101CDB2E2D100F0F7FE142002F0BCFCCC
:103E000070BD10B5012000F025FF142002F0B4FCB5
:103E1000142002F0B1FC012000F0E6FE142002F0B4
:103E2000ABFC002000F0E0FE142002F0A5FC10BD69
:103E300010B5012000F00EFF142002F09DFC0120BF
:103E400000F0D2FE142002F097FC002000F002FFE8
:103E5000142002F091FC002000F0C6FE142002F0B5
:103E60008BFC10BD10B5002000F0BEFE142002F047
:103E700083FC002000F0EEFE142002F07DFC012007
:103E800000F0B2FE142002F077FC012000F0E2FE08
:103E9000142002F071FC10BD10B5052400F0C4FE22
:103EA000142002F069FC012000F09EFE142002F0B4
:103EB00063FC0BE0601E84B2142002F05DFC2CB9A0
:103EC00000F0DCFEFFF7CEFF012010BD00F0A0FEE9
:103ED0000028EFD100F088FE00F0D0FE142002F0A0
:103EE0004BFC0020F1E7000000B585B014216846C6
:103EF000FCF7C8F94FF6FF700090002001900320F6
:103F000003900020029069460248FDF7C7FC05B007
:103F100000BD00000008004800B585B014216846C7
:103F2000FCF7B0F94FF6FF700090012001900320DC
:103F300003900020029069460248FDF7AFFC05B0EF
:103F400000BD00000008004830B5054600240021EF
:103F5000084600F049F900F097F900BF03E0284651
:103F600000F056F9641CB4F5963FF8D330BD00005C
:103F700000B587B0142102A8FCF784F900BF2B48D4
:103F8000C06C40F004002949C8640846C06C00F0C9
:103F90000400019000BF00BF00BF0846C06C40F0A5
:103FA0000100C8640846C06C00F00100019000BF29
:103FB00000BF00BF0846C06C40F00200C86408465D
:103FC000C06C00F00200019000BF00BF4FF44870C9
:103FD000029001200390032005900020049002A984
:103FE0001348FDF75BFC4FF48070029001200390B2
:103FF000032005900020049002A94FF09040FDF7A7
:104000004DFCFFF789FF4FF09040806940F48070CD
:104010004FF09041886106481830006840F40870FD
:1040200003491831086007B000BD000000100240CD
:104030000004004870B505460E461446A4F1200061
:10404000C4B204EB4400044901EB00123146284697
:1040500000F01AF870BD0000B46B0008F0B5074618
:104060000C46002540F23F1609E0227831463846DA
:10407000FFF7E0FFA6F1100086B2641C6D1C2078EB
:1040800008B1142DF1D3F0BD2DE9F0430646894661
:10409000174600240025A046B0464946404600F099
:1040A000A3F800BF1EE000F0EFF800250FE037F89E
:1040B00014000121A940084020B90C48008800F0F4
:1040C000A7F803E00A48008800F0A2F86D1C102D44
:1040D000EDD308F1010000F0FF084946404600F02A
:1040E00083F8641C182CDED3BDE8F0834600002062
:1040F0004400002010B5FFF73BFF002000F016F849
:10410000094908800846008848F23021884202D1D7
:1041100000F0DAFB01E000F067FC002000F006F898
:104120000149088010BD00004800002070B5044619
:104130002748006840F40070254908600846006878
:1041400040F48070086022481038006840F0200079
:104150001F49103908601F4804601D48006840F07E
:1041600020001B49086000BF00BF00BF184810387E
:10417000006840F0200016491039086008460068C1
:1041800040F480700860FFF7AFFE4FF09040806A07
:1041900040F480704FF09041886200BF00BF00BFC4
:1041A0000C48001F006885B24FF09040806940F4D1
:1041B00080704FF090418861FFF7AEFE04481038E0
:1041C000006840F40070024910390860284670BD4C
:1041D000280400481408004801B5BDF80000014952
:1041E000088008BD4600002030B504460D46214633
:1041F000202000F085F82946212000F081F830BD0C
:1042000001B5BDF800000149088008BD4400002048
:104210001B49096841F40071194A116018491039A5
:10422000096841F48071164A103A11601146096814
:1042300041F020011160134908601149096841F0FB
:1042400020010F4A116000BF00BF00BF0C491039A8
:10425000096841F020010A4A103A116011460968C4
:1042600041F48071116000BF00BF00BF04491039E4
:10427000096841F40071024A103A11607047000069
:1042800028040048140800481B48006840F40070E7
:10429000194908600846006840F4807008601648B4
:1042A0001038006840F020001349103908602220BF
:1042B000124908601048006840F020000E4908606C
:1042C00000BF00BF00BF0C481038006840F020005D
:1042D0000949103908600846006840F48070086099
:1042E00000BF00BF00BF04481038006840F40070F1
:1042F0000149103908607047280400481408004834
:10430000214A126842F400721F4B1A601A46126862
:1043100042F480721A601C4A103A126842F020027D
:10432000194B103B1A60194A1060174A126842F084
:104330002002154B1A6000BF00BF00BF124A103A9E
:10434000126842F02002104B103B1A601A461268A5
:1043500042F480721A600D4A11600B4A126842F0F2
:104360002002094B1A6000BF00BF00BF064A103A86
:10437000126842F02002044B103B1A601A46126881
:1043800042F480721A6070472804004814080048FC
:104390008168024A1140491C81607047C0FFFF7F5D
:1043A0000146886800F01F007047024602F1600075
:1043B00000EB8103186800F0F840704701468868F8
:1043C000C0F3C000704701468868C0F340007047E2
:1043D0000146886800F0010070470146886800F0D7
:1043E0000100704701468868C0F3007070470146BD
:1043F0008868C0F38000704701468868C0F3800079
:10440000704700008168024A1140091D81607047B1
:10441000C0FFFF7F70B500F11404C1F3406504EBE9
:1044200085031C68C1F304560725B540AC43C1F3AE
:10443000045502FA05F52C431C6070BD826822F019
:10444000E0720A438260704710B500F1600404EB2B
:1044500081031C6824F0004414431C6010BD4269B1
:1044600022F000420A4342617047000000B58BB061
:104470000020089009900A9020216846FBF702FF6F
:104480004FF0A040254908604FF4003048600021FB
:1044900022488160C1600161012141610421816183
:1044A00000210177417702210162002180F8241068
:1044B000C162016380F83810C16380F84010FCF7D6
:1044C00003FE08B1FCF796FA0020089008A91348EB
:1044D000FCF7ECFA08B1FCF78DFA114800900620C1
:1044E0000190072002907F20039004200490002078
:1044F000059069460948FCF75FFB08B1FCF77AFABA
:10450000084800900C20019069460448FCF754FBD1
:1045100008B1FCF76FFA0BB000BD0000500000209E
:104520002000F0140008302E08B500BF1148806C40
:1045300040F004000F4988640846806C00F00400D5
:10454000009000BF00BF00BF0846806C40F0010033
:1045500088640846806C00F00100009000BF00BF36
:10456000002211460B20FDF719FB0B20FDF702FB83
:1045700008BD00000010024000B587B0142102A859
:10458000FBF780FE00BF4548C06C40F00400434983
:10459000C8640846C06C00F00400019000BF00BF72
:1045A00000BF0846C06C40F02000C8640846C06CDC
:1045B00000F02000019000BF00BF00BF0846C06CA3
:1045C00040F00100C8640846C06C00F00100019092
:1045D00000BF00BF00BF0846C06C40F00200C864C6
:1045E0000846C06C00F00200019000BF00BF00BF91
:1045F0000846C06C40F00800C8640846C06C00F073
:104600000800019000BF00BF01224FF47F41244801
:10461000FDF73AFA002204212248FDF735FA00227C
:10462000C0212148FDF730FA4FF47F40029001206D
:10463000039000200490059002A91948FDF72EF977
:1046400001200290002003900120049002A94FF065
:104650009040FDF723F907200290002003900120ED
:10466000049002A91048FDF719F9042002900120D6
:10467000039000200490059002A90A48FDF70EF966
:10468000C02002900120039000200490059002A910
:104690000548FDF703F907B000BD00000010024017
:1046A00000080048000C00480004004800B597B01E
:1046B00000201490159016901C210DA8FBF7E2FD28
:1046C00034216846FBF7DEFD23482449086040F2A8
:1046D0001F3048600021214881606321C1600021B2
:1046E000016141618161FEF75AFE08B1FCF782F970
:1046F00000201490169014A91848FEF7ABF908B1E1
:10470000FCF778F960200D9032200E9000200F9079
:10471000109011901290139004220DA90F48FEF7EB
:1047200086FD08B1FCF766F9002000900190029028
:10473000039004904FF400500590002006900C90D8
:1047400069460648FEF71EF908B1FCF753F903481D
:10475000FEF740FD17B000BD0040014008010020F9
:1047600000B587B00020049005900690009001905D
:10477000029003901A481B4908604F2048600021AE
:10478000184881604FF6FF71C160002101618161AD
:10479000FEF7A3FA08B1FCF72DF90020049006906B
:1047A00004A91048FEF756F908B1FCF723F90020D8
:1047B00000900120019000200290039000226946A1
:1047C0000848FEF71BFA08B1FCF714F90422694601
:1047D0000448FEF713FA08B1FCF70CF907B000BD66
:1047E00000040040BC00002010B5184818490860BB
:1047F0004FF416504860002115488160C160016186
:104800000C21416100218161C1610162416200208E
:104810000F4988620846FFF773F908B1FCF7EAF818
:1048200000210B48FEF752FF08B1FCF7E3F8002126
:104830000748FEF71CFF08B1FCF7DCF80448FEF758
:10484000A7FE08B1FCF7D6F810BD00000038014003
:104850005401002000BFFEE700BFFEE770470000E4
:1048600070B5164DED6805F00304144DED68C5F301
:1048700003156B1C022C0CD0032C09D1104DB5FB79
:10488000F3F50E4EF668C6F3062605FB06F10AE0C0
:1048900000BF0C4DB5FBF3F5084EF668C6F30626CF
:1048A00005FB06F100BF00BF044DED68C5F341658F
:1048B0006D1C6A00B1FBF2F070BD000000100240F8
:1048C00000366E010024F40000B501210020FFF73E
:1048D00017FD4FF47A70FCF77EF800210120FFF7F6
:1048E0000FFD41F290711020FFF70AFD4FF41C51AB
:1048F0006020FFF705FD01216120FFF701FD022186
:104900004620FFF7FDFC48F210011320FFF7F8FCEA
:1049100048F2FE011220FFF7F3FC4FF4A0610220E1
:10492000FFF7EEFC41F230010320FFF7E9FC40F213
:1049300003313020FFF7E4FC40F203313120FFF770
:10494000DFFC40F203313220FFF7DAFC4FF4407114
:104950003320FFF7D5FC03213420FFF7D1FC40F2D0
:1049600003313520FFF7CCFC14213620FFF7C8FCBB
:1049700040F203313720FFF7C3FC40F20331382007
:10498000FFF7BEFC40F203313920FFF7B9FC4FF4CA
:1049900040713A20FFF7B4FC03213B20FFF7B0FC45
:1049A00040F203313C20FFF7ABFC4FF4A0513D2017
:1049B000FFF7A6FC4FF400719220FFF7A1FC40F234
:1049C00003319320FFF79CFC40F60D019020FFF788
:1049D00097FC41F218010320FFF792FC40F273119B
:1049E0000720FFF78DFC00BD10B543F20801E3205E
:1049F000FFF786FC1221E720FFF782FC41F231210C
:104A0000EF20FFF77DFC00210120FFF779FC4FF438
:104A1000E0610220FFF774FC41F230010320FFF750
:104A20006FFC00210420FFF76BFC40F207210820F7
:104A3000FFF766FC00210920FFF762FC00210A2035
:104A4000FFF75EFC00210C20FFF75AFC00210D202F
:104A5000FFF756FC00210F20FFF752FC0021102029
:104A6000FFF74EFC07211120FFF74AFC002112201E
:104A7000FFF746FC00211320FFF742FCC820FCF79B
:104A8000F9FE41F290611020FFF73AFC40F2272135
:104A90001120FFF735FC3220FCF7ECFE1D2112201F
:104AA000FFF72EFC3220FCF7E5FE4FF400611320E7
:104AB000FFF726FC14212920FFF722FC0B212B20D5
:104AC000FFF71EFC3220FCF7D5FE00212020FFF767
:104AD00017FC00212120FFF713FC07213020FFF7EE
:104AE0000FFC40F207713120FFF70AFC062132204B
:104AF000FFF706FC40F204713520FFF701FC41F698
:104B000004713620FFF7FCFB04213720FFF7F8FB88
:104B100000213820FFF7F4FB40F206713920FFF73F
:104B2000EFFB40F201713C20FFF7EAFB0F213D2033
:104B3000FFF7E6FB00215020FFF7E2FBEF215120B9
:104B4000FFF7DEFB00215220FFF7DAFB40F23F11B6
:104B50005320FFF7D5FB4FF41C516020FFF7D0FB2B
:104B600001216120FFF7CCFB00216A20FFF7C8FB81
:104B700000218020FFF7C4FB00218120FFF7C0FB4C
:104B800000218220FFF7BCFB00218320FFF7B8FB48
:104B900000218420FFF7B4FB00218520FFF7B0FB44
:104BA00010219020FFF7ACFB00219220FFF7A8FB1B
:104BB00003219320FFF7A4FB4FF488719520FFF7A2
:104BC0009FFB00219720FFF79BFB00219820FFF718
:104BD00097FB41F218010320FFF792FB40F273119B
:104BE0000720FFF78DFB10BD30B10849096841F07F
:104BF0004001064A116007E004491031096841F09C
:104C00004001024A10321160704700001804004849
:104C100010B580210348FCF72FFF012800D110BDFB
:104C20000020FCE70004004800B585B01421684668
:104C3000FBF728FB802000900020019001200290CB
:104C40000220039069460248FCF728FE05B000BD2B
:104C50000004004830B10849096841F08001064A63
:104C6000116007E004491031096841F08001024AEF
:104C700010321160704700001804004800B585B07C
:104C800014216846FBF7FEFA802000901120019065
:104C9000002002900220039069460248FCF7FEFDC6
:104CA00005B000BD00040048704710B5FCF7F8FEE1
:104CB00010BD00B593B0382105A8FBF7E3FA142125
:104CC0006846FBF7DFFA4FF40070FCF7B9FF0120EC
:104CD00005900004069002200C9003210D910E9186
:104CE00014210F91022110911191129105A8FDF745
:104CF0007DFB08B1FBF77EFE0F20009003200190A2
:104D0000002002900390049002216846FDF7E6F926
:104D100008B1FBF76FFE13B000BD00000348006848
:104D200040F47000014908607047000088ED00E021
:104D300010B50248FEF73EF910BD0000BC0000208F
:104D400010B50268284B98420BD0B0F1804F08D0C4
:104D5000264B984205D0264B984202D0254B9842CC
:104D600003D122F070024B681A431F4B984214D0B3
:104D7000B0F1804F11D01D4B98420ED01C4B984281
:104D80000BD01C4B984208D01B4B984205D01B4BB4
:104D9000984202D01A4B984203D122F44072CB6859
:104DA0001A4322F080034C6943EA04028B68C36211
:104DB0000B6883620C4B98420BD00E4B984208D084
:104DC0000D4B984205D00D4B984202D00C4B9842A7
:104DD00001D10B690363036843F0040303600123FB
:104DE0004361026010BD0000002C0140000400403F
:104DF00000080040003401400040014000440140F0
:104E00000048014030B501F01F05012404FA05F304
:104E1000046A9C430462046A01F01F0502FA05F566
:104E20002C43046230BD000030B5026A056A25F0EB
:104E30000105056243688469214D2C4024F0030478
:104E40000D682C4322F002028D682A431D4DA842B2
:104E500000D10FE01C4DA84200D10BE01B4DA84231
:104E600000D107E01A4DA84200D103E0194DA84235
:104E700008D100BF056A25F00405056222F008028A
:104E8000CD682A430F4DA8420BD00F4DA84208D041
:104E90000E4DA84205D00E4DA84202D00D4DA8429D
:104EA00007D123F4807323F400734D692B438D697C
:104EB0002B43436084614D684563026230BD00004E
:104EC0008FFFFEFF002C01400034014000400140F4
:104ED000004401400048014030B5026A056A25F0EF
:104EE0001005056243688469234D2C4024F4407406
:104EF0000D6844EA052422F020028D6842EA05127A
:104F00001E4DA84200D10FE01D4DA84200D10BE07C
:104F10001C4DA84200D100BF1B4DA84200D100BFCC
:104F20001A4DA84209D108E0056A25F0400505623E
:104F300022F08002CD6842EA0512104DA8420BD043
:104F40000F4DA84208D00F4DA84205D00E4DA842E3
:104F500002D00E4DA84209D123F4806323F40063EC
:104F60004D6943EA85038D6943EA850343608461A3
:104F70004D688563026230BDFF8FFFFE002C01404B
:104F8000003401400040014000440140004801401D
:104F900030B5026A056A25F4807505624368C46904
:104FA000234D2C4024F003040D682C4322F400729E
:104FB0008D6842EA05221F4DA84200D10FE01E4D28
:104FC000A84200D10BE01D4DA84200D100BF1C4DEE
:104FD000A84200D100BF1B4DA84209D108E0056AD4
:104FE00025F48065056222F40062CD6842EA05225C
:104FF000104DA8420BD0104DA84208D00F4DA8422A
:1050000005D00F4DA84202D00E4DA84209D123F47D
:10501000805323F400534D6943EA05138D6943EA35
:1050200005134360C4614D68C563026230BD000072
:105030008FFFFEFF002C0140003401400040014082
:10504000004401400048014030B5026A056A25F479
:10505000805505624368C469234D2C4024F4407494
:105060000D6844EA052422F400528D6842EA0532B4
:105070001E4DA84200D10FE01D4DA84200D10BE00B
:105080001C4DA84200D100BF1B4DA84200D100BF5B
:105090001A4DA84209D108E0056A25F48045056249
:1050A00022F40042CD6842EA0532104DA8420BD0EE
:1050B0000F4DA84208D00F4DA84205D00E4DA84272
:1050C00002D00E4DA84209D123F4804323F40043BB
:1050D0004D6943EA85138D6943EA85134360C461D2
:1050E0004D680564026230BDFF8FFFFE002C014059
:1050F00000340140004001400044014000480140AC
:1051000030B5026A056A25F4803505624368046D8E
:10511000114D2C400D682C4322F400320D8942EAD7
:1051200005420E4DA8420BD00D4DA84208D00D4DA2
:10513000A84205D00C4DA84202D00C4DA84204D183
:1051400023F480334D6943EA0523436004654D68C9
:105150008564026230BD00008FFFFEFF002C01401D
:10516000003401400040014000440140004801403B
:1051700030B5026A056A25F4801505624368046D3E
:10518000114D2C400D6844EA052422F400120D89CB
:1051900042EA05520D4DA8420BD00D4DA84208D051
:1051A0000C4DA84205D00C4DA84202D00B4DA84290
:1051B00004D123F480234D6943EA852343600465C9
:1051C0004D68C564026230BDFF8FFFFE002C0140B8
:1051D00000340140004001400044014000480140CB
:1051E00070B50C461546026A066A26F0010606628C
:1051F000214EB04200D10FE0204EB04200D10BE072
:105200001F4EB04200D107E01E4EB04200D103E075
:105210001D4EB04204D100BF066A26F004060662A5
:105220008169154EB0420ED0B0F1804F0BD0174EB1
:10523000B04208D0164EB04205D0104EB04202D057
:105240000F4EB04201D1012600E000261EB121F030
:105250000301294301E041F0010121F0F001F026B2
:1052600006EA0316314322F00A0204F00A0632432A
:105270008161026270BD0000002C014000340140D9
:10528000004001400044014000480140000400404B
:105290000008004070B50C461546026A066A26F002
:1052A00010060662164EB04200D10FE0154EB04215
:1052B00000D10BE0144EB04200D100BF134EB042FB
:1052C00000D100BF124EB04204D103E0066A26F0BE
:1052D00040060662816921F4407141EA052121F40A
:1052E00070414FF4704606EA0336314322F0A002C3
:1052F000A02606EA041632438161026270BD0000F6
:10530000002C0140003401400040014000440140B5
:105310000048014070B50C461546026A066A26F43C
:1053200080760662154EB04200D10FE0144EB042B6
:1053300000D10BE0134EB04200D100BF124EB0427C
:1053400000D100BF114EB04204D103E0066A26F43A
:1053500080660662C16921F00301294321F0F00152
:10536000F02606EA0316314322F420624FF4206649
:1053700006EA04263243C161026270BD002C01407E
:105380000034014000400140004401400048014019
:1053900070B50C461546026A066A26F48056066207
:1053A000164EB04200D10FE0154EB04200D10BE0D6
:1053B000144EB04200D100BF134EB04200D100BF26
:1053C000124EB04204D103E0066A26F4804606621B
:1053D000C16921F4407141EA052121F470414FF483
:1053E000704606EA0336314322F420424FF4204649
:1053F00006EA04363243C161026270BD002C0140EE
:105400000034014000400140004401400048014098
:1054100070B5456E2DB90125A0F86A50A0F8685006
:105420001CE0082308240568AD68C5F342610568DF
:10543000AD686A0F0A4DAD5C15FB04F5094EB65C0C
:1054400095FBF6F5A0F86A50054D6D5C15FB03F56C
:10545000044E765C95FBF6F5A0F8685070BD000030
:105460008C6B0008946B000890F8281001F008017C
:10547000082907D10168496821F40041826B114372
:105480000268516090F8281001F0010139B10168FB
:10549000496821F40031C26A11430268516090F8F2
:1054A000281001F00201022907D10168496821F49E
:1054B0008031026B11430268516090F8281001F0AE
:1054C0000401042907D10168496821F48021426B55
:1054D00011430268516090F8281001F01001102962
:1054E00007D10168896821F48051C26B11430268B9
:1054F000916090F8281001F02001202907D101685F
:10550000896821F40051026C11430268916090F89F
:10551000281001F04001402913D10168496821F4A5
:105520008011426C114302685160416CB1F5801FDB
:1055300007D10168496821F4C001826C11430268F7
:10554000516090F8281001F08001802907D101688E
:10555000496821F40021C26C114302685160704710
:1055600038B504460020C4F89000FCF793FA0546CD
:105570002068006800F00800082821D16FF07E4004
:105580002B4600224FF400110090204600F0AEFBA5
:10559000B0B100BF00BF216851E8001F21F08000BA
:1055A000226842E800010029F5D100BF2020C4F89C
:1055B000880000BF002084F8840000BF032038BDAD
:1055C0002068006800F00400042830D16FF07E40AD
:1055D0002B4600224FF480010090204600F086FB0D
:1055E00028B300BF00BF216851E8001F21F490706C
:1055F000226842E800010029F5D100BF00BF00BFCA
:105600002168083151E8001F21F0010021680831AC
:1056100041E80002002AF3D100BF2020C4F88C002A
:1056200000BF002084F8840000BF0320C7E72020CB
:10563000C4F88800C4F88C000020E066206700BF32
:1056400084F8840000BF00BFB9E770B50446A56ABE
:105650002846FEF76CF870BD2DE9F0410546AC6AAE
:10566000D4F88860D4F88C702068806800F08000DE
:10567000802804D1212E02D1204600F0F1F82068C4
:10568000806800F04000402804D1222F02D120463B
:1056900000F098F8D4F8900040F01000C4F89000A2
:1056A0002046FEF744F8BDE8F08170B50546AC6AC7
:1056B0002868006800F02000E0BB0020A4F85E002D
:1056C00000BF00BF216851E8001F21F480702268EC
:1056D00042E800010029F5D100BF00BF00BF2168EA
:1056E000083151E8001F21F001002168083141E82C
:1056F0000002002AF3D100BF00BF00BF21680831BB
:1057000051E8001F21F040002168083141E8000203
:10571000002AF3D100BF2020C4F88C00E06E0128DD
:105720000ED100BF00BF216851E8001F21F010001A
:10573000226800E004E042E800010029F3D100BF44
:1057400000202067E06E012815D10020A4F85E003B
:105750002868406886B2B4F85C00B04201DDA4F865
:105760005E60B4F85C00B4F85E20801A81B2204616
:10577000FDF766FF02E02046FEF76EFA70BD70B5D9
:105780000546AC6A01202067E06E012816D134F886
:105790005C0F400860802868406886B234F85C0975
:1057A000B04201DBA4F85E60B4F85C00B4F85E209F
:1057B000801A81B22046FDF743FF02E02046FEF743
:1057C0004CFA70BD00BF00BF026852E8002F22F4FF
:1057D0009071036843E80012002AF5D100BF00BFB2
:1057E00000BF0268083252E8002F104B02EA0301A2
:1057F0000268083242E80013002BF2D100BFC16EEC
:1058000001290CD100BF00BF026852E8002F22F02E
:105810001001036843E80012002AF5D100BF2021DF
:10582000C0F88C100021C16641677047FEFFFFEF92
:1058300010B5044600BF00BF216851E8001F21F0E9
:105840004000226842E800010029F5D100BF202075
:10585000C4F888000020A0672046FEF769FA10BD52
:1058600000BF00BF026852E8002F22F0C0010368A9
:1058700043E80012002AF5D100BF00BF00BF026854
:10588000083252E8002F22F400010268083242E890
:105890000013002BF3D100BF2021C0F888107047FF
:1058A0002DE9FE4F044600200290D449206888422A
:1058B00000D100E000BF2169A06808436169084386
:1058C000E16940EA010820680068CD49084040EAE3
:1058D0000800216808602068406820F44050E168B2
:1058E000084321684860D4F81880C4492068884279
:1058F00002D0206A40EA080820688068C149084050
:1059000040EA0800216888602068C06A20F00F0023
:10591000616A08432168C86200BFBB4920688842A9
:1059200016D1BA48006800F0030030B1012808D051
:10593000022804D0032808D105E0012507E002254C
:1059400005E0042503E0082501E0102500BF6FE015
:10595000AF492068884216D1AC48006800F00C00BE
:1059600030B1042808D0082804D00C2808D105E05C
:10597000002507E0022505E0042503E0082501E0F5
:10598000102500BF54E0A3492068884216D19F48E3
:10599000006800F0300030B1102808D0202804D072
:1059A000302808D105E0002507E0022505E00425A0
:1059B00003E0082501E0102500BF39E09649206882
:1059C000884216D19148006800F0C00030B14028EC
:1059D00008D0802804D0C02808D105E0002507E0C1
:1059E000022505E0042503E0082501E0102500BF9D
:1059F0001EE082492068884219D18448006800F47A
:105A0000406048B1B0F5806F0AD0B0F5006F05D0A6
:105A1000B0F5406F08D105E0002507E0022505E05C
:105A2000042503E0082501E0102500BF00E0102553
:105A300000BF72492068884259D135B1022D08D083
:105A4000042D08D0082D0DD109E0FCF75FFC0646B7
:105A50000CE0724E0AE0FCF77DFC064606E04FF4CF
:105A6000004603E000260120029000BF00BF002E88
:105A700010D06B49606A31F81000B6FBF0F960682D
:105A800000EB4000484503D860680003484502D257
:105A900001200290A6E06249606A31F810C06246B7
:105AA000002330461946FAF7B5FB4FF4807C0022FC
:105AB000A0FB0C3B01FB0CB100FB0211606840082D
:105AC00018185141CDE90001D4F804C06246002302
:105AD000FAF7A0FB0746B7F5407F05D3B7F5801F5F
