:020000040800F2
:1000000090110020ED01000869210008B51B0008CF
:100010006521000821030008292E000800000000C7
:10002000000000000000000000000000FD240008A7
:100030001104000800000000992100083125000883
:10004000070200080702000807020008070200086C
:10005000070200080702000807020008070200085C
:10006000070200080702000807020008250300082D
:10007000350300080702000807020008070200080D
:10008000070200080000000007020008070200083D
:10009000070200080702000807020008070200081C
:1000A000070200080702000807020008070200080C
:1000B00007020008070200080702000807020008FC
:1000C00007020008070200080702000807020008EC
:1000D00007020008192E000807020008070200089E
:1000E00007020008070200080702000807020008CC
:1000F00007020008070200080702000800000000CD
:1001000000000000070200080000000007020008CD
:1001100007020008000000000702000807020008AC
:10012000070200080702000807020008070200088B
:10013000070200080000000000000000070200089D
:10014000070200080702000800000000000000008D
:10015000000000000000000000000000000000009F
:10016000000000000000000000000000070200087E
:10017000070200080000000000000000000000006E
:10018000000000000702000800000000000000005E
:10019000000000000000000000000000000000005F
:1001A000000000000000000007020008070200082D
:1001B000070200080702000807020008000000000C
:1001C000000000000702000800000000000000001E
:1001D0000702000807020008DFF80CD000F08EF8D4
:1001E00000480047F52E000890110020064880477F
:1001F00006480047FEE7FEE7FEE7FEE7FEE7FEE70C
:10020000FEE7FEE7FEE7FEE7A1250008D9010008AA
:100210002DE9F05F0546002092469B46884606463B
:10022000814640241BE0284641464746224600F0CE
:1002300055F853465A46C01A914110D311461846F4
:10024000224600F03CF82D1A67EB01084F46224683
:100250000120002100F033F817EB00094E41201E69
:10026000A4F10104DFDC484631462A464346BDE896
:10027000F09FD2B201E000F8012B491EFBD270477B
:100280000022F6E710B513460A4604461946FFF762
:10029000F0FF204610BD421C10F8011B0029FBD1C5
:1002A000801A704730B504460020034600E05B1C0E
:1002B000934203D2E05CCD5C401BF8D030BD202AD5
:1002C00004DB203A00FA02F1002070479140C2F1AD
:1002D000200320FA03F3194390407047202A04DBDF
:1002E000203A21FA02F00021704721FA02F3D040AF
:1002F000C2F120029140084319467047064C074D51
:1003000006E0E06840F0010394E8070098471034E5
:10031000AC42F6D3FFF764FFFC4100081C42000822
:10032000FEE7000080B540F21400C2F2000000F0C9
:10033000F1F880BD80B540F27400C2F2000000F018
:10034000E9F880BD80B501686FF007024CF6CD4337
:1003500052FA81F2CCF6CC43A2FB032340F2084EC2
:10036000D0F844C00622C4F2020E02EB131271450B
:100370000EF5836138BF1A0938BF0EF57E712CF077
:10038000030303EB010C02F01F0201210EF58F6342
:100390009140C0E912C3016580BD0000416840F68C
:1003A000001201F07F010139C4F2020202EB810365
:1003B00002F1400C01F01F01012202FA01F1C0E933
:1003C000153CC1657047000070B5D0E913C4D0F882
:1003D00054E0CCF80440BEF1000F1CBFD0E916C4B5
:1003E000CCF80440D0E9106E0468D0F808C00EF0D4
:1003F0001F00012505FA00F0706008466360BCF13B
:10040000100F04BF10460A46A060E26070BD0000F5
:1004100070470000EFF3108072B600BFFEE70000E7
:10042000002804BF0120704780B590F825100229EC
:1004300024D10168D0E910CE826C0B6823F001034F
:100440000B600B6823F00E030B60116821F48071C0
:1004500011600EF01F01012202FA01F1CCF8041024
:10046000D0E913215160416D31B10A6822F48072E4
:100470000A60D0E916124A60002102E00421C1633B
:100480000121012280F82520002280F82420BDE8E7
:10049000804008467047000080B590F8251002297A
:1004A0002DD10168D0E910CE826C0B6823F00103D6
:1004B0000B600B6823F00E030B60116821F4807150
:1004C00011600EF01F02012101FA02F2CCF80420A3
:1004D000D0E913325A60426D32B1136823F480734D
:1004E0001360D0E91623536080F82510826B002139
:1004F00080F824100AB190470021084680BD0421ED
:10050000C1630121002280F8251080F824200846CC
:1005100080BD0000B0B50268D0E910C4DCF800501E
:10052000136804F01F0E590712D5042101FA0EF4C6
:1005300014EA05010CD01168890603D4116821F072
:1005400004011160CCF80440016BB9B38847B0BD19
:10055000990718D5022101FA0EF414EA050112D008
:100560001168890606D4116821F00A011160012181
:1005700080F82510CCF80440C16A002280F82420BD
:10058000E1B18847B0BD190758BFB0BD082101FAD5
:100590000EF1294012D0116821F00E0111600121E5
:1005A00001FA0EF2CCF80420C16380F82510416BEB
:1005B0000022002980F8242018BF8847B0BD000021
:1005C000002804BF012070472DE9F04140F2000CE3
:1005D0000446C4F2020C00684FF6F8330CF5816251
:1005E000CBF6FD73904238BF03F5806300EB030246
:1005F0004CF6CD43CCF6CC43A2FB032304F1080E0A
:100600000CF580616FF003059EE804413CBF0021BA
:10061000C4F2020105EA9303C4E91013022184F82D
:100620002510016847F6F073994304F1140711434C
:10063000E8CF41EA080141EA0E0119432943314359
:10064000394301602046FFF77DFEA06804F14803AE
:10065000B0F5804F04BF0020606060680ECB00F0F2
:100660007F07013803280F60536009D82046FFF741
:1006700095FE04F1540207CA002303604A6003E0B8
:100680000020C4E91500E06500200121E06384F842
:10069000251084F82400BDE8F081000010B5044660
:1006A00090F82400012820D0012084F8240094F838
:1006B0002500012816D1022084F825000020E063DF
:1006C000D4F800C0DCF8000020F00100CCF80000F5
:1006D0002046FFF779FE2068226B01683AB141F0AD
:1006E0000E010AE0002084F82400022010BD21F051
:1006F00004010160016841F00A010160A16C0A680F
:10070000D20303D50A6842F480720A60616D19B1A0
:100710000A6842F480720A60016841F001010160D8
:10072000002010BDB0B5044600F0E8F8054640F2E0
:100730000800C2F200000068611C18BF044400BF3A
:1007400000F0DCF8401BA042FAD3B0BD2DE9F04F19
:1007500083B00D68002D00F0C88000F138424FEAE8
:10076000B22241F200470192C4F600070622002699
:1007700000244FF00108B84208BF0522009209E0AA
:100780000D68043435FA08F208F1010806F1020692
:1007900000F0AB80A8F1010C012202FA0CFB15EA73
:1007A0000B09EDD0D1F804A00AF00305A5F1010E64
:1007B000BEF1010F11D887680322CB68B24027EA47
:1007C0000202B3401A4382604268CAF3001322EA6D
:1007D0000B0203FA0CF31A434260032D02D18A681C
:1007E000012A08D0C26803238F68B3409A4307FAEE
:1007F00006F31A43C260022D11D16FF0030202EA20
:100800005C02024404F01C070F23D2F820E003FA34
:1008100007F50B692EEA0505BB402B4313620268FE
:1008200003234F68B3409A4307F00303B3401A43CE
:1008300017F4403F0260A3D041F26003C4F2020308
:100840001A6840F2004E42F001021A601A68C4F2BF
:10085000010E02F001020292029A2CF003024FF6FE
:10086000084A7244CFF6FF7A52F80A3004F00C07B7
:100870000F25BD4023EA050C019B009D052B38BFC9
:100880001D4605FA07F747EA0C0342F80A30DEF87E
:1008900008204B6842EA090740F20C4CDD0258BFC1
:1008A00022EA0907CEF80870C4F2010CDCF8002037
:1008B0009D0242EA090758BF22EA0907CCF80070F6
:1008C000DEF804209D0342EA090758BF22EA09071F
:1008D000CEF80470DEF80020DB0342EA090758BFB7
:1008E00022EA0907CEF800704AE703B0BDE8F08FAE
:1008F0001823002A08BF2823C150704740F28C10EB
:10090000C2F200000068704740F2080040F28C110B
:10091000C2F20000C2F2000100680A6810440860D8
:100920007047000080B5032000F068F80F2000F049
:1009300009F800281CBF012080BD00F02FF800201E
:1009400080BD0000B0B540F20801C2F200010968A4
:1009500001B3044640F20400C2F200004FF47A7280
:100960000068B2FBF1F1B0FBF1F000F0B9FD0F2C23
:100970004FF001050CD858B94FF0FF302146002246
:10098000002500F02BF840F20C00C2F200000460D9
:100990002846B0BD01252846B0BD000080B582B014
:1009A00041F25800C4F20200816841F00101816007
:1009B000816801F0010101910199016841F08051C4
:1009C0000160006800F080500090009800F08CF802
:1009D00002B080BD80B502F029FA80BD70B5144622
:1009E0000D46064602F032FA2946224601F0BEFBC9
:1009F0000146304602F032FA70BD000080B502F0C8
:100A00003FFA80BDA8B347F20001C4F200010A68B2
:100A1000B0F5007F61D1D1F8800002F4C06240F4EB
:100A20008070B2F5806FC1F8800020D10868012283
:100A300062F34A20086040F20400C2F2000000683D
:100A4000322358434DF68363C4F21B33A0FB0303E8
:100A500002EB93404B69421E824203D213F4806042
:100A60001046F7D14869400544BF03207047002075
:100A7000704747F20000C4F200000168D0F88020FF
:100A800001F4C06122F48072B1F5806FC0F880205B
:100A9000EDD10168012262F34A21016040F20401B4
:100AA000C2F200010968322359434DF68363C4F250
:100AB0001B33A1FB031302EB934100BF43694A1EA2
:100AC0008A4203D213F480611146F7D14069400590
:100AD00044BF0320704700207047022060F34A2281
:100AE0000A6000207047000047F20800C4F20000CE
:100AF000016841F480410160704700002DE9F04336
:100B000081B00446807841F288070007C4F20207EA
:100B100002D44FF000096FE057F8300CC0000ED43B
:100B200057F8300C4FF0010840F0805047F8300C77
:100B300057F8300C00F080500090009801E04FF022
:100B4000000847F20006C4F20006306840F48070E6
:100B50003060FFF7D3FE05463068C0050AD4FFF7C2
:100B6000CDFE401B0328F7D34FF00309B9F1000F66
:100B700039D104E04FF00009B9F1000F33D1B86862
:100B800010F4407011D0216C88420BD0B868B9685D
:100B900020F4407041F48031B960B96821F48031AB
:100BA000B960B860C00703D112E00020C0070FD0C1
:100BB000FFF7A4FE064641F2893500BFB8688007FA
:100BC00006D4FFF79BFE801BA842F7D34FF0030922
:100BD000B9F1000F07D1B868216C20F440700843C8
:100BE0004FF00009B860B8F1000F05D057F8300C8D
:100BF00020F0805047F8300C2068C10712D18107DF
:100C000018D441071ED4010724D481062AD44106F2
:100C100030D4010636D4C1053CD4810542D4410507
:100C200048D456E03968626821F003011143396005
:100C30008107E6D53968A26821F00C0111433960BB
:100C40004107E0D53968E26821F03001114339608D
:100C50000107DAD53968226921F0C00111433960F2
:100C60008106D4D53968626921F440611143396045
:100C70004106CED53968A26921F44051114339604B
:100C80000106C8D53968E26921F440411143396051
:100C9000C105C2D53968226A21F440311143396057
:100CA0008105BCD53968626A21F44021114339605D
:100CB00041050ED53968A26A21F440111143B2F5FD
:100CC000801F396005D157F87C1C41F4801147F82A
:100CD0007C1C01050ED53968E26A21F440011143FC
:100CE000B2F5800F396005D157F87C1C41F48011B2
:100CF00047F87C1CC1040ED53968226B21F0407185
:100D00001143B2F1807F396005D157F87C1C41F462
:100D1000801147F87C1C81040ED53968626B21F084
:100D200040611143B2F1006F396005D157F87C1C66
:100D300041F4801147F87C1C41040ED53968A26B40
:100D400021F040611143B2F1006F396005D157F8CD
:100D50007C1C41F4801147F87C1C00040ED53868D7
:100D6000E16B20F040500843B1F1805F386005D15D
:100D700057F87C0C40F4803047F87C0C484601B0B2
:100D8000BDE8F0832DE9F047002800F0C88042F26A
:100D9000000AC4F2020A0446DAF800000D4600F028
:100DA0000F0088420DD2DAF8000020F00F0028432F
:100DB000CAF80000DAF8000000F00F00A84240F086
:100DC000AE80207841F20808C007C4F202080CD1B6
:100DD0004FF000092068810728D4B9F1800F3ED177
:100DE000D8F8000020F0F00037E06168032940F0F7
:100DF0008A8058F8080C800140F1918001F0CEF90A
:100E00004BF20041C0F2C44188420CD9D8F800002E
:100E100010F0F00F00F08F802078800703D5A068D5
:100E2000002800F088804FF000098DE0410705D5CB
:100E3000D8F8001041F4E061C8F80010000706D5AA
:100E4000D8F80000072161F30D20C8F80000D8F899
:100E50000000A16820F0F0000843C8F80000DAF8AC
:100E6000000000F00F00A8421AD9DAF8000020F0C4
:100E70000F002843CAF80000FFF740FD064641F284
:100E8000883700BFDAF8000000F00F00A84207D052
:100E9000FFF734FD801BB842F4D90320BDE8F0878A
:100EA0002068410707D5D8F80010E26821F4E06116
:100EB0001143C8F80010000708D5D8F800002169D0
:100EC00020F4605040EAC100C8F8000000F08AF841
:100ED000D8F8001042F6D872C1F30311C0F6000230
:100EE000515C40F2040201F01F0120FA01F140F2CE
:100EF0000C00C2F200000068C2F200021160FFF7AD
:100F000021FDBDE8F08758F8080C022905D18003BF
:100F10005CBF0120BDE8F08704E0400502D4012059
:100F2000BDE8F08700F05EF84BF20041C0F2C4412A
:100F300088427FF678AFD8F80000082161F30710E7
:100F40004FF08009C8F80000D8F80000616820F070
:100F500003000843C8F80000FFF7D0FC064641F242
:100F6000883700BFD8F80000616800F00C00B0EBD3
:100F7000810F3FF42FAFFFF7C1FC801BB842F1D9BE
:100F80000320BDE8F087000040F20400C2F2000038
:100F90000068704780B5FFF7F7FF41F20801C4F21F
:100FA0000201096842F6E872C1F30221C0F60002AC
:100FB000515C01F01F01C84080BD000080B5FFF703
:100FC000E3FF41F20801C4F20201096842F6E87247
:100FD000C1F3C221C0F60002515C01F01F01C840FC
:100FE00080BD000041F20C01C4F2020151F8040C72
:100FF00042F20042C0F2F40200F00C000428104655
:1010000008BF704751F8040C00F00C00082843F2A8
:101010000060C0F26E1021D051F8043C03F00C03C4
:101020000C2B1CBF00207047D1F800C00B680CF0DF
:10103000030CC3F30313BCF1030F08BF0246086897
:101040000133B2FBF3F2C0F3062009685043C1F349
:101050004161022202EB4101B0FBF1F07047000058
:101060002DE9F04182B0002800F0EB8004460078C2
:1010700041F20006C007C4F2020654D1207880076E
:1010800071D42078000700F195802078400700F1A6
:10109000B3802078800600F1D880E569002D00F04B
:1010A0001A82B06800F00C000C2840F03B81012D42
:1010B00000F0C780F068216A00F003028A4240F025
:1010C000C080626A6FF00F0300F0F00103EB0212C0
:1010D000914240F0B680A16A00F4FE42B2EB012FCB
:1010E00040F0AF80E16A00F07842B2EBC16F40F0AF
:1010F000A880226B0023CFF6E07303EA025200F4CB
:10110000C001A2F50012914240F09B80616B4FF04C
:101110007E4202EA016100F0C06001F17E41884236
:1011200040F08F80D7E1B06800F00C01F06808292A
:1011300059D0032281F00C0122EA00000844B0FAE1
:1011400080F040094FD16568B5F5803F07D0306821
:10115000B5F5A02F40F0108140F480203060306859
:1011600040F480300EE1B068F16800F00C00042813
:1011700051D001F0030180F00C0081F0020108441D
:10118000B0FA80F0400946D1E1683068002900F0EB
:10119000B68040F480703060FFF7B0FB054600BFBA
:1011A0003068400500F1E080FFF7A8FB401B0228F3
:1011B000F6D932E16169D6F89400002900F08C80FC
:1011C00040F00100C6F89400FFF798FB054600BF09
:1011D000D6F8940080073FF558AFFFF78FFB401B10
:1011E0000228F5D919E1306880037FF547AF6068C0
:1011F00000287FF443AF24E0B06DC00041D4B06D4F
:101200004FF0010840F08050B065B06D00F08050A4
:101210000190019837E03068400501D5E06880B161
:101220007068216920F0FE4040EA0160706040F281
:101230000C00C2F200000068FFF784FB00283FF4B6
:1012400020AF012002B0BDE8F081A169D6F8980076
:10125000002900F0B38040F00100C6F89800FFF7C5
:101260004DFB0546D6F8980080073FF516AFFFF70F
:1012700045FB401B02284FF00300F3D902B0BDE844
:10128000F0814FF0000847F20007C4F20007386809
:10129000C00510D4386840F480703860FFF72EFB2A
:1012A000054600BF3868C00505D4FFF727FB401B83
:1012B0000228F7D9B1E0A568012D08D0D6F8900032
:1012C000052D40F0908040F00400C6F89000D6F85C
:1012D000900040F001008EE020F00100C6F894007C
:1012E000FFF70CFB054600BFD6F8940080077FF59A
:1012F000CCAEFFF703FB401B0228F5D98DE020F4AC
:1013000080703060FFF7FAFA054600BF306840058C
:101310007FF5B7AEFFF7F2FA401B02284FF003004B
:10132000F4D9ABE7306820F080703060FFF7E6FA60
:10133000022D05460CD100BF3068800140F1878046
:10134000FFF7DCFA401B02284FF00300F4D995E7C1
:101350003068800140F1B880FFF7D0FA401B0228C6
:101360004FF00300F4D989E77068216920F0FE404E
:1013700040EA0160706084E620F4803030603068BC
:1013800020F480203060FFF7B9FA002D054611D017
:10139000306880033FF572AEFFF7B0FA401B642857
:1013A000F6D93AE0FFF7AAFA401B64284FF0030091
:1013B0003FF664AF30688003F4D45FE620F00100AC
:1013C000C6F89800FFF79AFA054600BFD6F89800CD
:1013D00080077FF562AEFFF791FA401B02284FF0BD
:1013E0000300F3D94AE720F00100C6F89000D6F8D0
:1013F000900020F00400C6F89000FFF77FFA002D5F
:10140000054641F2883715D0D6F89000800715D4EC
:10141000FFF774FA401BB842F6D9032002B0BDE8CA
:10142000F08100BFFFF76AFA401BB8424FF003009B
:101430003FF624AFD6F890008007F3D4B8F1000F40
:101440003FF427AEB06D20F08050B06521E6F06823
:1014500048F20C01C0F29F1104F1200700EA010CD0
:101460008ECF6FF00F00D4E90C5400EB0210002275
:10147000CFF6E07241EA0C0102EA05520843A2F5F8
:1014800000124FF07E4540EA032005EA0465104350
:1014900005F17E4540EAC7602843F060306840F0BF
:1014A00080703060F06840F08070F060FFF726FADE
:1014B0000446306880010ED4FFF720FA001B022892
:1014C0004FF00300F5D9D9E6F0684FF6FC71CFF67E
:1014D000EE610840F060002002B0BDE8F08100003D
:1014E00080B501F00DF880BD90F88410012904BF8B
:1014F000022070472421C0F8881002681168136820
:1015000023F00103136021F00053002141661360B2
:101510002022C0F8882080F8841008467047000018
:1015200010B50446D0F88C0020281CBF022010BD46
:1015300000294FF0010018BF002A1BD00120E066EF
:1015400000202067204601F0B3FB002818BF10BD23
:10155000E16E01291CBF012010BD216810220A6222
:10156000216851E8001F226841F0100142E8001391
:10157000002BF5D110BD000080B5006843F60002D5
:10158000C4F20102904218BF80BD40F26A10C2F25C
:1015900000000122027040F26810C2F200000180D7
:1015A00040F2D40040F26C11C2F20000C2F200011D
:1015B0001E22FFF7B5FF80BD70470000B0B504469E
:1015C00090F88400012804BF0220B0BD012084F8F7
:1015D00084002420C4F8880020680568026822F08E
:1015E00001020260826822F060621143816020463D
:1015F00000F0E0FF206805602020C4F8880000208B
:1016000084F88400B0BD0000B0B5044690F88400B2
:10161000012804BF0220B0BD012084F884002420EA
:10162000C4F8880020680568026822F001020260A0
:10163000826822F0604211438160204600F0BAFFC8
:10164000206805602020C4F88800002084F8840009
:10165000B0BD0000704700007047000070470000F8
:1016600070B503680446D96940F62F001E68D3F8A8
:1016700008E0084020280CD106F020000EF080522F
:10168000801806D0616F002900F0AE8020468847A0
:1016900070BD40F60F00084000F08E800120C1F2BE
:1016A00000000EEA000C40F22010C0F20040304072
:1016B00010EB0C0000F08080C80718BF16F4807093
:1016C00007D001201862D4F8900040F00100C4F85F
:1016D000900088070EF0010208D53AB10220186286
:1016E000D4F8900040F00400C4F89000480708D5F2
:1016F0003AB104201862D4F8900040F00200C4F817
:10170000900008070CD506F0200050EA0C0007D026
:1017100008201862D4F8900040F00800C4F8900047
:1017200008050BD516F0806008D04FF400601862F1
:10173000D4F8900040F02000C4F89000D4F8900055
:10174000002851D011F020001EBF06F020000EF03E
:10175000805110EB010040F0FE802068D4F890101A
:10176000806801F0280100F04000401800F0EC8093
:10177000204601F0E1F820688068400640F1C98009
:10178000206850E8020F216820F0400041E8020282
:10179000002AF5D1D4F88000002800F0BA8042F287
:1017A000B171C0F600018163FEF776FEE0B1D4F8B6
:1017B0008000816B884770BDE06E06EA0102D506A5
:1017C0003FD501283DD1102018629868400644D4C6
:1017D000B4F85C00B4F85E10B4F85E20002A1CBFB8
:1017E000401A5FEA004101D170BD00BF216851E895
:1017F000001F226821F4907142E80013002BF5D1FC
:101800004FF6FE71CEF6FF71226852E8022F236870
:101810000A4043E80226002EF6D12021C4F88C109D
:101820000021E166616700BF216851E8001F22685E
:1018300021F0100142E80013002BF5D102212167AD
:1018400055E0C80258D51EF4800055D04FF48010E2
:1018500018622046FFF700FF70BDD4F880000068D2
:1018600041688AB2002A58D0B4F85C309A4254D207
:10187000A4F85E100068800632D400BF206850E8EB
:10188000000F216820F4807041E80002002AF5D1A1
:10189000206850E8020F216820F0010041E80202B0
:1018A000002AF5D1206850E8020F216820F040009E
:1018B00041E80202002AF5D12020C4F88C00002063
:1018C000E06600BF206850E8000F216820F010009B
:1018D00041E80002002AF5D1D4F88000FEF7A0FD0F
:1018E00002202067B4F85C00B4F85E10401A81B2A0
:1018F0002046FFF741FE70BD08061AD506F08000AD
:101900000EF40003C01814D0A16F00297FF4BEAEFE
:101910006AE72046FFF7A2FE70BDB4F85C10914262
:101920007FF462AF006880067FF55EAF022020671B
:10193000DEE7500616D4080218D516F0804015D000
:101940002046FFF787FE70BD2046FFF787FE002088
:10195000C4F8900070BD616F00293FF4FEAE2046D0
:101960008847FAE6204601F015F870BDC8017FF5FA
:101970003BAFB6F1FF3FC8BF70BD2046FFF71CFE6E
:1019800070BD000010B5D8B10446D0F8880028B961
:10199000002084F88400204600F026F82420C4F8B3
:1019A00088002068A16A026822F00102026011B179
:1019B000204600F029FE204601F018F8012801D148
:1019C000012010BD2068416821F490414160816888
:1019D00021F02A018160016841F001010160204687
:1019E00000F086FE10BD00002DE9F04798B00446D7
:1019F000002502A844211795CDE91555CDE91355C9
:101A0000FEF73EFC206843F60001C4F20101884263
:101A100002D018B0BDE8F0874FF0010902A8CDE967
:101A20000295FFF76BF8002818BFFEF7F3FC41F2B0
:101A30004C00C4F20200416913AD41F480414161A0
:101A4000416940F2080801F480410191019901685F
:101A50004FF0020A41F0010101600068002600F029
:101A60000100019001984FF40070139007274FF088
:101A700090402946C4F20208CDF850A0CDE915697E
:101A80001797FEF763FE4FF48060CDE9130A4FF01D
:101A900090402946CDE915991797FEF757FE40F279
:101AA0001405C2F2000518208027C5E900802846E9
:101AB000C5E90266C5E90476C5E906662E62FEF749
:101AC0007FFD002818BFFEF7A5FCC4F88050AC626B
:101AD00040F2740508F11400C2F200051921102229
:101AE00085E8C7002846C5E90566C5E90766FEF72B
:101AF00067FD002818BFFEF78DFC2520022100227B
:101B0000E567AC62FEF76AFF2520FEF763FF18B0B9
:101B1000BDE8F087704700007047000010B504462C
:101B2000D0F8880020281CBF022010BD61B31346E6
:101B300052B3216500212120A4F85430A4F8563076
:101B4000C4F89010C4F88800E06FF8B142F6E902DA
:101B5000C0F60002C262226842F62D1C42F2BD7E2F
:101B60008163216DC0F6000CC0F6000E2832C0F86B
:101B700030C0C0F834E0FEF791FD38B11020C4F851
:101B800090002020C4F88800012010BD206840216A
:101B9000016200BF206850E8020F216840F0800019
:101BA00041E80202002AF5D1002010BD7047000074
:101BB00070470000FEE7000080B586B00020059069
:101BC000CDE902004FF6FF7001900320049040F62B
:101BD0000000C4F6000001A9FEF7B8FD06B080BD04
:101BE00080B586B00020059003904FF6FF700190FD
:101BF000012002900320049040F60000C4F600008B
:101C000001A9FEF7A3FD06B080BD0000B0B50446F3
:101C10000020002100F020F900F060F94FF4963523
:101C2000204600F031F9013DFAD1B0BD2DE9F04177
:101C300086B0002541F24C000595CDE90355CDE96C
:101C40000155C4F202000168182641F00401016048
:101C50000168C4F6000601F00401009100990168D2
:101C600001AC41F00101016001684FF0010801F091
:101C70000101009100990168032741F00201016010
:101C80000068214600F00200009000984FF4487070
:101C9000019006F57A70CDF80880CDE90357FEF77C
:101CA00055FD4FF48070CDE901084FF0904021467A
:101CB000CDE90357FEF74AFDFFF792FF306840F485
:101CC00080703060D6F8000440F40870C6F8000454
:101CD00006B0BDE8F081000080B5203AD3B25B00C9
:101CE00053FA82F242F6F073C0F6000303EB0212DD
:101CF00000F01AF880BD0000F0B581B00A788AB112
:101D000004464D1C002740F23F1600BFB1B2D2B2CC
:101D10002046FFF7E1FF122F04D8EA5D103E01379D
:101D2000002AF3D101B0F0BD2DE9F04714468846F2
:101D3000814600F091F840F2000A40F210060027B8
:101D4000C2F2000AC2F2000600F0C8F8002500BF87
:101D500034F81700E840C007304608BF50460088F6
:101D600000F092F80135102DF2D109F101095FFA66
:101D700089F0414600F070F80137182F08BFBDE820
:101D8000F087E1E710B5FFF751FF002000F014F8ED
:101D900040F21204C2F200042080208848F2302170
:101DA000884202D100F01EFA01E000F0A7FA0020FC
:101DB00000F002F8208010BDB0B540F21844C4F61F
:101DC0000004216941F400712161216941F48071AD
:101DD0002161216841F02001216040F61401C4F620
:101DE00000010860206940F02000206100BF00BFB2
:101DF00000BF206840F020002060206840F4807020
:101E00002060FFF7D9FE4FF61040CFF6FF70215843
:101E100041F48071215000BF00BF4FF6004000BF69
:101E2000CFF6FF70D4F8F853215841F48071215057
:101E3000FFF7D6FE206840F40071A8B22160B0BD63
:101E400081B0ADF80200BDF8020040F20001C2F21C
:101E50000001088001B0704710B50C4601462020F3
:101E600000F066F82120214600F062F810BD000065
:101E700081B0ADF80200BDF8020040F21001C2F2DC
:101E80000001088001B0704740F21841C4F600011B
:101E90000A6942F400720A610A6842F480720A60B8
:101EA0000A6842F020020A60C1F8FC03086940F0A9
:101EB0002000086100BF00BF00BF086840F020009C
:101EC0000860086840F48070086000BF00BF00BF71
:101ED000086840F4007008607047000040F2184045
:101EE000C4F60000016941F400710161016941F427
:101EF00080710161016841F0200101602221C0F878
:101F0000FC13016941F02001016100BF00BF00BF67
:101F1000016841F020010160016841F480710160B5
:101F200000BF00BF00BF016841F40071016070474D
:101F300040F21842C4F60002136943F400731361BF
:101F4000136943F480731361136843F02003136033
:101F5000C2F8FC03106940F02000106100BF00BF10
:101F600000BF106840F020001060106840F48070DE
:101F70001060C2F8FC13106940F02000106100BF2F
:101F800000BF00BF106840F020001060106840F4EF
:101F9000807010607047000080B582B041F2480048
:101FA000C4F202000168002241F0040101600168EE
:101FB00001F0040101910199016841F00101016002
:101FC0000068012100F00100009000980B20FEF74E
:101FD00005FD0B20FEF7FEFC0C2001210022FEF780
:101FE000FDFC0C20FEF7F6FC02B080BD2DE9F043AD
:101FF00087B0002741F24C000697CDE90477CDE980
:102000000277C4F20200016840F6000841F00401C2
:1020100001600168C4F6000801F004010191019912
:102020000168012241F02001016001684FF47F4600
:1020300001F02001019101990168012541F00101A0
:102040000160016801F0010101910199016841F00D
:1020500002010160016801F002010191019901682A
:1020600041F00801016000684FF47F4100F0080072
:10207000019001984046FEF73BFC08F5806420463D
:10208000042101224FF00409FEF732FCCDE902657C
:1020900002AE40463146CDE90477FEF757FB4FF0DC
:1020A00090403146CDE902570495FEF74FFB0720DB
:1020B000CDE90207A8F5806031460495FEF746FB9E
:1020C00020463146CDE90295CDE90477FEF73EFB87
:1020D00007B0BDE8F083000080B540F2D40043F6BD
:1020E0000001C2F20000C4F201014FF416520023B5
:1020F0004FF00C0C80E80E003021C0E90333C0E93A
:1021000005C3C361C0E9083381624FF480514FF4C5
:102110000052C0E90F12FFF735FC002818BFFEF788
:1021200079F940F2D400C2F200000021FFF76CFA06
:10213000002818BFFEF76EF940F2D400C2F200008A
:102140000021FFF73BFA002818BFFEF763F940F2C1
:10215000D400C2F20000FFF7C7F9002818BFFEF74D
:1021600059F980BDFEE70000FEE7000000F007001F
:1021700080F00703042B28BF04234FF0FF3C0338F3
:102180000CFA03F338BF0020994381400CFA00F0A9
:1021900022EA0000084370477047000041F20C003B
:1021A000C4F202000168026842F2004301F0030138
:1021B000C0F2F403C2F30312032904BF43F2006325
:1021C000C0F26E1301680132B3FBF2F2C1F30621D3
:1021D00000685143C0F34160022202EB4000B1FBB2
:1021E000F0F0704780B500200121FFF7A1FE01202B
:1021F0000021FFF79DFE102041F29071FFF798FE3D
:1022000060204FF41C51FFF793FE61200121FFF77E
:102210008FFE46200221FFF78BFE132048F21001AB
:10222000FFF786FE122048F2FE01FFF781FE022032
:102230004FF4A061FFF77CFE032041F23001FFF76D
:1022400077FE302040F20331FFF772FE312040F27A
:102250000331FFF76DFE322040F20331FFF768FED5
:1022600033204FF44071FFF763FE34200321FFF762
:102270005FFE352040F20331FFF75AFE362014216D
:10228000FFF756FE372040F20331FFF751FE3820AA
:1022900040F20331FFF74CFE392040F20331FFF7E3
:1022A00047FE3A204FF44071FFF742FE3B200321E6
:1022B000FFF73EFE3C2040F20331FFF739FE3D20A0
:1022C0004FF4A051FFF734FE92204FF40071FFF756
:1022D0002FFE932040F20331FFF72AFE902040F6B4
:1022E0000D01FFF725FE032041F21801FFF720FE44
:1022F000072040F27311FFF71BFE80BD80B5E3207D
:1023000043F20801FFF714FEE7201221FFF710FE49
:10231000EF2041F23121FFF70BFE01200021FFF7F2
:1023200007FE02204FF4E061FFF702FE032041F2B6
:102330003001FFF7FDFD04200021FFF7F9FD082023
:1023400040F20721FFF7F4FD09200021FFF7F0FD1F
:102350000A200021FFF7ECFD0C200021FFF7E8FD2B
:102360000D200021FFF7E4FD0F200021FFF7E0FD25
:1023700010200021FFF7DCFD11200721FFF7D8FD19
:1023800012200021FFF7D4FD13200021FFF7D0FD1C
:10239000C820FEF7C7F9102041F29061FFF7C8FD91
:1023A000112040F22721FFF7C3FD3220FEF7BAF9D2
:1023B00012201D21FFF7BCFD3220FEF7B3F91320D8
:1023C0004FF40061FFF7B4FD29201421FFF7B0FDA1
:1023D0002B200B21FFF7ACFD3220FEF7A3F92020C4
:1023E0000021FFF7A5FD21200021FFF7A1FD3020EE
:1023F0000721FFF79DFD312040F20771FFF798FD9F
:1024000032200621FFF794FD352040F20471FFF7DA
:102410008FFD362041F60471FFF78AFD3720042135
:10242000FFF786FD38200021FFF782FD392040F2BA
:102430000671FFF77DFD3C2040F20171FFF778FD4A
:102440003D200F21FFF774FD50200021FFF770FDA4
:102450005120EF21FFF76CFD52200021FFF768FDAE
:10246000532040F23F11FFF763FD60204FF41C51F1
:10247000FFF75EFD61200121FFF75AFD6A20002170
:10248000FFF756FD80200021FFF752FD812000213B
:10249000FFF74EFD82200021FFF74AFD8320002137
:1024A000FFF746FD84200021FFF742FD8520002133
:1024B000FFF73EFD90201021FFF73AFD922000210A
:1024C000FFF736FD93200321FFF732FD95204FF4EF
:1024D0008871FFF72DFD97200021FFF729FD982037
:1024E0000021FFF725FD032041F21801FFF720FD31
:1024F000072040F27311FFF71BFD80BD70470000FD
:10250000B0B501380024B4EB106F1CBF0120B0BD82
:102510004EF21005CEF2000568604FF0FF300F213B
:1025200000F09CFC0720AC6028602046B0BD000095
:1025300080B5FEF7E9F980BD70B594B006AC2046D1
:102540003821FDF79DFE00254FF400700595CDE97B
:102550000355CDE90155FEF755FA012006904FF4D9
:10256000803007900220032614210D90CDE90E66DD
:10257000CDE91010CDE912002046FEF771FD68B9D3
:102580000F20CDE9010601A80221CDE903550595EB
:10259000FEF7F8FB002804BF14B070BDFDF73AFF4A
:1025A0004EF68850CEF20000016841F470010160DF
:1025B0007047000080B5416E01B3016844F2D81C39
:1025C0008A68C0F6000CC2F34262896844F2E01ED9
:1025D000490F1CF80130C0F6000E1EF80110DB0098
:1025E000B3FBF1F31CF802101EF80220C900B1FB86
:1025F000F2F1A0F86A30A0F8681080BD0121A0F8BF
:102600006A10A0F8681080BD80B5816A0A070CD4F2
:10261000CA0715D18A071ED44A0727D4CA0630D460
:102620008A0639D44A0657D541E00268D0F838C046
:10263000536823F4004343EA0C035360CA07E9D00C
:102640000268D0F82CC0536823F4003343EA0C032B
:1026500053608A07E0D50268D0F830C0536823F48D
:10266000803343EA0C0353604A07D7D50268D0F899
:1026700034C0536823F4802343EA0C035360CA0632
:10268000CED50268D0F83CC0936823F4805343EA67
:102690000C0393608A06C5D50268D0F840C09368E1
:1026A00023F4005343EA0C0393604A0614D50268EE
:1026B000D0F844C05368BCF5801F23F4801343EA6C
:1026C0000C03536008D1D2F804C0D0F848E02CF4D1
:1026D000C00343EA0E035360090658BF80BD01687A
:1026E000C06C4A6822F400221043486080BD00009C
:1026F000B0B582B004460020C4F89000FEF7FEF8A2
:1027000021680546096809071BD56FF07E4C2046F5
:102710004FF4001100222B46CDF800C000F01AFB48
:1027200078B100BF206850E8000F216820F08000D9
:1027300041E80002002AF5D12020C4F888000320D7
:1027400031E020680068400725D56FF07E4C2046B8
:102750004FF4800100222B46CDF800C000F0FAFAB9
:10276000C8B100BF206850E8000F216820F49070C5
:1027700041E80002002AF5D1206850E8020F2168E4
:1027800020F0010041E80202002AF5D12020C4F81F
:102790008C00032007E02020C4F88800C4F88C00D7
:1027A0000020E0662067002184F8841002B0B0BDEC
:1027B00080B5806AFEF752FF80BD0000B0B5846A24
:1027C0002068D4F88810D4F88C508068212905D16D
:1027D00010F0800002D0204600F0F0F82068222D92
:1027E000806805D110F0400002D0204600F0A4F827
:1027F000D4F8900040F01000C4F890002046FEF796
:102800002DFFB0BD80B502688446806A12689206CA
:1028100030D40022A0F85E20026852E8002F03683E
:1028200022F4807243E800210029F5D1016851E8C3
:10283000021F026821F0010142E80213002BF5D1CA
:10284000016851E8021F026821F0400142E80213CA
:10285000002BF5D12021C0F88C10C16E012909D1BF
:10286000016851E8001F026821F0100142E80013DE
:10287000002BF5D100220267C16E012912D1A0F808
:102880005E20DCF800104A68B0F85C1093B28B420E
:1028900038BFA0F85E20B0F85E20891A89B2FEF732
:1028A0006BFE80BDFFF736F980BD000080B50146A4
:1028B000806A01220267C26E012A12D1B0F85C2040
:1028C0005308A0F85E30096849688BB2934298BFFC
:1028D000A0F85E10B0F85E10511A89B2FEF74CFEF7
:1028E00080BDFFF719F980BD80B50168806A09686D
:1028F000890618D40021A0F8561000BF016851E8DD
:10290000021F026821F0800142E80213002BF5D17A
:10291000016851E8001F026841F0400142E80013DD
:10292000002BF5D180BDFFF741F980BD80B5806AED
:10293000FFF73EF980BD0000016851E8001F026802
:1029400021F4907142E80013002BF5D14FF6FE7C84
:10295000CEF6FF7C026852E8022F036802EA0C02FE
:1029600043E802210029F5D1C16E01290AD100BF37
:10297000016851E8001F026821F0100142E80013CD
:10298000002BF5D12021C0F88C100021C1664167D1
:102990007047000080B500BF016851E8001F026861
:1029A00021F0400142E80013002BF5D12021C0F8AE
:1029B000881000218167FFF7F9F880BD016851E8B0
:1029C000001F026821F0C00142E80013002BF5D17E
:1029D000016851E8021F026821F4000142E8021375
:1029E000002BF5D12021C0F888107047F0B581B0D8
:1029F00004462269D4E90213006867690A43E16961
:102A00003A43076846F6F316CCF6FF760A4337409A
:102A10003A43026042684FF2FF4622F440521A43A2
:102A2000426048F20002A369C4F2000290421CBF57
:102A3000276A3B438768C1F2FF1637403B438360F8
:102A4000C36A676A23F00F033B43C36244F6FF3354
:102A5000C4F2000398424FF0100314DD44F600471F
:102A6000C4F20007B84221D0904226D043F60007B6
:102A7000C4F20107B84232D141F28803C4F2020322
:102A80001B6887A727E044F20047C4F20007B8425A
:102A90001AD044F60007C4F20007B8421FD141F231
:102AA0008803C4F202031B681B0913E041F2880388
:102AB000C4F202031B689B090CE041F28803C4F2D4
:102AC00002031B689B0A05E041F28803C4F202037B
:102AD0001B689B086EA703F0030357F8233090424E
:102AE00042F20040C0F2F40011D0B1F5004F1DD108
:102AF000082B00F26F800025DFE803F00568766C94
:102B00006F6C6C6C73000025FEF744FA6CE0082BC8
:102B10001BD80027DFE803F0051920191D19191922
:102B200051000027FEF736FAB8B94BE0082B00F247
:102B300081800025DFE803F0057A887E817E7E7E35
:102B400085000025FEF726FA7EE00020012720B947
:102B500038E00027FEF746FAA0B3616A44F2C012DB
:102B6000C0F6000232F811206668B0FBF2F106EB05
:102B7000460399424FF00105C0F08080330399422B
:102B80007CD800210023FDF743FB090241EA1061D4
:102B9000000210EB560041F1000132460023FDF720
:102BA00037FB4FF6FF42A0F54071C0F20F02914291
:102BB0000AD821683D46C86060E04FF40040002715
:102BC0000028CAD13D4659E0012557E00025FEF70F
:102BD000F5F909E00020012506E00025FEF702FADC
:102BE00002E04FF400400025002847D0616A44F21B
:102BF000C012C0F6000232F811106268B0FBF1F0AA
:102C0000510801EB4000B0FBF2F04FF6EF72A0F17B
:102C10001001914208D84FF6F0710140C0F3420014
:102C200022680844D06029E0012527E00025FEF74E
:102C3000C5F909E00020012506E00025FEF7D2F9DC
:102C400002E04FF400400025C0B1616A44F2C012B6
:102C5000C0F6000232F811106268B0FBF1F000EB30
:102C60005200B0FBF2F04FF6EF72A0F1100191426A
:102C700003D8216880B2C86000E001254FF0011040
:102C80000021A06661672846A16701B0F0BD00BFC2
:102C90000000000004000000020000000800000026
:102CA0000100000004000000020000000800000015
:102CB00010B5816500210446A0F85C20C0F8901092
:102CC0002220C4F88C00D4F8800000B3134642F6EA
:102CD0000502C0F600028163216842F6AD0C42F2A3
:102CE000BD7EC262A26DC0F6000CC0F6000E24319B
:102CF000C0F830C0C0F834E0FDF7D0FC38B1102087
:102D0000C4F890002020C4F88C00012010BD206978
:102D100050B100BF206850E8000F216840F4807077
:102D200041E80002002AF5D1206850E8020F21682E
:102D300040F0010041E80202002AF5D1206850E885
:102D4000020F216840F0400041E80202002AF5D15C
:102D5000002010BD2DE9F04381B004460068C06931
:102D60000840401AB0FA80F0400990423DD1DDF8A9
:102D7000208015460E46994608F1010709E000BF7C
:102D80002068C0693040801BB0FA80F04009A8423A
:102D90002FD1002FF4D0FDF7B1FD0146B8F1000F9F
:102DA0004FF0030026D0A1EB0901414522D820684D
:102DB00001684907E4D5402EE2D0802EE0D0C169F9
:102DC00009071AD4C1690905DAD54FF40061016217
:102DD0002046FFF7B1FD2020C4F89000002084F8C1
:102DE0008400032001B0BDE8F083002001B0BDE8FD
:102DF000F083002001B0BDE8F0830825056220467D
:102E0000FFF79AFD0020C4F8905084F88400012058
:102E100001B0BDE8F083000080B540F2D400C2F2FA
:102E20000000FEF71DFC80BDFEE70000002848BF43
:102E3000704700F01F01012202FA01F14EF2001268
:102E40004009CEF2000242F8201070474EF60C50B6
:102E5000CEF200000068C0F3022070474EF6145313
:102E600000F00F02CEF2000309011A4400F16043A2
:102E7000B0F1FF3FC8BF03F5644211707047000016
:102E80004EF60C51CEF200010A684FF6FF031A40CD
:102E900060F30A2242F0806040F0FD7008607047E5
:102EA000B0B586B040F61404C4F6000400202568CE
:102EB000ADF81600CDF812004FF02030019042F22C
:102EC0006300C2F22000029044F62070C6F6721031
:102ED00003906E20ADF8100001A93020FEF70CFF22
:102EE000A8B2206006B0B0BD80B5FFF7D9FF00F0F2
:102EF00027F880BDFDF716FDFFF71EFBFEF742FF2A
:102F00000020FEF783FE4FF6FF70FEF7B1FF0020B2
:102F1000FEF796FFFFF76AF8FFF73EF8FFF7DCF8D9
:102F200040F2D40040F26C11C2F20000C2F2000183
:102F30006422FEF7F5FA00BFFFF7D6FFFCE70000BA
:102F4000B0B540F26A15C2F200052878002808BF23
:102F5000B0BD40F26C14C2F200040FA1204606225C
:102F6000FDF7A0F944F2F41144F2E812C0F60001B2
:102F7000C0F60002002808BF1146084600F010F80D
:102F80000020287040F26810C2F20000018820463C
:102F9000FDF776F9B0BD00BF4F72696F6E0000009B
:102FA00010B50446FDF777F982B240F2D400C2F2C0
:102FB00000002146FEF7B2FD10BD02E008C8121F56
:102FC00008C1002AFAD170477047002001E001C112
:102FD000121F002AFBD17047000000000000000013
:102FE00001020304060708090000000001020304AF
:102FF00000000000000000000000000000000000D1
:1030000000000000000000000000000000000000C0
:1030100000000000000000000000000000000000B0
:103020000000800180018001800180018001800119
:10303000800180018001800180018001000000008A
:10304000800180010000000000000000000000007E
:1030500000000000CC00CC00CC00CC00CC00CC00A8
:103060000000000000000000000000000000000060
:103070000000000000000000000000000000000050
:10308000000000000000000000000000600C600C68
:10309000600C30063006FE1FFE1F3006380718038E
:1030A000FE1FFE1F180318038C018C018C01000009
:1030B00000008000E003F80F9C0E8C1C8C188C0024
:1030C0009800F801E007800E801C8C188C189C1862
:1030D000B80CF00FE003800080000000000000004A
:1030E0000000000000000E181B0C110C1106110648
:1030F000110311039B018E01C038C06C6044604411
:10310000304430441844186C0C38000000000000B3
:103110000000E001F0033807180618063003F0013C
:10312000F000F8009C310E33061E061C061C063FFC
:10313000FC73F0210000000000000000000000000F
:10314000000000000C000C000C000C000C000C0037
:10315000000000000000000000000000000000006F
:10316000000000000000000000000000000000005F
:103170000000000200038001C000C0006000600089
:1031800030003000300030003000300030003000BF
:1031900060006000C000C000800100030002000069
:1031A000000020006000C0008001800100030003D7
:1031B00000060006000600060006000600060006DF
:1031C0000003000380018001C000600020000000B7
:1031D000000000000000000000000000C000C0006F
:1031E000D806F807E00130033807000000000000AF
:1031F00000000000000000000000000000000000CF
:1032000000000000000000000000000080018001BC
:10321000800180018001FC3FFC3F80018001800132
:10322000800180010000000000000000000000009C
:10323000000000000000000000000000000000008E
:10324000000000000000000000000000000000007E
:1032500000008001800100010001800000000000EA
:10326000000000000000000000000000000000005E
:103270000000000000000000E007E0070000000080
:10328000000000000000000000000000000000003E
:10329000000000000000000000000000000000002E
:1032A000000000000000000000000000000000001E
:1032B0000000C000C000000000000000000000008E
:1032C0000000000C000C00060006000600030003CE
:1032D00000038003800180018001C000C000C000A5
:1032E000600060000000000000000000000000001E
:1032F0000000E003F007380E180C0C180C180C181E
:103300000C180C180C180C180C180C18180C380E7B
:10331000F007E003000000000000000000000000D3
:10332000000000018001C001F001980188018001C6
:103330008001800180018001800180018001800185
:10334000800180010000000000000000000000007B
:103350000000E003F80F180C0C180C1800180018E7
:10336000000C000600038001C0006000300018005F
:10337000FC1FFC1F00000000000000000000000017
:103380000000E001F807180E0C0C0C0C000C0006F5
:10339000C003C007000C001800180C180C18180CFB
:1033A000F807E0030000000000000000000000003B
:1033B0000000000C000E000F000F800DC00C600C10
:1033C000600C300C180C0C0CFC3FFC3F000C000C8B
:1033D000000C000C000000000000000000000000D5
:1033E0000000F80FF80F180018000C00EC03FC07A1
:1033F0001C0E001C0018001800180C181C0C180ECD
:10340000F807E003000000000000000000000000DA
:103410000000C007F00F381C181818000C00CC036F
:10342000EC0F3C0E1C1C0C180C180C18181C380E39
:10343000F007E003000000000000000000000000B2
:103440000000FC1FFC1F000C0006000600038003A8
:103450008001C001C000E00060006000700030002A
:1034600030003000000000000000000000000000FC
:103470000000E003F007380E180C180C180C380682
:10348000F007F007180C0C180C180C180C18380C56
:10349000F80FE00300000000000000000000000042
:1034A0000000E003F007380E1C0C0C180C180C1868
:1034B0001C1C381EF81BE0190018000C000C1C0E18
:1034C000F807F0010000000000000000000000000C
:1034D00000000000000000000000000080018001EA
:1034E00000000000000000000000000000000000DC
:1034F00080018001000000000000000000000000CA
:1035000000000000000000000000000080018001B9
:1035100000000000000000000000000000000000AB
:103520008001800100010001800000000000000017
:10353000000000000000000000000000000000008B
:103540000010001C800FE003F8001800F800E003F2
:10355000800F001C001000000000000000000000B0
:10356000000000000000000000000000000000005B
:10357000F81F000000000000F81F0000000000001D
:10358000000000000000000000000000000000003B
:10359000000000000000000000000000000000002B
:1035A00008003800F001C007001F0018001FC00706
:1035B000F0013800080000000000000000000000DA
:1035C0000000E003F80F180C0C180C180018000C81
:1035D000000600038001C000C000C0000000000021
:1035E000C000C0000000000000000000000000005B
:1035F00000000000E00718180420C229224A1144E4
:1036000009440944094409221113E20C0240042030
:103610001818E00700000000000000000000000093
:10362000000080038003C006C006C006600C600C6A
:10363000301830183018F83FF83F1C700C600C60E0
:1036400006C006C0000000000000000000000000EE
:103650000000FC03FC0F0C0C0C180C180C180C0CC4
:10366000FC07FC0F0C180C300C300C300C300C1814
:10367000FC1FFC070000000000000000000000002C
:103680000000C007F01F38381C300C7006600600C0
:103690000600060006000600060006600C701C30DE
:1036A000F01FE00700000000000000000000000024
:1036B0000000FE03FE0F060E061806180630063040
:1036C0000630063006300630063006180618060E9C
:1036D000FE0FFE03000000000000000000000000DC
:1036E0000000FC3FFC3F0C000C000C000C000C0028
:1036F000FC1FFC1F0C000C000C000C000C000C004C
:10370000FC3FFC3F00000000000000000000000043
:103710000000F83FF83F18001800180018001800C3
:10372000F81FF81F180018001800180018001800DB
:103730001800180000000000000000000000000059
:103740000000E00FF83F3C780E6006E007C0030081
:10375000030003FE03FE03C007C006C00EC03CF01A
:10376000F83FE00F00000000000000000000000033
:1037700000000C300C300C300C300C300C300C30A5
:10378000FC3FFC3F0C300C300C300C300C300C305B
:103790000C300C30000000000000000000000000B1
:1037A0000000800180018001800180018001800192
:1037B0008001800180018001800180018001800101
:1037C00080018001000000000000000000000000F7
:1037D00000000006000600060006000600060006BF
:1037E0000006000600060006000618061806380740
:1037F000F003E001000000000000000000000000F5
:10380000000006300618060C060606038601C600F0
:1038100066007600DE008E0106030606060C06181A
:1038200006300660000000000000000000000000FC
:1038300000001800180018001800180018001800E0
:1038400018001800180018001800180018001800B8
:10385000F81FF81F0000000000000000000000003A
:1038600000000EE01EF01EF01EF036D836D836D816
:1038700036D866CC66CC66CCC6C6C6C6C6C6C6C674
:1038800086C386C3000000000000000000000000A6
:1038900000000C301C303C303C306C306C30CC3094
:1038A000CC308C310C330C330C360C360C3C0C3CCD
:1038B0000C380C3000000000000000000000000088
:1038C0000000E007F81F1C380E70066003C003C03C
:1038D00003C003C003C003C003C006600E701C38E1
:1038E000F81FE007000000000000000000000000DA
:1038F0000000FC0FFC1F0C380C300C300C300C306E
:103900000C18FC1FFC070C000C000C000C000C0039
:103910000C000C000000000000000000000000008F
:103920000000E007F81F1C380E70066003E003C0BB
:1039300003C003C003C003C007E006630E3F1C3C86
:10394000F83FE0F700C000000000000000000000A9
:103950000000FE0FFE1F063806300630063006381F
:10396000FE1FFE0706030606060C0618061806309C
:1039700006300660000000000000000000000000AB
:103980000000E003F80F1C0C0C180C180C001C00B5
:10399000F803E00F001E0038063006300E301C1C05
:1039A000F80FE00700000000000000000000000029
:1039B0000000FE7FFE7F8001800180018001800188
:1039C00080018001800180018001800180018001EF
:1039D00080018001000000000000000000000000E5
:1039E00000000C300C300C300C300C300C300C3033
:1039F0000C300C300C300C300C300C300C301818F3
:103A0000F81FE007000000000000000000000000B8
:103A1000000003600630063006300C180C180C1835
:103A2000180C180C380E300630067007600360035F
:103A3000C001C00100000000000000000000000004
:103A400000000360C361C361C361663366336633DC
:103A50006633663366336C1B6C1B6C1B2C1A3C1E66
:103A6000380E380E000000000000000000000000CA
:103A700000000FE00C7018303018700C600EC0079A
:103A800080038003C003E006700C301C18180C3053
:103A90000E6007E0000000000000000000000000D1
:103AA000000003C006600C301C383818300C60066B
:103AB000E007C00380018001800180018001800156
:103AC00080018001000000000000000000000000F4
:103AD0000000FC7FFC7F006000300018000C000636
:103AE00000038001C0006000300018000C000600D8
:103AF000FE7FFE7F000000000000000000000000CC
:103B00000000E003E003600060006000600060000F
:103B100060006000600060006000600060006000A5
:103B200060006000600060006000E003E0030000EF
:103B3000000030003000600060006000C000C00085
:103B4000C000C00180018001800100030003000368
:103B50000006000600000000000000000000000059
:103B60000000E003E0030003000300030003000380
:103B7000000300030003000300030003000300032D
:103B800000030003000300030003E003E003000060
:103B900000000000C001C001600360036003300644
:103BA0003006180C180C0000000000000000000097
:103BB0000000000000000000000000000000000005
:103BC00000000000000000000000000000000000F5
:103BD00000000000000000000000000000000000E5
:103BE0000000FFFFFFFF00000000000000000000D9
:103BF00000000C000C000C000C000C000C0000007D
:103C000000000000000000000000000000000000B4
:103C100000000000000000000000000000000000A4
:103C2000000000000000000000000000F003F807A2
:103C30001C0C0C0C000FF00FF80C0C0C0C0C1C0FD7
:103C4000F80FF01800000000000000000000000065
:103C5000000018001800180018001800D803F80F0A
:103C6000380C181818181818181818181818380CAC
:103C7000F80FD80300000000000000000000000062
:103C8000000000000000000000000000C003F0077A
:103C9000300E180C1800180018001800180C300E00
:103CA000F007C0030000000000000000000000005A
:103CB000000000180018001800180018C01BF01FA2
:103CC000301C181818181818181818181818301C3C
:103CD000F01FC01B000000000000000000000000FA
:103CE000000000000000000000000000C003F00F12
:103CF000300C1818F81FF81F180018003818301C5E
:103D0000F00FC007000000000000000000000000ED
:103D10000000800FC00FC000C000C000F007F00717
:103D2000C000C000C000C000C000C000C000C00093
:103D3000C000C00000000000000000000000000003
:103D4000000000000000000000000000E00DF80F7F
:103D5000180E0C0C0C0C0C0C0C0C0C0C0C0C180E87
:103D6000F80FE00D000C0C0C1C06F807F001000029
:103D7000000018001800180018001800D807F80FE5
:103D8000381C18181818181818181818181818188F
:103D900018181818000000000000000000000000C3
:103DA0000000C000C000000000000000C000C00013
:103DB000C000C000C000C000C000C000C000C00003
:103DC000C000C00000000000000000000000000073
:103DD0000000C000C000000000000000C000C000E3
:103DE000C000C000C000C000C000C000C000C000D3
:103DF000C000C000C000C000C000F8007800000093
:103E000000000C000C000C000C000C000C0C0C064C
:103E10000C038C01CC006C00FC009C018C030C0397
:103E20000C060C0C00000000000000000000000068
:103E30000000C000C000C000C000C000C000C00042
:103E4000C000C000C000C000C000C000C000C00072
:103E5000C000C000000000000000000000000000E2
:103E60000000000000000000000000007C3CFF7E1D
:103E7000C7E383C183C183C183C183C183C183C1BC
:103E800083C183C1000000000000000000000000AA
:103E90000000000000000000000000009807F80F7C
:103EA000381C18181818181818181818181818186E
:103EB00018181818000000000000000000000000A2
:103EC000000000000000000000000000C003F00F30
:103ED000300C181818181818181818181818300C4A
:103EE000F00FC00300000000000000000000000010
:103EF000000000000000000000000000D803F80FE0
:103F0000380C181818181818181818181818380C09
:103F1000F80FD80318001800180018001800000047
:103F2000000000000000000000000000C01BF01FA7
:103F3000301C181818181818181818181818301CC9
:103F4000F01FC01B0018001800180018001800000F
:103F5000000000000000000000000000B007F003B7
:103F60007000300030003000300030003000300091
:103F700030003000000000000000000000000000E1
:103F8000000000000000000000000000E003F0035B
:103F9000380E180C3800F003C007000C180C380E4F
:103FA000F007E00300000000000000000000000037
:103FB000000000008000C000C000C000F007F00753
:103FC000C000C000C000C000C000C000C000C000F1
:103FD000C007800700000000000000000000000093
:103FE0000000000000000000000000001818181871
:103FF0001818181818181818181818181818381C1D
:10400000F01FE019000000000000000000000000A8
:104010000000000000000000000000000C18180C58
:10402000180C180C3006300630066003600360037D
:10403000C001C001000000000000000000000000FE
:10404000000000000000000000000000C141C1416C
:10405000C3616363636363633636363636361C1C6E
:104060001C1C1C1C000000000000000000000000E0
:104070000000000000000000000000001C38381C98
:10408000300C600660036003600360036006300C60
:10409000381C1C3800000000000000000000000078
:1040A0000000000000000000000000001830301880
:1040B00030187018600C600CE00CC006C00680035D
:1040C0008003800380018001C001F00070000000C7
:1040D000000000000000000000000000FC1FFC1FAA
:1040E000000C000600038001C000600030001800D2
:1040F000FC1FFC1F0000000000000000000000008A
:10410000000000038001C000C000C000C000C0006B
:10411000C00060006000300060004000C000C000CF
:10412000C000C000C000C00080010003000000000B
:1041300000008001800180018001800180018001F8
:104140008001800180018001800180018001800167
:1041500080018001800180018001800180010000D8
:1041600000006000C000C00180018001800180016A
:1041700080010003000300060003000180018001AC
:104180008001800180018001C0006000000000000B
:10419000000000000000000000000000000000001F
:1041A000F010F81F080F00000000000000000000E1
:1041B00000000000000000000000000000000000FF
:1041C000010002000400060008000A000C001000B4
:1041D00020004000800000010101010307010000F0
:1041E000080402040801010162696768616E647372
:1041F0006F6D65006572726F7200000020420008EA
:104200000000002010000000BA2F00083042000813
:104210001000002080110000CA2F000800000000DC
:10422000FFFF00000024F400010000001000000067
:04000005080001D915
:00000001FF
