:020000040800F2
:1000000008120020ED010008695000089142000824
:10001000655000088D0900087165000800000000A7
:10002000000000000000000000000000B5550008BE
:10003000F10A000800000000D95000080D56000821
:10004000070200080702000807020008070200086C
:10005000070200080702000807020008070200085C
:1000600007020008070200080702000891090008BB
:10007000A10900080702000807020008070200089B
:10008000070200080000000007020008070200083D
:10009000070200080702000807020008070200081C
:1000A000070200080702000807020008070200080C
:1000B00007020008070200080702000807020008FC
:1000C00007020008070200080702000807020008EC
:1000D000070200086165000807020008070200081F
:1000E00007020008070200080702000807020008CC
:1000F00007020008070200080702000800000000CD
:1001000000000000070200080000000007020008CD
:1001100007020008000000000702000807020008AC
:10012000070200080702000807020008070200088B
:10013000070200080000000000000000070200089D
:10014000070200080702000800000000000000008D
:10015000000000000000000000000000000000009F
:10016000000000000000000000000000070200087E
:10017000070200080000000000000000000000006E
:10018000000000000702000800000000000000005E
:10019000000000000000000000000000000000005F
:1001A000000000000000000007020008070200082D
:1001B000070200080702000807020008000000000C
:1001C000000000000702000800000000000000001E
:1001D0000702000807020008DFF80CD000F0C8FA98
:1001E00000480047C56700080812002006488047FD
:1001F00006480047FEE7FEE7FEE7FEE7FEE7FEE70C
:10020000FEE7FEE7FEE7FEE78D560008D90100088D
:100210002DE9F05F0546002092469B46884606463B
:10022000814640241BE0284641464746224600F0CE
:100230005AF953465A46C01A914110D311461846EE
:10024000224600F041F92D1A67EB01084F4622467D
:100250000120002100F038F917EB00094E41201E63
:10026000A4F10104DFDC484631462A464346BDE896
:10027000F09FD2B201E000F8012B491EFBD270477B
:100280000022F6E710B513460A4604461946FFF762
:10029000F0FF204610BD421C10F8011B0029FBD1C5
:1002A000801A704710B5002200E0521C835C8C5C01
:1002B000A34201D1002BF8D1D8B2E1B2401A10BD4F
:1002C0002DE9FE4F81EA030404F0004421F00041CF
:1002D00000944FF0000B23F0004350EA01045ED07D
:1002E00052EA03045BD0C3F30A54C1F30A552C4409
:1002F000A4F2F3340194A0FB0254C1F3130141F4BE
:100300008011C3F3130343F4801301FB024400FB89
:10031000034E840A970A44EA815447EA8357A4FBB0
:10032000076802958D0A05FB07854FEA932C04FBAD
:100330000C542705029D4FEA065847EA1637B5EBDD
:1003400008056EEB070C870E920E47EA811742EA0A
:100350008312A7FB0201B6EB0B0164EB00042B0D2B
:1003600043EA0C335E1844EB1C50DA465146E7FB77
:100370000201C5F313044FEA0B3343EA14534FEA67
:100380000432019C43EA0603A4F10C040294009C8D
:10039000CDE900B400F0C6F803B0BDE8F08F00204E
:1003A0000146F9E72DE9F04D81EA030404F0004B22
:1003B00021F0004514464FF0000A23F0004150EAB6
:1003C000050220D054EA01021DD0C5F30A570246A7
:1003D000C5F31303C1F31300C1F30A5640F48015AB
:1003E00043F48013A7EB0608101BD64608F2FD382D
:1003F00073EB050002D308F1010801E092185B419C
:10040000B8F1000F03DA00200146BDE8F08D0020AE
:100410004FF48011064684460EE0171B73EB050768
:1004200005D3121B63EB050306434CEA010C490894
:100430004FEA300092185B4150EA0107EDD152EAD1
:10044000030012D082EA040083EA0501084305D0C4
:10045000101BAB4106D20122002306E000224FF020
:10046000004302E06FF0010253101AEB06004CEB60
:10047000085110EB0A0041EB0B01BDE8F04D00F014
:1004800042B80EB540F2334102910021CDE900118E
:100490000A460B4600F046F803B000BD30B50B46E7
:1004A000014600202022012409E021FA02F59D42A4
:1004B00005D303FA02F5491B04FA02F52844151E78
:1004C000A2F10102F1DC30BD202A04DB203A00FA5F
:1004D00002F1002070479140C2F1200320FA03F39B
:1004E000194390407047202A04DB203A21FA02F099
:1004F0000021704721FA02F3D040C2F1200291405E
:1005000008431946704710B5141E73F1000408DA49
:10051000401C41F1000192185B411A4301D120F0C7
:10052000010010BD2DE9F04D92469B4611B1B1FA84
:1005300081F202E0B0FA80F220329046FFF7C4FF69
:1005400004460F4640EA0A0041EA0B0153465A4668
:10055000084313D0114653EA010019D0C8F14002F4
:100560005046FFF7C0FF05460E46504659464246E4
:10057000FFF7AAFF084305D0012004E020463946D2
:10058000BDE8F08D0020054346EAE0762C43374372
:100590000A986305E40AA0EB08000022FD0A44EA79
:1005A00047540A3002D500200146E9E70105101939
:1005B0006941DDE9084500196941BDE8F04DA2E750
:1005C0002DE9FE4F804681EA0300C00F0C460090E3
:1005D00021F0004123F00045B8EB0200A94105D20B
:1005E0004046214690461C460B46024623F00040FA
:1005F000104347D0270DC7F30A00C3F30A510290F6
:10060000401A019040286BDAC3F3130040F4801BBA
:100610000098924620B10023D2EB030A63EB0B0B48
:1006200001985946C0F140025046FFF74DFF06467B
:100630000D4650465946019A00F0ACF810EB080000
:100640006141002487EA115284EAE7731A4340D0DB
:10065000009A62B3019A012A4FEA075215DC001B87
:1006600061EB02014FF0004202EA0752CDE900427D
:10067000001C41F5801132462B46FFF753FF03B0B3
:10068000BDE8F08F40462146F9E7001B61EB02010F
:10069000001C41F5801300185B412018A2F50017DB
:1006A00047EB030140EAD570B6196D4111E06D08C2
:1006B0004FEA360645EAC0754FEA0752001B61EB68
:1006C0000201001C41F5801149084FEA3000001971
:1006D000514132462B4603B0BDE8F04FFFF713BF40
:1006E0000098012240000023D0EB020263EBE0738C
:1006F000009821464FEAE074B8EB000061EB04017A
:10070000E9E783F000435BE781F0004158E7C1F37C
:100710000A52C1F3130140F2FF3341F480119A42AF
:1007200002DA00200146704740F233439A42A2F2B7
:10073000334202DC5242FFF7D6BEFFF7C5BE0000CF
:1007400030B5041E71F1000404DB4FF00044404258
:1007500064EB0101141E73F1000405DB1C464FF02D
:100760000043524263EB0403994208BF904230BDFC
:10077000064C074D06E0E06840F0010394E80700EE
:1007800098471034AC42F6D3FFF72AFD18840008CE
:1007900038840008202A06DBCB17203A41FA02F001
:1007A00043EAE07306E041FA02F3D040C2F12002CE
:1007B000914008431946704780B584B00290029872
:1007C000006804F0AFF900900298006804F0B2F9F4
:1007D00000284BD0FFE70098002847D1FFE7029898
:1007E0000068806800F00D00012809D1FFE7029839
:1007F000006804F027F902980168032008600DE002
:100800000299C86D40F01000C8650299086E40F06A
:100810000100086601208DF80F002BE001F072FD49
:100820000190FFE7029800688068C007E8B1FFE721
:1008300001F068FD0199401A032815D3FFE70298DB
:1008400000688068C00770B1FFE70299C86D40F08A
:100850001000C8650299086E40F00100086601208A
:100860008DF80F0006E0FFE7DCE7FFE700208DF8DA
:100870000F00FFE79DF80F0004B080BD80B584B085
:100880000290002000900298006804F053F90028BC
:1008900074D1FFE70298006880683F21C8F2000128
:1008A00008420ED0FFE70299C86D40F01000C865FD
:1008B0000299086E40F00100086601208DF80F00D3
:1008C00060E00298006804F0D7F840F20030C5F20A
:1008D000000004F0EFF8000200281CD5FFE740F20A
:1008E0000400C2F200000068800942F66351C0F2C1
:1008F0003E51A0FB0110800900EB40010C2000EBF1
:1009000081000090FFE7009820B1FFE700980138D0
:100910000090F8E7FFE701F0F5FC0190FFE702988F
:1009200000680068C00740BBFFE70298006804F059
:1009300001F928B9FFE70298006804F09DF8FFE785
:1009400001F0E0FC0199401A032815D3FFE7029853
:1009500000680068C00770B9FFE70299C86D40F0F1
:100960001000C8650299086E40F001000866012079
:100970008DF80F0006E0FFE7D1E7FFE700208DF8D4
:100980000F00FFE79DF80F0004B080BDFFE7FEE712
:1009900080B540F28C00C2F2000001F0CBF880BDBF
:1009A00080B540F2EC00C2F2000001F0C3F880BD57
:1009B00084B003900398006840F20741C4F202013A
:1009C000884211D8FFE740F60000C4F20200009010
:1009D0000398007808384CF6CD41CCF6CC41A0FB0A
:1009E00001100009019012E040F62000C4F202005C
:1009F00000900398007808384CF6CD41CCF6CC41F5
:100A0000A0FB0101062000EB11100190FFE7009808
:100A10000290029803994A6C22F003021044886401
:100A2000039940F68000C4F20200C864019800F007
:100A30001F01012088400399086504B07047000039
:100A400082B001900198406800F07F00009000990A
:100A500040F6FC00C4F2020000EB810001994865F9
:100A6000019940F64010C4F20200886500980138F0
:100A700000F01F01012088400199C86502B070474D
:100A800084B003900291019200930398C16C006DB1
:100A900048600398406D28B1FFE70398816DC06DF1
:100AA0004860FFE70398016C406C00F01F020120D2
:100AB00090404860009803990968486003988068EE
:100AC000102809D1FFE70198039909688860029806
:100AD00003990968C86008E002980399096888606A
:100AE000019803990968C860FFE704B070470000E7
:100AF0007047000082B0ADF806000020ADF8040099
:100B0000FFE7BDF80400BDF80610884219DAFFE7D8
:100B10000020ADF80200FFE7BDF8020040F6B73153
:100B2000884207DCFFE7FFE7BDF802000130ADF8BF
:100B30000200F1E7FFE7BDF804000130ADF8040062
:100B4000DFE702B07047000081B0EFF3108072B6AB
:100B50000090FFE7FEE7000080B586B004900391A7
:100B600000200190FFE7049890F85800012804D174
:100B7000FFE702208DF817005AE00499012081F860
:100B80005800FFE7FFE70498FFF716FE8DF80B000B
:100B90009DF80B00D8BBFFE70498C06D40F0020041
:100BA00020F488500499C86504980068039904F0FB
:100BB000BFF8FFE70498006803F0A4FFF0B1FFE777
:100BC00001980130019001984DF60261C0F20401D4
:100BD000884212D3FFE70498C06D40F0100020F067
:100BE00002000499C865FFE70499002081F85800C5
:100BF000FFE701208DF817001AE0DBE70498C06DCD
:100C000040F0010020F002000499C86505E0049955
:100C1000C86D40F01000C865FFE7FFE704990020A9
:100C200081F85800FFE79DF80B008DF81700FFE7EB
:100C30009DF8170006B080BD80B5C0B020901F9110
:100C400000208DF87B001B901F98C0680021C4F223
:100C50007F01884201D0FFE700E0FFE7FFE720982F
:100C600090F85800012804D1FFE702208DF8870092
:100C7000D2E32099012081F85800FFE7FFE7209890
:100C8000006803F067FF002840F0B283FFE7209878
:100C900000681F990A68496803F064FF209800689B
:100CA00003F058FF1A902098006803F023FF199072
:100CB0001A98002840F0B881FFE71998002840F002
:100CC000B381FFE71F988068B0F1004F0ED1FFE7B6
:100CD000209800681F990968002203F06FFF209890
:100CE00000684FF0004104F015F80CE0209800680F
:100CF0001F9A1168926803F061FF20980068002134
:100D000004F008F8FFE71F98406920990968C9684E
:100D100001F01801890888401D901F980069042877
:100D20001CD0FFE7209800681F990A6809691D9B7D
:100D300003F096FF209800681F9A1169926903F0EA
:100D4000C1FF209800681F9A1169127F013AB2FA18
:100D500082F25209520603F0A1FF64E12098006874
:100D6000002103F0B7FE400348B9FFE72098006870
:100D7000002103F0AFFEC0F38460189018E02098C3
:100D80000068002103F0A6FE90FAA0F03E903E9885
:100D900020B9FFE720208DF8FF0005E03E98B0FA6B
:100DA00080F08DF8FF00FFE79DF8FF001890FFE747
:100DB000189817901F980068400330B9FFE71F98F4
:100DC0000068C0F38460169015E01F98006890FAE0
:100DD000A0F03C903C9820B9FFE720208DF8F70068
:100DE00005E03C98B0FA80F08DF8F700FFE79DF839
:100DF000F7001690FFE717981699884207D1FFE78A
:100E0000209800680022114603F070FFFFE7209849
:100E10000068012103F05EFE400348B9FFE7209817
:100E20000068012103F056FEC0F38460159018E0BD
:100E300020980068012103F04DFE90FAA0F03A904E
:100E40003A9820B9FFE720208DF8EF0005E03A98A6
:100E5000B0FA80F08DF8EF00FFE79DF8EF001590F5
:100E6000FFE7159814901F980068400330B9FFE71A
:100E70001F980068C0F38460139015E01F98006805
:100E800090FAA0F03890389820B9FFE720208DF82C
:100E9000E70005E03898B0FA80F08DF8E700FFE74A
:100EA0009DF8E7001390FFE714981399884207D143
:100EB000FFE7209800680121002203F017FFFFE7F9
:100EC00020980068022103F005FE400348B9FFE7BF
:100ED00020980068022103F0FDFDC0F384601290A9
:100EE00018E020980068022103F0F4FD90FAA0F0C9
:100EF0003690369820B9FFE720208DF8DF0005E016
:100F00003698B0FA80F08DF8DF00FFE79DF8DF003B
:100F10001290FFE7129811901F980068400330B9B3
:100F2000FFE71F980068C0F38460109015E01F98D9
:100F3000006890FAA0F03490349820B9FFE72020A0
:100F40008DF8D70005E03498B0FA80F08DF8D7001E
:100F5000FFE79DF8D7001090FFE71198109988429D
:100F600007D1FFE7209800680221002203F0BEFEAF
:100F7000FFE720980068032103F0ACFD400348B967
:100F8000FFE720980068032103F0A4FDC0F384600C
:100F90000F9018E020980068032103F09BFD90FA61
:100FA000A0F03290329820B9FFE720208DF8CF00D2
:100FB00005E03298B0FA80F08DF8CF00FFE79DF899
:100FC000CF000F90FFE70F980E901F980068400326
:100FD00030B9FFE71F980068C0F384600D9015E0FA
:100FE0001F98006890FAA0F03090309820B9FFE781
:100FF00020208DF8C70005E03098B0FA80F08DF819
:10100000C700FFE79DF8C7000D90FFE70E980D9908
:10101000884207D1FFE7209800680321002203F0EF
:1010200065FEFFE7FFE7FFE72098006803F082FD19
:10103000002840F04481FFE7209800681F9A11685B
:10104000D26803F0D7FD1F98C0680021C4F27F0169
:10105000884240F03381FFE7209800680C901F9889
:101060000068400330B9FFE71F980068C0F3846050
:101070000B9015E01F98006890FAA0F02E902E9823
:1010800020B9FFE720208DF8BF0005E02E98B0FAC8
:1010900080F08DF8BF00FFE79DF8BF000B90FFE7E1
:1010A0000B98013000F01F0009287DD8FFE71F983A
:1010B0000068400330B9FFE71F980068C0F3846000
:1010C0000A9015E01F98006890FAA0F02C902C98D8
:1010D00020B9FFE720208DF8B70005E02C98B0FA82
:1010E00080F08DF8B700FFE79DF8B7000A90FFE7A2
:1010F0000A98013000F01F00800609901F980068D0
:10110000400330B9FFE71F980068C0F3846008907F
:1011100015E01F98006890FAA0F02A902A9820B94C
:10112000FFE720208DF8AF0005E02A98B0FA80F0A4
:101130008DF8AF00FFE79DF8AF000890FFE7099832
:101140000899013101F01F020121914008430790E5
:101150001F980068400330B9FFE71F980068C0F38C
:101160008460069015E01F98006890FAA0F028901F
:10117000289820B9FFE720208DF8A70005E02898DF
:10118000B0FA80F08DF8A700FFE79DF8A700069061
:10119000FFE707980699013101F01F0101EB4101BA
:1011A00040EA0150059082E01F980068400330B982
:1011B000FFE71F980068C0F38460049015E01F9853
:1011C000006890FAA0F02690269820B9FFE720202A
:1011D0008DF89F0005E02698B0FA80F08DF89F000A
:1011E000FFE79DF89F000490FFE70498013000F0AE
:1011F0001F00800603901F980068400330B9FFE786
:101200001F980068C0F38460029015E01F98006882
:1012100090FAA0F02490249820B9FFE720208DF8C0
:10122000970005E02498B0FA80F08DF89700FFE76A
:101230009DF897000290FFE703980299013101F0B1
:101240001F0201219140084301901F98006840034C
:1012500030B9FFE71F980068C0F38460009015E084
:101260001F98006890FAA0F02290229820B9FFE71A
:1012700020208DF88F0005E02298B0FA80F08DF8DC
:101280008F00FFE79DF88F000090FFE7019900981D
:10129000013000F01F0000EB40020020CFF620607C
:1012A00000EB0250084340F000700590FFE70C98F7
:1012B00005991F9A926803F081FCFFE7FFE71F98EA
:1012C000408848F20801084200F09180FFE740F2B0
:1012D0000030C5F2000003F0EDFB1C901F98006881
:1012E0000021CCF22131884208D0FFE71F98006826
:1012F0001021C9F2C001884232D1FFE79DF8720087
:10130000000600282CD4FFE720980068B0F1A04F19
:1013100025D1FFE71C9840F4000140F20030C5F2EF
:10132000000003F08FFC40F20400C2F200000068ED
:10133000800942F66351C0F23E51A0FB01108009C2
:1013400000EB40010C2000EB81001B90FFE71B9895
:1013500020B1FFE71B9801381B90F8E7FFE745E055
:101360001F9800680021CCF25271884219D1FFE722
:101370009DF87300C007A0B9FFE72098006840F20D
:101380000011C5F2000188420AD0FFE71C9840F026
:10139000807140F20030C5F2000003F053FCFFE71B
:1013A00023E01F9800680021CCF6843188421AD1CE
:1013B000FFE79DF872004006002814D4FFE720984C
:1013C000006840F20011C5F2000188420AD0FFE730
:1013D0001C9840F4800140F20030C5F2000003F098
:1013E00031FCFFE700E0FFE7FFE7FFE7FFE708E08A
:1013F0002099C86D40F02000C86501208DF87B0061
:10140000FFE7FFE72099002081F85800FFE79DF8EB
:101410007B008DF88700FFE79DF8870040B080BD16
:1014200081B0009000980068006C01B07047000027
:1014300080B588B0069000208DF8170001900698BE
:1014400020B9FFE701208DF81F0079E10698406977
:1014500040B1FFE7069890F82400012801D1FFE78A
:10146000FFE7FFE70698C06D50B9FFE7069800F068
:101470006BF9069900200866069981F85800FFE785
:101480000698006803F046FB28B1FFE7069800685D
:1014900003F0E6FAFFE70698006803F053FBF0B9A3
:1014A000FFE70698006803F0F5FA40F20400C2F284
:1014B00000000068800942F66351C0F23E51A0FB73
:1014C00001108109022000EB41000190FFE7019823
:1014D00020B1FFE7019801380190F8E7FFE706988F
:1014E000006803F02FFB70B9FFE70699C86D40F064
:1014F0001000C8650699086E40F0010008660120DA
:101500008DF81700FFE70698006803F023FB0390AF
:101510000698C06DC006002800F10481FFE703981B
:10152000002840F0FF80FFE70698C06D40F0020001
:1015300020F480700699C8650698006803F0FAFAEE
:10154000D0B9FFE74FF0A04003F0F4FA009040F26A
:101550000010C5F2000003F0EDFA014600980843C0
:1015600048B9FFE70698416840F20030C5F2000034
:1015700003F05AFBFFE7FFE706994A7FC86B40EA92
:1015800042308A68CB681843104391F8241040EA2F
:1015900001400490069890F8240001280BD1FFE741
:1015A0000698816A0020CFF6FE7000EB4141049856
:1015B00008430490FFE70698C06A50B1FFE7069918
:1015C000C86A096B00F478700143049808430490DA
:1015D000FFE706980068C06844F20701CFF6F07193
:1015E00008400499084306990968C860069800688D
:1015F000006920F04060069A1168526B1043086140
:101600000698006803F076FA02900398002868D1E3
:10161000FFE70298002864D1FFE70699087F91F858
:101620003810800340EA4100049006980068C068C2
:1016300044F2020188430499084306990968C86086
:1016400006980069A0B1FFE706980168086940F4B0
:101650008030086106980068D0F8C00043F6FF713A
:101660008843069A116812691043C1F8C00011E05E
:1016700006980168086920F48030086106980068BF
:10168000D0F8C00043F6FF71884306990968C1F895
:10169000C000FFE7069890F84000012819D1FFE745
:1016A00006980068006940F2FD7120EA0102069B7D
:1016B0001968586CD3F848E0D3F84CC040EA0E00E3
:1016C00040EA0C001B6D1843104340F00100086114
:1016D00006E006980168086920F001000861FFE74C
:1016E000FFE70698406901280CD1FFE706980068DB
:1016F000006B20F00F00069A1168126A013A10433D
:10170000086306E006980168086B20F00F00086384
:10171000FFE70698C06D40F0010020F00200069936
:10172000C86508E00699C86D40F01000C865012042
:101730008DF81700FFE79DF817008DF81F00FFE7F1
:101740009DF81F0008B080BD80B59AB019900020A8
:101750001890179016901590149003A84421FEF746
:101760008FFD1998006840F20011C5F2000188420F
:101770003BD1FFE74FF4004003904FF00050129030
:1017800003A800F061FF18B1FFE7FFF7DDF9FFE7FD
:10179000FFE741F24C00C4F20200016841F400513D
:1017A0000160006800F4005002900298FFE7FFE734
:1017B00041F24C00C4F20200016841F002010160F4
:1017C000006800F0020001900198FFE74FF400402C
:1017D0001490032015900020169040F20040C4F6AB
:1017E000000014A900F0A0FBFFE71AB080BD0000C4
:1017F00080B588B0069040F20030C5F2000003F0DA
:1018000061F903900698006803F0A4F9002840F0FD
:10181000C880FFE7FFE7069890F85800012804D138
:10182000FFE702208DF81F00C4E00699012081F82F
:101830005800FFE7FFE70698FFF720F88DF817003C
:101840009DF81700002840F0A480FFE70698C06DBF
:1018500040F4807040F6016188430699C865069897
:10186000006840F20011C5F20001884204D1FFE790
:101870004FF0A040029003E0069800680290FFE756
:10188000029806990968884203D0FFE7039830B9A7
:10189000FFE70699C86D20F48010C865FFE7069839
:1018A000C06DC004002806D5FFE70699086E20F039
:1018B0000600086603E0069900200866FFE7069820
:1018C00001681C200860FFE70699002081F8580095
:1018D000FFE70698006840F20011C5F20001884257
:1018E00004D1FFE74FF0A040019003E006980068A4
:1018F0000190FFE701980699096888420BD0FFE73D
:10190000039840B1FFE70398052804D0FFE7039848
:10191000092815D1FFE706980068C06880010028F3
:1019200009D5FFE70698C06D40F4805020F40050C0
:101930000699C865FFE70698006803F031F927E0CB
:101940000699C86D40F48010C8650698006840F29A
:101950000011C5F20001884204D1FFE74FF0A0401A
:10196000009003E0069800680090FFE7009804905C
:101970000498C0688001002809D5FFE70698C06D6B
:1019800040F4805020F400500699C865FFE7FFE757
:1019900006E0FFE70699002081F85800FFE7FFE71F
:1019A00003E002208DF81700FFE79DF817008DF87F
:1019B0001F00FFE79DF81F0008B080BD83B00190B5
:1019C00000208DF80300019820B9FFE701208DF871
:1019D0000B0049E0019890F82500022807D0FFE7A6
:1019E00001990420C86301208DF803002DE00198BF
:1019F0000168086820F00100086001980168086823
:101A000020F00E0008600198816C086820F4807056
:101A100008600198016C406C00F01F0201209040AA
:101A200048600198C16C006D48600198406D58B1E4
:101A3000FFE70198416D086820F480700860019804
:101A4000816DC06D4860FFE7FFE70199012081F8D3
:101A50002500FFE70199002081F82400FFE79DF8A9
:101A600003008DF80B00FFE79DF80B0003B07047F3
:101A700080B582B0019000208DF80300019890F8A5
:101A80002500022811D0FFE701990420C8630199BD
:101A9000012081F82500FFE70199002081F824004A
:101AA000FFE701208DF803003FE001980168086816
:101AB00020F00100086001980168086820F00E001D
:101AC00008600198816C086820F4807008600198B3
:101AD000016C406C00F01F020120904048600198AA
:101AE000C16C006D48600198406D58B1FFE70198E6
:101AF000416D086820F4807008600198816DC06DA8
:101B00004860FFE70199012081F82500FFE701996E
:101B1000002081F82400FFE70198806B20B1FFE7E7
:101B20000198816B8847FFE7FFE79DF8030002B04B
:101B300080BD000080B584B003900398006C0068FD
:101B40000290039800680068019002980399496C1C
:101B500001F01F01C8404007002825D5FFE79DF888
:101B60000400400700281FD5FFE7039800680068BD
:101B70008006002807D4FFE703980168086820F072
:101B800004000860FFE70398016C406C00F01F023E
:101B90000420904048600398006B20B1FFE7039851
:101BA000016B8847FFE76EE002980399496C01F0EA
:101BB0001F01C840800700282FD5FFE79DF80400CB
:101BC0008007002829D5FFE7039800680068800691
:101BD00000280BD4FFE703980168086820F00A008A
:101BE00008600399012081F82500FFE70398016C44
:101BF000406C00F01F02022090404860FFE703990C
:101C0000002081F82400FFE70398C06A20B1FFE7B5
:101C10000398C16A8847FFE734E002980399496C4A
:101C200001F01F01C8400007002829D5FFE79DF8F3
:101C300004000007002823D5FFE70398016808681F
:101C400020F00E0008600398026C406C00F01F0149
:101C5000012000FA01F151600399C863039981F8EA
:101C60002500FFE70399002081F82400FFE703988F
:101C7000406B20B1FFE70398416B8847FFE700E026
:101C8000FFE7FFE7FFE704B080BD000080B584B048
:101C90000290029820B9FFE701208DF80F009EE026
:101CA0000298006840F20741C4F20201884218D845
:101CB000FFE7029908684FF6F872CBF6FD72104400
:101CC0004CF6CD42CCF6CC42A0FB02026FF00300F2
:101CD00000EA9200486402990020C4F202000864FD
:101CE00018E0029908684FF6F832CBF6FD721044FE
:101CF0004CF6CD42CCF6CC42A0FB02026FF00300C2
:101D000000EA92004864029940F20040C4F20200E6
:101D10000864FFE70299022081F825000298006814
:101D200000680190019847F6F0718843019002998C
:101D30008868D1F80CC00B694A6940EA0C00184366
:101D400010438A691043CA691043096A0143019824
:101D50000843019001980299096808600298FEF70B
:101D600027FE02988068B0F5804F04D1FFE7029902
:101D700000204860FFE702994868896C00F07F0006
:101D800008600298C16C006D48600298406888B194
:101D9000FFE70298406804280CD8FFE70298FEF796
:101DA0004FFE0298416D002008600298816DC06D61
:101DB000486007E002990020486502998865029909
:101DC000C865FFE702990020C863029A012182F8E2
:101DD0002510029981F824008DF80F00FFE79DF887
:101DE0000F0004B080BD000080B586B00490039160
:101DF0000292019300208DF80300FFE7049890F809
:101E00002400012804D1FFE702208DF8170065E0C7
:101E10000499012081F82400FFE7FFE7049890F877
:101E2000250001284BD1FFE70499022081F8250005
:101E300004990020C86304980168086820F0010034
:101E4000086004980399029A019BFEF719FE049812
:101E5000006B38B1FFE704980168086840F00E0095
:101E600008600CE004980168086820F0040008602D
:101E700004980168086840F00A000860FFE70498C9
:101E8000806C0068C003002807D5FFE70498816CC8
:101E9000086840F480700860FFE70498406D38B12E
:101EA000FFE70498416D086840F480700860FFE720
:101EB00004980168086840F00100086009E0FFE745
:101EC0000499002081F82400FFE702208DF8030028
:101ED000FFE79DF803008DF81700FFE79DF8170056
:101EE00006B080BD80B584B0039000F00BFA02907C
:101EF000039801900198013048B1FFE740F20800D3
:101F0000C2F200000168019808440190FFE7FFE772
:101F100000F0F8F90299401A0199884201D2FFE7CE
:101F2000F6E704B080BD00008BB00A900991002054
:101F30000890FFE7099800680899C840002800F059
:101F4000B181FFE709980068089A01219140084093
:101F500007900798002800F0A181FFE709984068E2
:101F600000F00300012807D0FFE70998406800F05F
:101F7000030002282FD1FFE70A988068069008988E
:101F80004100032000FA01F1069888430690099861
:101F9000C0680899490000FA01F1069808430690C4
:101FA00006980A9988600A98406806900899012066
:101FB00000FA01F106988843069009984068C0F33A
:101FC0000010089900FA01F1069808430690069857
:101FD0000A994860FFE70998406800F00300032869
:101FE0000CD1FFE70998406800F0030003281DD1D9
:101FF000FFE709988068012818D0FFE70A98C068B1
:10200000069008984100032000FA01F106988843E1
:102010000690099880680899490000FA01F106982D
:102020000843069006980A99C860FFE70998406837
:1020300000F00300022826D1FFE70A9808996FF004
:10204000030202EA51010844006A0690089800F071
:10205000070081000F2000FA01F1069888430690DE
:1020600009980069089901F00701890000FA01F157
:1020700006980843069006980A99089B02EA5302BC
:1020800011440862FFE70A9800680690089841002A
:10209000032000FA01F106988843069009984068E9
:1020A00000F003000899490000FA01F1069808437E
:1020B000069006980A990860099880798007002898
:1020C00000F0EB80FFE7FFE741F26000C4F202009E
:1020D000016841F001010160006800F00100059015
:1020E0000598FFE7089820F003000821C4F20101D9
:1020F00040580690089800F0030081000F2000FA75
:1021000001F10698884306900A98B0F1904F03D1E8
:10211000FFE70020049042E00A9840F20041C4F634
:102120000001884203D1FFE70120039034E00A98C0
:1021300040F60001C4F60001884203D1FFE7022007
:10214000029026E00A9840F60041C4F60001884259
:1021500003D1FFE70320019018E00A9841F2000143
:10216000C4F60001884203D1FFE7042000900AE092
:102170000A9941F20042C4F600020620914208BFCB
:1021800005200090FFE700980190FFE7019802907A
:10219000FFE702980390FFE703980490FFE7049895
:1021A000089901F00301890000FA01F1069808433B
:1021B00006900698089921F003010822C4F2010252
:1021C000885040F20840C4F2010000680690079968
:1021D00006988843069009988079C006002805D59E
:1021E000FFE70799069808430690FFE7069840F234
:1021F0000841C4F20101086040F20C40C4F2010041
:102200000068069007990698884306900998807997
:102210008006002805D5FFE7079906980843069031
:10222000FFE7069840F20C41C4F20101086040F259
:102230000440C4F20100006806900799069888439C
:102240000690099880798007002805D5FFE707994F
:10225000069808430690FFE7069840F20441C4F24E
:102260000101086040F20040C4F2010000680690DD
:10227000079906988843069009988079C00728B185
:10228000FFE70799069808430690FFE7069840F293
:102290000041C4F201010860FFE7FFE70898013040
:1022A000089047E60BB0704782B00190ADF802107D
:1022B00001980069BDF80210084204D0FFE7012030
:1022C0008DF8010003E000208DF80100FFE79DF884
:1022D000010002B07047000082B00190ADF802101A
:1022E0008DF801209DF8010028B1FFE7BDF802003C
:1022F0000199886104E0BDF8020001998862FFE756
:1023000002B0704740F20420C2F20000006870473B
:1023100040F20800C2F20000026840F20421C2F25A
:1023200000010868104408607047000080B582B062
:1023300000208DF80700032000F09AF80F2000F02D
:102340000DF820B1FFE701208DF8070002E000F052
:1023500049F8FFE79DF8070002B080BD80B582B064
:10236000019000208DF8030040F20800C2F2000046
:10237000006878B3FFE740F20400C2F20000006892
:1023800040F20801C2F200010A684FF47A71B1FB11
:10239000F2F1B0FBF1F001F0A1F9B0B9FFE701985B
:1023A0000F280DD8FFE701994FF0FF30002200F011
:1023B00047F8019840F20C01C2F20001086003E006
:1023C00001208DF80300FFE703E001208DF80300F2
:1023D000FFE703E001208DF80300FFE79DF803000D
:1023E00002B080BD80B582B0FFE741F26000C4F268
:1023F0000200016841F001010160006800F0010085
:1024000001900198FFE7FFE741F25800C4F2020093
:10241000016841F080510160006800F08050009038
:102420000098FFE700F006F902B080BD80B582B0E9
:102430008DF807009DF9070004F09CF802B080BDFC
:1024400080B586B08DF817000491039204F0AAF8C5
:1024500002909DF91700019002980499039A02F0E6
:1024600005FE0146019804F0A5F806B080BD000005
:1024700080B582B00190019804F0BEF802B080BD32
:1024800085B00390039800285ED1FFE747F2000073
:10249000C4F20000006800F4C060B0F5806F49D15C
:1024A000FFE747F28001C4F20001086820F4807061
:1024B000086047F20002C4F200021168012060F3D4
:1024C0004A21116040F20401C2F20001096832227F
:1024D00051434DF68362C4F21B32A1FB022100EB93
:1024E00091400290FFE747F21400C4F20000016837
:1024F000002049050029019006D5FFE70298002831
:1025000018BF01200190FFE70198C00720B1FFE745
:10251000029801380290E6E747F21400C4F2000086
:1025200000684005002804D5FFE703208DF813005C
:102530007CE008E047F28001C4F20001086820F462
:1025400080700860FFE76DE00398B0F5007F5ED112
:10255000FFE747F20000C4F20000006800F4C0602A
:10256000B0F5806F49D1FFE747F28001C4F2000166
:10257000086840F48070086047F20002C4F200026C
:102580001168012060F34A21116040F20401C2F297
:1025900000010968322251434DF68362C4F21B32B6
:1025A000A1FB022100EB91400290FFE747F21400EB
:1025B000C4F200000168002049050029009006D5FA
:1025C000FFE70298002818BF01200090FFE700985D
:1025D000C00720B1FFE7029801380290E6E747F212
:1025E0001400C4F2000000684005002804D5FFE78D
:1025F00003208DF8130019E008E047F28001C4F2CF
:102600000001086840F480700860FFE709E047F2C5
:102610000001C4F200010868022262F34A20086047
:10262000FFE7FFE700208DF81300FFE79DF8130098
:1026300005B0704747F20801C4F20001086840F491
:10264000804008607047000080B586B0059000208B
:102650008DF80B008DF80A00059880780007002897
:1026600040F1B580FFE700208DF8090041F25800E5
:10267000C4F202000068C000002813D4FFE7FFE79F
:1026800041F25800C4F20200016841F0805101603B
:10269000006800F0805001900198FFE701208DF85C
:1026A0000900FFE747F20001C4F20001086840F4A6
:1026B00080700860FFF726FE0390FFE747F20000F6
:1026C000C4F200000068C00500280CD4FFE7FFF743
:1026D00019FE0399401A032804D3FFE703208DF85D
:1026E0000B0000E0EAE79DF80B0000285BD1FFE754
:1026F00041F29000C4F20200006800F440700490BF
:102700000498C8B1FFE704980599096C884213D072
:10271000FFE741F29001C4F20201086820F4407022
:102720000490086840F480300860086820F4803025
:10273000086004980860FFE79DF81000C007E0B14A
:10274000FFE7FFF7DFFD0390FFE741F29000C4F2DF
:1027500002000068800700280ED4FFE7FFF7D2FDD3
:102760000399401A41F28931884204D3FFE70320DC
:102770008DF80B0000E0E8E7FFE79DF80B0060B97B
:10278000FFE741F29001C4F20201086820F44070B2
:10279000059A126C1043086004E09DF80B008DF858
:1027A0000A00FFE704E09DF80B008DF80A00FFE740
:1027B0009DF80900012809D1FFE741F25801C4F250
:1027C0000201086820F080500860FFE7FFE70598E5
:1027D0000078C00760B1FFE741F28801C4F202014E
:1027E000086820F00300059A526810430860FFE76C
:1027F00005980078800700280CD5FFE741F2880192
:10280000C4F20201086820F00C00059A9268104397
:102810000860FFE705980078400700280CD5FFE71F
:1028200041F28801C4F20201086820F03000059AE4
:10283000D26810430860FFE7059800780007002879
:102840000CD5FFE741F28801C4F20201086820F0CC
:10285000C000059A126910430860FFE705980078E8
:10286000800600280CD5FFE741F28801C4F202017E
:10287000086820F44060059A526910430860FFE739
:1028800005980078400600280CD5FFE741F2880142
:10289000C4F20201086820F44050059A926910437E
:1028A0000860FFE705980078000600280CD5FFE7D0
:1028B00041F28801C4F20201086820F44040059A00
:1028C000D26910430860FFE705984078C00760B1FF
:1028D000FFE741F28801C4F20201086820F44030A9
:1028E000059A126A10430860FFE705984078800750
:1028F00000280CD5FFE741F28801C4F20201086804
:1029000020F44020059A526A10430860FFE70598BA
:102910004078400700281BD5FFE741F28801C4F248
:102920000201086820F44010059A926A104308607A
:102930000598806AB0F5801F09D1FFE741F20C01CC
:10294000C4F20201086840F480100860FFE7FFE766
:1029500005984078000700281BD5FFE741F2880161
:10296000C4F20201086820F44000059AD26A1043BC
:1029700008600598C06AB0F5800F09D1FFE741F201
:102980000C01C4F20201086840F480100860FFE7FF
:10299000FFE705984078C00600281BD5FFE741F205
:1029A0008801C4F20201086820F04070059A126B99
:1029B000104308600598006BB0F1807F09D1FFE7F4
:1029C00041F20C01C4F20201086840F48010086072
:1029D000FFE7FFE705984078800600281BD5FFE752
:1029E00041F28801C4F20201086820F04060059AB3
:1029F000526B104308600598406BB0F1006F09D12D
:102A0000FFE741F20C01C4F20201086840F48010B3
:102A10000860FFE7FFE705984078400600281BD5CF
:102A2000FFE741F28801C4F20201086820F040602B
:102A3000059A926B104308600598806BB0F1006FA7
:102A400009D1FFE741F20C01C4F20201086840F429
:102A500080100860FFE7FFE705984078000600282F
:102A60001BD5FFE741F28801C4F20201086820F09B
:102A70004050059AD26B104308600598C06BB0F1C6
:102A8000805F09D1FFE741F20C01C4F2020108683E
:102A900040F480300860FFE7FFE79DF80A0006B0C9
:102AA00080BD000080B586B00490039100200090A6
:102AB000049820B9FFE701208DF8170081E1039801
:102AC00042F20001C4F20201096801F00F018842DC
:102AD00016D9FFE742F20000C4F20200016821F0BB
:102AE0000F01039A11430160006800F00F00039981
:102AF000884204D0FFE701208DF8170061E1FFE76D
:102B000004980078C007002800F0A380FFE704982D
:102B10004068032839D1FFE741F20000C4F2020007
:102B200000688001002804D4FFE701208DF8170019
:102B300047E102F0D3FA019001984BF20141C0F253
:102B4000C441884220D3FFE741F20800C4F20200EA
:102B5000006810F0F00F0AD0FFE7049800788007B3
:102B6000002810D5FFE70498806860B9FFE741F2BC
:102B70000801C4F202010868082262F30710086025
:102B800080200090FFE7FFE738E0049840680228C3
:102B90000ED1FFE741F20000C4F20200006880039A
:102BA000002804D4FFE701208DF8170009E10DE0AB
:102BB00041F20000C4F2020000684005002804D47D
:102BC000FFE701208DF81700FBE0FFE700F02CF98C
:102BD000019001984BF20141C0F2C44188420CD3EC
:102BE000FFE741F20801C4F202010868082262F31B
:102BF0000710086080200090FFE7FFE741F208011E
:102C0000C4F20201086820F00300049A52681043DD
:102C10000860FFF777FB0290FFE741F20800C4F27B
:102C20000200006800F00C0004994968B0EB810FC5
:102C30000ED0FFE7FFF766FB0299401A41F2893197
:102C4000884204D3FFE703208DF81700B9E0E4E7DA
:102C5000FFE704980078800700282CD5FFE7049848
:102C600000784007002809D5FFE741F20801C4F2C7
:102C70000201086840F4E0600860FFE7049800780B
:102C8000000700280BD5FFE741F20801C4F202015A
:102C9000086840F4E06020F460500860FFE741F20B
:102CA0000801C4F20201086820F0F000049A92685A
:102CB000104308600DE00098802809D1FFE741F239
:102CC0000801C4F20201086820F0F0000860FFE784
:102CD000FFE7039842F20001C4F20201096801F023
:102CE0000F01884228D2FFE742F20001C4F202013C
:102CF000086820F00F00039A10430860FFF702FBFA
:102D00000290FFE742F20000C4F20200006800F007
:102D10000F00039988420ED0FFE7FFF7F3FA0299FC
:102D2000401A41F28931884204D3FFE703208DF82D
:102D3000170046E0E6E7FFE7049800784007002820
:102D40000CD5FFE741F20801C4F20201086820F443
:102D5000E060049AD26810430860FFE704980078A6
:102D6000000700280DD5FFE741F20801C4F2020177
:102D7000086820F46050049A126940EAC2000860B2
:102D8000FFE700F051F841F20801C4F202010968BE
:102D9000C9B20A0947F2E011C0F60001895C01F0EE
:102DA0001F01C84040F20401C2F20001086040F275
:102DB0000C00C2F200000068FFF7D0FA8DF817008F
:102DC000FFE79DF8170006B080BD000040F2040048
:102DD000C2F200000068704780B5FFF7F7FF41F2CC
:102DE0000801C4F202010968C1F3022247F2F0119E
:102DF000C0F60001895C01F01F01C84080BD0000E1
:102E000080B5FFF7E3FF41F20801C4F2020109684F
:102E1000C1F3C22247F2F011C0F60001895C01F053
:102E20001F01C84080BD000086B041F20800C4F216
:102E30000200006800F00C00042806D1FFE742F20F
:102E40000040C0F2F400019069E041F20800C4F2D1
:102E50000200006800F00C00082806D1FFE743F2EA
:102E60000060C0F26E10019058E041F20800C4F218
:102E70000200006800F00C000C284BD1FFE741F283
:102E80000C00C4F20200016801F003010491006823
:102E9000C1B2012000EB11100290049800900228AA
:102EA00015D0FFE70098032812D1FFE7029943F2FB
:102EB0000060C0F26E10B0FBF1F041F20C01C4F200
:102EC00002010968C1F306214843059011E0FFE7BC
:102ED000029942F20040C0F2F400B0FBF1F041F27E
:102EE0000C01C4F202010968C1F3062148430590B0
:102EF000FFE741F20C00C4F20200006800F0C0617C
:102F0000022000EB1160039005980399B0FBF1F0EB
:102F1000019002E000200190FFE7FFE7FFE7019842
:102F200006B07047B0B588B00690069820B9FFE7A4
:102F300001208DF81F00CCE306980078C007002818
:102F400000F09B80FFE741F20800C4F20200006835
:102F500000F00C00049041F20C00C4F20200006882
:102F600000F00300039004980C2804D1FFE70398B5
:102F7000032804D0FFE70498082812D1FFE741F2A4
:102F80000000C4F2020000688003002808D5FFE7B3
:102F90000698406820B9FFE701208DF81F0098E3EC
:102FA0006AE0FFE706984068B0F5803F09D1FFE787
:102FB00041F20001C4F20201086840F48030086068
:102FC00020E006984068B0F5A02F0DD1FFE741F250
:102FD0000001C4F20201086840F48020086008681B
:102FE00040F4803008600CE041F20001C4F20201BC
:102FF000086820F480300860086820F480200860A9
:10300000FFE7FFE7FFE706984068D0B1FFE7FFF76B
:1030100079F90590FFE741F20000C4F20200006870
:10302000800300280CD4FFE7FFF76CF90599401ADC
:10303000652804D3FFE703208DF81F0049E3EAE782
:1030400019E0FFF75FF90590FFE741F20000C4F2D5
:1030500002000068800300280CD5FFE7FFF752F953
:103060000599401A652804D3FFE703208DF81F0057
:103070002FE3EAE7FFE7FFE7FFE70698007880071E
:10308000002840F19F80FFE741F20800C4F20200EF
:10309000006800F00C00049041F20C00C4F2020041
:1030A000006800F00300039004980C2804D1FFE7A7
:1030B0000398022804D0FFE7049804282CD1FFE7E6
:1030C00041F20000C4F2020000684005002808D563
:1030D000FFE70698C06820B9FFE701208DF81F00C0
:1030E000F7E241F20401C4F20201086820F0FE4058
:1030F000069A126940EA0260086040F20C00C2F2CF
:1031000000000068FFF72AF920B1FFE701208DF8E1
:103110001F00DEE2FFE754E00698C06870B3FFE7E7
:1031200041F20001C4F20201086840F480700860B6
:10313000FFF7E8F80590FFE741F20000C4F2020053
:103140000068400500280CD4FFE7FFF7DBF805997D
:10315000401A032804D3FFE703208DF81F00B8E2CC
:10316000EAE741F20401C4F20201086820F0FE40DF
:10317000069A126940EA0260086021E041F200010B
:10318000C4F20201086820F480700860FFF7BAF802
:103190000590FFE741F20000C4F20200006840051C
:1031A00000280CD5FFE7FFF7ADF80599401A032872
:1031B00004D3FFE703208DF81F008AE2EAE7FFE768
:1031C000FFE7FFE7069800780007002849D5FFE7EA
:1031D0000698406910B3FFE741F29401C4F202017E
:1031E000086840F001000860FFF78CF80590FFE7E1
:1031F00041F29400C4F202000068800700280CD459
:10320000FFE7FFF77FF80599401A032804D3FFE78B
:1032100003208DF81F005CE2EAE721E041F294010F
:10322000C4F20201086820F001000860FFF76AF8A4
:103230000590FFE741F29400C4F2020000688007A5
:1032400000280CD5FFE7FFF75DF80599401A032821
:1032500004D3FFE703208DF81F003AE2EAE7FFE717
:10326000FFE7069800784007002840F1C680FFE796
:1032700000208DF80B0041F25800C4F202000068F3
:10328000C000002813D4FFE7FFE741F25800C4F262
:103290000200016841F080510160006800F0805038
:1032A00001900198FFE701208DF80B00FFE747F23E
:1032B0000000C4F200000068C005002822D4FFE727
:1032C00047F20001C4F20001086840F48070086011
:1032D000FFF718F80590FFE747F20000C4F200007E
:1032E0000068C00500280CD4FFE7FFF70BF805992C
:1032F000401A032804D3FFE703208DF81F00E8E1FC
:10330000EAE7FFE7FFE706988068012809D1FFE7B1
:1033100041F29001C4F20201086840F00100086027
:103320001FE00698806805280DD1FFE741F2900163
:10333000C4F20201086840F004000860086840F028
:10334000010008600CE041F29001C4F2020108683B
:1033500020F001000860086820F004000860FFE722
:10336000FFE7FFE706988068E0B1FFE7FEF7CAFFD6
:103370000590FFE741F29000C4F202000068800768
:1033800000280ED4FFE7FEF7BDFF0599401A41F271
:103390008931884204D3FFE703208DF81F0098E1AC
:1033A000E8E71BE0FEF7AEFF0590FFE741F2900073
:1033B000C4F202000068800700280ED5FFE7FEF780
:1033C000A1FF0599401A41F28931884204D3FFE7F1
:1033D00003208DF81F007CE1E8E7FFE79DF80B0074
:1033E000012809D1FFE741F25801C4F2020108683F
:1033F00020F080500860FFE7FFE70698007880061D
:10340000002849D5FFE70698806910B3FFE741F22D
:103410009801C4F20201086840F001000860FEF75C
:1034200071FF0590FFE741F29800C4F202000068C6
:10343000800700280CD4FFE7FEF764FF0599401AC7
:10344000032804D3FFE703208DF81F0041E1EAE7DA
:1034500021E041F29801C4F20201086820F0010065
:103460000860FEF74FFF0590FFE741F29800C4F2B5
:1034700002000068800700280CD5FFE7FEF742FF36
:103480000599401A032804D3FFE703208DF81F0095
:103490001FE1EAE7FFE7FFE70698C069002800F0B0
:1034A0001481FFE741F20800C4F20200006800F056
:1034B0000C000C2800F0B080FFE70698C0690228D5
:1034C0007CD1FFE741F20001C4F20201086820F05C
:1034D00080700860FEF716FF0590FFE741F20000DC
:1034E000C4F202000068800100280CD5FFE7FEF757
:1034F00009FF0599401A032804D3FFE703208DF83C
:103500001F00E6E0EAE741F20C01C4F2020108689C
:1035100048F20C02C0F29F121040DDF818C0DCF82F
:103520002020DCF82450DCF828E0DCF82C306FF0A8
:103530000F0404EB0514224342EA0E22DCF830406B
:1035400040F2000ECFF6E07E0EEA045EAEF5001EFD
:1035500042EA0E02DCF834E04FF07E4C0CEA0E6CCE
:103560000CF17E4C42EA0C0242EAC362104308604E
:1035700041F20002C4F20202106840F08070106054
:10358000086840F080700860FEF7BCFE0590FFE719
:1035900041F20000C4F202000068800100280CD44F
:1035A000FFE7FEF7AFFE0599401A032804D3FFE7B3
:1035B00003208DF81F008CE0EAE72CE041F20001C7
:1035C000C4F20201086820F080700860FEF79AFEDD
:1035D0000590FFE741F20000C4F20200006880019C
:1035E00000280CD5FFE7FEF78DFE0599401A032849
:1035F00004D3FFE703208DF81F006AE0EAE741F2F9
:103600000C01C4F2020108684FF6FC72CFF6EE62BC
:1036100010400860FFE757E00698C069012804D110
:10362000FFE701208DF81F0053E041F20C00C4F2C7
:10363000020000680390039800F003000699096AED
:1036400088423BD1FFE7039800F0F00006994A6AF0
:103650006FF00F0101EB021188422FD1FFE70398B1
:1036600000F4FE400699896AB0EB012F26D1FFE7EE
:10367000039800F078400699C96AB0EBC16F1DD17C
:10368000FFE7039800F4C00006990A6B0021CFF60B
:10369000E07101EA0251A1F5001188420ED1FFE765
:1036A000039800F0C06006994A6B4FF07E4101EA32
:1036B000026101F17E41884204D0FFE701208DF8CC
:1036C0001F0006E0FFE7FFE7FFE700208DF81F007F
:1036D000FFE79DF81F0008B0B0BD000080B582B0C4
:1036E0000190019801F068FF02B080BD83B00190A5
:1036F000FFE7019890F88400012804D1FFE7022039
:103700008DF80B002CE00199012081F88400FFE77F
:10371000FFE701992420C1F888000198006800683B
:10372000009001980168086820F001000860009886
:1037300020F00050009001990020486600980199FF
:103740000968086001992020C1F88800FFE7019905
:10375000002081F88400FFE700208DF80B00FFE7D0
:103760009DF80B0003B0704780B586B004900391BC
:10377000ADF80A200498D0F88C00202844D1FFE747
:10378000039820B1FFE7BDF80A0020B9FFE7012048
:103790008DF817003CE004990120C86604990020C8
:1037A000086704980399BDF80A2002F0BBFD8DF864
:1037B00009009DF8090010BBFFE70498C06E0128BE
:1037C00018D1FFE70498016810200862FFE7FFE7BF
:1037D0000498006850E8000F40F010000190FFE7E7
:1037E00001990498026842E800100028F0D1FFE730
:1037F000FFE703E001208DF80900FFE7FFE79DF8F0
:1038000009008DF8170003E002208DF81700FFE78C
:103810009DF8170006B080BD80B582B00190ADF86C
:1038200002100198006843F60001C4F201018842C9
:1038300019D1FFE740F2E211C2F200010120087045
:10384000BDF8020040F2E011C2F20001088040F22F
:103850004C10C2F2000040F2E311C2F200011E223D
:10386000FFF782FFFFE702B080BD000081B000904B
:1038700001B0704780B584B002900191FFE70298D3
:1038800090F88400012804D1FFE702208DF80F0092
:1038900032E00299012081F88400FFE7FFE70299F6
:1038A0002420C1F8880002980068006800900298FF
:1038B0000168086820F001000860029800688068CC
:1038C00020F06060019908430299096888600298B5
:1038D00001F0E6FE0098029909680860029920202C
:1038E000C1F88800FFE70299002081F88400FFE713
:1038F00000208DF80F00FFE79DF80F0004B080BD99
:1039000080B584B002900191FFE7029890F884009E
:10391000012804D1FFE702208DF80F0032E0029960
:10392000012081F88400FFE7FFE702992420C1F815
:103930008800029800680068009002980168086892
:1039400020F00100086002980068806820F0604064
:1039500001990843029909688860029801F0A0FE65
:10396000009802990968086002992020C1F888002F
:10397000FFE70299002081F88400FFE700208DF81E
:103980000F00FFE79DF80F0004B080BD81B00090EC
:1039900001B0704781B0009001B0704781B00090D5
:1039A00001B0704780B590B00F900F980068C06963
:1039B0000E900F98006800680D900F98006880685E
:1039C0000C900E9840F60F0108400B900B98E0B950
:1039D000FFE79DF838008006002815D5FFE79DF821
:1039E00034008006002806D4FFE79DF83300C006A7
:1039F000002809D5FFE70F98406F20B1FFE70F9827
:103A0000416F8847FFE796E2FFE70B98002800F038
:103A10000C81FFE70C980121C1F20001084209D195
:103A2000FFE70D9840F22011C0F20041084200F07B
:103A3000FC80FFE79DF83800C00788B1FFE79DF8DC
:103A40003500C00760B1FFE70F98016801200862E8
:103A50000F99D1F8900040F00100C1F89000FFE705
:103A60009DF838008007002811D5FFE79DF8300049
:103A7000C00760B1FFE70F980168022008620F9944
:103A8000D1F8900040F00400C1F89000FFE79DF8E5
:103A900038004007002811D5FFE79DF83000C00727
:103AA00060B1FFE70F980168042008620F99D1F810
:103AB000900040F00200C1F89000FFE79DF8380048
:103AC0000007002819D5FFE79DF83400800600287C
:103AD00007D4FFE70C980121C1F2000108420CD085
:103AE000FFE70F980168082008620F99D1F890004D
:103AF00040F00800C1F89000FFE79DF8390000078A
:103B0000002813D5FFE79DF83700400700280DD5A2
:103B1000FFE70F9801684FF4006008620F99D1F831
:103B2000900040F02000C1F89000FFE70F98D0F817
:103B30009000002878D0FFE79DF838008006002824
:103B400015D5FFE79DF834008006002806D4FFE76E
:103B50009DF83300C006002809D5FFE70F98406F95
:103B600020B1FFE70F98416F8847FFE7FFE70F9805
:103B7000D0F890000A900F980068806800F040002C
:103B8000402806D0FFE79DF8280010F0280F42D00B
:103B9000FFE70F9802F06EF80F9800688068400603
:103BA000002833D5FFE7FFE7FFE70F98006850E8EC
:103BB000020F20F040000990FFE709990F98026872
:103BC00042E802100028F0D1FFE7FFE70F98D0F895
:103BD0008000B0B1FFE70F98D0F8801045F6B9101B
:103BE000C0F6000088630F98D0F88000FDF740FF12
:103BF00030B1FFE70F98D0F88000816B8847FFE76E
:103C000003E00F98FFF7CAFEFFE703E00F98FFF706
:103C1000C5FEFFE707E00F98FFF7C0FE0F990020F1
:103C2000C1F89000FFE7FFE785E10F98C06E01281B
:103C300040F02281FFE79DF83800C006002840F1DF
:103C40001B81FFE79DF83400C006002840F1148175
:103C5000FFE70F980168102008620F9800688068DD
:103C60004006002840F1A680FFE70F98D0F88000BA
:103C700000684068ADF82200BDF8220000287CD022
:103C8000FFE7BDF822000F99B1F85C10884274DAA2
:103C9000FFE7BDF822000F99A1F85E000F98D0F859
:103CA0008000006800688006002859D4FFE7FFE71D
:103CB000FFE70F98006850E8000F20F4807007902D
:103CC000FFE707990F98026842E800100028F0D13A
:103CD000FFE7FFE7FFE7FFE70F98006850E8020FF4
:103CE00020F001000690FFE706990F98026842E86D
:103CF00002100028F0D1FFE7FFE7FFE7FFE70F988A
:103D0000006850E8020F20F040000590FFE7059999
:103D10000F98026842E802100028F0D1FFE7FFE7A1
:103D20000F992020C1F88C000F990020C866FFE78A
:103D3000FFE70F98006850E8000F20F01000049093
:103D4000FFE704990F98026842E800100028F0D1BC
:103D5000FFE7FFE70F98D0F88000FDF72FFEFFE7A1
:103D60000F99022008670F98B0F85C10B0F85E2039
:103D7000891A89B2FFF750FD1BE0BDF822000F99A8
:103D8000B1F85C10884213D1FFE70F98D0F880009B
:103D9000006800688006002809D5FFE70F99022017
:103DA00008670F98B0F85C10FFF736FDFFE7FFE7F4
:103DB000FFE7C0E00F99B1F85C00B1F85E10401A5F
:103DC000ADF80E000F98B0F85E00002853D0FFE762
:103DD000BDF80E0000284ED0FFE7FFE7FFE70F9881
:103DE000006850E8000F20F490700290FFE70299FD
:103DF0000F98026842E800100028F0D1FFE7FFE7C3
:103E0000FFE7FFE70F98006850E8020F4FF6FE71DA
:103E1000CEF6FF7108400190FFE701990F98026804
:103E200042E802100028EDD1FFE7FFE70F992020BC
:103E3000C1F88C000F990020C8660F994867FFE70A
:103E4000FFE70F98006850E8000F20F01000009086
:103E5000FFE700990F98026842E800100028F0D1AF
:103E6000FFE7FFE70F99022008670F98BDF80E10D3
:103E7000FFF7D2FCFFE75EE09DF83A00C00600289D
:103E80000FD5FFE79DF832004006002809D5FFE76F
:103E90000F9801684FF4801008620F98FFF77AFDC1
:103EA00049E09DF838000006002815D5FFE79DF889
:103EB00034000006002806D4FFE79DF83200000613
:103EC000002809D5FFE70F98806F20B1FFE70F9812
:103ED000816F8847FFE72EE09DF8380040060028F4
:103EE0000AD5FFE79DF834004006002804D5FFE717
:103EF0000F9801F00FFF1EE09DF83A000006002821
:103F00000AD5FFE79DF837004006002804D5FFE7F3
:103F10000F98FFF73BFD0EE09DF83B00C00750B146
:103F2000FFE79DF837000006002804D5FFE70F984B
:103F3000FFF79CFCFFE710B080BD000080B582B0A9
:103F40000090009820B9FFE701208DF8070046E0B7
:103F50000098806908B1FFE700E0FFE70098D0F81B
:103F6000880040B9FFE70099002081F8840000989C
:103F700000F03AF8FFE700992420C1F88800009883
:103F80000168086820F0010008600098806A20B18C
:103F9000FFE7009801F0C8FBFFE7009801F00AFF77
:103FA000012804D1FFE701208DF8070017E00098F1
:103FB0000168486820F4904048600098016888686B
:103FC00020F02A00886000980168086840F001002D
:103FD0000860009801F04CFC8DF80700FFE79DF8A1
:103FE000070002B080BD000080B5A2B02190002083
:103FF00020901F901E901D901C900BA84421FCF750
:104000003FF92198006843F60001C4F2010188429B
:1040100040F0A880FFE701200B9000200C900BA837
:10402000FEF712FB18B1FFE7FCF78EFDFFE7FFE795
:1040300041F26000C4F20200016841F48041016075
:10404000006800F480400A900A98FFE7FFE741F219
:104050004C00C4F20200016841F0010101600068F7
:1040600000F0010009900998FFE74FF400701C90E0
:10407000022002901D90002007901E9001200390C6
:104080001F900720049020904FF0904005901CA9AD
:104090000691FDF749FFDDF808C0039B049A0598D7
:1040A00006994FF4806ECDF870E0CDF874C01E9381
:1040B0001F932092FDF738FF079940F28C00C2F25F
:1040C000000008900822C4F2020202601822426036
:1040D0008160C1608022026141618161C1610162D0
:1040E000FDF7D4FD18B1FFE7FCF72EFDFFE7FFE772
:1040F000219840F28C01C2F20001C0F88010219892
:104100008862FFE740F2EC00C2F2000001901C213F
:10411000C4F2020101601921416010218160002177
:10412000C1608022026141618161C1610162FDF76C
:10413000ADFD18B1FFE7FCF707FDFFE7FFE72198AA
:1041400040F2EC01C2F20001C16721988862FFE7EA
:104150002520009002210022FEF772F90098FEF758
:1041600065F9FFE722B080BD81B0009001B07047D3
:1041700081B0009001B0704780B586B00490039183
:10418000ADF80A200498D0F88800202870D1FFE705
:10419000039820B1FFE7BDF80A0020B9FFE701202E
:1041A0008DF8170068E0039804990865BDF80A00C7
:1041B0000499A1F85400BDF80A000499A1F856002A
:1041C00004990020C1F8900004992120C1F88800CA
:1041D0000498C06F88B3FFE70498C16F45F6E130DB
:1041E000C0F60000C8620498C16F45F65D40C0F695
:1041F000000008630498C16F45F6D110C0F60000B6
:1042000048630498C16F0020886304980268016DB8
:10421000C06F2832BDF80A30FDF7E6FD60B1FFE758
:1042200004991020C1F8900004992020C1F888005A
:1042300001208DF817001FE0FFE704980168402077
:104240000862FFE7FFE70498006850E8020F40F0BB
:1042500080000190FFE701990498026842E802108B
:104260000028F0D1FFE7FFE700208DF8170003E0FA
:1042700002208DF81700FFE79DF8170006B080BDFB
:1042800081B0009001B0704781B0009001B07047DC
:10429000FFE7FEE780B586B000200590049003900C
:1042A00002900190C0200190012002900390022012
:1042B000049040F20040C4F6000001A9FDF734FE6E
:1042C00006B080BD80B582B008208DF807000020C0
:1042D0008DF8060001F022F9FFE79DF80700411E66
:1042E0008DF80710F0B1FFE79DF8060000448DF847
:1042F0000600002001F0DEF81420009002F0D0F952
:10430000009802F0CDF9012001F0D4F8009802F0F5
:10431000C7F901F0EBF801469DF8060008438DF857
:104320000600DAE7002001F0C5F8142002F0B8F921
:1043300001F028F99DF8060002B080BD80B582B07A
:104340008DF8070008208DF80600FFE79DF80600AD
:10435000411E8DF80610F8B1FFE7002001F0AAF821
:104360001420009002F09CF99DF8070000F08000F6
:1043700001F0ECF8009802F093F900989DF807100E
:1043800009448DF8071002F08BF9012001F092F832
:10439000009802F085F9D9E7002001F08BF814208D
:1043A00002F07EF902B080BD80B582B0012000909D
:1043B00001F0CCF81420019002F072F9019802F09B
:1043C0006FF9009801F076F8019802F069F9002081
:1043D00001F070F8019802F063F902B080BD0000AE
:1043E00080B584B00120019001F0B0F81420039052
:1043F00002F056F9019801F05DF8039802F050F9C7
:104400000020029001F0A2F8039802F049F9029806
:1044100001F050F8039802F043F904B080BD0000A9
:1044200080B584B00020019001F044F8142003907E
:1044300002F036F9019801F089F8039802F030F99A
:104440000120029001F036F8039802F029F9029851
:1044500001F07CF8039802F023F904B080BD00005D
:1044600080B584B00520ADF80C0001F057F8142099
:10447000029002F015F9012001F01CF8029802F0F8
:104480000FF9FFE701F032F8A8B1FFE7BDF80C0023
:104490000138ADF80C00142002F002F9BDF80C0050
:1044A00040B9FFE701F06EF8FFF7BAFF01208DF881
:1044B0000F000DE0E6E70020019000F0FBFF01F0A7
:1044C00061F8142002F0ECF801988DF80F00FFE776
:1044D0009DF80F0004B080BD80B586B00020059027
:1044E00004900390029001904FF6FF7101910290A9
:1044F00003210491039040F60000C4F6000001A9D6
:10450000FDF712FD06B080BD80B586B00020059095
:1045100004900390029001904FF6FF7101910121E8
:10452000029103210491039040F60000C4F60000BC
:1045300001A9FDF7F9FC06B080BD000080B584B08C
:10454000ADF80E00002101910291084600F0B0F98B
:1045500000F002FA01980290FFE70298800A4A28C8
:1045600009D8FFE7BDF80E0000F0C0F9FFE7029898
:1045700001300290F1E704B080BD000080B58CB03E
:1045800000200B900A90099008900790FFE741F2F5
:104590004C00C4F20200016841F0040101600068AF
:1045A00000F0040006900698FFE7FFE741F24C0098
:1045B000C4F20200016841F001010160006800F0EE
:1045C000010005900598FFE7FFE741F24C00C4F2B7
:1045D0000200016841F002010160006800F0020081
:1045E00004900498FFE74FF4487007900120009072
:1045F0000890032001900A9000200290099040F258
:104600000040C4F6000007A90391FDF78DFC009B54
:10461000019A029803994FF4807CCDF81CC008934E
:104620000A9209904FF09040FDF77EFCFFF76CFF77
:104630001821C4F60001086840F48070086040F258
:104640001841C4F60001086840F4087008600CB016
:1046500080BD000080B582B08DF80700ADF8041071
:104660008DF803209DF8030020388DF803009DF895
:104670000700BDF804109DF8032002EB420347F247
:10468000F812C0F6000202EB031200F037F802B095
:1046900080BD000080B586B08DF817000491002021
:1046A000039040F23F10ADF80A00FFE7049801784C
:1046B0000020019039B1FFE703990020142938BF89
:1046C00001200190FFE70198C007A0B1FFE79DF826
:1046D0001700BDF80A10049A1278FFF7BBFFBDF867
:1046E0000A001038ADF80A000498013004900398CD
:1046F00001300390DAE706B080BD000080B586B0D7
:104700008DF81700ADF8141004920020009003906B
:1047100002908DF807009DF817008DF807009DF8AE
:104720000700BDF8141000F0C3F800980390FFE7ED
:104730000398172837D8FFE700F00EF90020029001
:10474000FFE702980F281ED8FFE70498039930F876
:1047500011000299C840C00740B9FFE740F20000CD
:10476000C2F20000008800F0C1F807E040F2180033
:10477000C2F20000008800F0B9F8FFE7FFE70298F6
:1047800001300290DDE79DF8070001308DF8070049
:104790009DF80700BDF8141000F08AF8FFE70398B1
:1047A00001300390C4E706B080BD000080B5FFF77C
:1047B000E5FE002000F01CF8014640F21A00C2F2AB
:1047C00000000180008848F23021884203D1FFE7D1
:1047D00000F0D2FC02E000F05FFDFFE7002000F0F7
:1047E00007F840F21A01C2F20001088080BD000003
:1047F00080B582B08DF8070040F22842C4F600026E
:10480000106840F400701060106840F48070106010
:1048100040F21841C4F600010091086840F0200001
:1048200008609DF8070040F61403C4F60003186002
:10483000106840F02000106000BF00BF00BF086893
:1048400040F020000860086840F480700860FFF7BE
:1048500043FE2821C4F60001086840F48070086017
:1048600000BF00BF00BF40F61000C4F600000068A3
:10487000ADF804001821C4F60001086840F4807007
:104880000860FFF741FE0099086840F40070086076
:10489000BDF8040002B080BD81B0ADF80200BDF8E3
:1048A000020040F20001C2F20001088001B070472E
:1048B00080B582B08DF80700ADF804109DF80710A0
:1048C000202000F07BF8BDF80410212000F076F8DD
:1048D00002B080BD81B0ADF80200BDF8020040F228
:1048E0001801C2F20001088001B0704781B0ADF834
:1048F000020040F22842C4F60002106840F4007042
:10490000106040F21841C4F60001086840F480705D
:104910000860086840F020000860BDF8020040F61A
:104920001403C4F600031860106840F02000106003
:1049300000BF00BF00BF086840F0200008600868A2
:1049400040F48070086000BF00BF00BF086840F4FA
:104950000070086001B0704740F22842C4F60002BF
:10496000106840F400701060106840F480701060AF
:1049700040F21841C4F60001086840F020000860C9
:1049800040F61403C4F6000322201860106840F0BB
:104990002000106000BF00BF00BF086840F020008A
:1049A0000860086840F48070086000BF00BF00BF66
:1049B000086840F4007008607047000081B08DF80E
:1049C0000300ADF8001040F22842C4F6000210685F
:1049D00040F400701060106840F48070106040F285
:1049E0001841C4F60001086840F0200008609DF8F6
:1049F000030040F61403C4F600031860106840F08A
:104A00002000106000BF00BF00BF086840F0200019
:104A10000860086840F480700860BDF80000186005
:104A2000106840F02000106000BF00BF00BF0868A1
:104A300040F020000860086840F48070086001B011
:104A40007047000081B00090009880684FF6C071F8
:104A5000C7F6FF71084002300099886001B07047C6
:104A600081B00090009988684FF6C072C5F6FF7259
:104A70001040886001B0704781B000900098806855
:104A80004FF6C071C7F6FF71084001300099886089
:104A900001B0704781B000900098806840F080506D
:104AA0004FF6C071C7F6FF7108400099886001B0E9
:104AB0007047000081B000900098806800F0E070BE
:104AC00001B0704781B000900098806800F01F002E
:104AD00001B0704783B0029001910298019900EBF8
:104AE0008100603000900098006800F0F84003B04A
:104AF0007047000081B0009000988068C0F3C0004B
:104B000001B0704781B0009000988068C00F01B07C
:104B10007047000081B0009000988068C0F340703A
:104B200001B0704781B0009000988068C0F34000E9
:104B300001B0704781B000900098806800F00100DB
:104B400001B0704781B0009000988068C0F3007099
:104B500001B0704781B0009000988068C0F3800079
:104B600001B0704784B003900291019203980299BA
:104B700001F4407100EB9110303000900098006813
:104B8000029901F01F021F21914088430199C1F34E
:104B90008461914008430099086004B070470000A8
:104BA00081B00090009880684FF6C071C7F6FF7121
:104BB000084004300099886001B0704784B00390C9
:104BC000029101920398029901F0007100EBD1501B
:104BD00014300090009800680299C1F30452072134
:104BE000914088430199914008430099086004B0BE
:104BF0007047000083B00290019100920298D0F8B3
:104C0000B00001996FF3DF418843009A02F0180366
:104C10004FF6FF72C0F20702DA40114008440299D1
:104C2000C1F8B00003B0704782B0019000910198C4
:104C3000806820F47C10009908430199886002B0D4
:104C40007047000082B0019000910198806820F0C8
:104C5000E070009908430199886002B07047000035
:104C600085B004900391029201930498039900EB9C
:104C7000810060300090009800684FF20001C0F29F
:104C8000FF310140029800F0F840019A10430843B8
:104C900040F000400099086005B0704784B0039070
:104CA000029101920398029900EB8100603000901C
:104CB0000098006820F0007001990843009908608E
:104CC00004B0704784B00390029101920398029956
:104CD00000EB8100603000900098006820F0807048
:104CE000019908430099086004B0704784B00390AC
:104CF000029101920398029900EB810060300090CC
:104D00000098006820F0004001990843009908606D
:104D100004B0704782B0019000910198406920F082
:104D20000040009908430199486102B070470000B3
:104D300082B001900091019880684FF6C071C3F66F
:104D4000FF710140009800F08040084400F10040ED
:104D50000199886002B0704780B58AB00021009147
:104D6000099108910791069105910491039102918F
:104D700040F22000C2F20000019040F20012C5F2A1
:104D8000000202604FF4003242608160C160016144
:104D9000416104228261017741770122026280F839
:104DA0002410C162016380F83810C16380F840109C
:104DB000FCF73EFB18B1FFE7FBF7C6FEFFE748F242
:104DC0000000C3F6F06002900620039000200490DB
:104DD0007F21059104210691079040F22000C2F244
:104DE000000002A9FBF728FF18B1FFE7FBF7ACFEB4
:104DF000FFE70AB080BD000080B586B0FFE741F252
:104E00004800C4F20200016841F00401016000683A
:104E100000F0040005900598FFE7FFE741F2480025
:104E2000C4F20200016841F001010160006800F075
:104E3000010004900498FFE70B20009001210191EC
:104E400000220292FDF7FCFA0098FDF7EFFA0199B3
:104E5000029A0C200390FDF7F3FA0398FDF7E6FAA7
:104E600006B080BD80B594B00020139012901190D0
:104E700010900F90FFE741F24C00C4F2020001686D
:104E800041F004010160006800F004000E900E98EB
:104E9000FFE7FFE741F24C00C4F20200016841F075
:104EA00020010160006800F020000D900D98FFE7E0
:104EB000FFE741F24C00C4F20200016841F0010139
:104EC0000160006800F001000C900C98FFE7FFE71C
:104ED00041F24C00C4F20200016841F0020101609D
:104EE000006800F002000B900B98FFE7FFE741F22B
:104EF0004C00C4F20200016841F008010160006842
:104F000000F008000A900A98FFE740F60000C4F697
:104F1000000002904FF47F41019101220692FDF7BB
:104F2000DBF9069A40F60040C4F600000490042124
:104F30000391FDF7D1F940F20040C4F6000008905B
:104F4000C021059100220792FDF7C6F9019B029846
:104F5000069A07990F931092119112910FA9099136
:104F6000FCF7E2FF0698079A09990F9010921190AA
:104F70004FF09040FCF7D8FF069A079B08980999D4
:104F80004FF0070CCDF83CC010931192FCF7CCFF0A
:104F9000DDF80CC00498069B079A0999CDF83CC02F
:104FA000109311921292FCF7BFFFDDF814C0069B1C
:104FB000079A08980999CDF83CC010931192129263
:104FC000FCF7B2FF14B080BD80B582B040F24C1047
:104FD000C2F20000019043F60001C4F20101016039
:104FE0004FF41651416000218160C16001610C22C3
:104FF00042618161C16101624162302181624FF48D
:105000008051C1634FF400510164FEF797FF18B15E
:10501000FFE7FBF799FDFFE740F24C10C2F20000FA
:105020000021FEF76DFC18B1FFE7FBF78DFDFFE7F0
:1050300040F24C10C2F200000021FEF71BFC18B138
:10504000FFE7FBF781FDFFE740F24C10C2F20000E2
:10505000FEF74CFB18B1FFE7FBF776FDFFE702B068
:1050600080BD0000FFE7FEE7FFE7FEE788B007909E
:1050700006910592079800F0070004900498C0F18B
:105080000700052803D3FFE70420019004E00498FB
:10509000C0F107000190FFE70198039004980430E5
:1050A000062803D8FFE70020009003E004980338A7
:1050B0000090FFE70098029006980399012202FAF7
:1050C00001F101390840029B984005999A40013A44
:1050D0001140084308B070477047000086B041F2A5
:1050E0000C00C4F20200016801F0030104910068A1
:1050F000C1B2012000EB1110029004980090022828
:1051000015D0FFE70098032812D1FFE7029943F278
:105110000060C0F26E10B0FBF1F041F20C01C4F27D
:1051200002010968C1F306214843059011E0FFE739
:10513000029942F20040C0F2F400B0FBF1F041F2FB
:105140000C01C4F202010968C1F30621484305902D
:10515000FFE741F20C00C4F20200006800F0C061F9
:10516000022000EB1160039005980399B0FBF1F069
:105170000190019806B0704780B586B0002000907D
:1051800001210191FFF71AFC4FF47A70FBF7B2FC92
:1051900000990198FFF712FC102041F29071FFF77F
:1051A0000DFC60204FF41C51FFF708FC01996120B1
:1051B000FFF704FC462002210291FFF7FFFB1320BA
:1051C00048F21001FFF7FAFB122048F2FE01FFF748
:1051D000F5FB02984FF4A061FFF7F0FB0320059068
:1051E00041F23001FFF7EAFB302040F20331049135
:1051F000FFF7E4FB04993120FFF7E0FB049932202C
:10520000FFF7DCFB33204FF440710391FFF7D6FB2F
:1052100005993420FFF7D2FB04993520FFF7CEFB28
:1052200036201421FFF7CAFB04993720FFF7C6FB8D
:1052300004993820FFF7C2FB04993920FFF7BEFB21
:1052400003993A20FFF7BAFB05993B20FFF7B6FB1D
:1052500004993C20FFF7B2FB3D204FF4A051FFF72B
:10526000ADFB92204FF40071FFF7A8FB0499932047
:10527000FFF7A4FB902040F60D01FFF79FFB059878
:1052800041F21801FFF79AFB072040F27311FFF774
:1052900095FB06B080BD000080B58CB0E32043F2E2
:1052A0000801FFF78BFBE72012210191FFF786FB36
:1052B000EF20069041F23121FFF780FB012007909B
:1052C00000210991FFF77AFB02204FF4E061FFF71C
:1052D00075FB03200A9041F23001FFF76FFB09993B
:1052E00004200490FFF76AFB082040F20721FFF733
:1052F00065FB09990920FFF761FB09990A20FFF76F
:105300005DFB09990C20FFF759FB09990D20FFF768
:1053100055FB09990F200590FFF750FB09991020C4
:105320000890FFF74BFB1120009007210B91FFF72E
:1053300045FB01980999FFF741FB09991320029059
:10534000FFF73CFBC820FCF7CDFD089841F29061C7
:10535000FFF734FB009840F22721FFF72FFB3220A4
:105360000390FCF7BFFD01981D21FFF727FB039871
:10537000FCF7B8FD02984FF40061FFF71FFB2920EE
:105380001421FFF71BFB2B200B21FFF717FB0398C2
:10539000FCF7A8FD09992020FFF710FB09992120AF
:1053A000FFF70CFB0B993020FFF708FB312040F290
:1053B0000771FFF703FB03980621FFF7FFFA35207B
:1053C00040F20471FFF7FAFA362041F60471FFF754
:1053D000F5FA04993720FFF7F1FA09993820FFF719
:1053E000EDFA392040F20671FFF7E8FA3C2040F26E
:1053F0000171FFF7E3FA05993D20FFF7DFFA0999FC
:105400005020FFF7DBFA06995120FFF7D7FA0999E8
:105410005220FFF7D3FA532040F23F11FFF7CEFAA4
:1054200060204FF41C51FFF7C9FA07996120FFF77C
:10543000C5FA09996A20FFF7C1FA09998020FFF798
:10544000BDFA09998120FFF7B9FA09998220FFF77F
:10545000B5FA09998320FFF7B1FA09998420FFF77B
:10546000ADFA09998520FFF7A9FA08999020FFF76E
:10547000A5FA09999220FFF7A1FA0A999320FFF75C
:105480009DFA95204FF48871FFF798FA09999720B3
:10549000FFF794FA09999820FFF790FA0A9841F2D9
:1054A0001801FFF78BFA0B9840F27311FFF786FA99
:1054B0000CB080BD81B0ADF80200BDF8020048B16B
:1054C000FFE740F21841C4F60001086840F04000D0
:1054D000086008E040F22841C4F60001086840F086
:1054E00040000860FFE701B07047000080B582B05F
:1054F00040F20040C4F600008021FCF7D5FE0128F0
:1055000004D1FFE701208DF8070003E000208DF8AB
:105510000700FFE79DF8070002B080BD80B586B0A8
:105520000020059004900390029001908021019149
:105530000290012003900220049040F20040C4F643
:10554000000001A9FCF7F0FC06B080BD81B0ADF809
:105550000200BDF8020048B1FFE740F21841C4F66E
:105560000001086840F08000086008E040F228412F
:10557000C4F60001086840F080000860FFE701B051
:105580007047000080B586B000200590049003901D
:10559000029001908021019111210291039002203B
:1055A000049040F20040C4F6000001A9FCF7BCFCE6
:1055B00006B080BD7047000080B582B000900098B2
:1055C0000138B0F1807F03D3FFE70120019019E09B
:1055D000009801384EF21401CEF2000108604FF03D
:1055E000FF300F2100F0E6FF4EF21801CEF200016D
:1055F000002008604EF21002CEF200020721116076
:105600000190FFE7019802B080BD000080B5FCF773
:105610007FFE80BD80B594B006A800903821FAF7CF
:105620002FFE0020059004900390029001904FF40B
:105630000070FCF725FF0098012106914FF480319E
:10564000079102210D9103220E920F9214221092C3
:10565000119112911391FDF765FC18B1FFE7FBF76B
:1056600073FAFFE70F2001900320029000200390BF
:105670000490059001A80221FDF714FA18B1FFE784
:10568000FBF762FAFFE714B080BD00004EF68851C8
:10569000CEF20001086840F4700008607047000016
:1056A00082B001900198406E40B9FFE70199012056
:1056B000A1F86A000199A1F8680032E008208DF88D
:1056C00003008DF80200019800688068C0F3426012
:1056D0008DF80100019800688068400F8DF8000087
:1056E0009DF802009DF8002048F2D033C0F6000378
:1056F000995C484348F2C831C0F600018A5CB0FBAF
:10570000F2F0019AA2F86A009DF803009DF80120CA
:105710009B5C5843895CB0FBF1F00199A1F86800EB
:10572000FFE702B07047000081B00090009890F849
:105730002800000700280BD5FFE7009800684068A4
:1057400020F40040009A1168926B10434860FFE714
:10575000009890F82800C00758B1FFE7009800684B
:10576000406820F40030009A1168D26A1043486003
:10577000FFE7009890F82800800700280BD5FFE786
:1057800000980068406820F48030009A1168126B1D
:1057900010434860FFE7009890F828004007002871
:1057A0000BD5FFE700980068406820F48020009A3D
:1057B0001168526B10434860FFE7009890F828008A
:1057C000C00600280BD5FFE700980068806820F429
:1057D0008050009A1168D26B10438860FFE70098F0
:1057E00090F82800800600280BD5FFE70098006895
:1057F000806820F40050009A1168126C1043886091
:10580000FFE7009890F82800400600281CD5FFE725
:1058100000980068406820F48010009A1168526C6B
:10582000104348600098406CB0F5801F0BD1FFE733
:1058300000980068406820F4C000009A1168926CDB
:1058400010434860FFE7FFE7009890F82800000643
:1058500000280BD5FFE700980068406820F400207E
:10586000009A1168D26C10434860FFE701B070479E
:1058700080B588B0069006990020C1F89000FCF72A
:1058800041FD0590069800680068000700282FD5A4
:10589000FFE70698059B6A466FF07E4111604FF462
:1058A0000011002200F0D6FD08B3FFE7FFE7FFE795
:1058B0000698006850E8000F20F080000490FFE791
:1058C00004990698026842E800100028F0D1FFE72A
:1058D000FFE706992020C1F88800FFE7069900201D
:1058E00081F88400FFE703208DF81F005FE0FFE7E9
:1058F0000698006800684007002842D5FFE7069830
:10590000059B6A466FF07E4111604FF480010022D2
:1059100000F0A0FDA0B3FFE7FFE7FFE706980068EF
:1059200050E8000F20F490700390FFE70399069869
:10593000026842E800100028F0D1FFE7FFE7FFE728
:10594000FFE70698006850E8020F20F0010002907F
:10595000FFE702990698026842E802100028F0D199
:10596000FFE7FFE706992020C1F88C00FFE70699C2
:10597000002081F88400FFE703208DF81F0016E067
:10598000FFE706992020C1F888000699C1F88C002D
:1059900006990020C86606990867FFE70699002067
:1059A00081F88400FFE700208DF81F00FFE79DF8D5
:1059B0001F0008B080BD000080B582B00190019842
:1059C000806A00900098FDF7E9FF02B080BD0000FA
:1059D00080B584B003900398806A02900298D0F852
:1059E000880001900298D0F88C000090029800681E
:1059F00080680006002808D5FFE70198212804D117
:105A0000FFE7029800F0A8F9FFE7029800688068B5
:105A10004006002808D5FFE70098222804D1FFE7B8
:105A2000029800F027F9FFE70299D1F8900040F0C2
:105A30001000C1F890000298FDF7B0FF04B080BDDF
:105A400080B588B007900798806A0690079800682C
:105A50000068800600285BD4FFE706990020A1F8C3
:105A60005E00FFE7FFE70698006850E8000F20F4AB
:105A700080700590FFE705990698026842E80010DB
:105A80000028F0D1FFE7FFE7FFE7FFE7069800688F
:105A900050E8020F20F001000490FFE704990698F7
:105AA000026842E802100028F0D1FFE7FFE7FFE7B5
:105AB000FFE70698006850E8020F20F040000390CE
:105AC000FFE703990698026842E802100028F0D127
:105AD000FFE7FFE706992020C1F88C000698C06E0A
