:020000040800F2
:1000000018040020ED010008E5110008450D000866
:10001000E111000859020008351600080000000030
:10002000000000000000000000000000791500083A
:100030005D0200080000000015120008AD15000860
:10004000070200080702000807020008070200086C
:10005000070200080702000807020008070200085C
:10006000070200080702000807020008070200084C
:10007000070200080702000807020008070200083C
:10008000070200080000000007020008070200083D
:10009000070200080702000807020008070200081C
:1000A000070200080702000807020008070200080C
:1000B00007020008070200080702000807020008FC
:1000C00007020008070200080702000807020008EC
:1000D00007020008070200080702000807020008DC
:1000E00007020008070200080702000807020008CC
:1000F00007020008070200080702000800000000CD
:1001000000000000070200080000000007020008CD
:1001100007020008000000000702000807020008AC
:10012000070200080702000807020008070200088B
:10013000070200080000000000000000070200089D
:10014000070200080702000800000000000000008D
:10015000000000000000000000000000000000009F
:10016000000000000000000000000000070200087E
:10017000070200080000000000000000000000006E
:10018000000000000702000800000000000000005E
:10019000000000000000000000000000000000005F
:1001A000000000000000000007020008070200082D
:1001B000070200080702000807020008000000000C
:1001C000000000000702000800000000000000001E
:1001D0000702000807020008DFF80CD000F02AF838
:1001E00000480047211700081804002006488047EF
:1001F00006480047FEE7FEE7FEE7FEE7FEE7FEE70C
:10020000FEE7FEE7FEE7FEE721160008D901000839
:10021000D2B201E000F8012B491EFBD27047002248
:10022000F6E710B513460A4604461946FFF7F0FFF5
:10023000204610BD064C074D06E0E06840F0010383
:1002400094E8070098471034AC42F6D3FFF7C8FF94
:100250004829000868290008FEE7000070470000F0
:10026000EFF3108072B600BFFEE70000B0B50446A1
:1002700000F0E8F8054640F20800C2F2000000680D
:10028000611C18BF044400BF00F0DCF8401BA04212
:10029000FAD3B0BD2DE9F04F83B00D68002D00F00A
:1002A000C88000F138424FEAB22241F20047019281
:1002B000C4F600070622002600244FF00108B842C9
:1002C00008BF0522009209E00D68043435FA08F2EF
:1002D00008F1010806F1020600F0AB80A8F1010C5C
:1002E000012202FA0CFB15EA0B09EDD0D1F804A0AB
:1002F0000AF00305A5F1010EBEF1010F11D88768C0
:100300000322CB68B24027EA0202B3401A4382605C
:100310004268CAF3001322EA0B0203FA0CF31A43F1
:100320004260032D02D18A68012A08D0C2680323E3
:100330008F68B3409A4307FA06F31A43C260022D4E
:1003400011D16FF0030202EA5C02024404F01C07C0
:100350000F23D2F820E003FA07F50B692EEA050512
:10036000BB402B431362026803234F68B3409A4398
:1003700007F00303B3401A4317F4403F0260A3D0D1
:1003800041F26003C4F202031A6840F2004E42F0E8
:1003900001021A601A68C4F2010E02F00102029210
:1003A000029A2CF003024FF6084A7244CFF6FF7A05
:1003B00052F80A3004F00C070F25BD4023EA050C63
:1003C000019B009D052B38BF1D4605FA07F747EA3C
:1003D0000C0342F80A30DEF808204B6842EA0907AD
:1003E00040F20C4CDD0258BF22EA0907CEF8087033
:1003F000C4F2010CDCF800209D0242EA090758BF54
:1004000022EA0907CCF80070DEF804209D0342EAD6
:10041000090758BF22EA0907CEF80470DEF8002069
:10042000DB0342EA090758BF22EA0907CEF8007049
:100430004AE703B0BDE8F08F1823002A08BF28233D
:10044000C150704740F21400C2F2000000687047CB
:1004500040F2080040F21401C2F20000C2F20001B2
:1004600000680A68104408607047000080B50320E7
:1004700000F064F80F2000F009F800281CBF0120EC
:1004800080BD00F02FF8002080BD0000B0B540F224
:100490000801C2F20001096801B3044640F20400F9
:1004A000C2F200004FF47A720068B2FBF1F1B0FBC7
:1004B000F1F000F043FC0F2C4FF001050CD858B9B7
:1004C0004FF0FF3021460022002500F027F840F2CF
:1004D0000C00C2F2000004602846B0BD0125284689
:1004E000B0BD000080B582B041F25800C4F20200F5
:1004F000816841F001018160816801F00101019191
:100500000199016841F080510160006800F080505D
:100510000090009800F088F802B080BD70B51446D5
:100520000D46064601F088F82946224600F05CFE9A
:100530000146304601F088F870BD000080B501F03A
:1005400095F880BDA8B347F20001C4F200010A6823
:10055000B0F5007F61D1D1F8800002F4C06240F4B0
:100560008070B2F5806FC1F8800020D10868012248
:1005700062F34A20086040F20400C2F20000006802
:10058000322358434DF68363C4F21B33A0FB0303AD
:1005900002EB93404B69421E824203D213F4806007
:1005A0001046F7D14869400544BF0320704700203A
:1005B000704747F20000C4F200000168D0F88020C4
:1005C00001F4C06122F48072B1F5806FC0F8802020
:1005D000EDD10168012262F34A21016040F2040179
:1005E000C2F200010968322359434DF68363C4F215
:1005F0001B33A1FB031302EB934100BF43694A1E67
:100600008A4203D213F480611146F7D14069400554
:1006100044BF0320704700207047022060F34A2245
:100620000A6000207047000047F20800C4F2000092
:10063000016841F480410160704700002DE9F047F6
:10064000002800F0C88042F2000AC4F2020A044600
:10065000DAF800000D4600F00F0088420DD2DAF8FB
:10066000000020F00F002843CAF80000DAF800006C
:1006700000F00F00A84240F0AE80207841F2080858
:10068000C007C4F202080CD14FF0000920688107AE
:1006900028D4B9F1800F3ED1D8F8000020F0F00046
:1006A00037E06168032940F08A8058F8080C80011F
:1006B00040F1918000F0B0FD4BF20041C0F2C44126
:1006C00088420CD9D8F8000010F0F00F00F08F80AD
:1006D0002078800703D5A068002800F088804FF0BC
:1006E00000098DE0410705D5D8F8001041F4E0611C
:1006F000C8F80010000706D5D8F80000072161F3FC
:100700000D20C8F80000D8F80000A16820F0F00023
:100710000843C8F80000DAF8000000F00F00A84213
:100720001AD9DAF8000020F00F002843CAF80000B8
:10073000FFF788FE064641F2883700BFDAF800006E
:1007400000F00F00A84207D0FFF77CFE801BB842E4
:10075000F4D90320BDE8F0872068410707D5D8F811
:100760000010E26821F4E0611143C8F800100007AE
:1007700008D5D8F80000216920F4605040EAC10093
:10078000C8F8000000F05CF8D8F8001041F2687278
:10079000C1F30311C0F60002515C40F2040201F003
:1007A0001F0120FA01F140F20C00C2F200000068C3
:1007B000C2F200021160FFF769FEBDE8F08758F849
:1007C000080C022905D180035CBF0120BDE8F08739
:1007D00004E0400502D40120BDE8F08700F030F8C5
:1007E0004BF20041C0F2C44188427FF678AFD8F89E
:1007F0000000082161F307104FF08009C8F80000DD
:10080000D8F80000616820F003000843C8F8000031
:10081000FFF718FE064641F2883700BFD8F80000FF
:10082000616800F00C00B0EB810F3FF42FAFFFF7D1
:1008300009FE801BB842F1D90320BDE8F087000013
:1008400041F20C01C4F2020151F8040C42F20042E0
:10085000C0F2F40200F00C000428104608BF7047F4
:1008600051F8040C00F00C00082847F64000C0F2D4
:100870007D1021D051F8043C03F00C030C2B1CBF5D
:1008800000207047D1F800C00B680CF0030CC3F3D4
:100890000313BCF1030F08BF024608680133B2FB23
:1008A000F3F2C0F3062009685043C1F3416102220C
:1008B00002EB4101B0FBF1F0704700002DE9F0417F
:1008C00082B0002800F0EB800446007841F2000678
:1008D000C007C4F2020654D12078800771D4207872
:1008E000000700F195802078400700F1B380207860
:1008F000800600F1D880E569002D00F01A82B0680A
:1009000000F00C000C2840F03B81012D00F0C78066
:10091000F068216A00F003028A4240F0C080626AF7
:100920006FF00F0300F0F00103EB0212914240F070
:10093000B680A16A00F4FE42B2EB012F40F0AF8016
:10094000E16A00F07842B2EBC16F40F0A880226B00
:100950000023CFF6E07303EA025200F4C001A2F5CF
:100960000012914240F09B80616B4FF07E4202EAA0
:10097000016100F0C06001F17E41884240F08F804B
:10098000D7E1B06800F00C01F068082959D00322C3
:1009900081F00C0122EA00000844B0FA80F040091E
:1009A0004FD16568B5F5803F07D03068B5F5A02F09
:1009B00040F0108140F480203060306840F4803096
:1009C0000EE1B068F16800F00C00042851D001F08D
:1009D000030180F00C0081F002010844B0FA80F0BD
:1009E000400946D1E1683068002900F0B68040F443
:1009F00080703060FFF726FD054600BF3068400577
:100A000000F1E080FFF71EFD401B0228F6D932E11D
:100A10006169D6F89400002900F08C8040F0010054
:100A2000C6F89400FFF70EFD054600BFD6F8940007
:100A300080073FF558AFFFF705FD401B0228F5D9A9
:100A400019E1306880037FF547AF606800287FF4C4
:100A500043AF24E0B06DC00041D4B06D4FF0010849
:100A600040F08050B065B06D00F08050019001986A
:100A700037E03068400501D5E06880B170682169D1
:100A800020F0FE4040EA0160706040F20C00C2F2CB
:100A900000000068FFF7FAFC00283FF420AF0120B7
:100AA00002B0BDE8F081A169D6F89800002900F0F5
:100AB000B38040F00100C6F89800FFF7C3FC05467C
:100AC000D6F8980080073FF516AFFFF7BBFC401B38
:100AD00002284FF00300F3D902B0BDE8F0814FF0D7
:100AE000000847F20007C4F200073868C00510D4B8
:100AF000386840F480703860FFF7A4FC054600BFFA
:100B00003868C00505D4FFF79DFC401B0228F7D9C3
:100B1000B1E0A568012D08D0D6F89000052D40F071
:100B2000908040F00400C6F89000D6F8900040F0A5
:100B300001008EE020F00100C6F89400FFF782FC6F
:100B4000054600BFD6F8940080077FF5CCAEFFF7CE
:100B500079FC401B0228F5D98DE020F480703060CC
:100B6000FFF770FC054600BF306840057FF5B7AE63
:100B7000FFF768FC401B02284FF00300F4D9ABE7F5
:100B8000306820F080703060FFF75CFC022D054675
:100B90000CD100BF3068800140F18780FFF752FC24
:100BA000401B02284FF00300F4D995E7306880011C
:100BB00040F1B880FFF746FC401B02284FF00300CD
:100BC000F4D989E77068216920F0FE4040EA0160AD
:100BD000706084E620F480303060306820F480203B
:100BE0003060FFF72FFC002D054611D030688003E0
:100BF0003FF572AEFFF726FC401B6428F6D93AE0B9
:100C0000FFF720FC401B64284FF003003FF664AF61
:100C100030688003F4D45FE620F00100C6F8980045
:100C2000FFF710FC054600BFD6F8980080077FF557
:100C300062AEFFF707FC401B02284FF00300F3D918
:100C40004AE720F00100C6F89000D6F8900020F0A6
:100C50000400C6F89000FFF7F5FB002D054641F2B1
:100C6000883715D0D6F89000800715D4FFF7EAFB37
:100C7000401BB842F6D9032002B0BDE8F08100BFA6
:100C8000FFF7E0FB401BB8424FF003003FF624AFF4
:100C9000D6F890008007F3D4B8F1000F3FF427AEE8
:100CA000B06D20F08050B06521E6F06848F20C018C
:100CB000C0F29F1104F1200700EA010C8ECF6FF003
:100CC0000F00D4E90C5400EB02100022CFF6E072C2
:100CD00041EA0C0102EA05520843A2F500124FF066
:100CE0007E4540EA032005EA0465104305F17E4590
:100CF00040EAC7602843F060306840F080703060A0
:100D0000F06840F08070F060FFF79CFB04463068AC
:100D100080010ED4FFF796FB001B02284FF0030062
:100D2000F5D9D9E6F0684FF6FC71CFF6EE610840D0
:100D3000F060002002B0BDE8F081000080B500F056
:100D40001DFC80BDFEE7000080B586B00020059048
:100D5000CDE902004FF6FF7001900320049040F6A9
:100D60000000C4F6000001A9FFF794FA06B080BDA8
:100D700080B586B00020059003904FF6FF7001907B
:100D8000012002900320049040F60000C4F6000009
:100D900001A9FFF77FFA06B080BD0000B0B5044698
:100DA0000020002100F020F900F060F94FF49635A2
:100DB000204600F031F9013DFAD1B0BD2DE9F041F6
:100DC00086B0002541F24C000595CDE90355CDE9EB
:100DD0000155C4F202000168182641F004010160C7
:100DE0000168C4F6000601F0040100910099016851
:100DF00001AC41F00101016001684FF0010801F010
:100E00000101009100990168032741F0020101608E
:100E10000068214600F00200009000984FF44870EE
:100E2000019006F57A70CDF80880CDE90357FFF7F9
:100E300031FA4FF48070CDE901084FF0904021461F
:100E4000CDE90357FFF726FAFFF792FF306840F429
:100E500080703060D6F8000440F40870C6F80004D2
:100E600006B0BDE8F081000080B5203AD3B25B0047
:100E700053FA82F241F27873C0F6000303EB0212D8
:100E800000F01AF880BD0000F0B581B00A788AB190
:100E900004464D1C002740F23F1600BFB1B2D2B24B
:100EA0002046FFF7E1FF122F04D8EA5D103E01371C
:100EB000002AF3D101B0F0BD2DE9F0471446884671
:100EC000814600F091F840F2000A40F21006002737
:100ED000C2F2000AC2F2000600F0C8F8002500BF06
:100EE00034F81700E840C007304608BF5046008875
:100EF00000F092F80135102DF2D109F101095FFAE5
:100F000089F0414600F070F80137182F08BFBDE89E
:100F1000F087E1E710B5FFF751FF002000F014F86B
:100F200040F21204C2F200042080208848F23021EE
:100F3000884202D100F094F901E000F01DFA00208F
:100F400000F002F8208010BDB0B540F21844C4F69D
:100F50000004216941F400712161216941F480712B
:100F60002161216841F02001216040F61401C4F69E
:100F700000010860206940F02000206100BF00BF30
:100F800000BF206840F020002060206840F480709E
:100F90002060FFF7D9FE4FF61040CFF6FF702158C2
:100FA00041F48071215000BF00BF4FF6004000BFE8
:100FB000CFF6FF70D4F8F853215841F480712150D6
:100FC000FFF7D6FE206840F40071A8B22160B0BDE2
:100FD00081B0ADF80200BDF8020040F20001C2F29B
:100FE0000001088001B0704710B50C460146202072
:100FF00000F066F82120214600F062F810BD0000E4
:1010000081B0ADF80200BDF8020040F21001C2F25A
:101010000001088001B0704740F21841C4F6000199
:101020000A6942F400720A610A6842F480720A6036
:101030000A6842F020020A60C1F8FC03086940F027
:101040002000086100BF00BF00BF086840F020001A
:101050000860086840F48070086000BF00BF00BFEF
:10106000086840F4007008607047000040F21840C3
:10107000C4F60000016941F400710161016941F4A5
:1010800080710161016841F0200101602221C0F8F6
:10109000FC13016941F02001016100BF00BF00BFE6
:1010A000016841F020010160016841F48071016034
:1010B00000BF00BF00BF016841F4007101607047CC
:1010C00040F21842C4F60002136943F4007313613E
:1010D000136943F480731361136843F020031360B2
:1010E000C2F8FC03106940F02000106100BF00BF8F
:1010F00000BF106840F020001060106840F480705D
:101100001060C2F8FC13106940F02000106100BFAD
:1011100000BF00BF106840F020001060106840F46D
:1011200080701060704700002DE9F04387B0002701
:1011300041F24C000697CDE90477CDE90277C4F27D
:101140000200016840F6000441F0040101600168FA
:10115000C4F6000401F00401019101990168012223
:1011600041F02001016001684FF47F4601F0200149
:101170000191019901684FF0010841F001010160FE
:10118000016801F0010101910199016841F0080134
:10119000016000684FF47F4100F008000190019861
:1011A0002046FFF749F904F580652846042101220D
:1011B0004FF00409FFF740F9CDE9026802AE20467E
:1011C0003146CDE90477FFF765F828463146CDE989
:1011D0000298CDE90477FFF75DF807B0BDE8F0832A
:1011E000FEE70000FEE7000000F0070080F00703C4
:1011F000042B28BF04234FF0FF3C03380CFA03F301
:1012000038BF0020994381400CFA00F022EA000028
:10121000084370477047000041F20C00C4F202001E
:101220000168026842F2004301F00301C0F2F403D6
:10123000C2F30312032904BF47F64003C0F27D1333
:1012400001680132B3FBF2F2C1F306210068514399
:10125000C0F34160022202EB4000B1FBF0F07047A6
:1012600080B500200121FFF72BFF01200021FFF7AF
:1012700027FF102041F29071FFF722FF60204FF40A
:101280001C51FFF71DFF61200121FFF719FF4620C8
:101290000221FFF715FF132048F21001FFF710FF9E
:1012A000122048F2FE01FFF70BFF02204FF4A0616D
:1012B000FFF706FF032041F23001FFF701FF302066
:1012C00040F20331FFF7FCFE312040F20331FFF71B
:1012D000F7FE322040F20331FFF7F2FE33204FF4E5
:1012E0004071FFF7EDFE34200321FFF7E9FE3520C2
:1012F00040F20331FFF7E4FE36201421FFF7E0FE51
:10130000372040F20331FFF7DBFE382040F2033193
:10131000FFF7D6FE392040F20331FFF7D1FE3A2025
:101320004FF44071FFF7CCFE3B200321FFF7C8FECE
:101330003C2040F20331FFF7C3FE3D204FF4A051A3
:10134000FFF7BEFE92204FF40071FFF7B9FE932025
:1013500040F20331FFF7B4FE902040F60D01FFF795
:10136000AFFE032041F21801FFF7AAFE072040F26A
:101370007311FFF7A5FE80BD80B5E32043F208019D
:10138000FFF79EFEE7201221FFF79AFEEF2041F2C1
:101390003121FFF795FE01200021FFF791FE022089
:1013A0004FF4E061FFF78CFE032041F23001FFF7BC
:1013B00087FE04200021FFF783FE082040F207216A
:1013C000FFF77EFE09200021FFF77AFE0A200021A8
:1013D000FFF776FE0C200021FFF772FE0D200021A2
:1013E000FFF76EFE0F200021FFF76AFE102000219C
:1013F000FFF766FE11200721FFF762FE1220002191
:10140000FFF75EFE13200021FFF75AFEC820FEF70B
:101410002DFF102041F29061FFF752FE112040F2A3
:101420002721FFF74DFE3220FEF720FF12201D215D
:10143000FFF746FE3220FEF719FF13204FF400613C
:10144000FFF73EFE29201421FFF73AFE2B200B2147
:10145000FFF736FE3220FEF709FF20200021FFF7BC
:101460002FFE21200021FFF72BFE30200721FFF760
:1014700027FE312040F20771FFF722FE32200621BD
:10148000FFF71EFE352040F20471FFF719FE3620EB
:1014900041F60471FFF714FE37200421FFF710FE18
:1014A00038200021FFF70CFE392040F20671FFF7CB
:1014B00007FE3C2040F20171FFF702FE3D200F21A4
:1014C000FFF7FEFD50200021FFF7FAFD5120EF212C
:1014D000FFF7F6FD52200021FFF7F2FD532040F206
:1014E0003F11FFF7EDFD60204FF41C51FFF7E8FDC1
:1014F00061200121FFF7E4FD6A200021FFF7E0FDF4
:1015000080200021FFF7DCFD81200021FFF7D8FDBE
:1015100082200021FFF7D4FD83200021FFF7D0FDBA
:1015200084200021FFF7CCFD85200021FFF7C8FDB6
:1015300090201021FFF7C4FD92200021FFF7C0FD8D
:1015400093200321FFF7BCFD95204FF48871FFF72E
:10155000B7FD97200021FFF7B3FD98200021FFF78A
:10156000AFFD032041F21801FFF7AAFD072040F26A
:101570007311FFF7A5FD80BD70470000B0B50138BD
:101580000024B4EB106F1CBF0120B0BD4EF210055B
:10159000CEF2000568604FF0FF300F2100F054F8E4
:1015A0000720AC6028602046B0BD000080B5FEF783
:1015B0004FFF80BD70B594B006AC20463821FEF7D1
:1015C0002EFE00254FF400700595CDE90355CDE9B9
:1015D0000155FEF7B7FF012006904FF4803005213A
:1015E0000790022003260F9120210D900E96CDE941
:1015F0001010CDE912002046FFF760F968B90F20FE
:10160000CDE9010601A80221CDE903550595FFF7B3
:1016100015F8002804BF14B070BDFEF721FE0000CD
:101620004EF68850CEF20000016841F4700101606E
:1016300070470000FEE700004EF60C50CEF20000AE
:101640000068C0F3022070474EF6145300F00F02FA
:10165000CEF2000309011A4400F16043B0F1FF3FEC
:10166000C8BF03F564421170704700004EF60C517C
:10167000CEF200010A684FF6FF031A4060F30A2217
:1016800042F0806040F0FD7008607047B0B586B0F1
:1016900040F61404C4F6000400202568ADF81600D6
:1016A000CDF812004FF02030019042F26300C2F2F8
:1016B0002000029044F62070C6F6721003906E204F
:1016C000ADF8100001A93020FFF7DEFBA8B22060C2
:1016D00006B0B0BD70B540F60046C4F600060C4634
:1016E0000546304604210122FEF7A6FE681E4FF48F
:1016F0008071814084F00102A6F5806089B2FEF716
:101700009BFE304604210022FEF796FE70BD0000CD
:1017100080B5FFF7BBFF01200021FFF7DBFF80BD95
:10172000FEF7A4FEFFF746FFFFF7F4FB0020FFF7EC
:1017300035FB4FF6FF70FFF763FC0020FFF748FC16
:10174000FFF7F2FCFFF7E4FFFCE702E008C8121F16
:1017500008C1002AFAD170477047002001E001C19A
:10176000121F002AFBD1704700000000000000009B
:101770000102030406070809000000000000000041
:101780000000000000000000000000000000000059
:101790000000000000000000000000000000000049
:1017A00000000000000000000000800180018001B6
:1017B0008001800180018001800180018001800121
:1017C0008001800100000000800180010000000015
:1017D000000000000000000000000000CC00CC0071
:1017E000CC00CC00CC00CC000000000000000000C9
:1017F00000000000000000000000000000000000E9
:1018000000000000000000000000000000000000D8
:1018100000000000600C600C600C30063006FE1FFB
:10182000FE1F300638071803FE1FFE1F180318039B
:101830008C018C018C01000000008000E003F80F97
:101840009C0E8C1C8C188C009800F801E007800E10
:10185000801C8C188C189C18B80CF00FE0038000CA
:1018600080000000000000000000000000000E18D2
:101870001B0C110C11061106110311039B018E01A3
:10188000C038C06C60446044304430441844186C24
:101890000C380000000000000000E001F0033807F1
:1018A000180618063003F001F000F8009C310E33E2
:1018B000061E061C061C063FFC73F02100000000FB
:1018C0000000000000000000000000000C000C0000
:1018D0000C000C000C000C000000000000000000D8
:1018E00000000000000000000000000000000000F8
:1018F0000000000000000000000000020003800162
:10190000C000C000600060003000300030003000D7
:10191000300030003000300060006000C000C000C7
:101920008001000300020000000020006000C000F1
:101930008001800100030003000600060006000687
:101940000006000600060006000300038001800177
:10195000C000600020000000000000000000000047
:1019600000000000C000C000D806F807E001300306
:101970003807000000000000000000000000000028
:101980000000000000000000000000000000000057
:101990000000000080018001800180018001FC3F87
:1019A000FC3F800180018001800180010000000077
:1019B0000000000000000000000000000000000027
:1019C0000000000000000000000000000000000017
:1019D0000000000000000000000080018001000104
:1019E0000001800000000000000000000000000076
:1019F00000000000000000000000000000000000E7
:101A0000E007E00700000000000000000000000008
:101A100000000000000000000000000000000000C6
:101A200000000000000000000000000000000000B6
:101A300000000000000000000000C000C000000026
:101A400000000000000000000000000C000C000678
:101A500000060006000300030003800380018001EC
:101A60008001C000C000C0006000600000000000F5
:101A700000000000000000000000E003F007380E46
:101A8000180C0C180C180C180C180C180C180C1836
:101A90000C180C18180C380EF007E00300000000BA
:101AA0000000000000000000000000018001C001F3
:101AB000F00198018801800180018001800180018E
:101AC0008001800180018001800180010000000010
:101AD00000000000000000000000E003F80F180CF8
:101AE0000C180C1800180018000C000600038001E8
:101AF000C000600030001800FC1FFC1F0000000048
:101B000000000000000000000000E001F807180ECF
:101B10000C0C0C0C000C0006C003C007000C0018D5
:101B200000180C180C18180CF807E003000000004F
:101B300000000000000000000000000C000E000F7C
:101B4000000F800DC00C600C600C300C180C0C0CDD
:101B5000FC3FFC3F000C000C000C000C00000000DF
:101B600000000000000000000000F80FF80F18004F
:101B700018000C00EC03FC071C0E001C00180018D9
:101B800000180C181C0C180EF807E00300000000E9
:101B900000000000000000000000C007F00F381C2B
:101BA000181818000C00CC03EC0F3C0E1C1C0C1871
:101BB0000C180C18181C380EF007E0030000000089
:101BC00000000000000000000000FC1FFC1F000CD3
:101BD00000060006000380038001C001C000E00091
:101BE0006000600070003000300030000000000035
:101BF00000000000000000000000E003F007380EC5
:101C0000180C180C180C3806F007F007180C0C18F4
:101C10000C180C180C18380CF80FE003000000002A
:101C200000000000000000000000E003F007380E94
:101C30001C0C0C180C180C181C1C381EF81BE01976
:101C40000018000C000C1C0EF807F001000000004A
:101C50000000000000000000000000000000000084
:101C60000000000080018001000000000000000072
:101C70000000000000000000800180010000000062
:101C80000000000000000000000000000000000054
:101C90000000000080018001000000000000000042
:101CA0000000000000000000800180010001000130
:101CB00080000000000000000000000000000000A4
:101CC00000000000000000000010001C800FE00376
:101CD000F8001800F800E003800F001C001000005E
:101CE00000000000000000000000000000000000F4
:101CF0000000000000000000F81F000000000000CD
:101D0000F81F0000000000000000000000000000BC
:101D100000000000000000000000000000000000C3
:101D2000000000000000000008003800F001C007BB
:101D3000001F0018001FC007F00138000800000055
:101D400000000000000000000000E003F80F180C85
:101D50000C180C180018000C000600038001C000CD
:101D6000C000C00000000000C000C0000000000073
:101D7000000000000000000000000000E00718184C
:101D80000420C229224A1144094409440944092271
:101D90001113E20C024004201818E00700000000B4
:101DA0000000000000000000000080038003C00667
:101DB000C006C006600C600C301830183018F83FB0
:101DC000F83F1C700C600C6006C006C000000000EC
:101DD00000000000000000000000FC03FC0F0C0CE1
:101DE0000C180C180C180C0CFC07FC0F0C180C3001
:101DF0000C300C300C300C18FC1FFC0700000000ED
:101E000000000000000000000000C007F01F38388C
:101E10001C300C7006600600060006000600060076
:101E2000060006600C701C30F01FE0070000000088
:101E300000000000000000000000FE03FE0F060E80
:101E40000618061806300630063006300630063012
:101E5000063006180618060EFE0FFE0300000000EE
:101E600000000000000000000000FC3FFC3F0C00F0
:101E70000C000C000C000C00FC1FFC1F0C000C00E4
:101E80000C000C000C000C00FC3FFC3F00000000AC
:101E900000000000000000000000F83FF83F1800BC
:101EA0001800180018001800F81FF81F1800180074
:101EB0001800180018001800180018000000000092
:101EC00000000000000000000000E00FF83F3C7838
:101ED0000E6006E007C00300030003FE03FE03C01C
:101EE00007C006C00EC03CF0F83FE00F0000000045
:101EF000000000000000000000000C300C300C302E
:101F00000C300C300C300C30FC3FFC3F0C300C30F3
:101F10000C300C300C300C300C300C300000000059
:101F2000000000000000000000008001800180012E
:101F30008001800180018001800180018001800199
:101F4000800180018001800180018001000000008B
:101F5000000000000000000000000006000600066F
:101F60000006000600060006000600060006000641
:101F70000006180618063807F003E001000000000C
:101F80000000000000000000000006300618060CEB
:101F9000060606038601C60066007600DE008E0196
:101FA00006030606060C0618063006600000000050
:101FB00000000000000000000000180018001800D9
:101FC0001800180018001800180018001800180051
:101FD0001800180018001800F81FF81F0000000073
:101FE000000000000000000000000EE01EF01EF0E7
:101FF0001EF036D836D836D836D866CC66CC66CC05
:10200000C6C6C6C6C6C6C6C686C386C3000000000E
:10201000000000000000000000000C301C303C30CC
:102020003C306C306C30CC30CC308C310C330C33D9
:102030000C360C360C3C0C3C0C380C30000000000C
:1020400000000000000000000000E007F81F1C383E
:102050000E70066003C003C003C003C003C003C00A
:1020600003C006600E701C38F81FE0070000000077
:1020700000000000000000000000FC0FFC1F0C38F6
:102080000C300C300C300C300C18FC1FFC070C0012
:102090000C000C000C000C000C000C0000000000F8
:1020A00000000000000000000000E007F81F1C38DE
:1020B0000E70066003E003C003C003C003C003C08A
:1020C00007E006630E3F1C3CF83FE0F700C000004D
:1020D00000000000000000000000FE0FFE1F063898
:1020E0000630063006300638FE1FFE0706030606D9
:1020F000060C0618061806300630066000000000C0
:1021000000000000000000000000E003F80F1C0CBD
:102110000C180C180C001C00F803E00F001E00380F
:10212000063006300E301C1CF80FE00700000000DF
:1021300000000000000000000000FE7FFE7F800124
:102140008001800180018001800180018001800187
:102150008001800180018001800180010000000079
:10216000000000000000000000000C300C300C30BB
:102170000C300C300C300C300C300C300C300C307F
:102180000C300C300C301818F81FE007000000006D
:102190000000000000000000000003600630063070
:1021A00006300C180C180C18180C180C380E3006C9
:1021B0003006700760036003C001C001000000002A
:1021C000000000000000000000000360C361C36164
:1021D000C3616633663366336633663366336C1BBE
:1021E0006C1B6C1B2C1A3C1E380E380E00000000B5
:1021F000000000000000000000000FE00C7018302C
:102200003018700C600EC00780038003C003E00626
:10221000700C301C18180C300E6007E00000000035
:102220000000000000000000000003C006600C3049
:102230001C383818300C6006E007C00380018001AC
:102240008001800180018001800180010000000088
:1022500000000000000000000000FC7FFC7F006028
:1022600000300018000C000600038001C000600070
:10227000300018000C000600FE7FFE7F000000000A
:1022800000000000000000000000E003E003600028
:10229000600060006000600060006000600060003E
:1022A000600060006000600060006000600060002E
:1022B0006000E003E0030000000030003000600038
:1022C00060006000C000C000C000C001800180014B
:1022D0008001000300030003000600060000000068
:1022E00000000000000000000000E003E003000325
:1022F00000030003000300030003000300030003C6
:1023000000030003000300030003000300030003B5
:102310000003E003E003000000000000C001C00172
:1023200060036003600330063006180C180C0000D0
:10233000000000000000000000000000000000009D
:10234000000000000000000000000000000000008D
:10235000000000000000000000000000000000007D
:1023600000000000000000000000FFFFFFFF000071
:10237000000000000000000000000C000C000C0039
:102380000C000C000C000000000000000000000029
:10239000000000000000000000000000000000003D
:1023A000000000000000000000000000000000002D
:1023B00000000000F003F8071C0C0C0C000FF00FDD
:1023C000F80C0C0C0C0C1C0FF80FF018000000009F
:1023D00000000000000000000000180018001800B5
:1023E00018001800D803F80F380C18181818181807
:1023F000181818181818380CF80FD8030000000027
:1024000000000000000000000000000000000000CC
:1024100000000000C003F007300E180C1800180070
:1024200018001800180C300EF007C0030000000060
:102430000000000000000000000000180018001854
:1024400000180018C01BF01F301C18181818181896
:10245000181818181818301CF01FC01B00000000B6
:10246000000000000000000000000000000000006C
:1024700000000000C003F00F300C1818F81FF81F00
:10248000180018003818301CF00FC00700000000BA
:1024900000000000000000000000800FC00FC0001E
:1024A000C000C000F007F007C000C000C000C000BE
:1024B000C000C000C000C000C000C000000000009C
:1024C000000000000000000000000000000000000C
:1024D00000000000E00DF80F180E0C0C0C0C0C0C9A
:1024E0000C0C0C0C0C0C180EF80FE00D000C0C0C66
:1024F0001C06F807F0010000000018001800180082
:1025000018001800D807F80F381C181818181818D1
:10251000181818181818181818181818000000009B
:1025200000000000000000000000C000C00000002B
:1025300000000000C000C000C000C000C000C0001B
:10254000C000C000C000C000C000C000000000000B
:1025500000000000000000000000C000C0000000FB
:1025600000000000C000C000C000C000C000C000EB
:10257000C000C000C000C000C000C000C000C0005B
:10258000C000F8007800000000000C000C000C00F7
:102590000C000C000C0C0C060C038C01CC006C0025
:1025A000FC009C018C030C030C060C0C00000000CA
:1025B00000000000000000000000C000C000C000DB
:1025C000C000C000C000C000C000C000C000C0000B
:1025D000C000C000C000C000C000C000000000007B
:1025E00000000000000000000000000000000000EB
:1025F000000000007C3CFF7EC7E383C183C183C130
:1026000083C183C183C183C183C183C10000000032
:1026100000000000000000000000000000000000BA
:10262000000000009807F80F381C18181818181820
:10263000181818181818181818181818000000007A
:10264000000000000000000000000000000000008A
:1026500000000000C003F00F300C181818181818EC
:10266000181818181818300CF00FC00300000000DC
:10267000000000000000000000000000000000005A
:1026800000000000D803F80F380C18181818181894
:10269000181818181818380CF80FD8031800180054
:1026A00018001800180000000000000000000000E2
:1026B00000000000C01BF01F301C18181818181854
:1026C000181818181818301CF01FC01B0018001814
:1026D00000180018001800000000000000000000B2
:1026E00000000000B007F003700030003000300040
:1026F00030003000300030003000300000000000BA
:1027000000000000000000000000000000000000C9
:1027100000000000E003F003380E180C3800F0034E
:10272000C007000C180C380EF007E0030000000092
:102730000000000000000000000000008000C00059
:10274000C000C000F007F007C000C000C000C0001B
:10275000C000C000C000C000C0078007000000002B
:102760000000000000000000000000000000000069
:102770000000000018181818181818181818181839
:10278000181818181818381CF01FE019000000005D
:102790000000000000000000000000000000000039
:1027A000000000000C18180C180C180C300630062D
:1027B0003006600360036003C001C0010000000038
:1027C0000000000000000000000000000000000009
:1027D00000000000C141C141C3616363636363637F
:1027E0003636363636361C1C1C1C1C1C00000000FD
:1027F00000000000000000000000000000000000D9
:10280000000000001C38381C300C600660036003B8
:10281000600360036006300C381C1C3800000000A8
:1028200000000000000000000000000000000000A8
:10283000000000001830301830187018600C600C60
:10284000E00CC006C0068003800380038001800185
:10285000C001F00070000000000000000000000057
:1028600000000000FC1FFC1F000C0006000380019C
:10287000C000600030001800FC1FFC1F00000000BA
:102880000000000000000000000000038001C00004
:10289000C000C000C000C000C00060006000300088
:1028A00060004000C000C000C000C000C000C00008
:1028B0008001000300000000000080018001800111
:1028C0008001800180018001800180018001800100
:1028D00080018001800180018001800180018001F0
:1028E000800180018001000000006000C000C00184
:1028F0008001800180018001800100030003000647
:1029000000030001800180018001800180018001BD
:10291000C000600000000000000000000000000097
:102920000000000000000000F010F81F080F000079
:102930000000000000000000000000000000000097
:1029400000000000000000006829000800000020CE
:10295000100000004A170008782900081000002025
:10296000080400005A170008FFFF00000024F400CC
:0829700001000000100000004E
:04000005080001D915
:00000001FF
