:020000040800F2
:1000000018040020ED010008DD0D00081D0D00089A
:10001000D90D000859020008150F00080000000063
:10002000000000000000000000000000590E000861
:100030005D020008000000000D0E00088D0E000893
:10004000070200080702000807020008070200086C
:10005000070200080702000807020008070200085C
:10006000070200080702000807020008070200084C
:10007000070200080702000807020008070200083C
:10008000070200080000000007020008070200083D
:10009000070200080702000807020008070200081C
:1000A000070200080702000807020008070200080C
:1000B00007020008070200080702000807020008FC
:1000C00007020008070200080702000807020008EC
:1000D00007020008070200080702000807020008DC
:1000E00007020008070200080702000807020008CC
:1000F00007020008070200080702000800000000CD
:1001000000000000070200080000000007020008CD
:1001100007020008000000000702000807020008AC
:10012000070200080702000807020008070200088B
:10013000070200080000000000000000070200089D
:10014000070200080702000800000000000000008D
:10015000000000000000000000000000000000009F
:10016000000000000000000000000000070200087E
:10017000070200080000000000000000000000006E
:10018000000000000702000800000000000000005E
:10019000000000000000000000000000000000005F
:1001A000000000000000000007020008070200082D
:1001B000070200080702000807020008000000000C
:1001C000000000000702000800000000000000001E
:1001D0000702000807020008DFF80CD000F02AF838
:1001E00000480047BD0F000818040020064880475B
:1001F00006480047FEE7FEE7FEE7FEE7FEE7FEE70C
:10020000FEE7FEE7FEE7FEE7010F0008D901000860
:10021000D2B201E000F8012B491EFBD27047002248
:10022000F6E710B513460A4604461946FFF7F0FFF5
:10023000204610BD064C074D06E0E06840F0010383
:1002400094E8070098471034AC42F6D3FFF7C8FF94
:10025000FC0F00081C100008FEE7000070470000BB
:10026000EFF3108072B600BFFEE700002DE9F04FFB
:1002700083B00D68002D00F0C88000F138424FEACD
:10028000B22241F200470192C4F60007062200267E
:1002900000244FF00108B84208BF0522009209E08F
:1002A0000D68043435FA08F208F1010806F1020677
:1002B00000F0AB80A8F1010C012202FA0CFB15EA58
:1002C0000B09EDD0D1F804A00AF00305A5F1010E49
:1002D000BEF1010F11D887680322CB68B24027EA2C
:1002E0000202B3401A4382604268CAF3001322EA52
:1002F0000B0203FA0CF31A434260032D02D18A6801
:10030000012A08D0C26803238F68B3409A4307FAD2
:1003100006F31A43C260022D11D16FF0030202EA04
:100320005C02024404F01C070F23D2F820E003FA19
:1003300007F50B692EEA0505BB402B4313620268E3
:1003400003234F68B3409A4307F00303B3401A43B3
:1003500017F4403F0260A3D041F26003C4F20203ED
:100360001A6840F2004E42F001021A601A68C4F2A4
:10037000010E02F001020292029A2CF003024FF6E3
:10038000084A7244CFF6FF7A52F80A3004F00C079C
:100390000F25BD4023EA050C019B009D052B38BFAE
:1003A0001D4605FA07F747EA0C0342F80A30DEF863
:1003B00008204B6842EA090740F20C4CDD0258BFA6
:1003C00022EA0907CEF80870C4F2010CDCF800201C
:1003D0009D0242EA090758BF22EA0907CCF80070DB
:1003E000DEF804209D0342EA090758BF22EA090704
:1003F000CEF80470DEF80020DB0342EA090758BF9C
:1004000022EA0907CEF800704AE703B0BDE8F08F92
:100410001823002A08BF2823C150704740F210005B
:10042000C2F200000068704740F2040040F2100180
:10043000C2F20000C2F2000100680A6810440860BD
:100440007047000080B5032000F064F80F2000F032
:1004500009F800281CBF012080BD00F02FF8002003
:1004600080BD0000B0B540F20401C2F2000109688D
:1004700001B3044640F20000C2F200004FF47A7269
:100480000068B2FBF1F1B0FBF1F000F043FC0F2C7F
:100490004FF001050CD858B94FF0FF30214600222B
:1004A000002500F027F840F20800C2F200000460C6
:1004B0002846B0BD01252846B0BD000080B582B0F9
:1004C00041F25800C4F20200816841F001018160EC
:1004D000816801F0010101910199016841F08051A9
:1004E0000160006800F080500090009800F088F8EB
:1004F00002B080BD70B514460D46064600F00CFDF6
:100500002946224600F06CFC0146304600F00CFD06
:1005100070BD000080B500F019FD80BDA8B347F2A2
:100520000001C4F200010A68B0F5007F61D1D1F882
:10053000800002F4C06240F48070B2F5806FC1F8B0
:10054000800020D10868012262F34A20086040F24E
:100550000000C2F200000068322358434DF6836366
:10056000C4F21B33A0FB030302EB93404B69421E12
:10057000824203D213F480601046F7D148694005E7
:1005800044BF032070470020704747F20000C4F2C8
:1005900000000168D0F8802001F4C06122F480726C
:1005A000B1F5806FC0F88020EDD10168012262F3BF
:1005B0004A21016040F20001C2F2000109683223C1
:1005C00059434DF68363C4F21B33A1FB031302EBC3
:1005D000934100BF43694A1E8A4203D213F48061EB
:1005E0001146F7D14069400544BF03207047002001
:1005F0007047022060F34A220A6000207047000022
:1006000047F20800C4F20000016841F48041016033
:10061000704700002DE9F047002800F0C88042F242
:10062000000AC4F2020A0446DAF800000D4600F09F
:100630000F0088420DD2DAF8000020F00F002843A6
:10064000CAF80000DAF8000000F00F00A84240F0FD
:10065000AE80207841F20808C007C4F202080CD12D
:100660004FF000092068810728D4B9F1800F3ED1EE
:10067000D8F8000020F0F00037E06168032940F06E
:100680008A8058F8080C800140F1918000F0C0FB8E
:100690004BF20041C0F2C44188420CD9D8F80000A6
:1006A00010F0F00F00F08F802078800703D5A0684D
:1006B000002800F088804FF000098DE0410705D543
:1006C000D8F8001041F4E061C8F80010000706D522
:1006D000D8F80000072161F30D20C8F80000D8F811
:1006E0000000A16820F0F0000843C8F80000DAF824
:1006F000000000F00F00A8421AD9DAF8000020F03C
:100700000F002843CAF80000FFF788FE064641F2B2
:10071000883700BFDAF8000000F00F00A84207D0C9
:10072000FFF77CFE801BB842F4D90320BDE8F087B8
:100730002068410707D5D8F80010E26821F4E0618D
:100740001143C8F80010000708D5D8F80000216947
:1007500020F4605040EAC100C8F8000000F05CF8E6
:10076000D8F8001040F6EC72C1F30311C0F6000295
:10077000515C40F2000201F01F0120FA01F140F249
:100780000800C2F200000068C2F200021160FFF728
:1007900069FEBDE8F08758F8080C022905D18003EE
:1007A0005CBF0120BDE8F08704E0400502D40120D1
:1007B000BDE8F08700F030F84BF20041C0F2C441D0
:1007C00088427FF678AFD8F80000082161F307105F
:1007D0004FF08009C8F80000D8F80000616820F0E8
:1007E00003000843C8F80000FFF718FE064641F270
:1007F000883700BFD8F80000616800F00C00B0EB4B
:10080000810F3FF42FAFFFF709FE801BB842F1D9EB
:100810000320BDE8F087000041F20C01C4F20201A0
:1008200051F8040C42F20042C0F2F40200F00C0055
:100830000428104608BF704751F8040C00F00C0063
:10084000082847F64000C0F27D1021D051F8043C42
:1008500003F00C030C2B1CBF00207047D1F800C024
:100860000B680CF0030CC3F30313BCF1030F08BFB8
:10087000024608680133B2FBF3F2C0F306200968B0
:100880005043C1F34161022202EB4101B0FBF1F0A0
:10089000704700002DE9F04182B0002800F0EB80A5
:1008A0000446007841F20006C007C4F2020654D1A3
:1008B0002078800771D42078000700F19580207897
:1008C000400700F1B3802078800600F1D880E56908
:1008D000002D00F01A82B06800F00C000C2840F0E7
:1008E0003B81012D00F0C780F068216A00F003020F
:1008F0008A4240F0C080626A6FF00F0300F0F0019E
:1009000003EB0212914240F0B680A16A00F4FE426D
:10091000B2EB012F40F0AF80E16A00F07842B2EB19
:10092000C16F40F0A880226B0023CFF6E07303EA8A
:10093000025200F4C001A2F50012914240F09B80E7
:10094000616B4FF07E4202EA016100F0C06001F18C
:100950007E41884240F08F80D7E1B06800F00C0102
:10096000F068082959D0032281F00C0122EA000026
:100970000844B0FA80F040094FD16568B5F5803F72
:1009800007D03068B5F5A02F40F0108140F48020EA
:100990003060306840F480300EE1B068F16800F0FB
:1009A0000C00042851D001F0030180F00C0081F00C
:1009B00002010844B0FA80F0400946D1E16830688D
:1009C000002900F0B68040F480703060FFF726FD0B
:1009D000054600BF3068400500F1E080FFF71EFDCE
:1009E000401B0228F6D932E16169D6F8940000294B
:1009F00000F08C8040F00100C6F89400FFF70EFD77
:100A0000054600BFD6F8940080073FF558AFFFF7C2
:100A100005FD401B0228F5D919E1306880037FF5F8
:100A200047AF606800287FF443AF24E0B06DC0009A
:100A300041D4B06D4FF0010840F08050B065B06D0A
:100A400000F080500190019837E03068400501D5F2
:100A5000E06880B17068216920F0FE4040EA0160E2
:100A6000706040F20800C2F200000068FFF7FAFC74
:100A700000283FF420AF012002B0BDE8F081A16959
:100A8000D6F89800002900F0B38040F00100C6F8C5
:100A90009800FFF7C3FC0546D6F8980080073FF59D
:100AA00016AFFFF7BBFC401B02284FF00300F3D941
:100AB00002B0BDE8F0814FF0000847F20007C4F231
:100AC00000073868C00510D4386840F4807038607A
:100AD000FFF7A4FC054600BF3868C00505D4FFF742
:100AE0009DFC401B0228F7D9B1E0A568012D08D074
:100AF000D6F89000052D40F0908040F00400C6F834
:100B00009000D6F8900040F001008EE020F0010047
:100B1000C6F89400FFF782FC054600BFD6F89400A3
:100B200080077FF5CCAEFFF779FC401B0228F5D992
:100B30008DE020F480703060FFF770FC054600BF48
:100B4000306840057FF5B7AEFFF768FC401B022810
:100B50004FF00300F4D9ABE7306820F080703060CC
:100B6000FFF75CFC022D05460CD100BF3068800108
:100B700040F18780FFF752FC401B02284FF0030032
:100B8000F4D995E73068800140F1B880FFF746FC62
:100B9000401B02284FF00300F4D989E770682169EF
:100BA00020F0FE4040EA0160706084E620F480306E
:100BB0003060306820F480203060FFF72FFC002D7B
:100BC000054611D0306880033FF572AEFFF726FC72
:100BD000401B6428F6D93AE0FFF720FC401B64284C
:100BE0004FF003003FF664AF30688003F4D45FE653
:100BF00020F00100C6F89800FFF710FC054600BF82
:100C0000D6F8980080077FF562AEFFF707FC401B1F
:100C100002284FF00300F3D94AE720F00100C6F89C
:100C20009000D6F8900020F00400C6F89000FFF77E
:100C3000F5FB002D054641F2883715D0D6F8900017
:100C4000800715D4FFF7EAFB401BB842F6D9032012
:100C500002B0BDE8F08100BFFFF7E0FB401BB842E7
:100C60004FF003003FF624AFD6F890008007F3D48E
:100C7000B8F1000F3FF427AEB06D20F08050B065A2
:100C800021E6F06848F20C01C0F29F1104F1200740
:100C900000EA010C8ECF6FF00F00D4E90C5400EB8A
:100CA00002100022CFF6E07241EA0C0102EA05527E
:100CB0000843A2F500124FF07E4540EA032005EA02
:100CC0000465104305F17E4540EAC7602843F060A3
:100CD000306840F080703060F06840F08070F06004
:100CE000FFF79CFB0446306880010ED4FFF796FBAB
:100CF000001B02284FF00300F5D9D9E6F0684FF643
:100D0000FC71CFF6EE610840F060002002B0BDE853
:100D1000F081000080B500F0A1F880BDFEE7000082
:100D20002DE9F04387B0002741F24C000697CDE94A
:100D30000477CDE90277C4F20200016840F60004AE
:100D400041F0040101600168C4F6000401F00401EF
:100D5000019101990168012241F0200101600168BF
:100D60004FF47F4601F020010191019901684FF095
:100D7000010841F001010160016801F001010191E8
:100D80000199016841F00801016000684FF47F415A
:100D900000F00800019001982046FFF739FB04F5A8
:100DA00080652846042101224FF00409FFF730FB3B
:100DB000CDE9026802AE20463146CDE90477FFF75F
:100DC00055FA28463146CDE90298CDE90477FFF778
:100DD0004DFA07B0BDE8F083FEE70000FEE7000033
:100DE00000F0070080F00703042B28BF04234FF016
:100DF000FF3C03380CFA03F338BF002099438140CD
:100E00000CFA00F022EA0000084370477047000027
:100E100041F20C00C4F202000168026842F2004391
:100E200001F00301C0F2F403C2F30312032904BF6B
:100E300047F64003C0F27D1301680132B3FBF2F2C2
:100E4000C1F3062100685143C0F34160022202EB66
:100E50004000B1FBF0F0704770470000B0B50138BA
:100E60000024B4EB106F1CBF0120B0BD4EF2100582
:100E7000CEF2000568604FF0FF300F2100F054F80B
:100E80000720AC6028602046B0BD000080B5FFF7A9
:100E9000CBFA80BD70B594B006AC20463821FFF780
:100EA000BEF900254FF400700595CDE90355CDE955
:100EB0000155FFF733FB012006904FF480300521E8
:100EC0000790022003260F9120210D900E96CDE968
:100ED0001010CDE912002046FFF7DCFC68B90F20A6
:100EE000CDE9010601A80221CDE903550595FFF7DB
:100EF00091FB002804BF14B070BDFFF7B1F90000EA
:100F00004EF68850CEF20000016841F47001016095
:100F100070470000FEE700004EF60C50CEF20000D5
:100F20000068C0F3022070474EF6145300F00F0221
:100F3000CEF2000309011A4400F16043B0F1FF3F13
:100F4000C8BF03F564421170704700004EF60C51A3
:100F5000CEF200010A684FF6FF031A4060F30A223E
:100F600042F0806040F0FD700860704770B540F658
:100F70000046C4F600060C46054630460421012210
:100F8000FFF746FA681E4FF48071814084F0010239
:100F9000A6F5806089B2FFF73BFA304604210022B3
:100FA000FFF736FA70BD000080B501200121FFF780
:100FB000DDFF02200121FFF7D9FF80BDFFF742FAD4
:100FC000FFF768FFFFF7ACFEFFF7EEFFFCE702E07C
:100FD00008C8121F08C1002AFAD1704770470020C4
:100FE00001E001C1121F002AFBD170470000000080
:100FF0000000000001020304060708092010000891
:101000000000002010000000CE0F00083010000883
:101010001000002008040000DE0F0008000000009F
:101020000024F40001000000100000000000000097
:04000005080001D915
:00000001FF
