:020000040800F2
:1000000048050020ED01000829270008EF1F00081F
:100010002527000899070008F72D000800000000B8
:10002000000000000000000000000000B92A0008E5
:100030009D070008000000002D270008BB2A0008CB
:10004000070200080702000807020008070200086C
:10005000070200080702000807020008070200085C
:10006000070200080702000807020008070200084C
:10007000070200080702000807020008070200083C
:10008000070200080000000007020008070200083D
:10009000070200080702000807020008070200081C
:1000A00007020008412B00080702000807020008A9
:1000B000512B000807020008612B00080702000806
:1000C00007020008070200080702000807020008EC
:1000D00007020008070200080702000807020008DC
:1000E00007020008070200080702000807020008CC
:1000F00007020008070200080702000800000000CD
:1001000000000000070200080000000007020008CD
:1001100007020008000000000702000807020008AC
:10012000070200080702000807020008070200088B
:10013000070200080000000000000000070200089D
:10014000070200080702000800000000000000008D
:10015000000000000000000000000000000000009F
:10016000000000000000000000000000070200087E
:10017000070200080000000000000000000000006E
:10018000000000000702000800000000000000005E
:10019000000000000000000000000000000000005F
:1001A000000000000000000007020008070200082D
:1001B000070200080702000807020008000000000C
:1001C000000000000702000800000000000000001E
:1001D0000702000807020008DFF80CD000F03CFA24
:1001E00000480047CD4000084805002006488047E9
:1001F00006480047FEE7FEE7FEE7FEE7FEE7FEE70C
:10020000FEE7FEE7FEE7FEE72D2B0008D901000818
:10021000D2B201E000F8012B491EFBD27047002248
:10022000F6E710B513460A4604461946FFF7F0FFF5
:10023000204610BD00F0004230F000400AD0C10D51
:1002400001F56071C0F3160042EA0151C20840078F
:100250001143704700200146704730B50B460146F8
:1002600000202022012409E021FA02F59D4205D355
:1002700003FA02F5491B04FA02F52844151EA2F1FF
:100280000102F1DC30BD2DE9F05F05460020924609
:100290009B4688460646814640241BE02846414648
:1002A0004746224600F0F9F953465A46C01A914192
:1002B00010D311461846224600F0E0F92D1A67EBDC
:1002C00001084F4622460120002100F0D7F917EB24
:1002D00000094E41201EA4F10104DFDC48463146EE
:1002E0002A464346BDE8F09F2DE9FE4F804681EA4D
:1002F0000300C00F0C46009021F0004123F00045A0
:10030000B8EB0200A94105D24046214690461C4662
:100310000B46024623F00040104347D0270DC7F399
:100320000A00C3F30A510290401A019040286BDA88
:10033000C3F3130040F4801B0098924620B10023C1
:10034000D2EB030A63EB0B0B01985946C0F1400254
:10035000504600F093F906460D4650465946019A1C
:1003600000F0ABF910EB08006141002487EA11525C
:1003700084EAE7731A4340D0009A62B3019A012AD3
:100380004FEA075215DC001B61EB02014FF00042FF
:1003900002EA0752CDE90042001C41F580113246C5
:1003A0002B4600F0ABF903B0BDE8F08F4046214684
:1003B000F9E7001B61EB0201001C41F580130018F6
:1003C0005B412018A2F5001747EB030140EAD57006
:1003D000B6196D4111E06D084FEA360645EAC07561
:1003E0004FEA0752001B61EB0201001C41F580112E
:1003F00049084FEA30000019514132462B4603B0FC
:10040000BDE8F04F00F06BB90098012240000023D6
:10041000D0EB020263EBE073009821464FEAE074F0
:10042000B8EB000061EB0401E9E783F000435BE710
:1004300081F0004158E72DE9FE4F81EA030404F002
:10044000004421F0004100944FF0000B23F00043E2
:1004500050EA01045ED052EA03045BD0C3F30A54AD
:10046000C1F30A552C44A4F2F3340194A0FB0254C6
:10047000C1F3130141F48011C3F3130343F4801358
:1004800001FB024400FB034E840A970A44EA8154AC
:1004900047EA8357A4FB076802958D0A05FB078589
:1004A0004FEA932C04FB0C542705029D4FEA065893
:1004B00047EA1637B5EB08056EEB070C870E920E70
:1004C00047EA811742EA8312A7FB0201B6EB0B0150
:1004D00064EB00042B0D43EA0C335E1844EB1C5014
:1004E000DA465146E7FB0201C5F313044FEA0B332A
:1004F00043EA14534FEA0432019C43EA0603A4F191
:100500000C040294009CCDE900B400F0F7F803B0AD
:10051000BDE8F08F00200146F9E72DE9F04D81EAB2
:10052000030404F0004B21F0004514464FF0000A8C
:1005300023F0004150EA050220D054EA01021DD008
:10054000C5F30A570246C5F31303C1F31300C1F301
:100550000A5640F4801543F48013A7EB0608101BDD
:10056000D64608F2FD3873EB050002D308F1010806
:1005700001E092185B41B8F1000F03DA0020014658
:10058000BDE8F08D00204FF48011064684460EE051
:10059000171B73EB050705D3121B63EB050306431B
:1005A0004CEA010C49084FEA300092185B4150EACE
:1005B0000107EDD152EA030012D082EA040083EA77
:1005C0000501084305D0101BAB4106D201220023D0
:1005D00006E000224FF0004302E06FF001025310EA
:1005E0001AEB06004CEB085110EB0A0041EB0B0133
:1005F000BDE8F04D00F073B8C1F30A52C1F3130126
:1006000040F2FF3341F480119A4202DA00200146A1
:10061000704740F233439A42A2F2334202DC524224
:1006200000F03BB800F02AB830B5041E71F10004A8
:1006300004DB4FF00044404264EB0101141E73F1EF
:10064000000405DB1C464FF00043524263EB0403F9
:10065000994208BF904230BD064C074D06E0E06865
:1006600040F0010394E8070098471034AC42F6D3F9
:10067000FFF7B6FDA4530008C4530008202A04DB8A
:10068000203A00FA02F1002070479140C2F12003A5
:1006900020FA03F3194390407047202A04DB203AE4
:1006A00021FA02F00021704721FA02F3D040C2F192
:1006B00020029140084319467047202A06DBCB17D9
:1006C000203A41FA02F043EAE07306E041FA02F30D
:1006D000D040C2F12002914008431946704710B53E
:1006E000141E73F1000408DA401C41F10001921855
:1006F0005B411A4301D120F0010010BD2DE9F04DFE
:1007000092469B4611B1B1FA81F202E0B0FA80F252
:1007100020329046FFF7B2FF04460F4640EA0A0037
:1007200041EA0B0153465A46084313D0114653EA97
:10073000010019D0C8F140025046FFF7AEFF054650
:100740000E46504659464246FFF798FF084305D0EB
:10075000012004E020463946BDE8F08D0020054325
:1007600046EAE0762C4337430A986305E40AA0EB97
:1007700008000022FD0A44EA47540A3002D500204E
:100780000146E9E7010510196941DDE9084500194D
:100790006941BDE8F04DA2E700BFFEE770470021C8
:1007A00009E0002201E0531C9AB240F6B8339A42A5
:1007B000F9DB4B1C99B28142F3DB704772B600BF84
:1007C000FEE7000070B5044600F00AF9064625462B
:1007D000681C10B104480068054400BF00F000F92F
:1007E000801BA842FAD370BD0800002078B50346EC
:1007F0000022D0E0012696400D6805EA0604002C90
:1008000072D04D68012D08D04D68022D05D04D687D
:10081000112D02D04D68122D13D198685600032572
:10082000B540A8435600CD68B54028439860586845
:1008300001259540A8430D79C5F30015954028433F
:100840005860D86856000325B540A84356008D6807
:10085000B5402843D8604D68022D02D04D68122D56
:1008600013D1D60803F1200555F826005507EE0EE2
:100870000F25B540A8435607F60E0D69B54028432D
:10088000D60803F1200545F8260018685600032510
:10089000B540A8430D7905F003055600B54028433F
:1008A00018604D6805F08055B5F1805F72D100BFCA
:1008B0003C4D2D6E45F001053A4E356635462D6EA0
:1008C00005F00105009500BF00BF4FEAB635960858
:1008D00055F8260095072E0F0F25B540A843B3F114
:1008E000904F02D100251AE054E02F4DAB4201D1C8
:1008F000012514E02D4DAB4201D102250FE02C4D16
:10090000AB4201D103250AE02A4DAB4201D10425B7
:1009100005E0294DAB4201D1052500E006259607EB
:10092000360FB5402843254D960845F82600244D3E
:100930002868A0434D6805F48035B5F5803F00D1A7
:1009400020431F4D28602D1D2868A0434D6805F4E5
:100950000035B5F5003F00D12043194D2D1D28600D
:100960002D1D2868A0434D6805F48015B5F5801F3E
:1009700000D12043124D083528602D1D2868A04362
:100980004D6805F40015B5F5001F00D120430C4D4E
:100990000C352860521C0D68D540002D7FF42AAF1D
:1009A00078BD000000100240000400480008004824
:1009B000000C0048001000480014004808000140E6
:1009C00000040140024613690B400BB1012000E016
:1009D000002070470AB1816100E081627047000029
:1009E00001480068704700000000002003480068CC
:1009F0000349096808440149086070470000002065
:100A00000800002010B50024032000F0ABF80F20F0
:100A100000F008F808B1012401E000F02FF82046AA
:100A200010BD000070B50446002511480068D8B11B
:100A30000F4800684FF47A71B1FBF0F00D49096876
:100A4000B1FBF0F6304600F049FD58B9102C07D242
:100A500000222146501E00F047F80748046004E0D9
:100A6000012502E0012500E00125284670BD0000B7
:100A7000080000200C0000200400002008B500BF82
:100A80000E48006E40F001000C4908660846006EF2
:100A900000F00100009000BF00BF00BF0846806D5D
:100AA00040F0805088650846806D00F080500090CE
:100AB00000BF00BF00F0F6F808BD000000100240C3
:100AC0000146084600280DDB00BF00BF00F01F03F1
:100AD00001229A4043099B0003F1E023C3F800215F
:100AE00000BF00BF00BF70472DE9F05F80460D4694
:100AF000164602F097F9074639462A46334601F072
:100B00000700C0F1070ABAF1040F02D94FF0040A36
:100B100001E0C0F1070AD14600F1040ABAF1070F5B
:100B200002D24FF0000A01E0A0F1030AD4464FF0D0
:100B3000010A0AFA09FAAAF1010A0AEA020A0AFAF9
:100B40000CFA4FF0010B0BFA0CFBABF1010B0BEAAB
:100B5000030B4AEA0B042146404602F06BF9BDE85C
:100B6000F09F000000BF00F00702064B19684FF627
:100B7000FF031940044B0B4343EA0221014B196068
:100B800000BF70470CED00E00000FA0502468ABB8A
:100B90004148006800F4C060B0F5806F2BD13E483A
:100BA0008030006820F480703B4BC3F8800018460A
:100BB000006820F4C06040F4007018603748006896
:100BC00032235843364BB0FBF3F0411C00E0491E82
:100BD0003148406900F48060B0F5806F01D1002990
:100BE000F5D12D48406900F48060B0F5806F51D197
:100BF0000320704708E028488030006820F48070A7
:100C0000254BC3F8800045E0B2F5007F3AD1224879
:100C1000006800F4C060B0F5806F2AD11E488030B3
:100C2000006840F480701C4BC3F8800018460068D0
:100C300020F4C06040F40070186018480068322347
:100C40005843174BB0FBF3F0411C00E0491E12481B
:100C5000406900F48060B0F5806F01D10029F5D1C2
:100C60000D48406900F48060B0F5806F12D1032018
:100C7000BFE709488030006840F48070064BC3F835
:100C8000800007E00448006820F4C06040F4806001
:100C9000014B18600020ACE7007000400C00002001
:100CA00040420F000348806840F48040014988605A
:100CB00070470000007000402DE9F04104460D46E9
:100CC0004FF0000814B90120BDE8F0817D480068AC
:100CD00000F00F00A8420ED27A48006820F00F0002
:100CE0002843784908600846006800F00F00A842D1
:100CF00001D00120E8E7207800F00100002864D04E
:100D00006068032823D17048006800F0007008B9BB
:100D10000120D9E701F00CFD06466C48864237D920
:100D20006948806800F0F00030B1207800F00200DF
:100D300002282DD1A06858BB6348806820F0F000DD
:100D400040F08000604988604FF0800820E06068D3
:100D5000022806D15C48006800F4003040B9012048
:100D6000B2E75948006800F4806008B90120ABE799
:100D700000F0B4F806465548864209D952488068C2
:100D800020F0F00040F080004F4988604FF080086C
:100D90004D48806820F00300616808434A49886034
:100DA000FFF71EFE074608E0FFF71AFEC01B41F2E0
:100DB0008831884201D9032086E74348806800F0E3
:100DC0000C006168B0EB810FEED1207800F00200DA
:100DD000022820D1207800F00400042805D13A48E8
:100DE000806840F4E06038498860207800F00800AE
:100DF000082807D13448806820F4605040F4E0604F
:100E0000314988603048806820F0F000A1680843CC
:100E10002D49886008E0B8F1800F05D12A48806824
:100E200020F0F000284988602648006800F00F0094
:100E3000A84219D92348006820F00F00284321490F
:100E40000860FFF7CDFD074608E0FFF7C9FDC01BAE
:100E500041F28831884201D9032035E719480068FA
:100E600000F00F00A842F0D1207800F00400042820
:100E700007D11548806820F4E060E1680843124912
:100E80008860207800F00800082808D10E488068A3
:100E900020F46050216940EAC1000B49886000F0ED
:100EA0001DF809498968C1F30311094A515C01F031
:100EB0001F01C8400749086007480068FFF7B2FDF6
:100EC00002E70000002002400010024000B4C40409
:100ED000BC4100080C0000200400002070B5224D29
:100EE000AD6805F00C05042D01D120483AE01E4DF7
:100EF000AD6805F00C05082D01D11D4832E01A4DF2
:100F0000AD6805F00C050C2D2BD1174DED6805F0E3
:100F10000304154DED68C5F303156A1C022C0CD0B3
:100F2000032C09D1124DB5FBF2F50F4EF668C6F34E
:100F3000062605FB06F10AE000BF0C4DB5FBF2F5F5
:100F4000094EF668C6F3062605FB06F100BF00BF92
:100F5000054DED68C5F341656D1C6B00B1FBF3F009
:100F600000E0002070BD0000001002400024F400EA
:100F700000366E012DE9F843044614B90120BDE89E
:100F8000F883207800F00100002865D0FC488068D4
:100F900000F00C07FA48C06800F003060C2F01D1DE
:100FA000032E01D0082F0AD1F548006800F4003064
:100FB000002851D0606800284ED10120DFE700BF33
:100FC0006068B0F5803F06D1ED48006840F480309D
:100FD000EB4908601AE06068B0F5A02F0BD1E84833
:100FE000006840F48020E64908600846006840F444
:100FF000803008600AE0E248006820F48030E04970
:1010000008600846006820F48020086000BF60681F
:1010100088B1FFF7E5FC054606E0FFF7E1FC401B61
:10102000642801D90320AAE7D548006800F40030FD
:101030000028F2D010E0FFF7D3FC054606E0FFF7EA
:10104000CFFC401B642801D9032098E7CC480068F6
:1010500000F400300028F2D1207800F002000228CD
:1010600060D1C748806800F00C07C548C06800F030
:1010700003060C2F01D1022E01D0042F18D1C04835
:10108000006800F4806018B1E06808B9012076E7D4
:10109000BB48406820F0FE40217C40EA0160B8492E
:1010A0004860B8480068FFF7BDFC18B3012066E748
:1010B000E06800B3B248006840F48070B04908604E
:1010C000FFF78EFC054606E0FFF78AFC401B02286E
:1010D00001D9032053E7AA48006800F48060002883
:1010E000F2D0A748406820F0FE40217C40EA016031
:1010F000A349486016E0A248006820F48070A04927
:101100000860FFF76DFC054606E0FFF769FC401B31
:10111000022801D9032032E79948006800F4806072
:101120000028F2D1207800F00800082836D1606944
:10113000D0B193489430006840F001009049C1F864
:101140009400FFF74DFC054606E0FFF749FC401B05
:10115000022801D9032012E789489430006800F082
:1011600002000028F1D019E085489430006820F092
:1011700001008349C1F89400FFF732FC054606E000
:10118000FFF72EFC401B022801D90320F7E67C481C
:101190009430006800F002000028F1D1207800F0BF
:1011A0000400042872D14FF000087548806D0121B9
:1011B00021EA107078B100BF7148806D40F0805016
:1011C0006F4988650846806D00F08050009000BF30
:1011D00000BF4FF001086C48006800F48070B0B99F
:1011E0006948006840F4807067490860FFF7F8FBC1
:1011F000054606E0FFF7F4FB401B022801D9032057
:10120000BDE66148006800F480700028F2D000BF9D
:10121000A068012808D15A489030006840F00100C9
:101220005749C1F8900021E0A06805280FD1544823
:101230009030006840F004005149C1F89000084621
:10124000D0F8900040F00100C1F890000EE04C484A
:101250009030006820F001004949C1F8900008462C
:10126000D0F8900020F00400C1F8900000BFA06802
:10127000A8B1FFF7B5FB054609E0FFF7B1FB401B3E
:1012800041F28831884202D9032078E625E03C48C3
:101290009030006800F002000028EED013E0FFF765
:1012A0009FFB054608E0FFF79BFB401B41F288319E
:1012B000884201D9032062E631489030006800F08E
:1012C00002000028EFD1B8F1010F05D12C48806D44
:1012D00020F080502A49886500BF207800F0200067
:1012E000202836D1A069D0B125489830006840F058
:1012F00001002349C1F89800FFF772FB054606E09C
:10130000FFF76EFB401B022801D9032037E61C487B
:101310009830006800F002000028F1D019E0184869
:101320009830006820F001001549C1F89800FFF7D7
:1013300057FB054606E0FFF753FB401B022801D987
:1013400003201CE60E489830006800F002000028D8
:10135000F1D1E069002860D00948806800F00C00F5
:101360000C287FD0E069022858D10548006820F099
:10137000807003490860FFF733FB05460DE000006D
:10138000001002400400002000700040FFF728FB1E
:10139000401B022801D90320F1E54D48006800F008
:1013A00000700028F2D1D4E90810401E41EA001173
:1013B000A06A41EA0021208E0122C2EB500041EADE
:1013C00040513420005DC2EB500041EA40612C20C6
:1013D000005D41EAC0603E49C9683E4A1140084389
:1013E0003B49C8600846006840F0807008600846C5
:1013F000C06840F08070C860FFF7F2FA054606E06A
:10140000FFF7EEFA401B022801D90320B7E5304868
:10141000006800F000700028F2D056E02C48006808
:1014200020F080702A4908600846C06820F0030058
:10143000C8600846C068284908402549C860FFF7C9
:10144000CFFA054607E00DE0FFF7CAFA401B022875
:1014500001D9032093E51E48006800F000700028C1
:10146000F2D132E0E069012800D188E51848C66869
:1014700006F00301206A814225D106F0F001606A7E
:10148000401EB1EB001F1ED106F4FE41A06AB1EB75
:10149000002F18D106F078412C20005DB1EBC06F11
:1014A00011D106F4C001208E0122C2EB5000B1EB35
:1014B000405F08D106F0C0613420005DC2EB5000EF
:1014C000B1EB406F01D0012059E5002057E5000045
:1014D000001002400C809F01FFFFEEFE70B5044635
:1014E0002546681EB0F1807F01D301200FE0681E01
:1014F0004FF0E02148610F214FF0FF3001F09AFCDE
:1015000000204FF0E021886107200861002070BDB5
:1015100070477047704770477047704730B5024654
:101520000B4600BF92F83C00012801D1022030BDDB
:10153000012082F83C0000BF022082F83D001068C4
:101540004168106884681D4D1068A84203D01C4D86
:101550001068A84203D121F470015868014319486A
:1015600001401868014310684160144D1068A8429A
:1015700013D01068B0F1804F0FD0134D1068A842FF
:101580000BD0124D1068A84207D00D4D1068A8422C
:1015900003D00F4D1068A84205D124F0800498684C
:1015A000044310688460012082F83D0000BF0020E1
:1015B00082F83C0000BF00BFB9E70000002C0140EA
:1015C000003401408FFFFFFD000400400008004090
:1015D00000400140704710B504460CB9012010BD11
:1015E00094F83D0028B9002084F83C00204600F023
:1015F00029F8022084F83D00211D206801F0B8FA86
:10160000012084F8480000BF84F83E0001213F20FB
:1016100001554020015541200155422001554320EC
:10162000015500BF00BF012084F84400452001554A
:10163000462001554720015500BF012084F83D0098
:101640000020CCE710B586B00446142101A8FEF7AF
:10165000E6FD28492068884216D100BF2648806DE3
:1016600040F00400244988650846806D00F00400BD
:10167000009000BF00BF002211461E20FFF734FA81
:101680001E20FFF71DFA33E01C49206888422FD145
:1016900000BF1948006E40F400301749086608463C
:1016A000006E00F40030009000BF00BF00BF08468D
:1016B000C06C40F00200C8640846C06C00F0020034
:1016C000009000BF00BF1020019002200290002077
:1016D000039004900120059001A90948FFF786F8BE
:1016E000002211461920FFF7FFF91920FFF7E8F94A
:1016F00006B010BD00080040001002400044014048
:1017000000040048014691F83D00012801D0012065
:101710007047022081F83D000868C06840F0010071
:101720000B68D860184B0868984213D00868B0F16D
:10173000804F0FD0154B086898420BD0144B0868A7
:10174000984207D0134B0868984203D0124B0868A0
:10175000984210D108688068104B00EA0302062AFC
:101760000FD0B2F5803F0CD00868006840F001004F
:101770000B68186005E00868006840F001000B681D
:1017800018600020C4E70000002C01400004004065
:101790000008004000340140004001400700010003
:1017A0002DE9F04104460D4600BF94F83C000128A5
:1017B00002D10220BDE8F081012084F83C0000BF86
:1017C000022084F83D00206886683F48064026F4E1
:1017D0007F46206886602868702824D00CDC00F0E2
:1017E0000F01002964D10011072861D2DFE800F061
:1017F0005354555649353F00344A811A90424FD0D0
:1018000009DCB0F5805F0DD0B0F5005F18D0B0F105
:10181000101F4DD143E0102943D0202942D0502938
:1018200046D140E045E0D5E902136A68206801F03E
:101830000EFA2068866846F077062068866038E0F1
:10184000D5E902136A68206801F001FA206880680F
:1018500040F48040216888602BE0EA68696820686D
:1018600001F00CFA5021206801F0FCF921E0EA684F
:101870006968206801F054FA6021206801F0F2F9EB
:1018800017E0EA686968206801F0F8F940212068EB
:1018900001F0E8F90DE000BF00BF00BF00BF00BFCE
:1018A00000BF00BF00BF2968206801F0DBF900E03D
:1018B00000BF00BF012084F83D0000BF002084F875
:1018C0003C0000BF00BF75E788FFCEFF200010007E
:1018D000434A016891423ED1414934310968491C6B
:1018E000404AB2FBF1F109B23F4A118000213C4A63
:1018F000243211603C49B1F9001044F62062914253
:1019000003DD1146384A118009E03749B1F900106A
:10191000B1F5C87F03DA4FF4C871334A11803249F8
:101920000988324A1288114409B22F4A118011469F
:10193000B1F90010002903DA01212D4A117002E0EB
:1019400000212B4A11702849B1F90010254A92FB59
:10195000F1F1284A11800168B1F1804F3ED14FF07A
:101960008041496B491C1F4AB2FBF1F109B2224A7E
:10197000118000214FF0804251621F49B1F90010DF
:1019800044F62062914203DD11461B4A118009E0B2
:101990001949B1F90010B1F5C87F03DA4FF4C871E5
:1019A000154A118014490988104A1288114409B255
:1019B000114A11801146B1F90010002903DA012102
:1019C0000E4A117002E000210C4A11700A49B1F967
:1019D0000010044A92FBF1F1094A1180704700009F
:1019E0000044014040420F00120000202A00002065
:1019F0001C00002016000020100000201B0000200A
:101A0000140000202DE9F04104460D46164600BFA3
:101A100094F83C00012802D10220BDE8F0810120A9
:101A200084F83C0000BF96B9EB68D5E90012206845
:101A300001F038F92068806920F00C002168886185
:101A400020688069A9680843216888613DE0042E08
:101A500013D1EB68D5E90012206801F075F9206810
:101A6000806920F440602168886120688069A968E5
:101A700040EA01202168886127E0082E12D1EB6836
:101A8000D5E90012206801F07CF92068C06920F0D7
:101A90000C002168C8612068C069A96808432168F2
:101AA000C86112E0EB68D5E90012206801F085F901
:101AB0002068C06920F440602168C8612068C0695E
:101AC000A96840EA01202168C86100BF002084F8AD
:101AD0003C0000BF00BFA0E710B504460CB90120D0
:101AE00010BD94F83D0028B9002084F83C00204641
:101AF00000F02AF8022084F83D00211D206801F042
:101B000037F8012084F8480000BF84F83E00012126
:101B10003F200155402001554120015542200155EB
:101B20004320015500BF00BF012084F84400452038
:101B30000155462001554720015500BF012084F87A
:101B40003D000020CCE7000010B586B0044614210B
:101B500001A8FEF764FB2068B0F1804F31D100BFCF
:101B60001948806D40F00100174988650846806D6E
:101B700000F00100009000BF00BF00BF0846C06C2D
:101B800040F00100C8640846C06C00F001000090FD
:101B900000BF00BF4FF400400190022002900020DF
:101BA000039004900120059001A94FF09040FEF7AA
:101BB0001DFE002211461C20FEF796FF1C20FEF79A
:101BC0007FFF06B010BD0000001002402DE9F0417B
:101BD00004460D4615B994F83E0015E0042D02D1D7
:101BE0003F20005D10E0082D02D14020005D0BE099
:101BF0000C2D02D14120005D06E0102D02D14220C3
:101C0000005D01E04320005D074615B994F84400EB
:101C10000BE0042D02D14520005D06E0082D02D125
:101C20004620005D01E04720005D8046012F02D183
:101C3000B8F1010F02D00120BDE8F0811DB90220EA
:101C400084F83E001AE0042D03D102213F20015503
:101C500014E0082D03D10221402001550EE00C2D87
:101C600003D102214120015508E0102D03D10221AA
:101C70004220015502E00221432001551DB90220F6
:101C800084F844000EE0042D03D1022145200155C3
:101C900008E0082D03D102214620015502E002216F
:101CA0004720015535B1042D0BD0082D10D00C2D37
:101CB0001CD114E02068C06840F002002168C860B0
:101CC00015E02068C06840F004002168C8600EE09C
:101CD0002068C06840F008002168C86007E02068FC
:101CE000C06840F010002168C86000E000BF00BF7D
:101CF00001222946206800F099FF1849206888428F
:101D000013D02068B0F1804F0FD015492068884269
:101D10000BD014492068884207D0134920688842B4
:101D200003D012492068884210D120688068104989
:101D300000EA0106062E0FD0B6F5803F0CD02068D1
:101D4000006840F001002168086005E02068006834
:101D500040F001002168086000206DE7002C014080
:101D600000040040000800400034014000400140F1
:101D70000700010010B5044620680069C0F3400068
:101D8000D8B12068C068C0F34000B0B16FF0020065
:101D900021680861012020772068806900F0030035
:101DA00018B12046FFF794FD05E0204600F002F947
:101DB000204600F000F90020207720680069C0F379
:101DC0008000D8B12068C068C0F38000B0B16FF067
:101DD000040021680861022020772068806900F4EF
:101DE000407018B12046FFF773FD05E0204600F073
:101DF000E1F8204600F0DFF8002020772068006935
:101E0000C0F3C000D8B12068C068C0F3C000B0B152
:101E10006FF0080021680861042020772068C069FD
:101E200000F0030018B12046FFF752FD05E0204600
:101E300000F0C0F8204600F0BEF8002020772068AF
:101E40000069C0F30010D8B12068C068C0F300106A
:101E5000B0B16FF010002168086108202077206879
:101E6000C06900F4407018B12046FFF731FD05E06D
:101E7000204600F09FF8204600F09DF800202077D3
:101E80002068006900F0010058B12068C06800F0C7
:101E9000010030B16FF0010021680861204600F0B8
:101EA0008BF820680069C0F3C01058B12068C06882
:101EB000C0F3C01030B16FF0800021680861204687
:101EC000FFF727FB20680069C0F3002058B12068A5
:101ED000C068C0F3C01030B16FF480702168086131
:101EE0002046FFF715FB20680069C0F3801058B149
:101EF0002068C068C0F3801030B16FF040002168E6
:101F00000861204600F072F820680069C0F34010B4
:101F100058B12068C068C0F3401030B16FF02000A5
:101F2000216808612046FFF7F5FA20680069C0F3D0
:101F3000005058B12068C068C0F3005030B16FF451
:101F40008010216808612046FFF7E6FA20680069E2
:101F5000C0F3405058B12068C068C0F3405030B161
:101F60006FF40010216808612046FFF7D4FA20685A
:101F70000069C0F3805058B12068C068C0F3805039
:101F800030B16FF48000216808612046FFF7C5FA80
:101F900020680069C0F3C05058B12068C068C0F321
:101FA000C05030B16FF40000216808612046FFF78F
:101FB00011FB10BD70477047084A016891420CD16F
:101FC00007490988491C064A11800649097821B148
:101FD00005490988491C044A1180704700080040DF
:101FE0002C0000203A0000202E000020704700BF87
:101FF000FEE7000000B585B014216846FEF70FF932
:102000004FF6FF7000900020019003200390002005
:10201000029069460248FEF7E9FB05B000BD0000EA
:102020000008004800B585B014216846FEF7F7F8AF
:102030004FF6FF70009001200190032003900020D4
:10204000029069460248FEF7D1FB05B000BD0000D2
:102050000008004830B5054600240021084600F07D
:102060005DF900F0ABF900BF03E0284600F06AF923
:10207000641CB4F5963FF8D330BD000010B504469B
:1020800002A1204600F084F810BD0000202020208E
:102090002020202020202020202020202020202040
:1020A0000000000000B587B0142102A8FEF7B7F8C1
:1020B00000BF2B48C06C40F004002949C8640846A2
:1020C000C06C00F00400019000BF00BF00BF0846D4
:1020D000C06C40F00100C8640846C06C00F001000C
:1020E000019000BF00BF00BF0846C06C40F0020076
:1020F000C8640846C06C00F00200019000BF00BF39
:102100004FF44870029001200390032005900020B6
:10211000049002A91348FEF769FB4FF48070029007
:1021200001200390032005900020049002A94FF0A5
:102130009040FEF75BFBFFF775FF4FF09040806922
:1021400040F480704FF09041886106481830006874
:1021500040F4087003491831086007B000BD000062
:10216000001002400004004870B505460E461446B3
:10217000A4F12000C4B204EB4400044901EB0012B6
:102180003146284600F01AF870BD0000D44100081E
:10219000F0B507460C46002540F23F1609E02278CC
:1021A00031463846FFF7E0FFA6F1100086B2641C06
:1021B0006D1C207808B1142DF1D3F0BD2DE9F0434A
:1021C00006468946174600240025A046B0464946E3
:1021D000404600F0A3F800BF1EE000F0EFF8002535
:1021E0000FE037F814000121A940084020B90C483D
:1021F000008800F0A7F803E00A48008800F0A2F881
:102200006D1C102DEDD308F1010000F0FF084946C8
:10221000404600F083F8641C182CDED3BDE8F08340
:10222000460000204400002010B5FFF73BFF0020CF
:1022300000F016F8094908800846008848F2302165
:10224000884202D100F0A8FA01E000F035FB00203E
:1022500000F006F80149088010BD00004800002089
:1022600070B504462748006840F4007025490860AE
:102270000846006840F48070086022481038006802
:1022800040F020001F49103908601F4804601D48B5
:10229000006840F020001B49086000BF00BF00BF7D
:1022A00018481038006840F02000164910390860BE
:1022B0000846006840F480700860FFF79BFE4FF00E
:1022C0009040806A40F480704FF09041886200BF77
:1022D00000BF00BF0C48001F006885B24FF090405F
:1022E000806940F480704FF090418861FFF79AFE5A
:1022F00004481038006840F4007002491039086042
:10230000284670BD280400481408004801B5BDF8EF
:1023100000000149088008BD4600002030B5044691
:102320000D462146202000F085F82946212000F0A6
:1023300081F830BD01B5BDF800000149088008BD35
:10234000440000201B49096841F40071194A1160DA
:1023500018491039096841F48071164A103A116021
:102360001146096841F020011160134908601149C4
:10237000096841F020010F4A116000BF00BF00BF93
:102380000C491039096841F020010A4A103A1160DD
:102390001146096841F48071116000BF00BF00BFA1
:1023A00004491039096841F40071024A103A116079
:1023B0007047000028040048140800481B480068C3
:1023C00040F40070194908600846006840F48070C5
:1023D000086016481038006840F020001349103992
:1023E00008602220124908601048006840F0200070
:1023F0000E49086000BF00BF00BF0C4810380068DD
:1024000040F020000949103908600846006840F48F
:102410008070086000BF00BF00BF0448103800682B
:1024200040F40070014910390860704728040048E2
:1024300014080048214A126842F400721F4B1A60C7
:102440001A46126842F480721A601C4A103A1268E6
:1024500042F02002194B103B1A60194A1060174ACB
:10246000126842F02002154B1A6000BF00BF00BF87
:10247000124A103A126842F02002104B103B1A60C8
:102480001A46126842F480721A600D4A11600B4AB3
:10249000126842F02002094B1A6000BF00BF00BF63
:1024A000064A103A126842F02002044B103B1A60B0
:1024B0001A46126842F480721A6070472804004875
:1024C0001408004800B587B0142102A8FDF7A7FE44
:1024D00000BF3D48C06C40F004003B49C86408465A
:1024E000C06C00F00400019000BF00BF00BF0846B0
:1024F000C06C40F02000C8640846C06C00F02000AA
:10250000019000BF00BF00BF0846C06C40F0010052
:10251000C8640846C06C00F00100019000BF00BF15
:1025200000BF0846C06C40F00200C8640846C06C9A
:1025300000F00200019000BF00BF00BF0846C06C61
:1025400040F00800C8640846C06C00F00800019024
:1025500000BF00BF01224FF47F411C48FEF73AFA4A
:10256000012204211A48FEF735FA4FF47F40029009
:102570000120039000200490059002A91348FEF763
:1025800035F901200290002003900120049002A957
:102590004FF09040FEF72AF90720029000200390A8
:1025A0000120049002A90B48FEF720F904200290B4
:1025B0000120039000200490059002A90448FEF732
:1025C00015F907B000BD00000010024000080048E7
:1025D000000C0048000400481FB500200090019046
:1025E000029003901448154908604F20486000216C
:1025F000124881604FF6FF71C160002101614161A5
:102600008161FEF7E8FF08B1FEF7D8F80B48FFF745
:1026100063FA08B1FEF7D2F8002000900120019083
:10262000002002900390002269460448FFF7EAF96F
:1026300008B1FEF7C3F81FBD00440140E4000020CC
:1026400000B587B00020049005900690009001909E
:10265000029003904FF08040154908604F20486079
:10266000002113488160491EC16000210161816120
:10267000FFF732FA08B1FEF7A1F8002004900690A7
:1026800004A90B48FEF74AFF08B1FEF797F80020AF
:1026900000900120019000200290039000226946E2
:1026A0000348FFF7AFF908B1FEF788F807B000BD9F
:1026B0004C00002000B587B00020039004900590E6
:1026C000069000900190029014481549086040F26D
:1026D0001F3048600021124881606321C1600021E1
:1026E00001618161FEF777FF08B1FEF767F84FF4EB
:1026F0008050039003A90A48FFF752F808B1FEF78B
:102700005DF800200090029069460548FEF706FF3C
:1027100008B1FEF753F807B000BD00000008004004
:102720009800002000BFFEE700BFFEE770470000F2
:1027300070B5164DED6805F00304144DED68C5F352
:1027400003156B1C022C0CD0032C09D1104DB5FBCA
:10275000F3F50E4EF668C6F3062605FB06F10AE011
:1027600000BF0C4DB5FBF3F5084EF668C6F3062620
:1027700005FB06F100BF00BF044DED68C5F34165E0
:102780006D1C6A00B1FBF2F070BD00000010024049
:1027900000366E010024F40000B501210020FFF78F
:1027A00049FE4FF47A70FDF7FAFF00210120FFF790
:1027B00041FE41F290711020FFF73CFE4FF41C5196
:1027C0006020FFF737FE01216120FFF733FE022171
:1027D0004620FFF72FFE48F210011320FFF72AFED4
:1027E00048F2FE011220FFF725FE4FF4A0610220FF
:1027F000FFF720FE41F230010320FFF71BFE40F2FD
:1028000003313020FFF716FE40F203313120FFF78D
:1028100011FE40F203313220FFF70CFE4FF44071FD
:102820003320FFF707FE03213420FFF703FE40F2B9
:1028300003313520FFF7FEFD14213620FFF7FAFDA6
:1028400040F203313720FFF7F5FD40F20331382025
:10285000FFF7F0FD40F203313920FFF7EBFD4FF4B5
:1028600040713A20FFF7E6FD03213B20FFF7E2FD30
:1028700040F203313C20FFF7DDFD4FF4A0513D2035
:10288000FFF7D8FD4FF400719220FFF7D3FD40F21F
:1028900003319320FFF7CEFD40F60D019020FFF7A6
:1028A000C9FD41F218010320FFF7C4FD40F2731186
:1028B0000720FFF7BFFD00BD10B543F20801E3207C
:1028C000FFF7B8FD1221E720FFF7B4FD41F23121F7
:1028D000EF20FFF7AFFD00210120FFF7ABFD4FF424
:1028E000E0610220FFF7A6FD41F230010320FFF76F
:1028F000A1FD00210420FFF79DFD40F207210820E3
:10290000FFF798FD00210920FFF794FD00210A2020
:10291000FFF790FD00210C20FFF78CFD00210D201A
:10292000FFF788FD00210F20FFF784FD0021102014
:10293000FFF780FD07211120FFF77CFD0021122009
:10294000FFF778FD00211320FFF774FDC820FDF785
:1029500039FF41F290611020FFF76CFD40F2272112
:102960001120FFF767FD3220FDF72CFF1D211220FB
:10297000FFF760FD3220FDF725FF4FF400611320C3
:10298000FFF758FD14212920FFF754FD0B212B20C0
:10299000FFF750FD3220FDF715FF00212020FFF743
:1029A00049FD00212120FFF745FD07213020FFF7D9
:1029B00041FD40F207713120FFF73CFD0621322036
:1029C000FFF738FD40F204713520FFF733FD41F683
:1029D00004713620FFF72EFD04213720FFF72AFD72
:1029E00000213820FFF726FD40F206713920FFF75D
:1029F00021FD40F201713C20FFF71CFD0F213D201D
:102A0000FFF718FD00215020FFF714FDEF215120A2
:102A1000FFF710FD00215220FFF70CFD40F23F119F
:102A20005320FFF707FD4FF41C516020FFF702FD14
:102A300001216120FFF7FEFC00216A20FFF7FAFC6C
:102A400000218020FFF7F6FC00218120FFF7F2FC37
:102A500000218220FFF7EEFC00218320FFF7EAFC33
:102A600000218420FFF7E6FC00218520FFF7E2FC2F
:102A700010219020FFF7DEFC00219220FFF7DAFC06
:102A800003219320FFF7D6FC4FF488719520FFF7C0
:102A9000D1FC00219720FFF7CDFC00219820FFF703
:102AA000C9FC41F218010320FFF7C4FC40F2731186
:102AB0000720FFF7BFFC10BD704710B5FDF796FF6C
:102AC00010BD00B593B0382105A8FDF7A8FB14216F
:102AD0006846FDF7A4FB4FF40070FEF757F801209D
:102AE00005900004069002200C9003210D910E9198
:102AF00014210F91022110911191129105A8FEF756
:102B000039FA08B1FDF75AFE0F200090032001901A
:102B1000002002900390049002216846FEF7CCF852
:102B200008B1FDF74BFE13B000BD0000034800687C
:102B300040F47000014908607047000088ED00E033
:102B400010B50248FFF716F910BD0000E4000020A0
:102B500010B50248FFF70EF910BD00004C00002030
:102B600010B50248FFF706F910BD000098000020DC
:102B700010B50268264B98420BD0B0F1804F08D0B8
:102B8000244B984205D0244B984202D0234B9842C4
:102B900003D122F070024B681A431D4B984214D0A7
:102BA000B0F1804F11D01B4B98420ED01A4B984277
:102BB0000BD01A4B984208D0194B984205D0194BAC
:102BC000984202D0184B984203D122F44072CB684D
:102BD0001A4322F080034C6943EA040202608B68C6
:102BE000C3620B6883620A4B98420BD00B4B98422E
:102BF00008D00B4B984205D00A4B984202D00A4BA2
:102C0000984201D10B6903630123436110BD0000A9
:102C1000002C014000040040000800400034014046
:102C200000400140004401400048014030B501F03F
:102C30001F05012404FA05F3046A9C430462046A34
:102C400001F01F0502FA05F52C43046230BD30B5D2
:102C50000C46816821F47F4142EA0325254329433C
:102C6000816030BD0A468168034B194042F007037A
:102C700019438160704700008FFFCFFF30B50B46CE
:102C80001446026A056A25F001050562816921F092
:102C9000F00141EA041122F00A021A438161026242
:102CA00030BD000070B50C461546066A26F00106D8
:102CB00006628169026A154EB0420ED0B0F1804FB3
:102CC0000BD0134EB04208D0124EB04205D0124E77
:102CD000B04202D0114EB04201D1012600E00026E0
:102CE0001EB121F00301294301E041F0010121F06F
:102CF000F001F02606EA0316314322F00A0204F03E
:102D00000A0632438161026270BD0000002C01405E
:102D10000004004000080040003401400040014031
:102D200030B50B461446056A25F010050562816929
:102D3000026A21F4704141EA043122F0A00242EA21
:102D400003128161026230BD70B50C461546066AF9
:102D500026F0100606628169026A21F4407141EA98
:102D6000052121F470414FF4704606EA03363143E1
:102D700022F0A002A02606EA041632438161026214
:102D800070BD70B50C461546066A26F4807606625C
:102D9000C169026A21F00301294321F0F001F02604
:102DA00006EA0316314322F420624FF4206606EA55
:102DB00004263243C161026270BD70B50C461546EF
:102DC000066A26F480560662C169026A21F44071DF
:102DD00041EA052121F470414FF4704606EA0336BA
:102DE000314322F420424FF4204606EA04363243AF
:102DF000C161026270BD00BFFEE700000FB4084B66
:102E000010B504A902AA039800F0FAF8044602A932
:102E1000002000F08CFC204610BC5DF814FB000084
:102E20002F37000802480068C0F3022070470000F6
:102E30000CED00E010B5002804DB0A07130E054A6C
:102E4000135406E00A07140E034A00F00F031B1F79
:102E5000D45410BD00E400E018ED00E002E008C822
:102E6000121F08C1002AFAD170477047002001E004
:102E700001C1121F002AFBD1704700002DE9FF5F3E
:102E800082B00021DDE90430020DDDF840B00343DB
:102E900018D044F61050A2F2FF3242431514119894
:102EA00001281FD0A5EB0B00401C5FEA000A4FF081
:102EB00000064E4FDFF83891B046504615D5CAF19E
:102EC000000413E0119801244AA3012801D16FEAFC
:102ED0000B010298119AC0E90031C0E9024206B024
:102EE000BDE8F09FCBF10000DFE704460021404A37
:102EF000491842EB0450CDE9001012E0E00707D07A
:102F000032463B4640464946FDF795FA804689469B
:102F100032463B4610461946FDF78DFA06460F46E7
:102F20006410002CEAD1DDE90401DDE90023BAF1E7
:102F3000000F06DAFDF77FFA42464B46FDF77BFAB3
:102F400005E0FDF7EAFA42464B46FDF7E6FA04468D
:102F50000E460022284BFDF767FB03D84FF0FF30E9
:102F6000014607E00022254B20463146FDF7BCF91B
:102F7000FDF742FB102409E0002C0ADB0A220023A3
:102F8000FDF781F9039B30321A55641E50EA0102A5
:102F9000F2D1641C039AC4F111031444119A012A5A
:102FA00003D0012208430DD10AE0084304D00020D9
:102FB0004FF0110B119072E7A3EB0B056D1E0DE0A6
:102FC0005B4504DD4FF0000205F1010504E003DA82
:102FD0004FF00002A5F10105002AECD002981199EA
:102FE000C0E90231C0E9004579E700000000144063
:102FF0000000F03F300000000000F0430000E03F20
:103000002DE9FF4F95B09B468946064600250FE205
:10301000252877D100242746F84A0121059400E0AD
:10302000044316F8013F203B01FA03F01042F7D1A8
:1030300030782A2811D06FF02F033078A0F13002B9
:10304000092A16D8059A44F0020402EB820203EB27
:1030500042021044761C0590EFE759F8042B0592C4
:10306000002A03DA504244F40054059044F002046C
:10307000761C30782E2816D116F8010F44F004047F
:103080002A280DD06FF02F023078A0F13003092BE1
:1030900009D807EB870302EB4303C718761CF3E755
:1030A00059F8047B761C30786C280FD006DC4C284D
:1030B00017D068280DD06A2814D104E0742810D0E5
:1030C0007A280FD10DE044F400140AE044F480148F
:1030D00001E044F440147278824202D104F5801475
:1030E000761C761C307866280BD013DC582877D0F5
:1030F00009DC002875D04528F6D04628F4D04728AA
:103100001AD19DE118E0632835D0642879D065286C
:1031100012D195E1702873D008DC6728F1D06928B6
:103120006FD06E280DD06F2806D1B5E073282CD053
:10313000752875D0782874D05A46179990476D1C19
:1031400075E1C4F30250022809D003280DD0D9F844
:10315000001004280DD00D6009F1040967E1D9F8C9
:103160000010EA17C1E90052F6E7D9F800100D8007
:10317000F2E70D70F0E719F8041B8DF8001000203D
:103180008DF80100EA46012003E059F804AB4FF046
:10319000FF3061074FF0000102D40DE008F101019A
:1031A0008846B9420FDA8045F8DB1AF80810002982
:1031B000F4D108E008F1010188468142FADB1AF8EF
:1031C00008100029F6D105985B46A0EB08072146B8
:1031D0003846179A00F094FA284400EB080507E0F7
:1031E0004DE029E10DE01AF8010B5A461799904776
:1031F000B8F10108F7D25B4621463846179A13E129
:1032000042E00A220092C4F302524FF0000A022A5E
:1032100008D059F804CB032A4FEAEC710AD00DE02C
:1032200029E02AE009F1070121F00702F2E802C1D2
:10323000914609E00FFA8CFC4FEAEC71042A03D1A5
:103240004FFA8CFC4FEAEC71002907DA0A4600219C
:10325000DCF1000C61EB02012D2202E0220504D515
:103260002B228DF80420012203E0E20701D0202266
:10327000F7E7904659E00A2102E010220DE0102104
:103280004FF0000A00910BE010224FF0000A44F0CA
:1032900004040827009203E008224FF0000A00927D
:1032A000C4F30252022A05D059F804CB0021032AA4
:1032B00008D009E009F1070121F00702F2E802C194
:1032C000914605E01FFA8CFC042A01D10CF0FF0C9A
:1032D0004FF00008220728D5702806D0009B83F005
:1032E000100353EA0A0305D00EE040228DF80420B3
:1032F000012208E05CEA010206D030228DF80420A9
:103300008DF8050002229046009B83F0080353EAE3
:103310000A030AD15CEA010201D1620705D5302215
:103320008DF804204FF001087F1E582804D034A0E7
:1033300003900EA802900DE036A0F9E753466046D0
:10334000009AFCF7A0FF84460398825C0298401E16
:10335000029002705CEA0100F0D1029806A9081AF6
:1033600000F1200A600702D524F4803400E0012730
:10337000574502DDA7EB0A0000E0002000EB0A0140
:10338000009005984144401A0590E00306D45B463E
:103390002146179A059800F0B3F90544002706E086
:1033A00001A85A46C05D179990476D1C7F1C474580
:1033B000F6DBE0030CD55B462146179A059800F032
:1033C0009FF9054404E030205A46179990476D1C38
:1033D0000099481E00900029F5DC08E00298029947
:1033E0005A460078491C0291179990476D1CBAF112
:1033F0000001AAF1010AF1DC65E1000009280100E1
:10340000303132333435363738396162636465665A
:10341000000000003031323334353637383941421C
:10342000434445460000000000F058F90544761C6E
:10343000307800287FF4ECAD19B02846BDE8F08F55
:10344000620700D4062709F1070222F0070CFCE806
:103450000223E14603F000485FEA080C02D00FF2B5
:10346000702C0DE05FEA045C02D50FF2682C07E0D7
:103470005FEAC47C02D00FF2602C01E0AFF2700C66
:103480004FF0FF3823F00043CDF850C065280CD032
:1034900006DC452809D046281DD047283DD13DE00F
:1034A000662818D067287ED138E00021112F01DB73
:1034B000112000E0781CCDE9000106A90EA8FFF755
:1034C000DDFCDDE90F010E9A03910021009207F166
:1034D000010A04914DE04FF000400097CDE9011042
:1034E00006A90EA8FFF7CAFCDDE90F0203920E9BA6
:1034F00011990022DDF80CA00093049211B9791CF7
:1035000000EB010AB7EB0A0004D4C0F1FF3007F169
:10351000010A0490AAEB0700019044E0012F00DAB1
:1035200001270021112F01DD112000E03846CDE9EF
:10353000000106A90EA8FFF7A1FCDDE90F010E9A14
:103540000391002104910092BA4621070CD40399FB
:10355000514500DA8A46BAF1010F05DD009AAAF159
:103560000101515C302908D0B84202DA10F1040F91
:1035700006DA0121CDE9011015E0AAF10101E9E720
:10358000002805DC049901440491AAEB000102E043
:10359000411C514500DD8A460499401A401C0190A7
:1035A0004FF000400290200704D40198504501DB01
:1035B000CDF8048000208DF84F0002980DF14F07E0
:1035C000B0F1004F25D02B200E9002984FF002084A
:1035D00000280CDA404202902D200E9007E00A21CC
:1035E0000298FCF73AFE3031029007F8011DB8F15D
:1035F0000001A8F10108F2DC02980028EFD1791E41
:103600000E980870307800F0200040F0450007F870
:10361000020D12A8C01B00F107081498007800B131
:10362000012000EB0A01019801EBE071059841448B
:10363000401A401E0590E00306D45B462146179AC7
:10364000059800F05DF805441498007818B15A46C2
:10365000179990476D1CE00324D55B462146179AC5
:10366000059800F04DF805441CE00498002807DB9D
:10367000DDE90301884203DD0098405C179901E011
:10368000179930205A469047049805F10105401CCF
:1036900004900198401E019004D12E205A4617999B
:1036A00090476D1CBAF10001AAF1010ADDDC05E0CA
:1036B00017F8010B5A46179990476D1CB8F1000195
:1036C000A8F10108F4DC5B462146179A0598ABE6A1
:1036D0002D0000002B000000200000002DE9F0412B
:1036E000044600251E461746880404D405E03946E2
:1036F0002020B0476D1C641EF9D52846BDE8F08136
:103700002DE9F041044600251E469046C80301D528
:10371000302700E02027880404D505E041463846DC
:10372000B0476D1C641EF9D52846BDE8F0810A68D3
:10373000531C0B601070704774480078D0B97448FF
:10374000B0F90000B0F57A7F03DD012071490870FF
:1037500002E000206F4908706F48B0F90000B0F532
:103760007A7F03DD01206D4908701BE000206B4962
:10377000087017E06A480088B0F57A7F03DD012001
:103780006449087002E000206249087065480088BA
:10379000B0F57A7F03DD01206049087002E0002067
:1037A0005E4908706048007878B95948B0F900005F
:1037B0005E490988884212DD01205B4908705C4837
:1037C0000078401C5A49087009E05148B0F90000DF
:1037D00056490988884202DA002053490870554842
:1037E000007878B94C48B0F90000504909888842FF
:1037F00012DD01204F4908704F480078401C4E49A7
:10380000087009E04448B0F9000048490988884236
:1038100002DA0020474908704848008840F6B8316D
:10382000884212DD00204549088045490880454905
:10383000088044F6206044490880444908800020FC
:1038400043490870434908705FE03148B0F900000F
:103850003B49B1F90010884204DD2D48B0F9000061
:10386000374908802A48B0F900003749B1F90010FB
:10387000884204DA2648B0F9000033490880264817
:10388000B0F900002F49B1F90010884204DD224848
:10389000B0F900002B4908801F48B0F900002B49FF
:1038A000B1F90010884204DA1B48B0F9000027493A
:1038B00008802748007890B92148B0F900002249D3
:1038C000B1F90010401A24490988884207DD2348CD
:1038D0000078401C2149087001201D4908701D48CE
:1038E000007890B91748B0F900001849B1F90010F4
:1038F000401A19490988884207DD19480078401C98
:1039000017490870012013490870704718000020FB
:103910001000002019000020120000201A000020D2
:1039200014000020160000202100002028000020A4
:103930001F00002022000020200000202C0000207A
:10394000300000203200002034000020360000202B
:103950003800002039000020260000201D00002033
:103960001E00002010B501218848FDF72BF888497A
:10397000087002218548FDF725F886490870042162
:103980008248FDF71FF88449087001214FF09040EC
:10399000FDF718F8814908707D48007808B90120C2
:1039A00000E000207E490978084010B37D48007887
:1039B00060B97D48008864307B49088008460088EB
:1039C000B0F57A7F25DD6420088022E07548007814
:1039D00001280FD175480088643074490880084672
:1039E000008842F21071884213DD4FF47A706F49FB
:1039F00008800EE06E480088643000B26C49088090
:103A00000846B0F90000B0F57A7F02DD4FF61840A5
:103A100008806048007808B9012000E0002065496E
:103A20000978084000B35F48007860B95E480088B4
:103A300064385D49088008460088642824DA4FF419
:103A40007A70088020E05748007801280DD1574847
:103A5000008864385549088008460088B0F57A7FA8
:103A600012DA42F2107008800EE051480088643883
:103A700000B24F4908800846B0F9000010F57A7F7F
:103A800002DA4FF47A7008804B480078022823D07D
:103A90004148007808B9012000E000204749097832
:103AA0000840002849D04448007801280AD13D4800
:103AB0000078401CC0B23B49087002283DDD002060
:103AC00008703AE03C48007838BB3D48007880F008
:103AD00001003B49087030E02F48007808B9012008
:103AE00000E000203549097809B9012100E00021F2
:103AF000084098B101203349087033480088B0F578
:103B00007A7F1ADD0020304908803049087030493A
:103B1000087030490870304908700EE02748007876
:103B200008B9012000E000201B490978084020B1B5
:103B3000002024490870244908801848007808B9F2
:103B4000012000E0002025490978084068B11A48A2
:103B50000078401CC0B218490870022805DD00201A
:103B600008701049087016490870094800780C4917
:103B70000870084800780F490870074800780F4916
:103B80000870064800781549087010BD0004004808
:103B90003C0000203D0000203E0000203F000020AF
:103BA00040000020240000202600002028000020E3
:103BB0002A000020410000202300002042000020B5
:103BC000180000203A0000202E0000201D000020D8
:103BD0001E0000201F0000202000002043000020C5
:103BE00070B52DED028B9A48006884B29948007830
:103BF000002877D198A19E48FFF700F99C4918202A
:103C0000FEF7C6FA9B48007800285ED19A480078F3
:103C100018BB9A48007838B99948B0F9002099A1A2
:103C20009348FFF7EBF81CE09548B0F9000000EE70
:103C3000100AB8EEC00ADFED990A80EE201A11EEE4
:103C4000105A2846FCF7F6FA41EC180B53EC182BE7
:103C500093A18748FFF7D2F803E097A18448FFF7C4
:103C6000CDF883494820FEF793FA9948007818BBAD
:103C70009848007838B99848B0F9002097A17C4856
:103C8000FFF7BCF81CE09448B0F9000000EE100A01
:103C9000B8EEC00ADFED810A80EE201A11EE105A4C
:103CA0002846FCF7C7FA41EC180B53EC182B91A1EE
:103CB0006F48FFF7A3F803E094A16D48FFF79EF863
:103CC0006B496020FEF764FA5AE06B48007810BB3D
:103CD0006A48007838B99348028893A16448FFF78E
:103CE0008DF81CE053E08F48008800EE100AB8EE13
:103CF000400ADFED6A0A80EE201A11EE105A2846BB
:103D0000FCF798FA41EC180B53EC182B8CA158488F
:103D1000FFF774F803E068A15548FFF76FF85449BE
:103D20004820FEF735FA6A48007808BB69480078F1
:103D300030B98948028889A14D48FFF75FF81BE038
:103D40008548008800EE100AB8EE400ADFED530AFD
:103D500080EE201A11EE105A2846FCF76BFA41EC5F
:103D6000180B53EC182B83A14148FFF747F803E0E9
:103D700066A13F48FFF742F83D496020FEF708FA88
:103D80007820FEF77BF99020FEF778F95BE0314868
:103D90000078012827D17DA13548FFF72FF8344955
:103DA0001820FEF7F5F97F4802887FA13048FFF719
:103DB00025F82F494820FEF7EBF98148028881A1B8
:103DC0002B48FFF71BF82A496020FEF7E1F98348EA
:103DD000B0F9002082A12648FFF710F82449782086
:103DE000FEF7D6F92FE084A12148FFF707F8204914
:103DF0001820FEF7CDF98648027886A11C48FEF708
:103E0000FDFF1B494820FEF7C3F98848027888A1C6
:103E10001748FEF7F3FF16496020FEF7B9F98A4804
:103E200002788AA11248FEF7E9FF11497820FEF7CF
:103E3000AFF98C4802788CA10D48FEF7DFFF0C49E2
:103E40009020FEF7A5F902480460BDEC028B70BD1E
:103E500014080048230000202020202020202020BB
:103E60004441544120202020202020200000000038
:103E700030010020180000201B0000201900002045
:103E8000100000202020202020413D2564487A2079
:103E900020202020202020200000000000007A4464
:103EA0002020202020413D252E32664B487A2020BC
:103EB00020202020202000002020202020413D4ED6
:103EC000554C4C20202020202020202000000000E5
:103ED0001C0000201A0000201200002020202020BA
:103EE00020423D2564487A202020202020202020C8
:103EF000000000002020202020423D252E32664B6D
:103F0000487A20202020202020200000202020206F
:103F100020423D4E554C4C202020202020202020A7
:103F200000000000140000202020202020413D251A
:103F30006475532020202020202020200000000035
:103F40002020202020413D252E32666D5320202048
:103F500020202020202000001600002020202020EB
:103F600020423D2564755320202020202020202041
:103F7000000000002020202020423D252E32666DCA
:103F8000532020202020202020200000202020203E
:103F9000202020205041524120202020202020207D
:103FA0000000000026000020202020202050443D5A
:103FB0002564487A202020202020202000000000B6
:103FC00028000020202020202050483D2564487AE9
:103FD0002020202020202020000000002A00002097
:103FE000202020202050583D2564487A2020202081
:103FF0002020202000000000202020202020202041
:104000005245434420202020202020200000000092
:104010001D00002020202020204E44413D2564200A
:104020002020202020202020000000001E00002052
:1040300020202020204E44423D25642020202020A6
:1040400020202020000000001F0000202020202031
:10405000204E48413D256420202020202020202083
:10406000000000002000002020202020204E484298
:104070003D2564202020202020202020000000005A
:1040800070B504460D46012204210E48FCF7A2FC3F
:104090004DB1601E4FF48072824091B200220A48F6
:1040A000FCF798FC08E0601E4FF48072824091B2E9
:1040B00001220548FCF78EFC002204210148FCF790
:1040C00089FC70BD000C004800080048FCF79AFC11
:1040D000FEF7F7FCFEF7A8F80020FDF7BBFF4FF650
:1040E000FF70FEF727F90020FEF710F9FEF7EAF956
:1040F000FEF7A6FAFEF770FAFEF7DCFA0021074891
:10410000FDF764FD00210648FDF760FD0548FDF759
:10411000F9FA01E000F008F8FCE70000E4000020F4
:104120004C0000209800002010B51E48007808B907
:10413000012000E0002001460120FFF7A1FF1A48FE
:10414000B0F90000194A1288904201DD012000E018
:10415000002001460220FFF793FF1548B0F9000048
:10416000124A1288904201DD012000E00020014641
:104170000320FFF785FF0F480078022803DC0E4874
:104180000078022801DD012000E00020014608201F
:10419000FFF776FFFFF724FDFFF7E4FBFFF7CCFA0C
:1041A00010BD000023000020100000202800002087
:1041B000120000201D0000201E0000200000000052
:1041C00000000000010203040607080900000000C7
:1041D00001020304000000000000000000000000D5
:1041E00000000000000000000000000000000000CF
:1041F00000000000000000000000000000000000BF
:104200000000000000008001800180018001800129
:104210008001800180018001800180018001800196
:10422000000000008001800100000000000000008C
:104230000000000000000000CC00CC00CC00CC004E
:10424000CC00CC00000000000000000000000000D6
:10425000000000000000000000000000000000005E
:10426000000000000000000000000000000000004E
:10427000600C600C600C30063006FE1FFE1F30061E
:1042800038071803FE1FFE1F180318038C018C014A
:104290008C01000000008000E003F80F9C0E8C1CD5
:1042A0008C188C009800F801E007800E801C8C1898
:1042B0008C189C18B80CF00FE00380008000000000
:1042C000000000000000000000000E181B0C110C84
:1042D00011061106110311039B018E01C038C06C39
:1042E00060446044304430441844186C0C3800007A
:1042F000000000000000E001F0033807180618066F
:104300003003F001F000F8009C310E33061E061C4D
:10431000061C063FFC73F0210000000000000000B6
:1043200000000000000000000C000C000C000C005D
:104330000C000C0000000000000000000000000065
:10434000000000000000000000000000000000006D
:10435000000000000000000200038001C000C00057
:10436000600060003000300030003000300030006D
:104370003000300060006000C000C0008001000319
:1043800000020000000020006000C00080018001E9
:1043900000030003000600060006000600060006F3
:1043A000000600060003000380018001C0006000D9
:1043B00020000000000000000000000000000000DD
:1043C000C000C000D806F807E0013003380700003D
:1043D00000000000000000000000000000000000DD
:1043E00000000000000000000000000000000000CD
:1043F00080018001800180018001FC3FFC3F800141
:1044000080018001800180010000000000000000A8
:10441000000000000000000000000000000000009C
:10442000000000000000000000000000000000008C
:1044300000000000000080018001000100018000F8
:10444000000000000000000000000000000000006C
:10445000000000000000000000000000E007E0078E
:10446000000000000000000000000000000000004C
:10447000000000000000000000000000000000003C
:10448000000000000000000000000000000000002C
:10449000000000000000C000C0000000000000009C
:1044A000000000000000000C000C000600060006E2
:1044B0000003000300038003800180018001C0002D
:1044C000C000C000600060000000000000000000AC
:1044D000000000000000E003F007380E180C0C1874
:1044E0000C180C180C180C180C180C180C180C18AC
:1044F000180C380EF007E003000000000000000078
:1045000000000000000000018001C001F0019801DE
:10451000880180018001800180018001800180018B
:104520008001800180018001000000000000000087
:10453000000000000000E003F80F180C0C180C1825
:1045400000180018000C000600038001C000600085
:1045500030001800FC1FFC1F0000000000000000DD
:10456000000000000000E001F807180E0C0C0C0C15
:10457000000C0006C003C007000C001800180C183F
:104580000C18180CF807E003000000000000000001
:10459000000000000000000C000E000F000F800D56
:1045A000C00C600C600C300C180C0C0CFC3FFC3F79
:1045B000000C000C000C000C0000000000000000CB
:1045C000000000000000F80FF80F180018000C00A1
:1045D000EC03FC071C0E001C0018001800180C1837
:1045E0001C0C180EF807E00300000000000000009B
:1045F000000000000000C007F00F381C1818180059
:104600000C00CC03EC0F3C0E1C1C0C180C180C18E6
:10461000181C380EF007E003000000000000000046
:10462000000000000000FC1FFC1F000C000600063C
:10463000000380038001C001C000E0006000600052
:10464000700030003000300000000000000000006A
:10465000000000000000E003F007380E180C180CF2
:10466000180C3806F007F007180C0C180C180C186A
:104670000C18380CF80FE0030000000000000000E8
:10468000000000000000E003F007380E1C0C0C18BE
:104690000C180C181C1C381EF81BE0190018000C14
:1046A000000C1C0EF807F0010000000000000000E4
:1046B00000000000000000000000000000000000FA
:1046C00080018001000000000000000000000000E8
:1046D00000000000800180010000000000000000D8
:1046E00000000000000000000000000000000000CA
:1046F00080018001000000000000000000000000B8
:104700000000000080018001000100018000000025
:104710000000000000000000000000000000000099
:10472000000000000010001C800FE003F8001800DB
:10473000F800E003800F001C0010000000000000E3
:104740000000000000000000000000000000000069
:1047500000000000F81F000000000000F81F00002B
:104760000000000000000000000000000000000049
:104770000000000000000000000000000000000039
:104780000000000008003800F001C007001F0018FA
:10479000001FC007F0013800080000000000000002
:1047A000000000000000E003F80F180C0C180C18B3
:1047B0000018000C000600038001C000C000C0000B
:1047C00000000000C000C000000000000000000069
:1047D0000000000000000000E00718180420C229B3
:1047E000224A114409440944094409221113E20CE4
:1047F000024004201818E00700000000000000003C
:1048000000000000000080038003C006C006C00650
:10481000600C600C301830183018F83FF83F1C70EE
:104820000C600C6006C006C0000000000000000024
:10483000000000000000FC03FC0F0C0C0C180C180E
:104840000C180C0CFC07FC0F0C180C300C300C3046
:104850000C300C18FC1FFC070000000000000000DA
:10486000000000000000C007F01F38381C300C703A
:104870000660060006000600060006000600066048
:104880000C701C30F01FE00700000000000000006A
:10489000000000000000FE03FE0F060E06180618BA
:1048A0000630063006300630063006300630061870
:1048B0000618060EFE0FFE030000000000000000B8
:1048C000000000000000FC3FFC3F0C000C000C004E
:1048D0000C000C00FC1FFC1F0C000C000C000C005A
:1048E0000C000C00FC3FFC3F00000000000000003A
:1048F000000000000000F83FF83F18001800180002
:1049000018001800F81FF81F1800180018001800E9
:104910001800180018001800000000000000000037
:10492000000000000000E00FF83F3C780E6006E059
:1049300007C00300030003FE03FE03C007C006C058
:104940000EC03CF0F83FE00F000000000000000047
:104950000000000000000C300C300C300C300C302B
:104960000C300C30FC3FFC3F0C300C300C300C3069
:104970000C300C300C300C30000000000000000047
:1049800000000000000080018001800180018001A2
:10499000800180018001800180018001800180010F
:1049A0008001800180018001000000000000000003
:1049B00000000000000000060006000600060006D9
:1049C000000600060006000600060006000618069F
:1049D00018063807F003E0010000000000000000A6
:1049E00000000000000006300618060C060606034C
:1049F0008601C60066007600DE008E01060306060C
:104A0000060C0618063006600000000000000000DA
:104A1000000000000000180018001800180018001E
:104A200018001800180018001800180018001800C6
:104A300018001800F81FF81F000000000000000018
:104A40000000000000000EE01EF01EF01EF036D840
:104A500036D836D836D866CC66CC66CCC6C6C6C67E
:104A6000C6C6C6C686C386C300000000000000009C
:104A70000000000000000C301C303C303C306C303A
:104A80006C30CC30CC308C310C330C330C360C36D3
:104A90000C3C0C3C0C380C30000000000000000006
:104AA000000000000000E007F81F1C380E700660D0
:104AB00003C003C003C003C003C003C003C006603B
:104AC0000E701C38F81FE007000000000000000016
:104AD000000000000000FC0FFC1F0C380C300C30F4
:104AE0000C300C300C18FC1FFC070C000C000C00E8
:104AF0000C000C000C000C00000000000000000086
:104B0000000000000000E007F81F1C380E7006606F
:104B100003E003C003C003C003C003C007E0066393
:104B20000E3F1C3CF83FE0F700C000000000000012
:104B3000000000000000FE0FFE1F063806300630A1
:104B400006300638FE1FFE0706030606060C06188A
:104B50000618063006300660000000000000000065
:104B6000000000000000E003F80F1C0C0C180C18EB
:104B70000C001C00F803E00F001E00380630063061
:104B80000E301C1CF80FE0070000000000000000C1
:104B9000000000000000FE7FFE7F80018001800198
:104BA00080018001800180018001800180018001FD
:104BB00080018001800180010000000000000000F1
:104BC0000000000000000C300C300C300C300C30B9
:104BD0000C300C300C300C300C300C300C300C30F5
:104BE0000C301818F81FE00700000000000000005B
:104BF00000000000000003600630063006300C188C
:104C00000C180C18180C180C380E300630067007EB
:104C100060036003C001C00100000000000000004C
:104C20000000000000000360C361C361C36166331C
:104C3000663366336633663366336C1B6C1B6C1BE2
:104C40002C1A3C1E380E380E000000000000000038
:104C50000000000000000FE00C7018303018700CDD
:104C6000600EC00780038003C003E006700C301C98
:104C700018180C300E6007E0000000000000000073
:104C800000000000000003C006600C301C3838181B
:104C9000300C6006E007C0038001800180018001C4
:104CA0008001800180018001000000000000000000
:104CB000000000000000FC7FFC7F00600030001856
:104CC000000C000600038001C000600030001800E6
:104CD0000C000600FE7FFE7F0000000000000000C8
:104CE000000000000000E003E003600060006000DE
:104CF00060006000600060006000600060006000B4
:104D00006000600060006000600060006000E00320
:104D1000E003000000003000300060006000600030
:104D2000C000C000C000C0018001800180010003FC
:104D30000003000300060006000000000000000061
:104D4000000000000000E003E00300030003000394
:104D5000000300030003000300030003000300033B
:104D60000003000300030003000300030003E0034B
:104D7000E003000000000000C001C0016003600308
:104D8000600330063006180C180C0000000000000C
:104D90000000000000000000000000000000000013
:104DA0000000000000000000000000000000000003
:104DB00000000000000000000000000000000000F3
:104DC000000000000000FFFFFFFF000000000000E7
:104DD0000000000000000C000C000C000C000C0097
:104DE0000C000000000000000000000000000000B7
:104DF00000000000000000000000000000000000B3
:104E000000000000000000000000000000000000A2
:104E1000F003F8071C0C0C0C000FF00FF80C0C0C36
:104E20000C0C1C0FF80FF018000000000000000030
:104E300000000000000018001800180018001800FA
:104E4000D803F80F380C181818181818181818184C
:104E50001818380CF80FD8030000000000000000FC
:104E60000000000000000000000000000000000042
:104E7000C003F007300E180C1800180018001800B6
:104E8000180C300EF007C003000000000000000006
:104E9000000000000000001800180018001800189A
:104EA000C01BF01F301C18181818181818181818DC
:104EB0001818301CF01FC01B00000000000000008C
:104EC00000000000000000000000000000000000E2
:104ED000C003F00F300C1818F81FF81F1800180046
:104EE0003818301CF00FC007000000000000000060
:104EF000000000000000800FC00FC000C000C00014
:104F0000F007F007C000C000C000C000C000C00033
:104F1000C000C000C000C000000000000000000091
:104F20000000000000000000000000000000000081
:104F3000E00DF80F180E0C0C0C0C0C0C0C0C0C0CDF
:104F40000C0C180EF80FE00D000C0C0C1C06F807EA
:104F5000F0010000000018001800180018001800E8
:104F6000D807F80F381C1818181818181818181817
:104F70001818181818181818000000000000000071
:104F8000000000000000C000C000000000000000A1
:104F9000C000C000C000C000C000C000C000C00011
:104FA000C000C000C000C000000000000000000001
:104FB000000000000000C000C00000000000000071
:104FC000C000C000C000C000C000C000C000C000E1
:104FD000C000C000C000C000C000C000C000F80099
:104FE0007800000000000C000C000C000C000C000D
:104FF0000C0C0C060C038C01CC006C00FC009C011A
:105000008C030C030C060C0C0000000000000000D8
:10501000000000000000C000C000C000C000C000D0
:10502000C000C000C000C000C000C000C000C00080
:10503000C000C000C000C000000000000000000070
:105040000000000000000000000000000000000060
:105050007C3CFF7EC7E383C183C183C183C183C11D
:1050600083C183C183C183C1000000000000000030
:105070000000000000000000000000000000000030
:105080009807F80F381C1818181818181818181836
:105090001818181818181818000000000000000050
:1050A0000000000000000000000000000000000000
:1050B000C003F00F300C1818181818181818181802
:1050C0001818300CF00FC0030000000000000000B2
:1050D00000000000000000000000000000000000D0
:1050E000D803F80F380C18181818181818181818AA
:1050F0001818380CF80FD8031800180018001800FA
:105100001800000000000000000000000000000087
:10511000C01BF01F301C1818181818181818181869
:105120001818301CF01FC01B0018001800180018B9
:105130000018000000000000000000000000000057
:10514000B007F00370003000300030003000300055
:10515000300030003000300000000000000000008F
:10516000000000000000000000000000000000003F
:10517000E003F003380E180C3800F003C007000CF1
:10518000180C380EF007E0030000000000000000DB
:1051900000000000000000008000C000C000C0004F
:1051A000F007F007C000C000C000C000C000C00091
:1051B000C000C000C0078007000000000000000021
:1051C00000000000000000000000000000000000DF
:1051D000181818181818181818181818181818184F
:1051E0001818381CF01FE019000000000000000033
:1051F00000000000000000000000000000000000AF
:105200000C18180C180C180C300630063006600309
:1052100060036003C001C001000000000000000046
:10522000000000000000000000000000000000007E
:10523000C141C141C361636363636363363636361C
:1052400036361C1C1C1C1C1C00000000000000004A
:10525000000000000000000000000000000000004E
:105260001C38381C300C6006600360036003600368
:105270006006300C381C1C380000000000000000E4
:10528000000000000000000000000000000000001E
:105290001830301830187018600C600CE00CC00624
:1052A000C00680038003800380018001C001F000FC
:1052B000700000000000000000000000000000007E
:1052C000FC1FFC1F000C000600038001C0006000F2
:1052D00030001800FC1FFC1F000000000000000050
:1052E00000000000000000038001C000C000C000FA
:1052F000C000C000C00060006000300060004000DE
:10530000C000C000C000C000C000C0008001000399
:105310000000000000008001800180018001800108
:105320008001800180018001800180018001800175
:105330008001800180018001800180018001800165
:105340008001000000006000C000C00180018001F9
:1053500080018001800100030003000600030001BA
:10536000800180018001800180018001C000600017
:10537000000000000000000000000000000000002D
:1053800000000000F010F81F080F000000000000EF
:10539000000000000000000000000000000000000D
:1053A00000000000C4530008000000204C00000072
:1053B0005C2E0008105400084C000020FC04000083
:1053C0006C2E00080000000010000000010000002A
:1053D0000024F400000000000000000000000000B5
:1053E00000000000000101000000E8038813000035
:1053F0000000000000000000204E204E00000000D1
:1054000000000000000000000000FFFF000000009E
:04000005080001D915
:00000001FF
