:020000040800F2
:1000000010410020F1010008E9340008452B0008E8
:10001000E5340008F1080008E93C00080000000091
:100020000000000000000000000000003939000856
:10003000F508000800000000ED3400083B39000816
:100040000B0200080B0200080B0200080B0200085C
:100050000B0200080B0200080B0200080B0200084C
:100060000B0200080B0200080B0200080B0200083C
:100070000B0200080B0200080B0200080B0200082C
:100080000B020008000000000B0200080B02000831
:100090000B0200080B0200080B0200080B0200080C
:1000A0000B0200080B0200080B0200080B020008FC
:1000B0000B020008C13900080B0200080B020008FF
:1000C0000B0200080B0200080B0200080B020008DC
:1000D0000B0200080B0200080B0200080B020008CC
:1000E0000B0200080B0200080B0200080B020008BC
:1000F0000B0200080B0200080B02000800000000C1
:10010000000000000B020008000000000B020008C5
:100110000B020008000000000B0200080B020008A0
:100120000B0200080B0200080B0200080B0200087B
:100130000B02000800000000000000000B02000895
:100140000B0200080B020008000000000000000085
:10015000000000000000000000000000000000009F
:100160000000000000000000000000000B0200087A
:100170000B0200080000000000000000000000006A
:10018000000000000B02000800000000000000005A
:10019000000000000000000000000000000000005F
:1001A00000000000000000000B0200080B02000825
:1001B0000B0200080B0200080B0200080000000000
:1001C000000000000B02000800000000000000001A
:1001D0000B0200080B020008DFF810D000F096FABE
:1001E0000048004719490008AFF300801041002083
:1001F0000648804706480047FEE7FEE7FEE7FEE7C1
:10020000FEE7FEE7FEE7FEE7FEE7FEE7AD390008A2
:10021000D9010008D2B201E000F8012B491EFBD23F
:1002200070470022F6E710B513460A460446194601
:10023000FFF7F0FF204610BD2DE9FE4F81EA0304D1
:1002400004F0004421F0004100944FF0000B23F033
:10025000004350EA01045ED052EA03045BD0C3F3CA
:100260000A54C1F30A552C44A4F2F3340194A0FBC0
:100270000254C1F3130141F48011C3F3130343F497
:10028000801301FB024400FB034E840A970A44EAF0
:10029000815447EA8357A4FB076802958D0A05FB42
:1002A00007854FEA932C04FB0C542705029D4FEA67
:1002B000065847EA1637B5EB08056EEB070C870EB4
:1002C000920E47EA811742EA8312A7FB0201B6EBBE
:1002D0000B0164EB00042B0D43EA0C335E1844EB76
:1002E0001C50DA465146E7FB0201C5F313044FEAFE
:1002F0000B3343EA14534FEA0432019C43EA0603EA
:10030000A4F10C040294009CCDE900B400F0D8F8EC
:1003100003B0BDE8F08F00200146F9E72DE9F04D6C
:1003200081EA030404F0004B21F0004514464FF02D
:10033000000A23F0004150EA050220D054EA0102ED
:100340001DD0C5F30A570246C5F31303C1F31300CA
:10035000C1F30A5640F4801543F48013A7EB060856
:10036000101BD64608F2FD3873EB050002D308F1E6
:10037000010801E092185B41B8F1000F03DA002098
:100380000146BDE8F08D00204FF4801106468446FA
:100390000EE0171B73EB050705D3121B63EB050378
:1003A00006434CEA010C49084FEA300092185B41C1
:1003B00050EA0107EDD152EA030012D082EA0400AC
:1003C00083EA0501084305D0101BAB4106D2012288
:1003D000002306E000224FF0004302E06FF001022C
:1003E00053101AEB06004CEB085110EB0A0041EBDE
:1003F0000B01BDE8F04D00F054B80EB540F23341AA
:1004000002910021CDE900110A460B4600F058F890
:1004100003B000BD30B50B46014600202022012468
:1004200009E021FA02F59D4205D303FA02F5491BC2
:1004300004FA02F52844151EA2F10102F1DC30BDD8
:100440002DE9F05F0546002092469B468846064609
:10045000814640241BE0284641464746224600F09C
:1004600076F953465A46C01A914110D311461846A0
:10047000224600F05DF92D1A67EB01084F4622462F
:100480000120002100F054F917EB00094E41201E15
:10049000A4F10104DFDC484631462A464346BDE864
:1004A000F09F10B5141E73F1000408DA401C41F1EE
:1004B000000192185B411A4301D120F0010010BDE8
:1004C0002DE9F04D92469B4611B1B1FA81F202E05E
:1004D000B0FA80F22032904600F02AF904460F4626
:1004E00040EA0A0041EA0B0153465A46084313D03A
:1004F000114653EA010019D0C8F14002504600F0FD
:1005000026F905460E4650465946424600F010F977
:10051000084305D0012004E020463946BDE8F08DAF
:100520000020054346EAE0762C4337430A986305EA
:10053000E40AA0EB08000022FD0A44EA47540A300E
:1005400002D500200146E9E7010510196941DDE9FE
:10055000084500196941BDE8F04DA2E72DE9FE4FBD
:10056000804681EA0300C00F0C46009021F0004154
:1005700023F00045B8EB0200A94105D240462146D0
:1005800090461C460B46024623F00040104347D0DD
:10059000270DC7F30A00C3F30A510290401A0190D5
:1005A00040286BDAC3F3130040F4801B0098924696
:1005B00020B10023D2EB030A63EB0B0B01985946E1
:1005C000C0F14002504600F0B3F806460D465046D2
:1005D0005946019A00F0CBF810EB08006141002465
:1005E00087EA115284EAE7731A4340D0009A62B353
:1005F000019A012A4FEA075215DC001B61EB020148
:100600004FF0004202EA0752CDE90042001C41F5DA
:10061000801132462B46FFF753FF03B0BDE8F08F41
:1006200040462146F9E7001B61EB0201001C41F541
:10063000801300185B412018A2F5001747EB030157
:1006400040EAD570B6196D4111E06D084FEA3606E3
:1006500045EAC0754FEA0752001B61EB0201001C1E
:1006600041F5801149084FEA3000001951413246E6
:100670002B4603B0BDE8F04FFFF713BF00980122EF
:1006800040000023D0EB020263EBE07300982146A8
:100690004FEAE074B8EB000061EB0401E9E783F096
:1006A00000435BE781F0004158E7C1F30A52C1F310
:1006B000130140F2FF3341F480119A4202DA002024
:1006C0000146704740F233439A42A2F2334202DCC1
:1006D000524200F03CB800F02BB8000030B5041EC8
:1006E00071F1000404DB4FF00044404264EB01016F
:1006F000141E73F1000405DB1C464FF00043524208
:1007000063EB0403994208BF904230BD064C074D8D
:1007100006E0E06840F0010394E8070098471034D1
:10072000AC42F6D3FFF75CFD945B0008B45B0008B5
:10073000202A04DB203A00FA02F1002070479140A1
:10074000C2F1200320FA03F3194390407047202A96
:1007500004DB203A21FA02F00021704721FA02F36B
:10076000D040C2F120029140084319467047202A28
:1007700006DBCB17203A41FA02F043EAE07306E0C9
:1007800041FA02F3D040C2F12002914008431946D9
:100790007047000070B50446206802F01CFD064654
:1007A000206802F01DFD98B396BB2068806800F0B9
:1007B0000D0001280AD1206881681A4A1140891C5D
:1007C000816000BF03202168086009E0E06D40F00F
:1007D0001000E065206E40F001002066012070BD31
:1007E00000F014FF054614E000F010FF401B022843
:1007F0000FD92068806800F0010050B1E06D40F032
:100800001000E065206E40F0010020660120E6E760
:1008100005E02068806800F001000028E4D1002095
:10082000DDE70000C0FFFF7F38B5044600200090E0
:10083000206802F0D5FC00284FD120688068284944
:10084000084048B1E06D40F01000E065206E40F0D7
:1008500001002066012038BD206802F0A1FC00BF25
:100860002048806800F0E07000F4000080B11E486D
:1008700000681E49B0FBF1F0401C00EB4000800016
:10088000009002E00098401E009000980028F9D1E6
:1008900000F0BCFE05461AE0206802F0A1FC10B989
:1008A000206802F07DFC00F0B1FE401B02280ED94A
:1008B0002068006800F0010048B9E06D40F01000C9
:1008C000E065206E40F0010020660120C3E720684B
:1008D000006800F001000028DED00020BBE7000027
:1008E0003F000080000300500C000020400D03007A
:1008F00000BFFEE77047002109E0002201E0531C21
:100900009AB240F6B8339A42F9DB4B1C99B2814255
:10091000F3DB704772B600BFFEE70000F8B504468F
:100920000D460020009000BF94F85800012801D126
:100930000220F8BD012084F8580000BF2046FFF7D0
:1009400029FF06468EBBE06D20F4885040F002007F
:10095000E065206881681B4A114005F0804242F042
:1009600000421143816000BF13E00098401C0090DA
:100970001549009888420CD3E06D20F0020040F049
:100980001000E06500BF002084F8580000BF01207F
:10099000CFE720688168C90F0029E6D1E06D20F01B
:1009A000020040F00100E06504E0FFE7E06D40F088
:1009B0001000E06500BF002084F8580000BF3046FA
:1009C000B7E70000C0FFFF3F02DE04002DE9F0435F
:1009D0009BB004460E464FF00008306800B100BFDF
:1009E00000BF94F85800012803D102201BB0BDE8D5
:1009F000F083012084F8580000BF00201790189061
:100A00002068B0F1A04F02D13148009001E00020F1
:100A10000090009850B9E06D40F02000E06500BF04
:100A2000002084F8580000BF0120DFE7009802F0A2
:100A3000EBFB0746206802F0E7FBD8BBD7BB254D90
:100A4000306800B394F83800716841EA4030A96812
:100A500021F460410843A8604FF0A04002F0C5FBBC
:100A600081461B4802F0C1FB49EA0009B9F1000FB9
:100A700027D1B16830680843A96840F61F729143D6
:100A80000843A8601DE0A86820F46040A8604FF00B
:100A9000A04002F0AAFB81460D4802F0A6FB49EAFD
:100AA0000009B9F1000F0CD1A86840F61F71884306
:100AB000A86006E0FFE7E06D40F02000E0654FF041
:100AC000010800BF002084F8580000BF40468DE7B1
:100AD00000010050000300502DE9F84F05460C4678
:100AE0004FF0000A00200090FE49E068884200D0E4
:100AF00000E000BF00BF95F85800012802D1022095
:100B0000BDE8F88F012085F8580000BF286802F082
:100B100076FB00287DD12968D4E9002001F1300C52
:100B2000C0F3012B0CEB8B03D3F800C000F01F0EB9
:100B30004FF01F0B0BFA0EFB2CEA0B0C00F01F0BF7
:100B4000C2F3846E0EFA0BFE4CEA0E0CC3F800C022
:100B500000BF286802F053FB8146286802F036FB8C
:100B60008046B9F1000F64D1B8F1000FFBD1A06845
:100B7000B0F1004F0AD121680022286802F052FB30
:100B80004FF00041286802F072FB08E0A26821687B
:100B9000286802F047FB0021286802F068FB6069C2
:100BA0002968C968C1F3C101490000FA01F7206949
:100BB00004283FD028682268216900F1600C0CEB02
:100BC0008103D3F800C0DFF820B30CEA0B0C02F06D
:100BD000F84B4BF0004B4BEA070B4CEA0B0CC3F8FD
:100BE00000C000BF2868A269216900F1600C0CEB0D
:100BF0008103D3F800C02CF0807C4CEA020CC3F8CF
:100C000000C000BF2868227F2169012A02D1520654
:100C100001E0C6E10022134600F1600C0CEB8102FA
:100C2000D2F800C02CF0007C4CEA030CC2F800C0E3
:100C300000BFA7E00021286802F0BFFAC0F312004D
:100C400030B90021286802F0B8FAC0F3846007E0E8
:100C50000021286802F0B1FA90FAA0F0B0FA80F012
:100C60002168C1F3120119B92168C1F3846104E05C
:100C7000216891FAA1F1B1FA81F1884204D10022F0
:100C80001146286802F0E8FA0121286802F095FA76
:100C9000C0F3120030B90121286802F08EFAC0F3C7
:100CA000846007E00121286802F087FA90FAA0F03A
:100CB000B0FA80F02168C1F3120119B92168C1F3BB
:100CC000846104E0216891FAA1F1B1FA81F18842CE
:100CD00004D100220121286802F0BEFA022128680E
:100CE00002F06BFAC0F3120030B90221286802F05A
:100CF00064FAC0F3846007E00221286802F05DFA1C
:100D000090FAA0F0B0FA80F02168C1F3120119B98D
:100D10002168C1F3846104E0216891FAA1F1B1FA7C
:100D200081F1884204D100220221286802F094FA5D
:100D30000321286802F041FAC0F3120030B9032100
:100D4000286802F03AFAC0F3846007E003212868BB
:100D500002F033FA90FAA0F0B0FA80F02168C1F303
:100D6000120119B92168C1F3846104E0216891FA84
:100D7000A1F1B1FA81F1884204D10022032128684F
:100D800002F06AFA286802F02BFA002872D128686B
:100D9000E2682168D0F8B030C1F3120C23EA0C03EA
:100DA00002F0180BDFF844C12CFA0BFC0CEA010C22
:100DB00043EA0C03C0F8B03000BF4A49E0688842FB
:100DC00058D12368C3F312031BB92368C3F38463A8
:100DD00004E0236893FAA3F3B3FA83F35B1C03F0F4
:100DE0001F03092B3ED82368C3F312031BB92368E2
:100DF000C3F3846304E0236893FAA3F3B3FA83F3A1
:100E00005B1C03F01F034FF0010C0CFA03FC23687A
:100E1000C3F312031BB92368C3F3846304E023689C
:100E200093FAA3F3B3FA83F35B1C03F01F034CEABA
:100E3000836C2368C3F312031BB92368C3F3846371
:100E400004E0236893FAA3F3B3FA83F35B1C03F083
:100E50001F0303EB43034FF0000B4BEA03534CEA31
:100E6000030347E02368C3F3120323B92368C3F3E2
:100E7000846305E043E0236893FAA3F3B3FA83F3B2
:100E80005B1C03F01F034FF0010C0CFA03FC2368FA
:100E9000C3F312031BB92368C3F3846304E023681C
:100EA00093FAA3F3B3FA83F35B1C03F01F034CEA3A
:100EB000836C2368C3F312031BB92368C3F38463F1
:100EC00004E0236893FAA3F3B3FA83F35B1C03F003
:100ED0001F030A3B03EB43034FF0007B4BEA035332
:100EE00006E0000000007F4000F0FF03FFFF070066
:100EF0004CEA03031946A268286802F093F92F49C7
:100F00002068084050B300BF2D48806800F0E076AC
:100F100000BF2C492068884203D02B4920688842B2
:100F20001DD106F40000D0B92868B0F1A04F3ED121
:100F300046F40001224802F089F924480068244957
:100F4000B0FBF1F0401C00EB40008000009002E09C
:100F50000098401E009000980028F9D127E01D4914
:100F6000206888420CD106F0807048B91A49286878
:100F700088421CD046F08071114802F067F916E0F3
:100F800016492068884212D106F4800078B91249C7
:100F9000286888420BD046F48001094802F056F9CF
:100FA00005E0E86D40F02000E8654FF0010A00BF61
:100FB000002085F8580000BF5046A1E500000880D9
:100FC00000030050000021C31000C0900C0000205E
:100FD000400D0300000052C700010050000084CB08
:100FE00001460868006C70472DE9F84304464FF04D
:100FF00000080020009014B90120BDE8F883606962
:1010000020B194F82400012800D100BFE06D30B970
:10101000204600F017F90020206684F85800206868
:101020008168C1F3407131B1206881687E4A114006
:10103000816000BF00BF206802F0DCF8B0B9206812
:1010400081687A4A114041F08051816000BF784840
:1010500000687849B0FBF1F0401C4000009002E0CD
:101060000098401E009000980028F9D1206802F0F6
:10107000C1F848B9E06D40F01000E065206E40F026
:10108000010020664FF00108206802F0B8F806461B
:10109000E06D00F01000002877D1002EFCD1E06D4B
:1010A00020F4807040F00200E065206802F098F8BB
:1010B000B0B94FF0A04002F093F881465E4802F0CC
:1010C0008FF849EA0009B9F1000F09D160685B495E
:1010D000896821F47C110143584A916000BF00BF28
:1010E000607FE16B41EA4030E1680843A168084352
:1010F00094F8241040EA014594F82400012803D113
:10110000208D401E45EA4045E06A28B1A08D00F4DC
:101110007870216B084305432068C068484908403F
:1011200028432168C8602068006920F04060616B36
:10113000084321680861206802F048F80746002E3D
:1011400050D1EFBB207F002141EA803194F8380074
:1011500041EA40052068C06844F202018843284300
:101160002168C860206988B12068006940F4803037
:10117000216808612068D0F8C0006FF30D00216974
:1011800008432168C1F8C0000EE045E0206800690E
:1011900020F48030216808612068D0F8C0006FF327
:1011A0000D002168C1F8C00094F84000012813D157
:1011B000606C40F00101A06C0843E16C084300E062
:1011C00010E0216D08432168096940F2FC729143E7
:1011D00008432168086105E02068006920F00100EB
:1011E000216808616069012809D12068006B20F03E
:1011F0000F00216A491E08432168086305E0206842
:10120000006B20F00F0021680863E06D20F0020001
:1012100040F00100E06505E0E06D40F01000E065A1
:101220004FF001084046E8E6C0FFFF5FC0FFFF7FC8
:101230000C000020400D030000010050000300508E
:101240000740F0FF10B598B00446142113A8FEF72C
:10125000E8FF442102A8FEF7E4FF2068B0F1A04FA8
:1012600030D14FF4004002908003119002A800F0AA
:1012700039FB08B1FFF74EFB00BF1348C06C40F4C8
:1012800000501149C8640846C06C00F40050019039
:1012900000BF00BF00BF0846C06C40F00200C86439
:1012A0000846C06C00F00200019000BF00BF4FF480
:1012B000A0401390032014900020159013A9034818
:1012C00000F0A8F818B010BD00100240000400485B
:1012D0002DE9F0410446434801F06AFF06462068C4
:1012E00001F08DFF00287AD100BF94F85800012842
:1012F00002D10220BDE8F081012084F8580000BF2F
:101300002046FFF791FA0546002D63D1E06D40F6C7
:101310000161884340F48070E06533492068884269
:1013200002D14FF0A04000E020682168884200D040
:101330001EB9E06D20F48010E065E06D00F480508F
:10134000B0F5805F04D1206E20F00600206601E039
:10135000002020661C202168086000BF002084F85F
:10136000580000BF20492068884202D14FF0A040B9
:1013700000E020682168884204D01EB1052E01D00B
:10138000092E0ED12068C06800F0007028B1E06D11
:1013900020F4005040F48050E065206801F03AFFEE
:1013A0001EE0E06D40F48010E0650F49206888423F
:1013B00002D14FF0A04000E020680746F86800F036
:1013C000007068B1E06D20F4005040F48050E0659A
:1013D00006E004E000BF002084F8580000E0022589
:1013E000284687E7000300500001005070B504460E
:1013F00000F00CF906462546681C10B10448006848
:10140000054400BF00F002F9801BA842FAD370BD6A
:101410000800002078B503460022D2E0012696405D
:101420000D6805EA0604002C7BD00D7905F0030554
:10143000012D04D00D7905F00305022D13D1986814
:1014400056000325B540A8435600CD68B540284353
:101450009860586801259540A8430D79C5F300159B
:101460009540284358600D7905F00305032D07D1F9
:101470000D7905F00305032D0CD18D68012D09D0E0
:10148000D86856000325B540A84356008D68B5407E
:101490002843D8600D7905F00305022D13D1D60835
:1014A00003F1200555F826005507EE0E0F25B5402F
:1014B000A8435607F60E0D69B5402843D60803F138
:1014C000200545F82600186856000325B540A843B6
:1014D0000D7905F003055600B540284318604D68A6
:1014E00005F44035002D6BD000BF394D2D6E45F011
:1014F0000105374E356635462D6E05F00105009520
:1015000000BF00BF4FEAB635960855F8260095078C
:101510002E0F0F25B540A843B3F1904F02D10025FF
:101520001AE04DE02B4DAB4201D1012514E02A4DCC
:10153000AB4201D102250FE0284DAB4201D103257A
:101540000AE0274DAB4201D1042505E0254DAB4211
:1015500001D1052500E006259607360FB540284342
:10156000214D960845F82600204D2868A0434D6877
:1015700005F4801505B120431C4D28602D1D2868F9
:10158000A0434D6805F4001505B12043174D2D1DEE
:101590002860164D2D1F2868A0434D6805F40035BE
:1015A00005B12043114D2D1F28602D1F2868A04331
:1015B0004D6805F4803505B120430C4D083D286089
:1015C000521C0D68D540002D7FF428AF78BD000077
:1015D000001002400004004800080048000C0048C9
:1015E00000100048001400480800014008040140B1
:1015F000024613690B400BB1012000E00020704748
:101600000AB1816100E08162704700000148006812
:101610007047000000000020034800680349096883
:1016200008440149086070470000002008000020BD
:1016300010B50024032000F0ABF80F2000F008F8EC
:1016400008B1012401E000F02FF8204610BD000091
:1016500070B50446002511480068D8B10F480068ED
:101660004FF47A71B1FBF0F00D490968B1FBF0F667
:10167000304600F0FBFE58B9102C07D2002221465C
:10168000501E00F047F80748046004E0012502E01E
:10169000012500E00125284670BD0000080000205B
:1016A0000C0000200400002008B500BF0E48006EAA
:1016B00040F001000C4908660846006E00F0010089
:1016C000009000BF00BF00BF0846806D40F0805012
:1016D00088650846806D00F08050009000BF00BF14
:1016E00000F0F6F808BD0000001002400146084670
:1016F00000280DDB00BF00BF00F01F0301229A404D
:1017000043099B0003F1E023C3F8002100BF00BFA1
:1017100000BF70472DE9F05F80460D46164602F087
:10172000F9FA074639462A46334601F00700C0F168
:10173000070ABAF1040F02D94FF0040A01E0C0F120
:10174000070AD14600F1040ABAF1070F02D24FF09E
:10175000000A01E0A0F1030AD4464FF0010A0AFA98
:1017600009FAAAF1010A0AEA020A0AFA0CFA4FF087
:10177000010B0BFA0CFBABF1010B0BEA030B4AEA72
:101780000B042146404602F0CDFABDE8F09F000070
:1017900000BF00F00702064B19684FF6FF0319401F
:1017A000044B0B4343EA0221014B196000BF704711
:1017B0000CED00E00000FA0502468ABB41480068D3
:1017C00000F4C060B0F5806F2BD13E4880300068D7
:1017D00020F480703B4BC3F880001846006820F46A
:1017E000C06040F4007018603748006832235843E6
:1017F000364BB0FBF3F0411C00E0491E3148406914
:1018000000F48060B0F5806F01D10029F5D12D483A
:10181000406900F48060B0F5806F51D103207047BB
:1018200008E028488030006820F48070254BC3F819
:10183000800045E0B2F5007F3AD12248006800F40C
:10184000C060B0F5806F2AD11E488030006840F437
:1018500080701C4BC3F880001846006820F4C060FC
:1018600040F4007018601848006832235843174B42
:10187000B0FBF3F0411C00E0491E1248406900F43F
:101880008060B0F5806F01D10029F5D10D48406925
:1018900000F48060B0F5806F12D10320BFE70948E3
:1018A0008030006840F48070064BC3F8800007E089
:1018B0000448006820F4C06040F48060014B186068
:1018C0000020ACE7007000400C00002040420F00F8
:1018D0000348806840F480400149886070470000F8
:1018E000007000402DE9F84304460027B846206800
:1018F00000F40020B0F5002F73D1B946D348806DB5
:1019000000F0805078B900BFD048806D40F0805022
:10191000CE4988650846806D00F08050009000BF79
:1019200000BF4FF00109CA48006840F48070C84900
:101930000860FFF76BFE064606E0FFF767FE801BB8
:10194000022801D9032705E0C148006800F480702F
:101950000028F2D000BF002F46D1BC48903000686C
:1019600000F44075CDB1206CA84216D0B748903035
:10197000006820F44075B548D0F8900040F48030FD
:10198000B249C1F890000846D0F8900020F48030A9
:10199000C1F890000846C0F8905005F00100A0B1D1
:1019A000FFF734FE064608E0FFF730FE801B41F2E9
:1019B0008831884201D9032706E0A44890300068A6
:1019C00000F002000028EFD000BF5FB99F489030C0
:1019D000006820F44070216C08439C49C1F89000D5
:1019E00003E00CE0B84600E0B846B9F1010F05D1BC
:1019F0009648806D20F080509449886500BF20781B
:101A000000F0010048B191488830006820F00300E0
:101A1000616808438D49C1F88800207800F0020011
:101A2000022809D189488830006820F00C00A1689C
:101A300008438649C1F88800207800F00400042893
:101A400009D182488830006820F03000E1680843FE
:101A50007E49C1F88800207800F00800082809D1E4
:101A60007A488830006820F0C0002169084377492F
:101A7000C1F88800207800F02000202809D17348A0
:101A80008830006820F44060616908436F49C1F8FC
:101A90008800207800F04000402809D16B48883049
:101AA000006820F44050A16908436849C1F88800E3
:101AB000207800F08000802809D1644888300068D0
:101AC00020F44040E16908436049C1F8880020885B
:101AD00000F48070B0F5807F09D15C4888300068E0
:101AE00020F44030216A08435849C1F88800208812
:101AF00000F40070B0F5007F09D1544888300068C8
:101B000020F44020616A08435049C1F888002088C9
:101B100000F48060B0F5806F13D14C4888300068C5
:101B200020F44010A16A0843484988310860A06A3F
:101B3000B0F5801F05D14548C06840F48010434986
:101B4000C860208800F40060B0F5006F13D13F48F2
:101B50008830006820F44000E16A08433B4988313E
:101B60000860E06AB0F5800F05D13848C06840F4DD
:101B700080103649C860208800F48050B0F5805F3E
:101B800013D132488830006820F04070216B084340
:101B90002E4988310860206BB0F1807F05D12B4839
:101BA000C06840F480102949C860208800F40050C3
:101BB000B0F5005F13D125488830006820F0406000
:101BC000616B0843214988310860606BB0F1006F98
:101BD00005D11E48C06840F480101C49C8602088A8
:101BE00000F48040B0F5804F13D118488830006869
:101BF00020F04060A16B0843144988310860A06B55
:101C0000B0F1006F05D11148C06840F480100F4951
:101C1000C860208800F40040B0F5004F13D10B4895
:101C20008830006820F04050E16B08430749883154
:101C30000860E06BB0F1805F05D10448C06840F4F3
:101C400080300249C8604046BDE8F8830010024079
:101C5000007000402DE9F04104460D464FF00008A9
:101C600014B90120BDE8F0817D48006800F00F0044
:101C7000A8420ED27A48006820F00F002843784925
:101C800008600846006800F00F00A84201D001205B
:101C9000E8E7207800F00100002864D0606803289D
:101CA00023D17048006800F0007008B90120D9E71E
:101CB00001F01EFC06466C48864237D969488068A8
:101CC00000F0F00030B1207800F0020002282DD1A1
:101CD000A06858BB6348806820F0F00040F08000A6
:101CE000604988604FF0800820E06068022806D1D3
:101CF0005C48006800F4003040B90120B2E7594860
:101D0000006800F4806008B90120ABE700F0B4F887
:101D100006465548864209D95248806820F0F000AE
:101D200040F080004F4988604FF080084D4880683F
:101D300020F00300616808434A498860FFF766FCA9
:101D4000074608E0FFF762FCC01B41F28831884279
:101D500001D9032086E74348806800F00C006168E1
:101D6000B0EB810FEED1207800F00200022820D1E4
:101D7000207800F00400042805D13A48806840F437
:101D8000E06038498860207800F00800082807D112
:101D90003448806820F4605040F4E0603149886045
:101DA0003048806820F0F000A16808432D49886021
:101DB00008E0B8F1800F05D12A48806820F0F000D3
:101DC000284988602648006800F00F00A84219D909
:101DD0002348006820F00F00284321490860FFF7DE
:101DE00015FC074608E0FFF711FCC01B41F28831E3
:101DF000884201D9032035E71948006800F00F0038
:101E0000A842F0D1207800F00400042807D115483A
:101E1000806820F4E060E168084312498860207817
:101E200000F00800082808D10E48806820F46050AF
:101E3000216940EAC1000B49886000F01DF809499A
:101E40008968C1F30311094A515C01F01F01C840C0
:101E50000749086007480068FFF7FAFB02E700003F
:101E6000002002400010024000B4C404AC49000845
:101E70000C0000200400002070B5224DAD6805F074
:101E80000C05042D01D120483AE01E4DAD6805F047
:101E90000C05082D01D11D4832E01A4DAD6805F042
:101EA0000C050C2D2BD1174DED6805F00304154DD5
:101EB000ED68C5F303156A1C022C0CD0032C09D164
:101EC000124DB5FBF2F50F4EF668C6F3062605FB7C
:101ED00006F10AE000BF0C4DB5FBF2F5094EF668BD
:101EE000C6F3062605FB06F100BF00BF054DED68F1
:101EF000C5F341656D1C6B00B1FBF3F000E0002001
:101F000070BD0000001002400024F40000366E0195
:101F10002DE9F843044614B90120BDE8F883207880
:101F200000F00100002865D0FC48806800F00C0734
:101F3000FA48C06800F003060C2F01D1032E01D02F
:101F4000082F0AD1F548006800F40030002851D06D
:101F5000606800284ED10120DFE700BF6068B0F55F
:101F6000803F06D1ED48006840F48030EB490860BE
:101F70001AE06068B0F5A02F0BD1E848006840F483
:101F80008020E64908600846006840F48030086018
:101F90000AE0E248006820F48030E0490860084622
:101FA000006820F48020086000BF606888B1FFF7F7
:101FB0002DFB054606E0FFF729FB401B642801D9ED
:101FC0000320AAE7D548006800F400300028F2D0CA
:101FD00010E0FFF71BFB054606E0FFF717FB401B71
:101FE000642801D9032098E7CC48006800F4003049
:101FF0000028F2D1207800F00200022860D1C74802
:10200000806800F00C07C548C06800F003060C2F7C
:1020100001D1022E01D0042F18D1C048006800F46D
:10202000806018B1E06808B9012076E7BB484068D5
:1020300020F0FE40217C40EA0160B8494860B84881
:102040000068FFF705FB18B3012066E7E06800B3FE
:10205000B248006840F48070B0490860FFF7D6FAD3
:10206000054606E0FFF7D2FA401B022801D90320FB
:1020700053E7AA48006800F480600028F2D0A7481F
:10208000406820F0FE40217C40EA0160A34948609E
:1020900016E0A248006820F48070A0490860FFF7AD
:1020A000B5FA054606E0FFF7B1FA401B022801D950
:1020B000032032E79948006800F480600028F2D1DC
:1020C000207800F00800082836D16069D0B1934824
:1020D0009430006840F001009049C1F89400FFF787
:1020E00095FA054606E0FFF791FA401B022801D950
:1020F000032012E789489430006800F002000028AD
:10210000F1D019E085489430006820F0010083493F
:10211000C1F89400FFF77AFA054606E0FFF776FA71
:10212000401B022801D90320F7E67C489430006860
:1021300000F002000028F1D1207800F0040004280B
:1021400072D14FF000087548806D012121EA1070AE
:1021500078B100BF7148806D40F080506F4988654C
:102160000846806D00F08050009000BF00BF4FF027
:1021700001086C48006800F48070B0B969480068D4
:1021800040F4807067490860FFF740FA054606E0B2
:10219000FFF73CFA401B022801D90320BDE6614845
:1021A000006800F480700028F2D000BFA068012809
:1021B00008D15A489030006840F001005749C1F8F2
:1021C000900021E0A06805280FD1544890300068A5
:1021D00040F004005149C1F890000846D0F8900042
:1021E00040F00100C1F890000EE04C4890300068CB
:1021F00020F001004949C1F890000846D0F890004D
:1022000020F00400C1F8900000BFA068A8B1FFF75B
:10221000FDF9054609E0FFF7F9F9401B41F2883165
:10222000884202D9032078E625E03C4890300068D7
:1022300000F002000028EED013E0FFF7E7F90546B2
:1022400008E0FFF7E3F9401B41F28831884201D9E9
:10225000032062E631489030006800F00200002858
:10226000EFD1B8F1010F05D12C48806D20F08050DE
:102270002A49886500BF207800F02000202836D148
:10228000A069D0B125489830006840F0010023498A
:10229000C1F89800FFF7BAF9054606E0FFF7B6F96E
:1022A000401B022801D9032037E61C4898300068FB
:1022B00000F002000028F1D019E0184898300068BA
:1022C00020F001001549C1F89800FFF79FF9054675
:1022D00006E0FFF79BF9401B022801D903201CE60A
:1022E0000E489830006800F002000028F1D1E06943
:1022F000002860D00948806800F00C000C287AD0D3
:10230000E069022858D10548006820F08070034930
:102310000860FFF77BF905460DE000000010024061
:102320000400002000700040FFF770F9401B0228F5
:1023300001D90320F1E54A48006800F00070002848
:10234000F2D1D4E90810401E41EA0011A06A41EA26
:102350000021208E0122C2EB500041EA405134207E
:10236000005DC2EB500041EA40612C20005D41EA73
:10237000C0603B49C9683B4A114008433849C860BE
:102380000846006840F0807008600846C06840F069
:102390008070C860FFF73AF9054606E0FFF736F9A6
:1023A000401B022801D90320B7E52D48006800F042
:1023B00000700028F2D051E02948006820F08070B9
:1023C00027490860FFF722F9054606E0FFF71EF9E6
:1023D000401B022801D903209FE52148006800F036
:1023E00000700028F2D11E48C0681F4908401C49EF
:1023F000C86033E0FFE7E069012800D18DE51848A7
:10240000C66806F00301206A814225D106F0F0017A
:10241000606A401EB1EB001F1ED106F4FE41A06AA7
:10242000B1EB002F18D106F078412C20005DB1EB04
:10243000C06F11D106F4C001208E0122C2EB500002
:10244000B1EB405F08D106F0C0613420005DC2EB03
:102450005000B1EB406F01D001205EE500205CE54B
:10246000001002400C809F01FCFFEEFE70B5044698
:102470002546681EB0F1807F01D301200FE0681E61
:102480004FF0E02148610F214FF0FF3001F04AFC8E
:1024900000204FF0E021886107200861002070BD16
:1024A00070477047704770477047704730B50246B5
:1024B0000B4600BF92F83C00012801D1022030BD3C
:1024C000012082F83C0000BF022082F83D00106825
:1024D0004168106884681D4D1068A84203D01C4DE7
:1024E0001068A84203D121F47001586801431948CB
:1024F00001401868014310684160144D1068A842FB
:1025000013D01068B0F1804F0FD0134D1068A8425F
:102510000BD0124D1068A84207D00D4D1068A8428C
:1025200003D00F4D1068A84205D124F080049868AC
:10253000044310688460012082F83D0000BF002041
:1025400082F83C0000BF00BFB9E70000002C01404A
:10255000003401408FFFFFFD0004004000080040F0
:102560000040014070470000084A016891420CD1C8
:10257000064934310968491C054AB2FBF1F1054AA4
:1025800011800021014A243211607047000400408C
:1025900040420F00280000202DE9F04104460D467E
:1025A0001646002700BF94F83C00012802D1022003
:1025B000BDE8F081012084F83C0000BF96B9EB68CB
:1025C000D5E90012206801F077FA2068806920F0D0
:1025D0000C002168886120688069A9680843216827
:1025E000886141E0042E13D1EB68D5E90012206820
:1025F00001F0BCFA2068806920F44060216888619D
:1026000020688069A96840EA0120216888612BE080
:10261000082E12D1EB68D5E90012206801F0E6FA25
:102620002068C06920F00C002168C8612068C0697A
:10263000A96808432168C86116E00C2E13D1EB6825
:10264000D5E90012206801F00FFB2068C06920F472
:1026500040602168C8612068C069A96840EA01201B
:102660002168C86100E0012700BF002084F83C0019
:1026700000BF38469CE710B504460CB9012010BDD8
:1026800094F83D0028B9002084F83C00204600F072
:1026900029F8022084F83D00211D206801F098F9F6
:1026A000012084F8480000BF84F83E0001213F204B
:1026B000015540200155412001554220015543203C
:1026C000015500BF00BF012084F84400452001559A
:1026D000462001554720015500BF012084F83D00E8
:1026E0000020CCE710B586B00446142101A8FDF700
:1026F00098FD1B49206888422FD100BF1948806D82
:1027000040F00200174988650846806D00F002001D
:10271000009000BF00BF00BF0846C06C40F0020040
:10272000C8640846C06C00F00200009000BF00BF03
:1027300010200190022002900020039004900220BB
:10274000059001A90848FEF765FE002211461D20EC
:10275000FEF7E0FF1D20FEF7C9FF06B010BD000028
:102760000004004000100240000400482DE9F0433E
:1027700004460D46002715B994F83E0015E0042DD7
:1027800002D13F20005D10E0082D02D14020005D05
:102790000BE00C2D02D14120005D06E0102D02D18E
:1027A0004220005D01E04320005D804615B994F8A9
:1027B00044000BE0042D02D14520005D06E0082D09
:1027C00002D14620005D01E04720005D8146B8F15E
:1027D000010F02D1B9F1010F02D00120BDE8F08351
:1027E0001DB9022084F83E001AE0042D03D1022115
:1027F0003F20015514E0082D03D10221402001554E
:102800000EE00C2D03D102214120015508E0102DCE
:1028100003D102214220015502E00221432001554B
:102820001DB9022084F844000EE0042D03D10221DA
:102830004520015508E0082D03D10221462001550D
:1028400002E002214720015535B1042D0BD0082D9F
:1028500010D00C2D1CD114E02068C06840F002009C
:102860002168C86016E02068C06840F00400216854
:10287000C8600FE02068C06840F008002168C860A8
:1028800008E02068C06840F010002168C86001E0DE
:10289000012700BF00BF67BB01222946206801F065
:1028A000F9F818492068884213D02068B0F1804FA9
:1028B0000FD01549206888420BD0144920688842FF
:1028C00007D013492068884203D012492068884203
:1028D00010D120688068104900EA0106062E0FD04A
:1028E000B6F5803F0CD02068006840F001002168F8
:1028F000086005E02068006840F001002168086079
:1029000038466BE7002C01400004004000080040FE
:1029100000340140004001400700010070B504464A
:102920002068C6682068056905F00200022819D1F0
:1029300006F00200022815D1401F2168086101201D
:1029400020772068806900F0030018B12046FFF767
:102950000BFE05E0204600F0F1F8204600F0EFF80D
:102960000020207705F00400042819D106F00400A7
:10297000042815D1C043216808610220207720680F
:10298000806900F4407018B12046FFF7EDFD05E0C6
:10299000204600F0D3F8204600F0D1F80020207740
:1029A00005F00800082819D106F00800082815D1FC
:1029B000C04321680861042020772068C06900F0C6
:1029C000030018B12046FFF7CFFD05E0204600F0D8
:1029D000B5F8204600F0B3F80020207705F010008D
:1029E000102819D106F01000102815D1C043216815
:1029F0000861082020772068C06900F4407018B191
:102A00002046FFF7B1FD05E0204600F097F820468C
:102A100000F095F80020207705F0010048B106F09D
:102A2000010030B16FF0010021680861204600F01C
:102A300087F805F08000802804D005F40050B0F538
:102A4000005F0AD106F08000802806D16FF40250A2
:102A5000216808612046FFF724FD05F48070B0F579
:102A6000807F0AD106F08000802806D16FF4807044
:102A7000216808612046FFF713FD05F0400040285B
:102A800009D106F04000402805D1C0432168086103
:102A9000204600F056F805F02000202809D106F065
:102AA0002000202805D1C043216808612046FFF797
:102AB000F9FC05F48010B0F5801F0BD106F48010EE
:102AC000B0F5801F06D16FF48010216808612046A0
:102AD000FFF7EAFC05F40010B0F5001F0BD106F477
:102AE0000010B0F5001F06D16FF4001021680861D6
:102AF0002046FFF7D8FC05F48000B0F5800F0BD11D
:102B000006F48000B0F5800F06D16FF480002168D4
:102B100008612046FFF7C9FC05F40000B0F5000F7E
:102B20000BD106F40000B0F5000F06D16FF40000E1
:102B3000216808612046FFF715FD70BD704770479A
:102B40007047704700BFFEE700B585B014216846A6
:102B5000FDF767FBC0200090012001900290022049
:102B6000039069460248FEF755FC05B000BD000021
:102B70000004004870B50825002400F09DFE13E015
:102B80006006040E002000F077FE142001F084FDA2
:102B9000142001F081FD012000F06EFE142001F0F0
:102BA0007BFD00F07DFE0443281EA5F10101CDB29E
:102BB000E6D100F061FE142001F06EFD00F0A6FEEB
:102BC000204670BD70B50446082517E0002000F0CF
:102BD00053FE142001F060FD04F0800000F082FE3E
:102BE000142001F059FD6006040E142001F054FD7C
:102BF000012000F041FE142001F04EFD281EA5F139
:102C00000101CDB2E2D100F037FE142001F044FD05
:102C100070BD10B5012000F065FE142001F03CFDF0
:102C2000142001F039FD012000F026FE142001F0EF
:102C300033FD002000F020FE142001F02DFD10BD1A
:102C400010B5012000F04EFE142001F025FD0120FA
:102C500000F012FE142001F01FFD002000F042FEE3
:102C6000142001F019FD002000F006FE142001F0F0
:102C700013FD10BD10B5002000F0FEFD142001F082
:102C80000BFD002000F02EFE142001F005FD0120B8
:102C900000F0F2FD142001F0FFFC012000F022FE04
:102CA000142001F0F9FC10BD10B5052400F004FE5D
:102CB000142001F0F1FC012000F0DEFD142001F0F1
:102CC000EBFC0BE0601E84B2142001F0E5FC2CB993
:102CD00000F01CFEFFF7CEFF012010BD00F0E0FD6C
:102CE0000028EFD100F0C8FD00F010FE142001F024
:102CF000D3FC0020F1E7000000B585B01421684640
:102D0000FDF78FFA4FF6FF7000900020019003202E
:102D100003900020029069460248FEF77BFB05B055
:102D200000BD00000008004800B585B014216846C9
:102D3000FDF777FA4FF6FF70009001200190032015
:102D400003900020029069460248FEF763FB05B03D
:102D500000BD00000008004830B5054600240021F1
:102D6000084600F049F900F097F900BF03E0284653
:102D700000F056F9641CB4F5963FF8D330BD00005E
:102D800000B587B0142102A8FDF74BFA00BF2B480D
:102D9000C06C40F004002949C8640846C06C00F0CB
:102DA0000400019000BF00BF00BF0846C06C40F0A7
:102DB0000100C8640846C06C00F00100019000BF2B
:102DC00000BF00BF0846C06C40F00200C86408465F
:102DD000C06C00F00200019000BF00BF4FF44870CB
:102DE000029001200390032005900020049002A986
:102DF0001348FEF70FFB4FF4807002900120039000
:102E0000032005900020049002A94FF09040FEF7A7
:102E100001FBFFF789FF4FF09040806940F480701C
:102E20004FF09041886106481830006840F40870FF
:102E300003491831086007B000BD000000100240CF
:102E40000004004870B505460E461446A4F1200063
:102E5000C4B204EB4400044901EB00123146284699
:102E600000F01AF870BD0000C4490008F0B507462C
:102E70000C46002540F23F1609E0227831463846DC
:102E8000FFF7E0FFA6F1100086B2641C6D1C2078ED
:102E900008B1142DF1D3F0BD2DE9F0430646894663
:102EA000174600240025A046B0464946404600F09B
:102EB000A3F800BF1EE000F0EFF800250FE037F8A0
:102EC00014000121A940084020B90C48008800F0F6
:102ED000A7F803E00A48008800F0A2F86D1C102D46
:102EE000EDD308F1010000F0FF084946404600F02C
:102EF00083F8641C182CDED3BDE8F0833A00002070
:102F00003800002010B5FFF73BFF002000F016F856
:102F1000094908800846008848F23021884202D1D9
:102F200000F01AFB01E000F0A7FB002000F006F81B
:102F30000149088010BD00003C00002070B5044627
:102F40002748006840F4007025490860084600687A
:102F500040F48070086022481038006840F020007B
:102F60001F49103908601F4804601D48006840F080
:102F700020001B49086000BF00BF00BF1848103880
:102F8000006840F0200016491039086008460068C3
:102F900040F480700860FFF7AFFE4FF09040806A09
:102FA00040F480704FF09041886200BF00BF00BFC6
:102FB0000C48001F006885B24FF09040806940F4D3
:102FC00080704FF090418861FFF7AEFE04481038E2
:102FD000006840F40070024910390860284670BD4E
:102FE000280400481408004801B5BDF80000014954
:102FF000088008BD3A00002030B504460D46214641
:10300000202000F085F82946212000F081F830BD0D
:1030100001B5BDF800000149088008BD3800002056
:103020001B49096841F40071194A116018491039A7
:10303000096841F48071164A103A11601146096816
:1030400041F020011160134908601149096841F0FD
:1030500020010F4A116000BF00BF00BF0C491039AA
:10306000096841F020010A4A103A116011460968C6
:1030700041F48071116000BF00BF00BF04491039E6
:10308000096841F40071024A103A1160704700006B
:1030900028040048140800481B48006840F40070E9
:1030A000194908600846006840F4807008601648B6
:1030B0001038006840F020001349103908602220C1
:1030C000124908601048006840F020000E4908606E
:1030D00000BF00BF00BF0C481038006840F020005F
:1030E0000949103908600846006840F4807008609B
:1030F00000BF00BF00BF04481038006840F40070F3
:103100000149103908607047280400481408004835
:10311000214A126842F400721F4B1A601A46126864
:1031200042F480721A601C4A103A126842F020027F
:10313000194B103B1A60194A1060174A126842F086
:103140002002154B1A6000BF00BF00BF124A103AA0
:10315000126842F02002104B103B1A601A461268A7
:1031600042F480721A600D4A11600B4A126842F0F4
:103170002002094B1A6000BF00BF00BF064A103A88
:10318000126842F02002044B103B1A601A46126883
:1031900042F480721A6070472804004814080048FE
:1031A0008168024A1140491C81607047C0FFFF7F5F
:1031B0000146886800F01F007047024602F1600077
:1031C00000EB8103186800F0F840704701468868FA
:1031D000C0F3C000704701468868C0F340007047E4
:1031E0000146886800F0010070470146886800F0D9
:1031F0000100704701468868C0F3007070470146BF
:103200008868C0F38000704701468868C0F380007A
:10321000704700008168024A1140091D81607047B3
:10322000C0FFFF7F70B500F11404C1F3406504EBEB
:1032300085031C68C1F304560725B540AC43C1F3B0
:10324000045502FA05F52C431C6070BD826822F01B
:10325000E0720A438260704710B500F1600404EB2D
:1032600081031C6824F0004414431C6010BD4269B3
:1032700022F000420A4342617047000000B58BB063
:103280000020089009900A9020216846FCF7C9FFA9
:103290004FF0A040254908604FF4003048600021FD
:1032A00022488160C1600161012141610421816185
:1032B00000210177417702210162002180F824106A
:1032C000C162016380F83810C16380F84010FDF7D7
:1032D0008BFE08B1FDF71EFB0020089008A91348DB
:1032E000FDF774FB08B1FDF715FB114800900620AF
:1032F0000190072002907F2003900420049000207A
:10330000059069460948FDF7E7FB08B1FDF702FBA8
:10331000084800900C20019069460448FDF7DCFB4A
:1033200008B1FDF7F7FA0BB000BD00004000002027
:103330002000F0140008302E00B587B0142102A838
:10334000FCF76FFF00BF4548C06C40F004004349E4
:10335000C8640846C06C00F00400019000BF00BFC4
:1033600000BF0846C06C40F02000C8640846C06C2E
:1033700000F02000019000BF00BF00BF0846C06CF5
:1033800040F00100C8640846C06C00F001000190E4
:1033900000BF00BF00BF0846C06C40F00200C86418
:1033A0000846C06C00F00200019000BF00BF00BFE3
:1033B0000846C06C40F00800C8640846C06C00F0C5
:1033C0000800019000BF00BF01224FF47F41244854
:1033D000FEF716F9002204212248FEF711F9002217
:1033E000C0212148FEF70CF94FF47F4002900120E4
:1033F000039000200490059002A91948FEF70AF8EE
:1034000001200290002003900120049002A94FF0B7
:103410009040FDF7FFFF072002900020039001205D
:10342000049002A91048FDF7F5FF04200290012046
:10343000039000200490059002A90A48FDF7EAFFD6
:10344000C02002900120039000200490059002A962
:103450000548FDF7DFFF07B000BD00000010024087
:1034600000080048000C00480004004800B587B080
:103470000020049005900690009001900290039027
:103480001648174908604F204860002114488160A1
:103490004FF6FF71C160002101618161FFF7EBF818
:1034A00008B1FDF737FA00200490069004A90C48F3
:1034B000FEF7FCFF08B1FDF72DFA00200090012077
:1034C0000190002002900390002269460448FFF713
:1034D00063F808B1FDF71EFA07B000BD0004004014
:1034E000AC00002000BFFEE700BFFEE77047000011
:1034F00070B5164DED6805F00304144DED68C5F385
:1035000003156B1C022C0CD0032C09D1104DB5FBFC
:10351000F3F50E4EF668C6F3062605FB06F10AE043
:1035200000BF0C4DB5FBF3F5084EF668C6F3062652
:1035300005FB06F100BF00BF044DED68C5F3416512
:103540006D1C6A00B1FBF2F070BD0000001002407B
:1035500000366E010024F40000B501210020FFF7C1
:10356000D7FD4FF47A70FDF7C6F900210120FFF76F
:10357000CFFD41F290711020FFF7CAFD4FF41C51AE
:103580006020FFF7C5FD01216120FFF7C1FD022189
:103590004620FFF7BDFD48F210011320FFF7B8FDEC
:1035A00048F2FE011220FFF7B3FD4FF4A0610220A4
:1035B000FFF7AEFD41F230010320FFF7A9FD40F215
:1035C00003313020FFF7A4FD40F203313120FFF733
:1035D0009FFD40F203313220FFF79AFD4FF4407116
:1035E0003320FFF795FD03213420FFF791FD40F2D2
:1035F00003313520FFF78CFD14213620FFF788FDBD
:1036000040F203313720FFF783FD40F203313820C9
:10361000FFF77EFD40F203313920FFF779FD4FF4CB
:1036200040713A20FFF774FD03213B20FFF770FD46
:1036300040F203313C20FFF76BFD4FF4A0513D20D9
:10364000FFF766FD4FF400719220FFF761FD40F235
:1036500003319320FFF75CFD40F60D019020FFF74A
:1036600057FD41F218010320FFF752FD40F273119C
:103670000720FFF74DFD00BD10B543F20801E32020
:10368000FFF746FD1221E720FFF742FD41F231210D
:10369000EF20FFF73DFD00210120FFF739FD4FF43A
:1036A000E0610220FFF734FD41F230010320FFF713
:1036B0002FFD00210420FFF72BFD40F207210820F9
:1036C000FFF726FD00210920FFF722FD00210A2037
:1036D000FFF71EFD00210C20FFF71AFD00210D2031
:1036E000FFF716FD00210F20FFF712FD002110202B
:1036F000FFF70EFD07211120FFF70AFD0021122020
:10370000FFF706FD00211320FFF702FDC820FDF79B
:103710006DFE41F290611020FFF7FAFC40F2272184
:103720001120FFF7F5FC3220FDF760FE1D2112206D
:10373000FFF7EEFC3220FDF759FE4FF40061132035
:10374000FFF7E6FC14212920FFF7E2FC0B212B20D8
:10375000FFF7DEFC3220FDF749FE00212020FFF7B5
:10376000D7FC00212120FFF7D3FC07213020FFF7F1
:10377000CFFC40F207713120FFF7CAFC062132204E
:10378000FFF7C6FC40F204713520FFF7C1FC41F69B
:1037900004713620FFF7BCFC04213720FFF7B8FC8A
:1037A00000213820FFF7B4FC40F206713920FFF702
:1037B000AFFC40F201713C20FFF7AAFC0F213D2035
:1037C000FFF7A6FC00215020FFF7A2FCEF215120BB
:1037D000FFF79EFC00215220FFF79AFC40F23F11B8
:1037E0005320FFF795FC4FF41C516020FFF790FC2D
:1037F00001216120FFF78CFC00216A20FFF788FC83
:1038000000218020FFF784FC00218120FFF780FC4D
:1038100000218220FFF77CFC00218320FFF778FC49
:1038200000218420FFF774FC00218520FFF770FC45
:1038300010219020FFF76CFC00219220FFF768FC1C
:1038400003219320FFF764FC4FF488719520FFF764
:103850005FFC00219720FFF75BFC00219820FFF719
:1038600057FC41F218010320FFF752FC40F273119C
:103870000720FFF74DFC10BD30B10849096841F041
:103880004001064A116007E004491031096841F01F
:103890004001024A103211607047000018040048CD
:1038A00010B580210348FDF7A3FE012800D110BD0B
:1038B0000020FCE70004004800B585B014216846EC
:1038C000FCF7AFFC802000900020019001200290C6
:1038D0000220039069460248FDF79CFD05B000BD3B
:1038E0000004004830B10849096841F08001064AE7
:1038F000116007E004491031096841F08001024A73
:1039000010321160704700001804004800B585B0FF
:1039100014216846FCF785FC80200090112001905E
:10392000002002900220039069460248FDF772FDD4
:1039300005B000BD00040048704710B5FDF76CFEEF
:1039400010BD00B593B0382105A8FCF76AFC14211E
:103950006846FCF766FC4FF40070FDF72DFF012070
:1039600005900004069002200C9003210D910E9109
:1039700014210F91022110911191129105A8FEF7C7
:10398000C7FA08B1FCF7C6FF0F2000900320019092
:10399000002002900390049002216846FEF75AF935
:1039A00008B1FCF7B7FF13B000BD00000348006882
:1039B00040F47000014908607047000088ED00E0A5
:1039C00010B50248FEF7AAFF10BD0000AC000020B1
:1039D00010B50268284B98420BD0B0F1804F08D048
:1039E000264B984205D0264B984202D0254B984250
:1039F00003D122F070024B681A431F4B984214D037
:103A0000B0F1804F11D01D4B98420ED01C4B984204
:103A10000BD01C4B984208D01B4B984205D01B4B37
:103A2000984202D01A4B984203D122F44072CB68DC
:103A30001A4322F080034C6943EA04028B68C36294
:103A40000B6883620C4B98420BD00E4B984208D007
:103A50000D4B984205D00D4B984202D00C4B98422A
:103A600001D10B690363036843F00403036001237E
:103A70004361026010BD0000002C014000040040C2
:103A80000008004000340140004001400044014073
:103A90000048014030B501F01F05012404FA05F388
:103AA000046A9C430462046A01F01F0502FA05F5EA
:103AB0002C43046230BD000070B50C461546026A06
:103AC000066A26F001060662214EB04200D10FE0E0
:103AD000204EB04200D10BE01F4EB04200D107E0B3
:103AE0001E4EB04200D103E01D4EB04204D100BFD3
:103AF000066A26F0040606628169154EB0420ED0B1
:103B0000B0F1804F0BD0174EB04208D0164EB042E5
:103B100005D0104EB04202D00F4EB04201D1012666
:103B200000E000261EB121F00301294301E041F02D
:103B3000010121F0F001F02606EA0316314322F0DC
:103B40000A0204F00A0632438161026270BD00007D
:103B5000002C01400034014000400140004401407D
:103B600000480140000400400008004070B50C46C9
:103B70001546026A066A26F010060662164EB04224
:103B800000D10FE0154EB04200D10BE0144EB04210
:103B900000D100BF134EB04200D100BF124EB04260
:103BA00004D103E0066A26F040060662816921F42A
:103BB000407141EA052121F470414FF4704606EA54
:103BC0000336314322F0A002A02606EA041632434F
:103BD0008161026270BD0000002C01400034014090
:103BE00000400140004401400048014070B50C46CF
:103BF0001546026A066A26F480760662154EB042C1
:103C000000D10FE0144EB04200D10BE0134EB04291
:103C100000D100BF124EB04200D100BF114EB042E1
:103C200004D103E0066A26F480660662C16921F0C9
:103C30000301294321F0F001F02606EA031631437F
:103C400022F420624FF4206606EA04263243C16162
:103C5000026270BD002C0140003401400040014070
:103C6000004401400048014070B50C461546026A08
:103C7000066A26F480560662164EB04200D10FE066
:103C8000154EB04200D10BE0144EB04200D100BF3F
:103C9000134EB04200D100BF124EB04204D103E037
:103CA000066A26F480460662C16921F4407141EA41
:103CB000052121F470414FF4704606EA0336314382
:103CC00022F420424FF4204606EA04363243C16112
:103CD000026270BD002C01400034014000400140F0
:103CE000004401400048014000BFFEE70FB4084B0C
:103CF00010B504A902AA039800F0FAF8044602A934
:103D0000002000F078FC204610BC5DF814FB000099
:103D1000F745000802480068C0F302207047000021
:103D20000CED00E010B5002804DB0A07130E054A6D
:103D3000135406E00A07140E034A00F00F031B1F7A
:103D4000D45410BD00E400E018ED00E002E008C823
:103D5000121F08C1002AFAD170477047002001E005
:103D600001C1121F002AFBD1704700002DE9FF5F3F
:103D700082B00021DDE90430020DDDF840B00343DC
:103D800018D044F61050A2F2FF3242431514119895
:103D900001281FD0A5EB0B00401C5FEA000A4FF082
:103DA00000064E4FDFF83891B046504615D5CAF19F
:103DB000000413E0119801244AA3012801D16FEAFD
:103DC0000B010298119AC0E90031C0E9024206B025
:103DD000BDE8F09FCBF10000DFE704460021404A38
:103DE000491842EB0450CDE9001012E0E00707D07B
:103DF00032463B4640464946FCF71EFA8046894615
:103E000032463B4610461946FCF716FA06460F4660
:103E10006410002CEAD1DDE90401DDE90023BAF1E8
:103E2000000F06DAFCF708FA42464B46FCF704FAA4
:103E300005E0FCF773FA42464B46FCF76FFA04467E
:103E40000E460022284BFCF749FC03D84FF0FF3008
:103E5000014607E00022254B20463146FCF77EFB59
:103E6000FCF723FC102409E0002C0ADB0A220023C3
:103E7000FCF7E6FA039B30321A55641E50EA010241
:103E8000F2D1641C039AC4F111031444119A012A5B
:103E900003D0012208430DD10AE0084304D00020DA
:103EA0004FF0110B119072E7A3EB0B056D1E0DE0A7
:103EB0005B4504DD4FF0000205F1010504E003DA83
:103EC0004FF00002A5F10105002AECD002981199EB
:103ED000C0E90231C0E9004579E700000000144064
:103EE0000000F03F300000000000F0430000E03F21
:103EF0002DE9FF4F95B09A46884606460025EEE12B
:103F0000252877D100242746F94A0121039400E0AF
:103F1000044316F8013F203B01FA03F01042F7D1A9
:103F200030782A2811D06FF02F033078A0F13002BA
:103F3000092A16D8039A44F0020402EB820203EB2A
:103F400042021044761C0390EFE758F8042B0392CA
:103F5000002A03DA504244F40054039044F002046F
:103F6000761C30782E2816D116F8010F44F0040480
:103F70002A280DD06FF02F023078A0F13003092BE2
:103F800009D807EB870302EB4303C718761CF3E756
:103F900058F8047B761C30786C280FD006DC4C284F
:103FA00017D068280DD06A2814D104E0742810D0E6
:103FB0007A280FD10DE044F400140AE044F4801490
:103FC00001E044F440147278824202D104F5801476
:103FD000761C761C307866280BD013DC582877D0F6
:103FE00009DC002875D04528F6D04628F4D04728AB
:103FF0001AD193E118E0632835D0642879D0652878
:1040000012D18BE1702873D008DC6728F1D06928C1
:104010006FD06E280DD06F2806D1ACE073282CD05D
:10402000752874D0782853D05246179990476D1C44
:1040300054E1C4F30250022809D003280DD0D8F867
:10404000001004280DD00D6008F1040846E1D8F8EE
:104050000010EA17C1E90052F6E7D8F800100D8009
:10406000F2E70D70F0E718F8041B8DF8001000203F
:104070008DF80100EB46012003E058F804BB4FF037
:10408000FF3061074FF0000102D40DE009F101019A
:104090008946B9420FDA8145F8DB1BF8091000297F
:1040A000F4D108E009F1010189468142FADB1BF8ED
:1040B00009100029F6D103985346A0EB09072146C1
:1040C0003846179A00F080FA284400EB090507E00B
:1040D00044E008E10DE01BF8010B524617999047A8
:1040E000B9F10109F7D2534621463846179AF2E052
:1040F00039E00A21C4F302524FF0000B0091022A6A
:1041000006D058F8040BC117032A09D00AE023E0AF
:1041100008F1070020F00702F2E80201904605E0EE
:1041200000B2C117042A01D140B2C117002906DA32
:104130000A460021404261EB02012D2202E02205E5
:1041400004D52B228DF80420012203E0E20701D0E0
:104150002022F7E7914657E00A2100E010214FF0B6
:10416000000B00910BE010214FF0000B44F0040411
:104170000827009103E008204FF0000B0090C4F3E3
:104180000252022A05D058F8040B0021032A08D055
:1041900008E008F1070020F00702F2E8020190466B
:1041A00003E080B2042A00D1C0B24FF00009220718
:1041B0002AD53278702A07D0DDF800C08CF0100CB8
:1041C0005CEA0B0C05D00EE040228DF804200122A1
:1041D00008E050EA010306D030238DF804308DF852
:1041E000052002229146009B83F0080353EA0B034B
:1041F0000AD150EA010201D1620705D530228DF8BB
:1042000004204FF001097F1E3278582A04D039A2C9
:104210000C920CAA02920BE03BA2F9E75B46009AD3
:10422000FCF70EF90C9B9B5C029A521E02921370D3
:1042300050EA0102F2D1029804A9081A00F1200BF9
:10424000600702D524F4803400E001275F4502DDD9
:10425000A7EB0B0000E0002000EB0B01009003989F
:104260004944401A0390E00306D453462146179A66
:10427000039800F0A9F90544002706E001A852467A
:10428000C05D179990476D1C7F1C4F45F6DBE0031E
:104290000CD553462146179A039800F095F905442A
:1042A00004E030205246179990476D1C0099481E33
:1042B00000900029F5DC08E0029802995246007847
:1042C000491C0291179990476D1CBBF10001ABF19D
:1042D000010BF1DC5BE100F065F90544761C3078F8
:1042E00000287FF40DAE19B02846BDE8F08F00001D
:1042F00009280100303132333435363738396162BC
:10430000636465660000000030313233343536377F
:10431000383941424344454600000000600700D45C
:10432000062708F1070020F00700F0E80223804686
:1043300003F0004C5FEA0C0001D097A009E02005D3
:1043400001D596A005E0E00701D095A001E0AFF20D
:104350004C001390307823F0004365280CD006DC25
:10436000452809D046281DD047287FD13BE0662844
:1043700018D067287AD136E00021112F01DB1120F7
:1043800000E0781CCDE9000104A90CA8FFF7EEFCC1
:10439000DDE90D010C9A4FF0000B07F101091092B5
:1043A00000914EE04FF000400097CDE9011004A9C4
:1043B0000CA8FFF7DBFCDDE90D020C9B0F994FF019
:1043C000000B91461093009211B9791C00EB010982
:1043D000B7EB090003D4C0F1FF3B07F10109A9EBDA
:1043E0000700019042E0012F00DA01270021112F80
:1043F00001DD112000E03846CDE9000104A90CA838
:10440000FFF7B4FCDDE90D010C9A00914FF0000BB1
:10441000B946109221070FD4009A4A4503DA914613
:1044200001E0A9F10109B9F1010F05DD109AA9F127
:104430000101515C3029F4D0B84202DA10F1040FC6
:1044400003DA0121CDE9011010E0002803DC8344E8
:10445000A9EB000102E0411C494500DD8946A0EBC3
:104460000B00401C01904FF000400290200705D443
:104470000198484502DB4FF0FF30019000208DF895
:104480004B0002980DF14B07B0F1004F25D00220F0
:104490000C902B200D90029800280CDA40420290DC
:1044A0002D200D9007E00A210298FBF7B3FF303171
:1044B000029007F8011D0C99481E0C900029F2DCAF
:1044C00002980028EFD1791E0D980870307800F01E
:1044D000200040F0450007F8020D11A8C01BC01DC8
:1044E00002901398007800B1012000EB09010198B7
:1044F00001EBE071029801440398401A401E0390BA
:10450000E00306D453462146179A039800F05CF85E
:1045100005441398007818B15246179990476D1CBE
:10452000E00323D553462146179A039800F04CF830
:1045300005441BE0BBF1000F07DB0098584504DD84
:104540001098179910F80B0001E017993020524687
:10455000904701980BF1010B401E05F101050190F8
:1045600004D12E205246179990476D1CB9F10001D5
:10457000A9F10109DEDC05E017F8010B5246179995
:1045800090476D1C0299481E02900029F4DC5346A6
:104590002146179A03989EE62D0000002B0000008C
:1045A000200000002DE9F041044600251E46174674
:1045B000880404D405E039462020B0476D1C641EF1
:1045C000F9D52846BDE8F0812DE9F04104460025E3
:1045D0001E469046C80301D5302700E020278804F6
:1045E00004D505E041463846B0476D1C641EF9D538
:1045F0002846BDE8F0810A68531C0B6010707047B4
:104600002DE9F0412DED048B04460D461D48FCF7C5
:104610005FFE1C48FCF7E4FC86B23046FBF7EDFE7B
:1046200041EC190B9FED180B53EC102BFBF704FE1C
:1046300041EC180B9FED160B53EC102BFBF76EFEA5
:10464000C4E900010F48FCF743FE0E48FCF7C8FC24
:1046500087B23846FBF7D1FE41EC190B9FED0A0BF0
:1046600053EC102BFBF7E8FD41EC180B9FED080B0A
:1046700053EC102BFBF752FEC5E90001BDEC048B97
:10468000BDE8F081400000206666666666660A4006
:104690000000000000FEAF40002100E0491C814204
:1046A000FCD3704710B5FCF7B1FF044639480068E9
:1046B000201AC82800D210BD3648046001213648AF
:1046C000FCF796FF08B1012000E000203349087094
:1046D00002213148FCF78CFF08B1012000E00020E6
:1046E0002F49087004212C48FCF782FF08B10120F3
:1046F00000E000202B49087001214FF09040FCF7AA
:1047000077FF08B1012000E0002027490870234806
:10471000007880F0010025490978084018B101218E
:10472000084600F0BBF81E48007880F001002049E0
:104730000978084018B10021012000F0AFF81948AD
:10474000007880F001001B490978084018B1012168
:10475000022000F0A3F81448007880F00100164908
:104760000978084018B10021022000F097F80B48A2
:1047700000780E4908700A4800780D490870094809
:1047800000780C490870084800780B49087000BF91
:1047900091E700002C0000200004004830000020B9
:1047A00031000020320000203300002034000020BF
:1047B00035000020360000203700002010B51E48CC
:1047C000006884B21DA12048FFF790FA1E493020EE
:1047D000FEF74CFB1D4802781DA11B48FFF786FA27
:1047E00019494820FEF742FB1D4890ED000B53ECA1
:1047F000102B1CA11448FFF779FA13496020FEF72B
:1048000035FB1C4890ED000B53EC102B1AA10E4801
:10481000FFF76CFA0C497820FEF728FB1A4802884B
:104820001AA10948FFF762FA07499020FEF71EFB1C
:104830000148046010BD000014080048202020201A
:104840002020204F72696E00F80000201000002028
:10485000202020204D43503D2575202020200000A1
:1048600018000020202020206D63703D20252E326E
:104870006620000020000020202020205233383DF8
:1048800020252E3266200000280000202020202035
:104890005233393D202564487A20000070B5044623
:1048A0000D46012204210E48FCF7AAFE4DB1601E00
:1048B0004FF48072824091B200220A48FCF7A0FEB9
:1048C00008E0601E4FF48072824091B201220548D8
:1048D000FCF796FE002204210148FCF791FE70BD12
:1048E000000C00480008004810B5FFF7DBFEFFF79A
:1048F00065FF0D2000F049F800F036F80349087014
:1049000003490448FFF77CFE10BD000010000020A2
:104910002000002018000020FCF78AFEFFF711F8A5
:10492000FEF70AFDFEF7AAFCFEF7A0FDFEF7EAFA85
:104930000020FEF711FA4FF6FF70FEF769FB00202A
:10494000FEF752FBFEF700F97F210548FBF7E6FF73
:1049500000210448FDF70AFF01E0FFF7C5FFFCE76F
:1049600040000020AC00002010B5FEF769F95F2080
:10497000FEF728F9FEF798F9FEF7FCF80446FEF773
:1049800048F9FEF777F9204610BD10B50446FEF74A
:1049900057F95E20FEF716F9FEF786F92046FEF776
:1049A00011F9FEF781F9FEF765F910BD000000006E
:1049B00000000000010203040607080900000000CF
:1049C00001020304000000000000000000000000DD
:1049D00000000000000000000000000000000000D7
:1049E00000000000000000000000000000000000C7
:1049F0000000000000008001800180018001800132
:104A0000800180018001800180018001800180019E
:104A10000000000080018001000000000000000094
:104A20000000000000000000CC00CC00CC00CC0056
:104A3000CC00CC00000000000000000000000000DE
:104A40000000000000000000000000000000000066
:104A50000000000000000000000000000000000056
:104A6000600C600C600C30063006FE1FFE1F300626
:104A700038071803FE1FFE1F180318038C018C0152
:104A80008C01000000008000E003F80F9C0E8C1CDD
:104A90008C188C009800F801E007800E801C8C18A0
:104AA0008C189C18B80CF00FE00380008000000008
:104AB000000000000000000000000E181B0C110C8C
:104AC00011061106110311039B018E01C038C06C41
:104AD00060446044304430441844186C0C38000082
:104AE000000000000000E001F00338071806180677
:104AF0003003F001F000F8009C310E33061E061C56
:104B0000061C063FFC73F0210000000000000000BE
:104B100000000000000000000C000C000C000C0065
:104B20000C000C000000000000000000000000006D
:104B30000000000000000000000000000000000075
:104B4000000000000000000200038001C000C0005F
:104B50006000600030003000300030003000300075
:104B60003000300060006000C000C0008001000321
:104B700000020000000020006000C00080018001F1
:104B800000030003000600060006000600060006FB
:104B9000000600060003000380018001C0006000E1
:104BA00020000000000000000000000000000000E5
:104BB000C000C000D806F807E00130033807000045
:104BC00000000000000000000000000000000000E5
:104BD00000000000000000000000000000000000D5
:104BE00080018001800180018001FC3FFC3F800149
:104BF00080018001800180010000000000000000B1
:104C000000000000000000000000000000000000A4
:104C10000000000000000000000000000000000094
:104C20000000000000008001800100010001800000
:104C30000000000000000000000000000000000074
:104C4000000000000000000000000000E007E00796
:104C50000000000000000000000000000000000054
:104C60000000000000000000000000000000000044
:104C70000000000000000000000000000000000034
:104C8000000000000000C000C000000000000000A4
:104C9000000000000000000C000C000600060006EA
:104CA0000003000300038003800180018001C00035
:104CB000C000C000600060000000000000000000B4
:104CC000000000000000E003F007380E180C0C187C
:104CD0000C180C180C180C180C180C180C180C18B4
:104CE000180C380EF007E003000000000000000080
:104CF00000000000000000018001C001F0019801E7
:104D00008801800180018001800180018001800193
:104D1000800180018001800100000000000000008F
:104D2000000000000000E003F80F180C0C180C182D
:104D300000180018000C000600038001C00060008D
:104D400030001800FC1FFC1F0000000000000000E5
:104D5000000000000000E001F807180E0C0C0C0C1D
:104D6000000C0006C003C007000C001800180C1847
:104D70000C18180CF807E003000000000000000009
:104D8000000000000000000C000E000F000F800D5E
:104D9000C00C600C600C300C180C0C0CFC3FFC3F81
:104DA000000C000C000C000C0000000000000000D3
:104DB000000000000000F80FF80F180018000C00A9
:104DC000EC03FC071C0E001C0018001800180C183F
:104DD0001C0C180EF807E0030000000000000000A3
:104DE000000000000000C007F00F381C1818180061
:104DF0000C00CC03EC0F3C0E1C1C0C180C180C18EF
:104E0000181C380EF007E00300000000000000004E
:104E1000000000000000FC1FFC1F000C0006000644
:104E2000000380038001C001C000E000600060005A
:104E30007000300030003000000000000000000072
:104E4000000000000000E003F007380E180C180CFA
:104E5000180C3806F007F007180C0C180C180C1872
:104E60000C18380CF80FE0030000000000000000F0
:104E7000000000000000E003F007380E1C0C0C18C6
:104E80000C180C181C1C381EF81BE0190018000C1C
:104E9000000C1C0EF807F0010000000000000000EC
:104EA0000000000000000000000000000000000002
:104EB00080018001000000000000000000000000F0
:104EC00000000000800180010000000000000000E0
:104ED00000000000000000000000000000000000D2
:104EE00080018001000000000000000000000000C0
:104EF000000000008001800100010001800000002E
:104F000000000000000000000000000000000000A1
:104F1000000000000010001C800FE003F8001800E3
:104F2000F800E003800F001C0010000000000000EB
:104F30000000000000000000000000000000000071
:104F400000000000F81F000000000000F81F000033
:104F50000000000000000000000000000000000051
:104F60000000000000000000000000000000000041
:104F70000000000008003800F001C007001F001802
:104F8000001FC007F001380008000000000000000A
:104F9000000000000000E003F80F180C0C180C18BB
:104FA0000018000C000600038001C000C000C00013
:104FB00000000000C000C000000000000000000071
:104FC0000000000000000000E00718180420C229BB
:104FD000224A114409440944094409221113E20CEC
:104FE000024004201818E007000000000000000044
:104FF00000000000000080038003C006C006C00659
:10500000600C600C301830183018F83FF83F1C70F6
:105010000C600C6006C006C000000000000000002C
:10502000000000000000FC03FC0F0C0C0C180C1816
:105030000C180C0CFC07FC0F0C180C300C300C304E
:105040000C300C18FC1FFC070000000000000000E2
:10505000000000000000C007F01F38381C300C7042
:105060000660060006000600060006000600066050
:105070000C701C30F01FE007000000000000000072
:10508000000000000000FE03FE0F060E06180618C2
:105090000630063006300630063006300630061878
:1050A0000618060EFE0FFE030000000000000000C0
:1050B000000000000000FC3FFC3F0C000C000C0056
:1050C0000C000C00FC1FFC1F0C000C000C000C0062
:1050D0000C000C00FC3FFC3F000000000000000042
:1050E000000000000000F83FF83F1800180018000A
:1050F00018001800F81FF81F1800180018001800F2
:10510000180018001800180000000000000000003F
:10511000000000000000E00FF83F3C780E6006E061
:1051200007C00300030003FE03FE03C007C006C060
:105130000EC03CF0F83FE00F00000000000000004F
:105140000000000000000C300C300C300C300C3033
:105150000C300C30FC3FFC3F0C300C300C300C3071
:105160000C300C300C300C3000000000000000004F
:1051700000000000000080018001800180018001AA
:105180008001800180018001800180018001800117
:10519000800180018001800100000000000000000B
:1051A00000000000000000060006000600060006E1
:1051B00000060006000600060006000600061806A7
:1051C00018063807F003E0010000000000000000AE
:1051D00000000000000006300618060C0606060354
:1051E0008601C60066007600DE008E010603060614
:1051F000060C0618063006600000000000000000E3
:105200000000000000001800180018001800180026
:1052100018001800180018001800180018001800CE
:1052200018001800F81FF81F000000000000000020
:105230000000000000000EE01EF01EF01EF036D848
:1052400036D836D836D866CC66CC66CCC6C6C6C686
:10525000C6C6C6C686C386C30000000000000000A4
:105260000000000000000C301C303C303C306C3042
:105270006C30CC30CC308C310C330C330C360C36DB
:105280000C3C0C3C0C380C3000000000000000000E
:10529000000000000000E007F81F1C380E700660D8
:1052A00003C003C003C003C003C003C003C0066043
:1052B0000E701C38F81FE00700000000000000001E
:1052C000000000000000FC0FFC1F0C380C300C30FC
:1052D0000C300C300C18FC1FFC070C000C000C00F0
:1052E0000C000C000C000C0000000000000000008E
:1052F000000000000000E007F81F1C380E70066078
:1053000003E003C003C003C003C003C007E006639B
:105310000E3F1C3CF83FE0F700C00000000000001A
:10532000000000000000FE0FFE1F063806300630A9
:1053300006300638FE1FFE0706030606060C061892
:10534000061806300630066000000000000000006D
:10535000000000000000E003F80F1C0C0C180C18F3
:105360000C001C00F803E00F001E00380630063069
:105370000E301C1CF80FE0070000000000000000C9
:10538000000000000000FE7FFE7F800180018001A0
:105390008001800180018001800180018001800105
:1053A00080018001800180010000000000000000F9
:1053B0000000000000000C300C300C300C300C30C1
:1053C0000C300C300C300C300C300C300C300C30FD
:1053D0000C301818F81FE007000000000000000063
:1053E00000000000000003600630063006300C1894
:1053F0000C180C18180C180C380E300630067007F4
:1054000060036003C001C001000000000000000054
:105410000000000000000360C361C361C361663324
:10542000663366336633663366336C1B6C1B6C1BEA
:105430002C1A3C1E380E380E000000000000000040
:105440000000000000000FE00C7018303018700CE5
:10545000600EC00780038003C003E006700C301CA0
:1054600018180C300E6007E000000000000000007B
:1054700000000000000003C006600C301C38381823
:10548000300C6006E007C0038001800180018001CC
:105490008001800180018001000000000000000008
:1054A000000000000000FC7FFC7F0060003000185E
:1054B000000C000600038001C000600030001800EE
:1054C0000C000600FE7FFE7F0000000000000000D0
:1054D000000000000000E003E003600060006000E6
:1054E00060006000600060006000600060006000BC
:1054F0006000600060006000600060006000E00329
:10550000E003000000003000300060006000600038
:10551000C000C000C000C001800180018001000304
:105520000003000300060006000000000000000069
:10553000000000000000E003E0030003000300039C
:105540000003000300030003000300030003000343
:105550000003000300030003000300030003E00353
:10556000E003000000000000C001C0016003600310
:10557000600330063006180C180C00000000000014
:10558000000000000000000000000000000000001B
:10559000000000000000000000000000000000000B
:1055A00000000000000000000000000000000000FB
:1055B000000000000000FFFFFFFF000000000000EF
:1055C0000000000000000C000C000C000C000C009F
:1055D0000C000000000000000000000000000000BF
:1055E00000000000000000000000000000000000BB
:1055F00000000000000000000000000000000000AB
:10560000F003F8071C0C0C0C000FF00FF80C0C0C3E
:105610000C0C1C0FF80FF018000000000000000038
:105620000000000000001800180018001800180002
:10563000D803F80F380C1818181818181818181854
:105640001818380CF80FD803000000000000000004
:10565000000000000000000000000000000000004A
:10566000C003F007300E180C1800180018001800BE
:10567000180C300EF007C00300000000000000000E
:1056800000000000000000180018001800180018A2
:10569000C01BF01F301C18181818181818181818E4
:1056A0001818301CF01FC01B000000000000000094
:1056B00000000000000000000000000000000000EA
:1056C000C003F00F300C1818F81FF81F180018004E
:1056D0003818301CF00FC007000000000000000068
:1056E000000000000000800FC00FC000C000C0001C
:1056F000F007F007C000C000C000C000C000C0003C
:10570000C000C000C000C000000000000000000099
:105710000000000000000000000000000000000089
:10572000E00DF80F180E0C0C0C0C0C0C0C0C0C0CE7
:105730000C0C180EF80FE00D000C0C0C1C06F807F2
:10574000F0010000000018001800180018001800F0
:10575000D807F80F381C181818181818181818181F
:105760001818181818181818000000000000000079
:10577000000000000000C000C000000000000000A9
:10578000C000C000C000C000C000C000C000C00019
:10579000C000C000C000C000000000000000000009
:1057A000000000000000C000C00000000000000079
:1057B000C000C000C000C000C000C000C000C000E9
:1057C000C000C000C000C000C000C000C000F800A1
:1057D0007800000000000C000C000C000C000C0015
:1057E0000C0C0C060C038C01CC006C00FC009C0122
:1057F0008C030C030C060C0C0000000000000000E1
:10580000000000000000C000C000C000C000C000D8
:10581000C000C000C000C000C000C000C000C00088
:10582000C000C000C000C000000000000000000078
:105830000000000000000000000000000000000068
:105840007C3CFF7EC7E383C183C183C183C183C125
:1058500083C183C183C183C1000000000000000038
:105860000000000000000000000000000000000038
:105870009807F80F381C181818181818181818183E
:105880001818181818181818000000000000000058
:105890000000000000000000000000000000000008
:1058A000C003F00F300C181818181818181818180A
:1058B0001818300CF00FC0030000000000000000BA
:1058C00000000000000000000000000000000000D8
:1058D000D803F80F380C18181818181818181818B2
:1058E0001818380CF80FD803180018001800180002
:1058F0001800000000000000000000000000000090
:10590000C01BF01F301C1818181818181818181871
:105910001818301CF01FC01B0018001800180018C1
:10592000001800000000000000000000000000005F
:10593000B007F0037000300030003000300030005D
:105940003000300030003000000000000000000097
:105950000000000000000000000000000000000047
:10596000E003F003380E180C3800F003C007000CF9
:10597000180C380EF007E0030000000000000000E3
:1059800000000000000000008000C000C000C00057
:10599000F007F007C000C000C000C000C000C00099
:1059A000C000C000C0078007000000000000000029
:1059B00000000000000000000000000000000000E7
:1059C0001818181818181818181818181818181857
:1059D0001818381CF01FE01900000000000000003B
:1059E00000000000000000000000000000000000B7
:1059F0000C18180C180C180C300630063006600312
:105A000060036003C001C00100000000000000004E
:105A10000000000000000000000000000000000086
:105A2000C141C141C3616363636363633636363624
:105A300036361C1C1C1C1C1C000000000000000052
:105A40000000000000000000000000000000000056
:105A50001C38381C300C6006600360036003600370
:105A60006006300C381C1C380000000000000000EC
:105A70000000000000000000000000000000000026
:105A80001830301830187018600C600CE00CC0062C
:105A9000C00680038003800380018001C001F00004
:105AA0007000000000000000000000000000000086
:105AB000FC1FFC1F000C000600038001C0006000FA
:105AC00030001800FC1FFC1F000000000000000058
:105AD00000000000000000038001C000C000C00002
