:020000040800F2
:10000000C0400020F1010008A52D00087924000857
:10001000A12D0008F10800087D3200080000000052
:10002000000000000000000000000000F5310008A2
:10003000F508000800000000A92D0008F7310008AD
:100040000B0200080B0200080B0200080B0200085C
:100050000B0200080B0200080B0200080B0200084C
:100060000B0200080B0200080B0200080B0200083C
:100070000B0200080B0200080B0200080B0200082C
:100080000B020008000000000B0200080B02000831
:100090000B0200080B0200080B0200080B0200080C
:1000A0000B0200080B0200080B0200080B020008FC
:1000B0000B0200080B0200080B0200080B020008EC
:1000C0000B0200080B0200080B0200080B020008DC
:1000D0000B0200080B0200080B0200080B020008CC
:1000E0000B0200080B0200080B0200080B020008BC
:1000F0000B0200080B0200080B02000800000000C1
:10010000000000000B020008000000000B020008C5
:100110000B020008000000000B0200080B020008A0
:100120000B0200080B0200080B0200080B0200087B
:100130000B02000800000000000000000B02000895
:100140000B0200080B020008000000000000000085
:10015000000000000000000000000000000000009F
:100160000000000000000000000000000B0200087A
:100170000B0200080000000000000000000000006A
:10018000000000000B02000800000000000000005A
:10019000000000000000000000000000000000005F
:1001A00000000000000000000B0200080B02000825
:1001B0000B0200080B0200080B0200080000000000
:1001C000000000000B02000800000000000000001A
:1001D0000B0200080B020008DFF810D000F096FABE
:1001E00000480047853E0008AFF30080C040002073
:1001F0000648804706480047FEE7FEE7FEE7FEE7C1
:10020000FEE7FEE7FEE7FEE7FEE7FEE769320008ED
:10021000D9010008D2B201E000F8012B491EFBD23F
:1002200070470022F6E710B513460A460446194601
:10023000FFF7F0FF204610BD2DE9FE4F81EA0304D1
:1002400004F0004421F0004100944FF0000B23F033
:10025000004350EA01045ED052EA03045BD0C3F3CA
:100260000A54C1F30A552C44A4F2F3340194A0FBC0
:100270000254C1F3130141F48011C3F3130343F497
:10028000801301FB024400FB034E840A970A44EAF0
:10029000815447EA8357A4FB076802958D0A05FB42
:1002A00007854FEA932C04FB0C542705029D4FEA67
:1002B000065847EA1637B5EB08056EEB070C870EB4
:1002C000920E47EA811742EA8312A7FB0201B6EBBE
:1002D0000B0164EB00042B0D43EA0C335E1844EB76
:1002E0001C50DA465146E7FB0201C5F313044FEAFE
:1002F0000B3343EA14534FEA0432019C43EA0603EA
:10030000A4F10C040294009CCDE900B400F0D8F8EC
:1003100003B0BDE8F08F00200146F9E72DE9F04D6C
:1003200081EA030404F0004B21F0004514464FF02D
:10033000000A23F0004150EA050220D054EA0102ED
:100340001DD0C5F30A570246C5F31303C1F31300CA
:10035000C1F30A5640F4801543F48013A7EB060856
:10036000101BD64608F2FD3873EB050002D308F1E6
:10037000010801E092185B41B8F1000F03DA002098
:100380000146BDE8F08D00204FF4801106468446FA
:100390000EE0171B73EB050705D3121B63EB050378
:1003A00006434CEA010C49084FEA300092185B41C1
:1003B00050EA0107EDD152EA030012D082EA0400AC
:1003C00083EA0501084305D0101BAB4106D2012288
:1003D000002306E000224FF0004302E06FF001022C
:1003E00053101AEB06004CEB085110EB0A0041EBDE
:1003F0000B01BDE8F04D00F054B80EB540F23341AA
:1004000002910021CDE900110A460B4600F058F890
:1004100003B000BD30B50B46014600202022012468
:1004200009E021FA02F59D4205D303FA02F5491BC2
:1004300004FA02F52844151EA2F10102F1DC30BDD8
:100440002DE9F05F0546002092469B468846064609
:10045000814640241BE0284641464746224600F09C
:1004600076F953465A46C01A914110D311461846A0
:10047000224600F05DF92D1A67EB01084F4622462F
:100480000120002100F054F917EB00094E41201E15
:10049000A4F10104DFDC484631462A464346BDE864
:1004A000F09F10B5141E73F1000408DA401C41F1EE
:1004B000000192185B411A4301D120F0010010BDE8
:1004C0002DE9F04D92469B4611B1B1FA81F202E05E
:1004D000B0FA80F22032904600F02AF904460F4626
:1004E00040EA0A0041EA0B0153465A46084313D03A
:1004F000114653EA010019D0C8F14002504600F0FD
:1005000026F905460E4650465946424600F010F977
:10051000084305D0012004E020463946BDE8F08DAF
:100520000020054346EAE0762C4337430A986305EA
:10053000E40AA0EB08000022FD0A44EA47540A300E
:1005400002D500200146E9E7010510196941DDE9FE
:10055000084500196941BDE8F04DA2E72DE9FE4FBD
:10056000804681EA0300C00F0C46009021F0004154
:1005700023F00045B8EB0200A94105D240462146D0
:1005800090461C460B46024623F00040104347D0DD
:10059000270DC7F30A00C3F30A510290401A0190D5
:1005A00040286BDAC3F3130040F4801B0098924696
:1005B00020B10023D2EB030A63EB0B0B01985946E1
:1005C000C0F14002504600F0B3F806460D465046D2
:1005D0005946019A00F0CBF810EB08006141002465
:1005E00087EA115284EAE7731A4340D0009A62B353
:1005F000019A012A4FEA075215DC001B61EB020148
:100600004FF0004202EA0752CDE90042001C41F5DA
:10061000801132462B46FFF753FF03B0BDE8F08F41
:1006200040462146F9E7001B61EB0201001C41F541
:10063000801300185B412018A2F5001747EB030157
:1006400040EAD570B6196D4111E06D084FEA3606E3
:1006500045EAC0754FEA0752001B61EB0201001C1E
:1006600041F5801149084FEA3000001951413246E6
:100670002B4603B0BDE8F04FFFF713BF00980122EF
:1006800040000023D0EB020263EBE07300982146A8
:100690004FEAE074B8EB000061EB0401E9E783F096
:1006A00000435BE781F0004158E7C1F30A52C1F310
:1006B000130140F2FF3341F480119A4202DA002024
:1006C0000146704740F233439A42A2F2334202DCC1
:1006D000524200F03CB800F02BB8000030B5041EC8
:1006E00071F1000404DB4FF00044404264EB01016F
:1006F000141E73F1000405DB1C464FF00043524208
:1007000063EB0403994208BF904230BD064C074D8D
:1007100006E0E06840F0010394E8070098471034D1
:10072000AC42F6D3FFF75CFDF05000081051000812
:10073000202A04DB203A00FA02F1002070479140A1
:10074000C2F1200320FA03F3194390407047202A96
:1007500004DB203A21FA02F00021704721FA02F36B
:10076000D040C2F120029140084319467047202A28
:1007700006DBCB17203A41FA02F043EAE07306E0C9
:1007800041FA02F3D040C2F12002914008431946D9
:100790007047000070B50446206802F0B6F90646BE
:1007A000206802F0B7F998B396BB2068806800F023
:1007B0000D0001280AD1206881681A4A1140891C5D
:1007C000816000BF03202168086009E0E06D40F00F
:1007D0001000E065206E40F001002066012070BD31
:1007E00000F014FF054614E000F010FF401B022843
:1007F0000FD92068806800F0010050B1E06D40F032
:100800001000E065206E40F0010020660120E6E760
:1008100005E02068806800F001000028E4D1002095
:10082000DDE70000C0FFFF7F38B5044600200090E0
:10083000206802F06FF900284FD1206880682849AD
:10084000084048B1E06D40F01000E065206E40F0D7
:1008500001002066012038BD206802F03BF900BF8E
:100860002048806800F0E07000F4000080B11E486D
:1008700000681E49B0FBF1F0401C00EB4000800016
:10088000009002E00098401E009000980028F9D1E6
:1008900000F0BCFE05461AE0206802F03BF910B9F2
:1008A000206802F017F900F0B1FE401B02280ED9B3
:1008B0002068006800F0010048B9E06D40F01000C9
:1008C000E065206E40F0010020660120C3E720684B
:1008D000006800F001000028DED00020BBE7000027
:1008E0003F000080000300500C000020400D03007A
:1008F00000BFFEE77047002109E0002201E0531C21
:100900009AB240F6B8339A42F9DB4B1C99B2814255
:10091000F3DB704772B600BFFEE70000F8B504468F
:100920000D460020009000BF94F85800012801D126
:100930000220F8BD012084F8580000BF2046FFF7D0
:1009400029FF06468EBBE06D20F4885040F002007F
:10095000E065206881681B4A114005F0804242F042
:1009600000421143816000BF13E00098401C0090DA
:100970001549009888420CD3E06D20F0020040F049
:100980001000E06500BF002084F8580000BF01207F
:10099000CFE720688168C90F0029E6D1E06D20F01B
:1009A000020040F00100E06504E0FFE7E06D40F088
:1009B0001000E06500BF002084F8580000BF3046FA
:1009C000B7E70000C0FFFF3F02DE04002DE9F0435F
:1009D0009BB004460E464FF00008306800B100BFDF
:1009E00000BF94F85800012803D102201BB0BDE8D5
:1009F000F083012084F8580000BF00201790189061
:100A00002068B0F1A04F02D13148009001E00020F1
:100A10000090009850B9E06D40F02000E06500BF04
:100A2000002084F8580000BF0120DFE7009802F0A2
:100A300085F80746206802F081F8D8BBD7BB254D62
:100A4000306800B394F83800716841EA4030A96812
:100A500021F460410843A8604FF0A04002F05FF825
:100A600081461B4802F05BF849EA0009B9F1000F22
:100A700027D1B16830680843A96840F61F729143D6
:100A80000843A8601DE0A86820F46040A8604FF00B
:100A9000A04002F044F881460D4802F040F849EACF
:100AA0000009B9F1000F0CD1A86840F61F71884306
:100AB000A86006E0FFE7E06D40F02000E0654FF041
:100AC000010800BF002084F8580000BF40468DE7B1
:100AD00000010050000300502DE9F84F05460C4678
:100AE0004FF0000A00200090FE49E068884200D0E4
:100AF00000E000BF00BF95F85800012802D1022095
:100B0000BDE8F88F012085F8580000BF286802F082
:100B100010F800287DD12968D4E9002001F1300CBB
:100B2000C0F3012B0CEB8B03D3F800C000F01F0EB9
:100B30004FF01F0B0BFA0EFB2CEA0B0C00F01F0BF7
:100B4000C2F3846E0EFA0BFE4CEA0E0CC3F800C022
:100B500000BF286801F0EDFF8146286801F0D0FF52
:100B60008046B9F1000F64D1B8F1000FFBD1A06845
:100B7000B0F1004F0AD121680022286801F0ECFF93
:100B80004FF00041286802F00CF808E0A2682168E4
:100B9000286801F0E1FF0021286802F002F860698E
:100BA0002968C968C1F3C101490000FA01F7206949
:100BB00004283FD028682268216900F1600C0CEB02
:100BC0008103D3F800C0DFF820B30CEA0B0C02F06D
:100BD000F84B4BF0004B4BEA070B4CEA0B0CC3F8FD
:100BE00000C000BF2868A269216900F1600C0CEB0D
:100BF0008103D3F800C02CF0807C4CEA020CC3F8CF
:100C000000C000BF2868227F2169012A02D1520654
:100C100001E0C6E10022134600F1600C0CEB8102FA
:100C2000D2F800C02CF0007C4CEA030CC2F800C0E3
:100C300000BFA7E00021286801F059FFC0F31200AF
:100C400030B90021286801F052FFC0F3846007E04A
:100C50000021286801F04BFF90FAA0F0B0FA80F074
:100C60002168C1F3120119B92168C1F3846104E05C
:100C7000216891FAA1F1B1FA81F1884204D10022F0
:100C80001146286801F082FF0121286801F02FFF3A
:100C9000C0F3120030B90121286801F028FFC0F329
:100CA000846007E00121286801F021FF90FAA0F09C
:100CB000B0FA80F02168C1F3120119B92168C1F3BB
:100CC000846104E0216891FAA1F1B1FA81F18842CE
:100CD00004D100220121286801F058FF0221286870
:100CE00001F005FFC0F3120030B90221286801F0BD
:100CF000FEFEC0F3846007E00221286801F0F7FEE1
:100D000090FAA0F0B0FA80F02168C1F3120119B98D
:100D10002168C1F3846104E0216891FAA1F1B1FA7C
:100D200081F1884204D100220221286801F02EFFBF
:100D30000321286801F0DBFEC0F3120030B9032163
:100D4000286801F0D4FEC0F3846007E0032128681E
:100D500001F0CDFE90FAA0F0B0FA80F02168C1F366
:100D6000120119B92168C1F3846104E0216891FA84
:100D7000A1F1B1FA81F1884204D10022032128684F
:100D800001F004FF286801F0C5FE002872D1286830
:100D9000E2682168D0F8B030C1F3120C23EA0C03EA
:100DA00002F0180BDFF844C12CFA0BFC0CEA010C22
:100DB00043EA0C03C0F8B03000BF4A49E0688842FB
:100DC00058D12368C3F312031BB92368C3F38463A8
:100DD00004E0236893FAA3F3B3FA83F35B1C03F0F4
:100DE0001F03092B3ED82368C3F312031BB92368E2
:100DF000C3F3846304E0236893FAA3F3B3FA83F3A1
:100E00005B1C03F01F034FF0010C0CFA03FC23687A
:100E1000C3F312031BB92368C3F3846304E023689C
:100E200093FAA3F3B3FA83F35B1C03F01F034CEABA
:100E3000836C2368C3F312031BB92368C3F3846371
:100E400004E0236893FAA3F3B3FA83F35B1C03F083
:100E50001F0303EB43034FF0000B4BEA03534CEA31
:100E6000030347E02368C3F3120323B92368C3F3E2
:100E7000846305E043E0236893FAA3F3B3FA83F3B2
:100E80005B1C03F01F034FF0010C0CFA03FC2368FA
:100E9000C3F312031BB92368C3F3846304E023681C
:100EA00093FAA3F3B3FA83F35B1C03F01F034CEA3A
:100EB000836C2368C3F312031BB92368C3F38463F1
:100EC00004E0236893FAA3F3B3FA83F35B1C03F003
:100ED0001F030A3B03EB43034FF0007B4BEA035332
:100EE00006E0000000007F4000F0FF03FFFF070066
:100EF0004CEA03031946A268286801F02DFE2F4929
:100F00002068084050B300BF2D48806800F0E076AC
:100F100000BF2C492068884203D02B4920688842B2
:100F20001DD106F40000D0B92868B0F1A04F3ED121
:100F300046F40001224801F023FE244800682449B9
:100F4000B0FBF1F0401C00EB40008000009002E09C
:100F50000098401E009000980028F9D127E01D4914
:100F6000206888420CD106F0807048B91A49286878
:100F700088421CD046F08071114801F001FE16E055
:100F800016492068884212D106F4800078B91249C7
:100F9000286888420BD046F48001094801F0F0FD32
:100FA00005E0E86D40F02000E8654FF0010A00BF61
:100FB000002085F8580000BF5046A1E500000880D9
:100FC00000030050000021C31000C0900C0000205E
:100FD000400D0300000052C700010050000084CB08
:100FE00001460868006C70472DE9F84304464FF04D
:100FF00000080020009014B90120BDE8F883606962
:1010000020B194F82400012800D100BFE06D30B970
:10101000204600F017F90020206684F85800206868
:101020008168C1F3407131B1206881687E4A114006
:10103000816000BF00BF206801F076FDB0B9206874
:1010400081687A4A114041F08051816000BF784840
:1010500000687849B0FBF1F0401C4000009002E0CD
:101060000098401E009000980028F9D1206801F0F7
:101070005BFD48B9E06D40F01000E065206E40F087
:10108000010020664FF00108206801F052FD06467D
:10109000E06D00F01000002877D1002EFCD1E06D4B
:1010A00020F4807040F00200E065206801F032FD1D
:1010B000B0B94FF0A04001F02DFD81465E4801F02F
:1010C00029FD49EA0009B9F1000F09D160685B49BF
:1010D000896821F47C110143584A916000BF00BF28
:1010E000607FE16B41EA4030E1680843A168084352
:1010F00094F8241040EA014594F82400012803D113
:10110000208D401E45EA4045E06A28B1A08D00F4DC
:101110007870216B084305432068C068484908403F
:1011200028432168C8602068006920F04060616B36
:10113000084321680861206801F0E2FC0746002EA0
:1011400050D1EFBB207F002141EA803194F8380074
:1011500041EA40052068C06844F202018843284300
:101160002168C860206988B12068006940F4803037
:10117000216808612068D0F8C0006FF30D00216974
:1011800008432168C1F8C0000EE045E0206800690E
:1011900020F48030216808612068D0F8C0006FF327
:1011A0000D002168C1F8C00094F84000012813D157
:1011B000606C40F00101A06C0843E16C084300E062
:1011C00010E0216D08432168096940F2FC729143E7
:1011D00008432168086105E02068006920F00100EB
:1011E000216808616069012809D12068006B20F03E
:1011F0000F00216A491E08432168086305E0206842
:10120000006B20F00F0021680863E06D20F0020001
:1012100040F00100E06505E0E06D40F01000E065A1
:101220004FF001084046E8E6C0FFFF5FC0FFFF7FC8
:101230000C000020400D030000010050000300508E
:101240000740F0FF10B598B00446142113A8FEF72C
:10125000E8FF442102A8FEF7E4FF2068B0F1A04FA8
:1012600030D14FF4004002908003119002A800F0AA
:1012700025FB08B1FFF74EFB00BF1348C06C40F4DC
:1012800000501149C8640846C06C00F40050019039
:1012900000BF00BF00BF0846C06C40F00200C86439
:1012A0000846C06C00F00200019000BF00BF4FF480
:1012B000A0401390032014900020159013A9034818
:1012C00000F0A8F818B010BD00100240000400485B
:1012D0002DE9F0410446434801F004FC064620682D
:1012E00001F027FC00287AD100BF94F858000128AB
:1012F00002D10220BDE8F081012084F8580000BF2F
:101300002046FFF791FA0546002D63D1E06D40F6C7
:101310000161884340F48070E06533492068884269
:1013200002D14FF0A04000E020682168884200D040
:101330001EB9E06D20F48010E065E06D00F480508F
:10134000B0F5805F04D1206E20F00600206601E039
:10135000002020661C202168086000BF002084F85F
:10136000580000BF20492068884202D14FF0A040B9
:1013700000E020682168884204D01EB1052E01D00B
:10138000092E0ED12068C06800F0007028B1E06D11
:1013900020F4005040F48050E065206801F0D4FB58
:1013A0001EE0E06D40F48010E0650F49206888423F
:1013B00002D14FF0A04000E020680746F86800F036
:1013C000007068B1E06D20F4005040F48050E0659A
:1013D00006E004E000BF002084F8580000E0022589
:1013E000284687E7000300500001005070B504460E
:1013F00000F00CF906462546681C10B10448006848
:10140000054400BF00F002F9801BA842FAD370BD6A
:101410000800002078B503460022D2E0012696405D
:101420000D6805EA0604002C7BD00D7905F0030554
:10143000012D04D00D7905F00305022D13D1986814
:1014400056000325B540A8435600CD68B540284353
:101450009860586801259540A8430D79C5F300159B
:101460009540284358600D7905F00305032D07D1F9
:101470000D7905F00305032D0CD18D68012D09D0E0
:10148000D86856000325B540A84356008D68B5407E
:101490002843D8600D7905F00305022D13D1D60835
:1014A00003F1200555F826005507EE0E0F25B5402F
:1014B000A8435607F60E0D69B5402843D60803F138
:1014C000200545F82600186856000325B540A843B6
:1014D0000D7905F003055600B540284318604D68A6
:1014E00005F44035002D6BD000BF394D2D6E45F011
:1014F0000105374E356635462D6E05F00105009520
:1015000000BF00BF4FEAB635960855F8260095078C
:101510002E0F0F25B540A843B3F1904F02D10025FF
:101520001AE04DE02B4DAB4201D1012514E02A4DCC
:10153000AB4201D102250FE0284DAB4201D103257A
:101540000AE0274DAB4201D1042505E0254DAB4211
:1015500001D1052500E006259607360FB540284342
:10156000214D960845F82600204D2868A0434D6877
:1015700005F4801505B120431C4D28602D1D2868F9
:10158000A0434D6805F4001505B12043174D2D1DEE
:101590002860164D2D1F2868A0434D6805F40035BE
:1015A00005B12043114D2D1F28602D1F2868A04331
:1015B0004D6805F4803505B120430C4D083D286089
:1015C000521C0D68D540002D7FF428AF78BD000077
:1015D000001002400004004800080048000C0048C9
:1015E00000100048001400480800014008040140B1
:1015F000024613690B400BB1012000E00020704748
:101600000AB1816100E08162704700000148006812
:101610007047000000000020034800680349096883
:1016200008440149086070470000002008000020BD
:1016300010B50024032000F097F80F2000F008F800
:1016400008B1012401E000F02FF8204610BD000091
:1016500070B50446002511480068D8B10F480068ED
:101660004FF47A71B1FBF0F00D490968B1FBF0F667
:10167000304600F0E7FE58B9102C07D20022214670
:10168000501E00F033F80748046004E0012502E032
:10169000012500E00125284670BD0000080000205B
:1016A0000C0000200400002008B500BF0E48006EAA
:1016B00040F001000C4908660846006E00F0010089
:1016C000009000BF00BF00BF0846806D40F0805012
:1016D00088650846806D00F08050009000BF00BF14
:1016E00000F0E2F808BD0000001002402DE9F05FB4
:1016F00080460D46164601F0D7FD074639462A4674
:10170000334601F00700C0F1070ABAF1040F02D90D
:101710004FF0040A01E0C0F1070AD14600F1040AC3
:10172000BAF1070F02D24FF0000A01E0A0F1030A5C
:10173000D4464FF0010A0AFA09FAAAF1010A0AEAA4
:10174000020A0AFA0CFA4FF0010B0BFA0CFBABF190
:10175000010B0BEA030B4AEA0B042146404601F059
:10176000ABFDBDE8F09F000000BF00F00702064B94
:1017700019684FF6FF031940044B0B4343EA02215B
:10178000014B196000BF70470CED00E00000FA0546
:1017900002468ABB4148006800F4C060B0F5806F23
:1017A0002BD13E488030006820F480703B4BC3F85A
:1017B00080001846006820F4C06040F40070186093
:1017C0003748006832235843364BB0FBF3F0411CD6
:1017D00000E0491E3148406900F48060B0F5806F38
:1017E00001D10029F5D12D48406900F48060B0F5A1
:1017F000806F51D10320704708E02848803000688E
:1018000020F48070254BC3F8800045E0B2F5007FDE
:101810003AD12248006800F4C060B0F5806F2AD148
:101820001E488030006840F480701C4BC3F8800074
:101830001846006820F4C06040F400701860184832
:10184000006832235843174BB0FBF3F0411C00E013
:10185000491E1248406900F48060B0F5806F01D1E4
:101860000029F5D10D48406900F48060B0F5806F23
:1018700012D10320BFE709488030006840F480702F
:10188000064BC3F8800007E00448006820F4C060FD
:1018900040F48060014B18600020ACE7007000400D
:1018A0000C00002040420F000348806840F4804054
:1018B0000149886070470000007000402DE9F8433E
:1018C00004460027B846206800F40020B0F5002F39
:1018D00073D1B946D348806D00F0805078B900BF0D
:1018E000D048806D40F08050CE4988650846806DB4
:1018F00000F08050009000BF00BF4FF00109CA48BF
:10190000006840F48070C8490860FFF77FFE064613
:1019100006E0FFF77BFE801B022801D9032705E0C4
:10192000C148006800F480700028F2D000BF002F8A
:1019300046D1BC489030006800F44075CDB1206CB1
:10194000A84216D0B7489030006820F44075B548DA
:10195000D0F8900040F48030B249C1F890000846B9
:10196000D0F8900020F48030C1F890000846C0F80C
:10197000905005F00100A0B1FFF748FE064608E0D0
:10198000FFF744FE801B41F28831884201D90327CA
:1019900006E0A4489030006800F002000028EFD074
:1019A00000BF5FB99F489030006820F44070216C00
:1019B00008439C49C1F8900003E00CE0B84600E001
:1019C000B846B9F1010F05D19648806D20F08050DE
:1019D0009449886500BF207800F0010048B1914823
:1019E0008830006820F00300616808438D49C1F821
:1019F0008800207800F00200022809D18948883048
:101A0000006820F00C00A16808438649C1F88800EE
:101A1000207800F00400042809D18248883000684A
:101A200020F03000E16808437E49C1F88800207842
:101A300000F00800082809D17A488830006820F0B2
:101A4000C000216908437749C1F88800207800F078
:101A50002000202809D173488830006820F44060B5
:101A6000616908436F49C1F88800207800F04000A0
:101A7000402809D16B488830006820F44050A169A3
:101A800008436849C1F88800207800F08000802869
:101A900009D164488830006820F44040E169084377
:101AA0006049C1F88800208800F48070B0F5807F1C
:101AB00009D15C488830006820F44030216A08432E
:101AC0005849C1F88800208800F40070B0F5007F04
:101AD00009D154488830006820F44020616A0843E6
:101AE0005049C1F88800208800F48060B0F5806F0C
:101AF00013D14C488830006820F44010A16A084394
:101B0000484988310860A06AB0F5801F05D1454872
:101B1000C06840F480104349C860208800F4006029
:101B2000B0F5006F13D13F488830006820F44000C2
:101B3000E16A08433B4988310860E06AB0F5800FEC
:101B400005D13848C06840F480103649C860208804
:101B500000F48050B0F5805F13D1324888300068BF
:101B600020F04070216B08432E4988310860206BBB
:101B7000B0F1807F05D12B48C06840F4801029491E
:101B8000C860208800F40050B0F5005F13D12548EC
:101B90008830006820F04060616B0843214988313B
:101BA0000860606BB0F1006F05D11E48C06840F45A
:101BB00080101C49C860208800F48040B0F5804F38
:101BC00013D118488830006820F04060A16B0843AA
:101BD000144988310860A06BB0F1006F05D111483D
:101BE000C06840F480100F49C860208800F40040AD
:101BF000B0F5004F13D10B488830006820F04050FA
:101C0000E16B0843074988310860E06BB0F1805F01
:101C100005D10448C06840F480300249C86040469D
:101C2000BDE8F88300100240007000402DE9F0414B
:101C300004460D464FF0000814B90120BDE8F081BC
:101C40007D48006800F00F00A8420ED27A48006874
:101C500020F00F002843784908600846006800F02B
:101C60000F00A84201D00120E8E7207800F0010031
:101C7000002864D06068032823D17048006800F011
:101C8000007008B90120D9E701F090F806466C48C9
:101C9000864237D96948806800F0F00030B120787A
:101CA00000F0020002282DD1A06858BB634880686C
:101CB00020F0F00040F08000604988604FF080081C
:101CC00020E06068022806D15C48006800F400301B
:101CD00040B90120B2E75948006800F4806008B9B3
:101CE0000120ABE700F0B4F806465548864209D912
:101CF0005248806820F0F00040F080004F49886032
:101D00004FF080084D48806820F003006168084368
:101D10004A498860FFF77AFC074608E0FFF776FC3F
:101D2000C01B41F28831884201D9032086E743482D
:101D3000806800F00C006168B0EB810FEED1207874
:101D400000F00200022820D1207800F004000428CE
:101D500005D13A48806840F4E060384988602078CE
:101D600000F00800082807D13448806820F460504B
:101D700040F4E060314988603048806820F0F0002D
:101D8000A16808432D49886008E0B8F1800F05D1AB
:101D90002A48806820F0F0002849886026480068BA
:101DA00000F00F00A84219D92348006820F00F0066
:101DB000284321490860FFF729FC074608E0FFF7A0
:101DC00025FCC01B41F28831884201D9032035E748
:101DD0001948006800F00F00A842F0D1207800F008
:101DE0000400042807D11548806820F4E060E16809
:101DF000084312498860207800F00800082808D1BC
:101E00000E48806820F46050216940EAC1000B4907
:101E1000886000F01DF809498968C1F30311094A77
:101E2000515C01F01F01C84007490860074800687D
:101E3000FFF70EFC02E70000002002400010024005
:101E400000B4C404083F00080C0000200400002077
:101E500070B5224DAD6805F00C05042D01D1204868
:101E60003AE01E4DAD6805F00C05082D01D11D4866
:101E700032E01A4DAD6805F00C050C2D2BD1174D35
:101E8000ED6805F00304154DED68C5F303156A1CF4
:101E9000022C0CD0032C09D1124DB5FBF2F50F4EDC
:101EA000F668C6F3062605FB06F10AE000BF0C4DF6
:101EB000B5FBF2F5094EF668C6F3062605FB06F1FA
:101EC00000BF00BF054DED68C5F341656D1C6B009B
:101ED000B1FBF3F000E0002070BD000000100240F4
:101EE0000024F40000366E012DE9F843044614B9CD
:101EF0000120BDE8F883207800F00100002865D0BB
:101F0000FC48806800F00C07FA48C06800F003063F
:101F10000C2F01D1032E01D0082F0AD1F5480068FB
:101F200000F40030002851D0606800284ED1012014
:101F3000DFE700BF6068B0F5803F06D1ED4800687C
:101F400040F48030EB4908601AE06068B0F5A02FDB
:101F50000BD1E848006840F48020E6490860084654
:101F6000006840F4803008600AE0E248006820F42D
:101F70008030E04908600846006820F4802008604E
:101F800000BF606888B1FFF741FB054606E0FFF738
:101F90003DFB401B642801D90320AAE7D54800680F
:101FA00000F400300028F2D010E0FFF72FFB0546C8
:101FB00006E0FFF72BFB401B642801D9032098E7BC
:101FC000CC48006800F400300028F2D1207800F0FE
:101FD0000200022860D1C748806800F00C07C5489D
:101FE000C06800F003060C2F01D1022E01D0042F8F
:101FF00018D1C048006800F4806018B1E06808B9E2
:10200000012076E7BB48406820F0FE40217C40EA92
:102010000160B8494860B8480068FFF719FB18B379
:10202000012066E7E06800B3B248006840F48070C1
:10203000B0490860FFF7EAFA054606E0FFF7E6FA5E
:10204000401B022801D9032053E7AA48006800F486
:1020500080600028F2D0A748406820F0FE40217C34
:1020600040EA0160A349486016E0A248006820F4F5
:102070008070A0490860FFF7C9FA054606E0FFF73F
:10208000C5FA401B022801D9032032E799480068AD
:1020900000F480600028F2D1207800F008000828C1
:1020A00036D16069D0B193489430006840F00100A7
:1020B0009049C1F89400FFF7A9FA054606E0FFF73A
:1020C000A5FA401B022801D9032012E78948943061
:1020D000006800F002000028F1D019E08548943033
:1020E000006820F001008349C1F89400FFF78EFAE0
:1020F000054606E0FFF78AFA401B022801D90320B3
:10210000F7E67C489430006800F002000028F1D126
:10211000207800F00400042872D14FF000087548C0
:10212000806D012121EA107078B100BF7148806D87
:1021300040F080506F4988650846806D00F08050FF
:10214000009000BF00BF4FF001086C48006800F429
:102150008070B0B96948006840F4807067490860D1
:10216000FFF754FA054606E0FFF750FA401B022835
:1021700001D90320BDE66148006800F480700028A2
:10218000F2D000BFA068012808D15A4890300068FA
:1021900040F001005749C1F8900021E0A0680528EF
:1021A0000FD154489030006840F004005149C1F804
:1021B00090000846D0F8900040F00100C1F890006F
:1021C0000EE04C489030006820F001004949C1F809
:1021D00090000846D0F8900020F00400C1F890006C
:1021E00000BFA068A8B1FFF711FA054609E0FFF7A4
:1021F0000DFA401B41F28831884202D9032078E66B
:1022000025E03C489030006800F002000028EED045
:1022100013E0FFF7FBF9054608E0FFF7F7F9401B6D
:1022200041F28831884201D9032062E6314890307A
:10223000006800F002000028EFD1B8F1010F05D1CD
:102240002C48806D20F080502A49886500BF207896
:1022500000F02000202836D1A069D0B12548983060
:10226000006840F001002349C1F89800FFF7CEF95B
:10227000054606E0FFF7CAF9401B022801D90320F2
:1022800037E61C489830006800F002000028F1D0C2
:1022900019E018489830006820F001001549C1F88D
:1022A0009800FFF7B3F9054606E0FFF7AFF9401BCA
:1022B000022801D903201CE60E489830006800F07F
:1022C00002000028F1D1E069002860D00948806848
:1022D00000F00C000C287AD0E069022858D105489B
:1022E000006820F0807003490860FFF78FF9054609
:1022F0000DE00000001002400400002000700040CB
:10230000FFF784F9401B022801D90320F1E54A4870
:10231000006800F000700028F2D1D4E90810401ED7
:1023200041EA0011A06A41EA0021208E0122C2EB9D
:10233000500041EA40513420005DC2EB500041EAB8
:1023400040612C20005D41EAC0603B49C9683B4ABE
:10235000114008433849C8600846006840F0807062
:1023600008600846C06840F08070C860FFF74EF90A
:10237000054606E0FFF74AF9401B022801D9032071
:10238000B7E52D48006800F000700028F2D051E059
:102390002948006820F0807027490860FFF736F967
:1023A000054606E0FFF732F9401B022801D9032059
:1023B0009FE52148006800F000700028F2D11E4817
:1023C000C0681F4908401C49C86033E0FFE7E06966
:1023D000012800D18DE51848C66806F00301206A7F
:1023E000814225D106F0F001606A401EB1EB001F6A
:1023F0001ED106F4FE41A06AB1EB002F18D106F001
:1024000078412C20005DB1EBC06F11D106F4C00102
:10241000208E0122C2EB5000B1EB405F08D106F0E4
:10242000C0613420005DC2EB5000B1EB406F01D0C1
:1024300001205EE500205CE5001002400C809F0159
:10244000FCFFEEFE70B504462546681EB0F1807FA5
:1024500001D301200FE0681E4FF0E02148610F21F9
:102460004FF0FF3000F028FF00204FF0E02188619E
:1024700007200861002070BD00BFFEE700B585B0F1
:1024800014216846FDF7CDFEC02000900120019088
:1024900002900220039069460248FEF7BBFF05B098
:1024A00000BD00000004004870B50825002400F0BD
:1024B00061FE13E06006040E002000F03BFE1420D5
:1024C00001F0B4FB142001F0B1FB012000F032FE5A
:1024D000142001F0ABFB00F041FE0443281EA5F1DF
:1024E0000101CDB2E6D100F025FE142001F09EFBE3
:1024F00000F06AFE204670BD70B50446082517E05E
:10250000002000F017FE142001F090FB04F0800082
:1025100000F046FE142001F089FB6006040E142032
:1025200001F084FB012000F005FE142001F07EFB89
:10253000281EA5F10101CDB2E2D100F0FBFD14206F
:1025400001F074FB70BD10B5012000F029FE1420CD
:1025500001F06CFB142001F069FB012000F0EAFDA2
:10256000142001F063FB002000F0E4FD142001F0D2
:102570005DFB10BD10B5012000F012FE142001F02B
:1025800055FB012000F0D6FD142001F04FFB002088
:1025900000F006FE142001F049FB002000F0CAFD07
:1025A000142001F043FB10BD10B5002000F0C2FD67
:1025B000142001F03BFB002000F0F2FD142001F09C
:1025C00035FB012000F0B6FD142001F02FFB0120A7
:1025D00000F0E6FD142001F029FB10BD10B5052424
:1025E00000F0C8FD142001F021FB012000F0A2FD45
:1025F000142001F01BFB0BE0601E84B2142001F0DC
:1026000015FB2CB900F0E0FDFFF7CEFF012010BD57
:1026100000F0A4FD0028EFD100F08CFD00F0D4FD07
:10262000142001F003FB0020F1E7000000B585B0A5
:1026300014216846FDF7F5FD4FF6FF70009000206D
:102640000190032003900020029069460248FEF7A3
:10265000E1FE05B000BD00000008004800B585B0EF
:1026600014216846FDF7DDFD4FF6FF700090012054
:102670000190032003900020029069460248FEF773
:10268000C9FE05B000BD00000008004830B5054691
:1026900000240021084600F049F900F097F900BF36
:1026A00003E0284600F056F9641CB4F5963FF8D3D1
:1026B00030BD000000B587B0142102A8FDF7B1FDC0
:1026C00000BF2B48C06C40F004002949C86408468C
:1026D000C06C00F00400019000BF00BF00BF0846BE
:1026E000C06C40F00100C8640846C06C00F00100F6
:1026F000019000BF00BF00BF0846C06C40F0020060
:10270000C8640846C06C00F00200019000BF00BF22
:102710004FF44870029001200390032005900020A0
:10272000049002A91348FEF775FE4FF480700290E2
:1027300001200390032005900020049002A94FF08F
:102740009040FEF767FEFFF789FF4FF090408069E9
:1027500040F480704FF0904188610648183000685E
:1027600040F4087003491831086007B000BD00004C
:10277000001002400004004870B505460E4614469D
:10278000A4F12000C4B204EB4400044901EB0012A0
:102790003146284600F01AF870BD0000203F0008BE
:1027A000F0B507460C46002540F23F1609E02278B6
:1027B00031463846FFF7E0FFA6F1100086B2641CF0
:1027C0006D1C207808B1142DF1D3F0BD2DE9F04334
:1027D00006468946174600240025A046B0464946CD
:1027E000404600F0A3F800BF1EE000F0EFF800251F
:1027F0000FE037F814000121A940084020B90C4827
:10280000008800F0A7F803E00A48008800F0A2F86A
:102810006D1C102DEDD308F1010000F0FF084946B2
:10282000404600F083F8641C182CDED3BDE8F0832A
:10283000360000203400002010B5FFF73BFF0020D9
:1028400000F016F8094908800846008848F230214F
:10285000884202D100F0DEFA01E000F06BFB0020BC
:1028600000F006F80149088010BD00003800002083
:1028700070B504462748006840F400702549086098
:102880000846006840F480700860224810380068EC
:1028900040F020001F49103908601F4804601D489F
:1028A000006840F020001B49086000BF00BF00BF67
:1028B00018481038006840F02000164910390860A8
:1028C0000846006840F480700860FFF7AFFE4FF0E4
:1028D0009040806A40F480704FF09041886200BF61
:1028E00000BF00BF0C48001F006885B24FF0904049
:1028F000806940F480704FF090418861FFF7AEFE30
:1029000004481038006840F400700249103908602B
:10291000284670BD280400481408004801B5BDF8D9
:1029200000000149088008BD3600002030B504468B
:102930000D462146202000F085F82946212000F090
:1029400081F830BD01B5BDF800000149088008BD1F
:10295000340000201B49096841F40071194A1160D4
:1029600018491039096841F48071164A103A11600B
:102970001146096841F020011160134908601149AE
:10298000096841F020010F4A116000BF00BF00BF7D
:102990000C491039096841F020010A4A103A1160C7
:1029A0001146096841F48071116000BF00BF00BF8B
:1029B00004491039096841F40071024A103A116063
:1029C0007047000028040048140800481B480068AD
:1029D00040F40070194908600846006840F48070AF
:1029E000086016481038006840F02000134910397C
:1029F00008602220124908601048006840F020005A
:102A00000E49086000BF00BF00BF0C4810380068C6
:102A100040F020000949103908600846006840F479
:102A20008070086000BF00BF00BF04481038006815
:102A300040F40070014910390860704728040048CC
:102A400014080048214A126842F400721F4B1A60B1
:102A50001A46126842F480721A601C4A103A1268D0
:102A600042F02002194B103B1A60194A1060174AB5
:102A7000126842F02002154B1A6000BF00BF00BF71
:102A8000124A103A126842F02002104B103B1A60B2
:102A90001A46126842F480721A600D4A11600B4A9D
:102AA000126842F02002094B1A6000BF00BF00BF4D
:102AB000064A103A126842F02002044B103B1A609A
:102AC0001A46126842F480721A607047280400485F
:102AD000140800488168024A1140491C816070470F
:102AE000C0FFFF7F0146886800F01F007047024664
:102AF00002F1600000EB8103186800F0F8407047B5
:102B000001468868C0F3C000704701468868C0F37A
:102B1000400070470146886800F001007047014698
:102B2000886800F00100704701468868C0F30070B3
:102B3000704701468868C0F3800070470146886886
:102B4000C0F38000704700008168024A1140091DEF
:102B500081607047C0FFFF7F70B500F11404C1F3BE
:102B6000406504EB85031C68C1F304560725B54096
:102B7000AC43C1F3045502FA05F52C431C6070BD4B
:102B8000826822F0E0720A438260704710B500F15B
:102B9000600404EB81031C6824F0004414431C60AF
:102BA00010BD426922F000420A43426170470000B2
:102BB00000B58BB00020089009900A90202168464B
:102BC000FDF72FFB4FF0A040254908604FF400307F
:102BD0004860002122488160C1600161012141619A
:102BE00004218161002101774177022101620021E6
:102BF00080F82410C162016380F83810C16380F846
:102C00004010FEF7F1F908B1FDF784FE00200890AE
:102C100008A91348FDF7DAFE08B1FDF77BFE11485D
:102C2000009006200190072002907F20039004204E
:102C300004900020059069460948FDF74DFF08B152
:102C4000FDF768FE084800900C2001906946044892
:102C5000FDF742FF08B1FDF75DFE0BB000BD0000BF
:102C60003C0000202000F0140008302E00B587B092
:102C7000142102A8FDF7D5FA00BF4548C06C40F00A
:102C800004004349C8640846C06C00F00400019089
:102C900000BF00BF00BF0846C06C40F02000C86401
:102CA0000846C06C00F02000019000BF00BF00BFCC
:102CB0000846C06C40F00100C8640846C06C00F0D3
:102CC0000100019000BF00BF00BF0846C06C40F08B
:102CD0000200C8640846C06C00F00200019000BF0A
:102CE00000BF00BF0846C06C40F00800C86408463A
:102CF000C06C00F00800019000BF00BF01224FF43B
:102D00007F412448FEF77CFC002204212248FEF784
:102D100077FC0022C0212148FEF772FC4FF47F406F
:102D200002900120039000200490059002A9194808
:102D3000FEF770FB01200290002003900120049018
:102D400002A94FF09040FEF765FB0720029000209B
:102D500003900120049002A91048FEF75BFB0420B9
:102D600002900120039000200490059002A90A48D7
:102D7000FEF750FBC0200290012003900020049039
:102D8000059002A90548FEF745FB07B000BD00000D
:102D90000010024000080048000C004800040048F1
:102DA00000BFFEE700BFFEE77047000070B5164D9C
:102DB000ED6805F00304144DED68C5F303156B1CB5
:102DC000022C0CD0032C09D1104DB5FBF3F50E4E9F
:102DD000F668C6F3062605FB06F10AE000BF0C4DB7
:102DE000B5FBF3F5084EF668C6F3062605FB06F1BB
:102DF00000BF00BF044DED68C5F341656D1C6A005E
:102E0000B1FBF2F070BD00000010024000366E0110
:102E10000024F40000B501210020FFF713FE4FF459
:102E20007A70FDF768FD00210120FFF70BFE41F2EB
:102E300090711020FFF706FE4FF41C516020FFF741
:102E400001FE01216120FFF7FDFD02214620FFF771
:102E5000F9FD48F210011320FFF7F4FD48F2FE01DE
:102E60001220FFF7EFFD4FF4A0610220FFF7EAFD0B
:102E700041F230010320FFF7E5FD40F2033130203D
:102E8000FFF7E0FD40F203313120FFF7DBFD40F2B8
:102E900003313220FFF7D6FD4FF440713320FFF7A6
:102EA000D1FD03213420FFF7CDFD40F20331352061
:102EB000FFF7C8FD14213620FFF7C4FD40F20331AF
:102EC0003720FFF7BFFD40F203313820FFF7BAFD8E
:102ED00040F203313920FFF7B5FD4FF440713A203D
:102EE000FFF7B0FD03213B20FFF7ACFD40F20331BB
:102EF0003C20FFF7A7FD4FF4A0513D20FFF7A2FDB6
:102F00004FF400719220FFF79DFD40F203319320B2
:102F1000FFF798FD40F60D019020FFF793FD41F279
:102F200018010320FFF78EFD40F273110720FFF711
:102F300089FD00BD10B543F20801E320FFF782FDD3
:102F40001221E720FFF77EFD41F23121EF20FFF74C
:102F500079FD00210120FFF775FD4FF4E0610220AB
:102F6000FFF770FD41F230010320FFF76BFD0021F8
:102F70000420FFF767FD40F207210820FFF762FDFC
:102F800000210920FFF75EFD00210A20FFF75AFD0E
:102F900000210C20FFF756FD00210D20FFF752FD08
:102FA00000210F20FFF74EFD00211020FFF74AFD02
:102FB00007211120FFF746FD00211220FFF742FDF7
:102FC00000211320FFF73EFDC820FEF70FFA41F263
:102FD00090611020FFF736FD40F227211120FFF706
:102FE00031FD3220FEF702FA1D211220FFF72AFDE3
:102FF0003220FEF7FBF94FF400611320FFF722FDAA
:1030000014212920FFF71EFD0B212B20FFF71AFDAD
:103010003220FEF7EBF900212020FFF713FD0021FD
:103020002120FFF70FFD07213020FFF70BFD40F2B5
:1030300007713120FFF706FD06213220FFF702FD60
:1030400040F204713520FFF7FDFC41F60471362093
:10305000FFF7F8FC04213720FFF7F4FC00213820AB
:10306000FFF7F0FC40F206713920FFF7EBFC40F26D
:1030700001713C20FFF7E6FC0F213D20FFF7E2FC49
:1030800000215020FFF7DEFCEF215120FFF7DAFC92
:1030900000215220FFF7D6FC40F23F115320FFF7EA
:1030A000D1FC4FF41C516020FFF7CCFC01216120C2
:1030B000FFF7C8FC00216A20FFF7C4FC0021802034
:1030C000FFF7C0FC00218120FFF7BCFC002182201B
:1030D000FFF7B8FC00218320FFF7B4FC0021842017
:1030E000FFF7B0FC00218520FFF7ACFC10219020F9
:1030F000FFF7A8FC00219220FFF7A4FC03219320F6
:10310000FFF7A0FC4FF488719520FFF79BFC00218E
:103110009720FFF797FC00219820FFF793FC41F2DE
:1031200018010320FFF78EFC40F273110720FFF710
:1031300089FC10BD30B10849096841F04001064AD8
:10314000116007E004491031096841F04001024A6A
:1031500010321160704700001804004810B580213B
:103160000348FEF745FA012800D110BD0020FCE716
:103170000004004800B585B014216846FDF751F8F9
:1031800080200090002001900120029002200390F6
:1031900069460248FEF73EF905B000BD000400484C
:1031A00030B10849096841F08001064A116007E022
:1031B00004491031096841F08001024A103211605F
:1031C000704700001804004800B585B01421684617
:1031D000FDF727F880200090112001900020029038
:1031E0000220039069460248FEF714F905B000BDBD
:1031F00000040048704710B5FEF70EFA10BD00B588
:1032000093B0382105A8FDF70CF814216846FDF7A6
:1032100008F84FF40070FEF7BBFA01200590000497
:10322000069002200C9003210D910E9114210F9114
:10323000022110911191129105A8FEF755FE08B1D7
:10324000FDF768FB0F200090032001900020029002
:103250000390049002216846FEF7E8FC08B1FDF7F0
:1032600059FB13B000BD00000348006840F4700033
:10327000014908607047000088ED00E000BFFEE7EC
:103280000FB4084B10B504A902AA039800F0FAF88D
:10329000044602A9002000F078FC204610BC5DF82E
:1032A00014FB00008B3B000802480068C0F30220BA
:1032B000704700000CED00E010B5002804DB0A07A1
:1032C000130E054A135406E00A07140E034A00F0D1
:1032D0000F031B1FD45410BD00E400E018ED00E004
:1032E00002E008C8121F08C1002AFAD170477047CF
:1032F000002001E001C1121F002AFBD1704700002D
:103300002DE9FF5F82B00021DDE90430020DDDF818
:1033100040B0034318D044F61050A2F2FF324243AB
:103320001514119801281FD0A5EB0B00401C5FEA73
:10333000000A4FF000064E4FDFF83891B046504675
:1033400015D5CAF1000413E0119801244AA30128FD
:1033500001D16FEA0B010298119AC0E90031C0E96E
:10336000024206B0BDE8F09FCBF10000DFE7044663
:103370000021404A491842EB0450CDE9001012E008
:10338000E00707D032463B4640464946FCF754FF2B
:103390008046894632463B4610461946FCF74CFFAC
:1033A00006460F466410002CEAD1DDE90401DDE990
:1033B0000023BAF1000F06DAFCF73EFF42464B4607
:1033C000FCF73AFF05E0FCF7A9FF42464B46FCF745
:1033D000A5FF04460E460022284BFDF77FF903D8CF
:1033E0004FF0FF30014607E00022254B20463146D2
:1033F000FDF7B4F8FDF759F9102409E0002C0ADBB9
:103400000A220023FDF71CF8039B30321A55641E74
:1034100050EA0102F2D1641C039AC4F1110314446E
:10342000119A012A03D0012208430DD10AE0084372
:1034300004D000204FF0110B119072E7A3EB0B05A5
:103440006D1E0DE05B4504DD4FF0000205F1010546
:1034500004E003DA4FF00002A5F10105002AECD0E8
:1034600002981199C0E90231C0E9004579E70000EE
:10347000000014400000F03F300000000000F04366
:103480000000E03F2DE9FF4F95B09A46884606467A
:103490000025EEE1252877D100242746F94A0121AD
:1034A000039400E0044316F8013F203B01FA03F0C7
:1034B0001042F7D130782A2811D06FF02F033078DE
:1034C000A0F13002092A16D8039A44F0020402EB54
:1034D000820203EB42021044761C0390EFE758F897
:1034E000042B0392002A03DA504244F40054039060
:1034F00044F00204761C30782E2816D116F8010FFD
:1035000044F004042A280DD06FF02F023078A0F187
:103510003003092B09D807EB870302EB4303C718D5
:10352000761CF3E758F8047B761C30786C280FD0B3
:1035300006DC4C2817D068280DD06A2814D104E086
:10354000742810D07A280FD10DE044F400140AE05A
:1035500044F4801401E044F440147278824202D1B1
:1035600004F58014761C761C307866280BD013DCAA
:10357000582877D009DC002875D04528F6D0462891
:10358000F4D047281AD193E118E0632835D0642895
:1035900079D0652812D18BE1702873D008DC6728B8
:1035A000F1D069286FD06E280DD06F2806D1ACE01D
:1035B00073282CD0752874D0782853D05246179988
:1035C00090476D1C54E1C4F30250022809D003282F
:1035D0000DD0D8F8001004280DD00D6008F10408B3
:1035E00046E1D8F80010EA17C1E90052F6E7D8F82A
:1035F00000100D80F2E70D70F0E718F8041B8DF84D
:10360000001000208DF80100EB46012003E058F87F
:1036100004BB4FF0FF3061074FF0000102D40DE012
:1036200009F101018946B9420FDA8145F8DB1BF83F
:1036300009100029F4D108E009F10101894681420D
:10364000FADB1BF809100029F6D103985346A0EBCA
:10365000090721463846179A00F080FA284400EB03
:10366000090507E044E008E10DE01BF8010B5246B4
:1036700017999047B9F10109F7D2534621463846C8
:10368000179AF2E039E00A21C4F302524FF0000B1E
:103690000091022A06D058F8040BC117032A09D05A
:1036A0000AE023E008F1070020F00702F2E8020137
:1036B000904605E000B2C117042A01D140B2C117FB
:1036C000002906DA0A460021404261EB02012D2260
:1036D00002E0220504D52B228DF80420012203E00C
:1036E000E20701D02022F7E7914657E00A2100E0E7
:1036F00010214FF0000B00910BE010214FF0000B58
:1037000044F004040827009103E008204FF0000B68
:103710000090C4F30252022A05D058F8040B00218D
:10372000032A08D008E008F1070020F00702F2E8B9
:103730000201904603E080B2042A00D1C0B24FF0EB
:10374000000922072AD53278702A07D0DDF800C098
:103750008CF0100C5CEA0B0C05D00EE040228DF8CA
:103760000420012208E050EA010306D030238DF83E
:1037700004308DF8052002229146009B83F0080357
:1037800053EA0B030AD150EA010201D1620705D5C1
:1037900030228DF804204FF001097F1E3278582A1C
:1037A00004D039A20C920CAA02920BE03BA2F9E7DA
:1037B0005B46009AFCF744FE0C9B9B5C029A521EEF
:1037C0000292137050EA0102F2D1029804A9081A79
:1037D00000F1200B600702D524F4803400E00127BB
:1037E0005F4502DDA7EB0B0000E0002000EB0B01C2
:1037F000009003984944401A0390E00306D45346CE
:103800002146179A039800F0A9F90544002706E01D
:1038100001A85246C05D179990476D1C7F1C4F450B
:10382000F6DBE0030CD553462146179A039800F0C7
:1038300095F9054404E030205246179990476D1CD5
:103840000099481E00900029F5DC08E002980299D2
:1038500052460078491C0291179990476D1CBBF1A4
:103860000001ABF1010BF1DC5BE100F065F905440F
:10387000761C307800287FF40DAE19B02846BDE8DC
:10388000F08F0000092801003031323334353637EB
:10389000383961626364656600000000303132339C
:1038A000343536373839414243444546000000003C
:1038B000600700D4062708F1070020F00700F0E8B1
:1038C0000223804603F0004C5FEA0C0001D097A071
:1038D00009E0200501D596A005E0E00701D095A0FC
:1038E00001E0AFF24C001390307823F000436528DC
:1038F0000CD006DC452809D046281DD047287FD1AA
:103900003BE0662818D067287AD136E00021112FD5
:1039100001DB112000E0781CCDE9000104A90CA80E
:10392000FFF7EEFCDDE90D010C9A4FF0000B07F1FB
:103930000109109200914EE04FF000400097CDE950
:10394000011004A90CA8FFF7DBFCDDE90D020C9BBC
:103950000F994FF0000B91461093009211B9791C0A
:1039600000EB0109B7EB090003D4C0F1FF3B07F1FD
:103970000109A9EB0700019042E0012F00DA0127BD
:103980000021112F01DD112000E03846CDE90001B2
:1039900004A90CA8FFF7B4FCDDE90D010C9A009115
:1039A0004FF0000BB946109221070FD4009A4A45F8
:1039B00003DA914601E0A9F10109B9F1010F05DD32
:1039C000109AA9F10101515C3029F4D0B84202DA11
:1039D00010F1040F03DA0121CDE9011010E00028F5
:1039E00003DC8344A9EB000102E0411C494500DDF2
:1039F0008946A0EB0B00401C01904FF00040029064
:103A0000200705D40198484502DB4FF0FF300190B4
:103A100000208DF84B0002980DF14B07B0F1004FDC
:103A200025D002200C902B200D90029800280CDA53
:103A3000404202902D200D9007E00A210298FCF7E9
:103A4000E9FC3031029007F8011D0C99481E0C90DA
:103A50000029F2DC02980028EFD1791E0D98087039
:103A6000307800F0200040F0450007F8020D11A862
:103A7000C01BC01D02901398007800B1012000EB1C
:103A80000901019801EBE071029801440398401A82
:103A9000401E0390E00306D453462146179A03982C
:103AA00000F05CF805441398007818B15246179955
:103AB00090476D1CE00323D553462146179A03987F
:103AC00000F04CF805441BE0BBF1000F07DB009849
:103AD000584504DD1098179910F80B0001E017996C
:103AE00030205246904701980BF1010B401E05F122
:103AF0000105019004D12E205246179990476D1C64
:103B0000B9F10001A9F10109DEDC05E017F8010BAC
:103B10005246179990476D1C0299481E0290002941
:103B2000F4DC53462146179A03989EE62D000000C8
:103B30002B000000200000002DE9F0410446002584
:103B40001E461746880404D405E039462020B047B5
:103B50006D1C641EF9D52846BDE8F0812DE9F041C1
:103B6000044600251E469046C80301D5302700E0D4
:103B70002027880404D505E041463846B0476D1C2F
:103B8000641EF9D52846BDE8F0810A68531C0B6015
:103B9000107070472DE9F0412DED048B04460D4661
:103BA0001D48FDF795FB1C48FDF71AFA86B2304612
:103BB000FCF723FC41EC190B9FED180B53EC102B79
:103BC000FCF73AFB41EC180B9FED160B53EC102B56
:103BD000FCF7A4FBC4E900010F48FDF779FB0E4890
:103BE000FDF7FEF987B23846FCF707FC41EC190BEC
:103BF0009FED0A0B53EC102BFCF71EFB41EC180B4E
:103C00009FED080B53EC102BFCF788FBC5E9000176
:103C1000BDEC048BBDE8F0813C0000206666666662
:103C200066660A400000000000FEAF40002100E090
:103C3000491C8142FCD3704710B5FDF7E7FC0446F0
:103C400039480068201AC82800D210BD36480460E0
:103C500001213648FDF7CCFC08B1012000E000202E
:103C60003349087002213148FDF7C2FC08B1012038
:103C700000E000202F49087004212C48FDF7B8FC13
:103C800008B1012000E000202B49087001214FF00D
:103C90009040FDF7ADFC08B1012000E0002027496D
:103CA00008702348007880F0010025490978084011
:103CB00018B10121084600F0A7F81E48007880F0EE
:103CC000010020490978084018B10021012000F0C6
:103CD0009BF81948007880F001001B4909780840DA
:103CE00018B10121022000F08FF81448007880F00C
:103CF000010016490978084018B10021022000F09F
:103D000083F80B4800780E4908700A4800780D497E
:103D10000870094800780C490870084800780B4979
:103D2000087000BF91E70000280000200004004850
:103D30002C0000202D0000202E0000202F0000204D
:103D4000300000203100002032000020330000202D
:103D500010B51948006884B218A11B48FFF790FA03
:103D600019493020FEF71CFD1848027818A11648A2
:103D7000FFF786FA14494820FEF712FD184890ED27
:103D8000000B53EC102B17A10F48FFF779FA0E49DF
:103D90007820FEF705FD174890ED000B53EC102B33
:103DA00015A10948FFF76CFA07499020FEF7F8FCC7
:103DB0000148046010BD00001408004820202020A5
:103DC0002020204F72696E00A80000201000002003
:103DD000202020204D43503D25752020202000002C
:103DE00018000020202020206D63703D20252E32F9
:103DF0006620000020000020202020205233383D83
:103E000020252E326620000070B504460D460122A2
:103E100004210E48FDF7F4FB4DB1601E4FF4807293
:103E2000824091B200220A48FDF7EAFB08E0601EDA
:103E30004FF48072824091B201220548FDF7E0FB09
:103E4000002204210148FDF7DBFB70BD000C004897
:103E50000008004810B5FFF7EFFEFFF779FF0D20CF
:103E600000F041F800F02EF80349087003490448B7
:103E7000FFF790FE10BD0000100000202000002081
:103E800018000020FDF7D4FBFFF7B9F9FEF7EEFEAE
:103E9000FEF78EFEFEF7D0FC0020FEF7F7FB4FF694
:103EA000FF70FEF74FFD0020FEF738FDFEF7E6FA43
:103EB0007F210348FCF732FD01E0FFF7CBFFFCE771
:103EC0003C00002010B5FEF755FB5F20FEF714FB09
:103ED000FEF784FBFEF7E8FA0446FEF734FBFEF734
:103EE00063FB204610BD10B50446FEF743FB5E2081
:103EF000FEF702FBFEF772FB2046FEF7FDFAFEF727
:103F00006DFBFEF751FB10BD00000000000000003B
:103F1000010203040607080900000000010203046F
:103F20000000000000000000000000000000000091
:103F30000000000000000000000000000000000081
:103F40000000000000000000000000000000000071
:103F500000008001800180018001800180018001DA
:103F6000800180018001800180018001000000004B
:103F7000800180010000000000000000000000003F
:103F800000000000CC00CC00CC00CC00CC00CC0069
:103F90000000000000000000000000000000000021
:103FA0000000000000000000000000000000000011
:103FB000000000000000000000000000600C600C29
:103FC000600C30063006FE1FFE1F3006380718034F
:103FD000FE1FFE1F180318038C018C018C010000CA
:103FE00000008000E003F80F9C0E8C1C8C188C00E5
:103FF0009800F801E007800E801C8C188C189C1823
:10400000B80CF00FE003800080000000000000000A
:104010000000000000000E181B0C110C1106110608
:10402000110311039B018E01C038C06C60446044D1
:10403000304430441844186C0C3800000000000074
:104040000000E001F0033807180618063003F001FD
:10405000F000F8009C310E33061E061C061C063FBD
:10406000FC73F021000000000000000000000000D0
:10407000000000000C000C000C000C000C000C00F8
:104080000000000000000000000000000000000030
:104090000000000000000000000000000000000020
:1040A0000000000200038001C000C000600060004A
:1040B0003000300030003000300030003000300080
:1040C00060006000C000C00080010003000200002A
:1040D000000020006000C000800180010003000398
:1040E00000060006000600060006000600060006A0
:1040F0000003000380018001C00060002000000078
:10410000000000000000000000000000C000C0002F
:10411000D806F807E001300338070000000000006F
:10412000000000000000000000000000000000008F
:10413000000000000000000000000000800180017D
:10414000800180018001FC3FFC3F800180018001F3
:10415000800180010000000000000000000000005D
:10416000000000000000000000000000000000004F
:10417000000000000000000000000000000000003F
:1041800000008001800100010001800000000000AB
:10419000000000000000000000000000000000001F
:1041A0000000000000000000E007E0070000000041
:1041B00000000000000000000000000000000000FF
:1041C00000000000000000000000000000000000EF
:1041D00000000000000000000000000000000000DF
:1041E0000000C000C000000000000000000000004F
:1041F0000000000C000C000600060006000300038F
:1042000000038003800180018001C000C000C00065
:1042100060006000000000000000000000000000DE
:104220000000E003F007380E180C0C180C180C18DE
:104230000C180C180C180C180C180C18180C380E3C
:10424000F007E00300000000000000000000000094
:10425000000000018001C001F00198018801800187
:104260008001800180018001800180018001800146
:10427000800180010000000000000000000000003C
:104280000000E003F80F180C0C180C1800180018A8
:10429000000C000600038001C00060003000180020
:1042A000FC1FFC1F000000000000000000000000D8
:1042B0000000E001F807180E0C0C0C0C000C0006B6
:1042C000C003C007000C001800180C180C18180CBC
:1042D000F807E003000000000000000000000000FC
:1042E0000000000C000E000F000F800DC00C600CD1
:1042F000600C300C180C0C0CFC3FFC3F000C000C4C
:10430000000C000C00000000000000000000000095
:104310000000F80FF80F180018000C00EC03FC0761
:104320001C0E001C0018001800180C181C0C180E8D
:10433000F807E0030000000000000000000000009B
:104340000000C007F00F381C181818000C00CC0330
:10435000EC0F3C0E1C1C0C180C180C18181C380EFA
:10436000F007E00300000000000000000000000073
:104370000000FC1FFC1F000C000600060003800369
:104380008001C001C000E0006000600070003000EB
:1043900030003000000000000000000000000000BD
:1043A0000000E003F007380E180C180C180C380643
:1043B000F007F007180C0C180C180C180C18380C17
:1043C000F80FE00300000000000000000000000003
:1043D0000000E003F007380E1C0C0C180C180C1829
:1043E0001C1C381EF81BE0190018000C000C1C0ED9
:1043F000F807F001000000000000000000000000CD
:1044000000000000000000000000000080018001AA
:10441000000000000000000000000000000000009C
:10442000800180010000000000000000000000008A
:10443000000000000000000000000000800180017A
:10444000000000000000000000000000000000006C
:1044500080018001000100018000000000000000D8
:10446000000000000000000000000000000000004C
:104470000010001C800FE003F8001800F800E003B3
:10448000800F001C00100000000000000000000071
:10449000000000000000000000000000000000001C
:1044A000F81F000000000000F81F000000000000DE
:1044B00000000000000000000000000000000000FC
:1044C00000000000000000000000000000000000EC
:1044D00008003800F001C007001F0018001FC007C7
:1044E000F00138000800000000000000000000009B
:1044F0000000E003F80F180C0C180C180018000C42
:10450000000600038001C000C000C00000000000E1
:10451000C000C0000000000000000000000000001B
:1045200000000000E00718180420C229224A1144A4
:1045300009440944094409221113E20C02400420F1
:104540001818E00700000000000000000000000054
:10455000000080038003C006C006C006600C600C2B
:10456000301830183018F83FF83F1C700C600C60A1
:1045700006C006C0000000000000000000000000AF
:104580000000FC03FC0F0C0C0C180C180C180C0C85
:10459000FC07FC0F0C180C300C300C300C300C18D5
:1045A000FC1FFC07000000000000000000000000ED
:1045B0000000C007F01F38381C300C700660060081
:1045C0000600060006000600060006600C701C309F
:1045D000F01FE007000000000000000000000000E5
:1045E0000000FE03FE0F060E061806180630063001
:1045F0000630063006300630063006180618060E5D
:10460000FE0FFE030000000000000000000000009C
:104610000000FC3FFC3F0C000C000C000C000C00E8
:10462000FC1FFC1F0C000C000C000C000C000C000C
:10463000FC3FFC3F00000000000000000000000004
:104640000000F83FF83F1800180018001800180084
:10465000F81FF81F1800180018001800180018009C
:10466000180018000000000000000000000000001A
:104670000000E00FF83F3C780E6006E007C0030042
:10468000030003FE03FE03C007C006C00EC03CF0DB
:10469000F83FE00F000000000000000000000000F4
:1046A00000000C300C300C300C300C300C300C3066
:1046B000FC3FFC3F0C300C300C300C300C300C301C
:1046C0000C300C3000000000000000000000000072
:1046D0000000800180018001800180018001800153
:1046E00080018001800180018001800180018001C2
:1046F00080018001000000000000000000000000B8
:10470000000000060006000600060006000600067F
:104710000006000600060006000618061806380700
:10472000F003E001000000000000000000000000B5
:10473000000006300618060C060606038601C600B1
:1047400066007600DE008E0106030606060C0618DB
:1047500006300660000000000000000000000000BD
:1047600000001800180018001800180018001800A1
:104770001800180018001800180018001800180079
:10478000F81FF81F000000000000000000000000FB
:1047900000000EE01EF01EF01EF036D836D836D8D7
:1047A00036D866CC66CC66CCC6C6C6C6C6C6C6C635
:1047B00086C386C300000000000000000000000067
:1047C00000000C301C303C303C306C306C30CC3055
:1047D000CC308C310C330C330C360C360C3C0C3C8E
:1047E0000C380C3000000000000000000000000049
:1047F0000000E007F81F1C380E70066003C003C0FD
:1048000003C003C003C003C003C006600E701C38A1
:10481000F81FE0070000000000000000000000009A
:104820000000FC0FFC1F0C380C300C300C300C302E
:104830000C18FC1FFC070C000C000C000C000C00FA
:104840000C000C0000000000000000000000000050
:104850000000E007F81F1C380E70066003E003C07C
:1048600003C003C003C003C007E006630E3F1C3C47
:10487000F83FE0F700C0000000000000000000006A
:104880000000FE0FFE1F06380630063006300638E0
:10489000FE1FFE0706030606060C0618061806305D
:1048A000063006600000000000000000000000006C
:1048B0000000E003F80F1C0C0C180C180C001C0076
:1048C000F803E00F001E0038063006300E301C1CC6
:1048D000F80FE007000000000000000000000000EA
:1048E0000000FE7FFE7F8001800180018001800149
:1048F00080018001800180018001800180018001B0
:1049000080018001000000000000000000000000A5
:1049100000000C300C300C300C300C300C300C30F3
:104920000C300C300C300C300C300C300C301818B3
:10493000F81FE00700000000000000000000000079
:10494000000003600630063006300C180C180C18F6
:10495000180C180C380E3006300670076003600320
:10496000C001C001000000000000000000000000C5
:1049700000000360C361C361C3616633663366339D
:104980006633663366336C1B6C1B6C1B2C1A3C1E27
:10499000380E380E0000000000000000000000008B
:1049A00000000FE00C7018303018700C600EC0075B
:1049B00080038003C003E006700C301C18180C3014
:1049C0000E6007E000000000000000000000000092
:1049D000000003C006600C301C383818300C60062C
:1049E000E007C00380018001800180018001800117
:1049F00080018001000000000000000000000000B5
:104A00000000FC7FFC7F006000300018000C0006F6
:104A100000038001C0006000300018000C00060098
:104A2000FE7FFE7F0000000000000000000000008C
:104A30000000E003E00360006000600060006000D0
:104A40006000600060006000600060006000600066
:104A500060006000600060006000E003E0030000B0
:104A6000000030003000600060006000C000C00046
:104A7000C000C00180018001800100030003000329
:104A8000000600060000000000000000000000001A
:104A90000000E003E0030003000300030003000341
:104AA00000030003000300030003000300030003EE
:104AB00000030003000300030003E003E003000021
:104AC00000000000C001C001600360036003300605
:104AD0003006180C180C0000000000000000000058
:104AE00000000000000000000000000000000000C6
:104AF00000000000000000000000000000000000B6
:104B000000000000000000000000000000000000A5
:104B10000000FFFFFFFF0000000000000000000099
:104B200000000C000C000C000C000C000C0000003D
:104B30000000000000000000000000000000000075
:104B40000000000000000000000000000000000065
:104B5000000000000000000000000000F003F80763
:104B60001C0C0C0C000FF00FF80C0C0C0C0C1C0F98
:104B7000F80FF01800000000000000000000000026
:104B8000000018001800180018001800D803F80FCB
:104B9000380C181818181818181818181818380C6D
:104BA000F80FD80300000000000000000000000023
:104BB000000000000000000000000000C003F0073B
:104BC000300E180C1800180018001800180C300EC1
:104BD000F007C0030000000000000000000000001B
:104BE000000000180018001800180018C01BF01F63
:104BF000301C181818181818181818181818301CFD
:104C0000F01FC01B000000000000000000000000BA
:104C1000000000000000000000000000C003F00FD2
:104C2000300C1818F81FF81F180018003818301C1E
:104C3000F00FC007000000000000000000000000AE
:104C40000000800FC00FC000C000C000F007F007D8
:104C5000C000C000C000C000C000C000C000C00054
:104C6000C000C000000000000000000000000000C4
:104C7000000000000000000000000000E00DF80F40
:104C8000180E0C0C0C0C0C0C0C0C0C0C0C0C180E48
:104C9000F80FE00D000C0C0C1C06F807F0010000EA
:104CA000000018001800180018001800D807F80FA6
:104CB000381C181818181818181818181818181850
:104CC0001818181800000000000000000000000084
:104CD0000000C000C000000000000000C000C000D4
:104CE000C000C000C000C000C000C000C000C000C4
:104CF000C000C00000000000000000000000000034
:104D00000000C000C000000000000000C000C000A3
:104D1000C000C000C000C000C000C000C000C00093
:104D2000C000C000C000C000C000F8007800000053
:104D300000000C000C000C000C000C000C0C0C060D
:104D40000C038C01CC006C00FC009C018C030C0358
:104D50000C060C0C00000000000000000000000029
:104D60000000C000C000C000C000C000C000C00003
:104D7000C000C000C000C000C000C000C000C00033
:104D8000C000C000000000000000000000000000A3
:104D90000000000000000000000000007C3CFF7EDE
:104DA000C7E383C183C183C183C183C183C183C17D
:104DB00083C183C10000000000000000000000006B
:104DC0000000000000000000000000009807F80F3D
:104DD000381C18181818181818181818181818182F
:104DE0001818181800000000000000000000000063
:104DF000000000000000000000000000C003F00FF1
:104E0000300C181818181818181818181818300C0A
:104E1000F00FC003000000000000000000000000D0
:104E2000000000000000000000000000D803F80FA0
:104E3000380C181818181818181818181818380CCA
:104E4000F80FD80318001800180018001800000008
:104E5000000000000000000000000000C01BF01F68
:104E6000301C181818181818181818181818301C8A
:104E7000F01FC01B001800180018001800180000D0
:104E8000000000000000000000000000B007F00378
:104E90007000300030003000300030003000300052
:104EA00030003000000000000000000000000000A2
:104EB000000000000000000000000000E003F0031C
:104EC000380E180C3800F003C007000C180C380E10
:104ED000F007E003000000000000000000000000F8
:104EE000000000008000C000C000C000F007F00714
:104EF000C000C000C000C000C000C000C000C000B2
:104F0000C007800700000000000000000000000053
:104F10000000000000000000000000001818181831
:104F20001818181818181818181818181818381CDD
:104F3000F01FE01900000000000000000000000069
:104F40000000000000000000000000000C18180C19
:104F5000180C180C3006300630066003600360033E
:104F6000C001C001000000000000000000000000BF
:104F7000000000000000000000000000C141C1412D
:104F8000C3616363636363633636363636361C1C2F
:104F90001C1C1C1C000000000000000000000000A1
:104FA0000000000000000000000000001C38381C59
:104FB000300C600660036003600360036006300C21
:104FC000381C1C3800000000000000000000000039
:104FD0000000000000000000000000001830301841
:104FE00030187018600C600CE00CC006C00680031E
:104FF0008003800380018001C001F0007000000088
:10500000000000000000000000000000FC1FFC1F6A
:10501000000C000600038001C00060003000180092
:10502000FC1FFC1F0000000000000000000000004A
:10503000000000038001C000C000C000C000C0002C
:10504000C00060006000300060004000C000C00090
:10505000C000C000C000C0008001000300000000CC
:1050600000008001800180018001800180018001B9
:105070008001800180018001800180018001800128
:105080008001800180018001800180018001000099
:1050900000006000C000C00180018001800180012B
:1050A000800100030003000600030001800180016D
:1050B0008001800180018001C000600000000000CC
:1050C00000000000000000000000000000000000E0
:1050D000F010F81F080F00000000000000000000A2
:1050E00000000000000000000000000000000000C0
:1050F00010510008000000203C000000E0320008D1
:105100004C5100083C00002084400000F0320008B0
:105110000000000010000000010000000024F40066
:10512000000000000000000000000000000000007F
:10513000000000000000000000000000000000006F
:0C514000000000000000FFFF0000000065
:04000005080001D915
:00000001FF
