:020000040800F2
:1000000068410020F10100081D3B0008B5300008E0
:10001000193B0008F1080008D54600080000000060
:100020000000000000000000000000006D3F00081C
:10003000F508000800000000213B00086F3F0008A1
:100040000B0200080B0200080B0200080B0200085C
:100050000B0200080B0200080B0200080B0200084C
:100060000B0200080B0200080B0200080B0200083C
:100070000B0200080B0200080B0200080B0200082C
:100080000B020008000000000B0200080B02000831
:100090000B0200080B0200080B0200080B0200080C
:1000A0000B0200080B0200080B0200080B020008FC
:1000B0000B020008F53F00080B0200080B020008C5
:1000C0000B0200080B0200080B0200080B020008DC
:1000D0000B0200080B0200080B0200080B020008CC
:1000E0000B0200080B0200080B0200080B020008BC
:1000F0000B0200080B0200080B02000800000000C1
:10010000000000000B020008000000000B020008C5
:100110000B020008000000000B0200080B020008A0
:100120000B0200080B0200080B0200080B0200087B
:100130000B02000800000000000000000B02000895
:100140000B0200080B020008000000000000000085
:10015000000000000000000000000000000000009F
:100160000000000000000000000000000B0200087A
:100170000B0200080000000000000000000000006A
:10018000000000000B02000800000000000000005A
:10019000000000000000000000000000000000005F
:1001A00000000000000000000B0200080B02000825
:1001B0000B0200080B0200080B0200080000000000
:1001C000000000000B02000800000000000000001A
:1001D0000B0200080B020008DFF810D000F096FABE
:1001E000004800472D530008AFF30080684100200D
:1001F0000648804706480047FEE7FEE7FEE7FEE7C1
:10020000FEE7FEE7FEE7FEE7FEE7FEE7E13F000868
:10021000D9010008D2B201E000F8012B491EFBD23F
:1002200070470022F6E710B513460A460446194601
:10023000FFF7F0FF204610BD2DE9FE4F81EA0304D1
:1002400004F0004421F0004100944FF0000B23F033
:10025000004350EA01045ED052EA03045BD0C3F3CA
:100260000A54C1F30A552C44A4F2F3340194A0FBC0
:100270000254C1F3130141F48011C3F3130343F497
:10028000801301FB024400FB034E840A970A44EAF0
:10029000815447EA8357A4FB076802958D0A05FB42
:1002A00007854FEA932C04FB0C542705029D4FEA67
:1002B000065847EA1637B5EB08056EEB070C870EB4
:1002C000920E47EA811742EA8312A7FB0201B6EBBE
:1002D0000B0164EB00042B0D43EA0C335E1844EB76
:1002E0001C50DA465146E7FB0201C5F313044FEAFE
:1002F0000B3343EA14534FEA0432019C43EA0603EA
:10030000A4F10C040294009CCDE900B400F0D8F8EC
:1003100003B0BDE8F08F00200146F9E72DE9F04D6C
:1003200081EA030404F0004B21F0004514464FF02D
:10033000000A23F0004150EA050220D054EA0102ED
:100340001DD0C5F30A570246C5F31303C1F31300CA
:10035000C1F30A5640F4801543F48013A7EB060856
:10036000101BD64608F2FD3873EB050002D308F1E6
:10037000010801E092185B41B8F1000F03DA002098
:100380000146BDE8F08D00204FF4801106468446FA
:100390000EE0171B73EB050705D3121B63EB050378
:1003A00006434CEA010C49084FEA300092185B41C1
:1003B00050EA0107EDD152EA030012D082EA0400AC
:1003C00083EA0501084305D0101BAB4106D2012288
:1003D000002306E000224FF0004302E06FF001022C
:1003E00053101AEB06004CEB085110EB0A0041EBDE
:1003F0000B01BDE8F04D00F054B80EB540F23341AA
:1004000002910021CDE900110A460B4600F058F890
:1004100003B000BD30B50B46014600202022012468
:1004200009E021FA02F59D4205D303FA02F5491BC2
:1004300004FA02F52844151EA2F10102F1DC30BDD8
:100440002DE9F05F0546002092469B468846064609
:10045000814640241BE0284641464746224600F09C
:1004600076F953465A46C01A914110D311461846A0
:10047000224600F05DF92D1A67EB01084F4622462F
:100480000120002100F054F917EB00094E41201E15
:10049000A4F10104DFDC484631462A464346BDE864
:1004A000F09F10B5141E73F1000408DA401C41F1EE
:1004B000000192185B411A4301D120F0010010BDE8
:1004C0002DE9F04D92469B4611B1B1FA81F202E05E
:1004D000B0FA80F22032904600F02AF904460F4626
:1004E00040EA0A0041EA0B0153465A46084313D03A
:1004F000114653EA010019D0C8F14002504600F0FD
:1005000026F905460E4650465946424600F010F977
:10051000084305D0012004E020463946BDE8F08DAF
:100520000020054346EAE0762C4337430A986305EA
:10053000E40AA0EB08000022FD0A44EA47540A300E
:1005400002D500200146E9E7010510196941DDE9FE
:10055000084500196941BDE8F04DA2E72DE9FE4FBD
:10056000804681EA0300C00F0C46009021F0004154
:1005700023F00045B8EB0200A94105D240462146D0
:1005800090461C460B46024623F00040104347D0DD
:10059000270DC7F30A00C3F30A510290401A0190D5
:1005A00040286BDAC3F3130040F4801B0098924696
:1005B00020B10023D2EB030A63EB0B0B01985946E1
:1005C000C0F14002504600F0B3F806460D465046D2
:1005D0005946019A00F0CBF810EB08006141002465
:1005E00087EA115284EAE7731A4340D0009A62B353
:1005F000019A012A4FEA075215DC001B61EB020148
:100600004FF0004202EA0752CDE90042001C41F5DA
:10061000801132462B46FFF753FF03B0BDE8F08F41
:1006200040462146F9E7001B61EB0201001C41F541
:10063000801300185B412018A2F5001747EB030157
:1006400040EAD570B6196D4111E06D084FEA3606E3
:1006500045EAC0754FEA0752001B61EB0201001C1E
:1006600041F5801149084FEA3000001951413246E6
:100670002B4603B0BDE8F04FFFF713BF00980122EF
:1006800040000023D0EB020263EBE07300982146A8
:100690004FEAE074B8EB000061EB0401E9E783F096
:1006A00000435BE781F0004158E7C1F30A52C1F310
:1006B000130140F2FF3341F480119A4202DA002024
:1006C0000146704740F233439A42A2F2334202DCC1
:1006D000524200F03CB800F02BB8000030B5041EC8
:1006E00071F1000404DB4FF00044404264EB01016F
:1006F000141E73F1000405DB1C464FF00043524208
:1007000063EB0403994208BF904230BD064C074D8D
:1007100006E0E06840F0010394E8070098471034D1
:10072000AC42F6D3FFF75CFDC0650008E065000849
:10073000202A04DB203A00FA02F1002070479140A1
:10074000C2F1200320FA03F3194390407047202A96
:1007500004DB203A21FA02F00021704721FA02F36B
:10076000D040C2F120029140084319467047202A28
:1007700006DBCB17203A41FA02F043EAE07306E0C9
:1007800041FA02F3D040C2F12002914008431946D9
:100790007047000070B50446206802F0D4FF06469A
:1007A000206802F0D5FF98B396BB2068806800F0FF
:1007B0000D0001280AD1206881681A4A1140891C5D
:1007C000816000BF03202168086009E0E06D40F00F
:1007D0001000E065206E40F001002066012070BD31
:1007E00000F014FF054614E000F010FF401B022843
:1007F0000FD92068806800F0010050B1E06D40F032
:100800001000E065206E40F0010020660120E6E760
:1008100005E02068806800F001000028E4D1002095
:10082000DDE70000C0FFFF7F38B5044600200090E0
:10083000206802F08DFF00284FD120688068284989
:10084000084048B1E06D40F01000E065206E40F0D7
:1008500001002066012038BD206802F059FF00BF6A
:100860002048806800F0E07000F4000080B11E486D
:1008700000681E49B0FBF1F0401C00EB4000800016
:10088000009002E00098401E009000980028F9D1E6
:1008900000F0BCFE05461AE0206802F059FF10B9CE
:1008A000206802F035FF00F0B1FE401B02280ED98F
:1008B0002068006800F0010048B9E06D40F01000C9
:1008C000E065206E40F0010020660120C3E720684B
:1008D000006800F001000028DED00020BBE7000027
:1008E0003F000080000300500C000020400D03007A
:1008F00000BFFEE77047002109E0002201E0531C21
:100900009AB240F6B8339A42F9DB4B1C99B2814255
:10091000F3DB704772B600BFFEE70000F8B504468F
:100920000D460020009000BF94F85800012801D126
:100930000220F8BD012084F8580000BF2046FFF7D0
:1009400029FF06468EBBE06D20F4885040F002007F
:10095000E065206881681B4A114005F0804242F042
:1009600000421143816000BF13E00098401C0090DA
:100970001549009888420CD3E06D20F0020040F049
:100980001000E06500BF002084F8580000BF01207F
:10099000CFE720688168C90F0029E6D1E06D20F01B
:1009A000020040F00100E06504E0FFE7E06D40F088
:1009B0001000E06500BF002084F8580000BF3046FA
:1009C000B7E70000C0FFFF3F02DE04002DE9F0435F
:1009D0009BB004460E464FF00008306800B100BFDF
:1009E00000BF94F85800012803D102201BB0BDE8D5
:1009F000F083012084F8580000BF00201790189061
:100A00002068B0F1A04F02D13148009001E00020F1
:100A10000090009850B9E06D40F02000E06500BF04
:100A2000002084F8580000BF0120DFE7009802F0A2
:100A3000A3FE0746206802F09FFED8BBD7BB254D1A
:100A4000306800B394F83800716841EA4030A96812
:100A500021F460410843A8604FF0A04002F07DFE01
:100A600081461B4802F079FE49EA0009B9F1000FFE
:100A700027D1B16830680843A96840F61F729143D6
:100A80000843A8601DE0A86820F46040A8604FF00B
:100A9000A04002F062FE81460D4802F05EFE49EA87
:100AA0000009B9F1000F0CD1A86840F61F71884306
:100AB000A86006E0FFE7E06D40F02000E0654FF041
:100AC000010800BF002084F8580000BF40468DE7B1
:100AD00000010050000300502DE9F84F05460C4678
:100AE0004FF0000A00200090FE49E068884200D0E4
:100AF00000E000BF00BF95F85800012802D1022095
:100B0000BDE8F88F012085F8580000BF286802F082
:100B10002EFE00287DD12968D4E9002001F1300C97
:100B2000C0F3012B0CEB8B03D3F800C000F01F0EB9
:100B30004FF01F0B0BFA0EFB2CEA0B0C00F01F0BF7
:100B4000C2F3846E0EFA0BFE4CEA0E0CC3F800C022
:100B500000BF286802F00BFE8146286802F0EEFD17
:100B60008046B9F1000F64D1B8F1000FFBD1A06845
:100B7000B0F1004F0AD121680022286802F00AFE75
:100B80004FF00041286802F02AFE08E0A2682168C0
:100B9000286802F0FFFD0021286802F020FE60694D
:100BA0002968C968C1F3C101490000FA01F7206949
:100BB00004283FD028682268216900F1600C0CEB02
:100BC0008103D3F800C0DFF820B30CEA0B0C02F06D
:100BD000F84B4BF0004B4BEA070B4CEA0B0CC3F8FD
:100BE00000C000BF2868A269216900F1600C0CEB0D
:100BF0008103D3F800C02CF0807C4CEA020CC3F8CF
:100C000000C000BF2868227F2169012A02D1520654
:100C100001E0C6E10022134600F1600C0CEB8102FA
:100C2000D2F800C02CF0007C4CEA030CC2F800C0E3
:100C300000BFA7E00021286802F077FDC0F3120092
:100C400030B90021286802F070FDC0F3846007E02D
:100C50000021286802F069FD90FAA0F0B0FA80F057
:100C60002168C1F3120119B92168C1F3846104E05C
:100C7000216891FAA1F1B1FA81F1884204D10022F0
:100C80001146286802F0A0FD0121286802F04DFD00
:100C9000C0F3120030B90121286802F046FDC0F30C
:100CA000846007E00121286802F03FFD90FAA0F07F
:100CB000B0FA80F02168C1F3120119B92168C1F3BB
:100CC000846104E0216891FAA1F1B1FA81F18842CE
:100CD00004D100220121286802F076FD0221286853
:100CE00002F023FDC0F3120030B90221286802F09F
:100CF0001CFDC0F3846007E00221286802F015FDA6
:100D000090FAA0F0B0FA80F02168C1F3120119B98D
:100D10002168C1F3846104E0216891FAA1F1B1FA7C
:100D200081F1884204D100220221286802F04CFDA2
:100D30000321286802F0F9FCC0F3120030B9032146
:100D4000286802F0F2FCC0F3846007E00321286801
:100D500002F0EBFC90FAA0F0B0FA80F02168C1F349
:100D6000120119B92168C1F3846104E0216891FA84
:100D7000A1F1B1FA81F1884204D10022032128684F
:100D800002F022FD286802F0E3FC002872D12868F6
:100D9000E2682168D0F8B030C1F3120C23EA0C03EA
:100DA00002F0180BDFF844C12CFA0BFC0CEA010C22
:100DB00043EA0C03C0F8B03000BF4A49E0688842FB
:100DC00058D12368C3F312031BB92368C3F38463A8
:100DD00004E0236893FAA3F3B3FA83F35B1C03F0F4
:100DE0001F03092B3ED82368C3F312031BB92368E2
:100DF000C3F3846304E0236893FAA3F3B3FA83F3A1
:100E00005B1C03F01F034FF0010C0CFA03FC23687A
:100E1000C3F312031BB92368C3F3846304E023689C
:100E200093FAA3F3B3FA83F35B1C03F01F034CEABA
:100E3000836C2368C3F312031BB92368C3F3846371
:100E400004E0236893FAA3F3B3FA83F35B1C03F083
:100E50001F0303EB43034FF0000B4BEA03534CEA31
:100E6000030347E02368C3F3120323B92368C3F3E2
:100E7000846305E043E0236893FAA3F3B3FA83F3B2
:100E80005B1C03F01F034FF0010C0CFA03FC2368FA
:100E9000C3F312031BB92368C3F3846304E023681C
:100EA00093FAA3F3B3FA83F35B1C03F01F034CEA3A
:100EB000836C2368C3F312031BB92368C3F38463F1
:100EC00004E0236893FAA3F3B3FA83F35B1C03F003
:100ED0001F030A3B03EB43034FF0007B4BEA035332
:100EE00006E0000000007F4000F0FF03FFFF070066
:100EF0004CEA03031946A268286802F04BFC2F490C
:100F00002068084050B300BF2D48806800F0E076AC
:100F100000BF2C492068884203D02B4920688842B2
:100F20001DD106F40000D0B92868B0F1A04F3ED121
:100F300046F40001224802F041FC2448006824499C
:100F4000B0FBF1F0401C00EB40008000009002E09C
:100F50000098401E009000980028F9D127E01D4914
:100F6000206888420CD106F0807048B91A49286878
:100F700088421CD046F08071114802F01FFC16E038
:100F800016492068884212D106F4800078B91249C7
:100F9000286888420BD046F48001094802F00EFC14
:100FA00005E0E86D40F02000E8654FF0010A00BF61
:100FB000002085F8580000BF5046A1E500000880D9
:100FC00000030050000021C31000C0900C0000205E
:100FD000400D0300000052C700010050000084CB08
:100FE00001460868006C70472DE9F84304464FF04D
:100FF00000080020009014B90120BDE8F883606962
:1010000020B194F82400012800D100BFE06D30B970
:10101000204600F017F90020206684F85800206868
:101020008168C1F3407131B1206881687E4A114006
:10103000816000BF00BF206802F094FBB0B9206857
:1010400081687A4A114041F08051816000BF784840
:1010500000687849B0FBF1F0401C4000009002E0CD
:101060000098401E009000980028F9D1206802F0F6
:1010700079FB48B9E06D40F01000E065206E40F06B
:10108000010020664FF00108206802F070FB064660
:10109000E06D00F01000002877D1002EFCD1E06D4B
:1010A00020F4807040F00200E065206802F050FB00
:1010B000B0B94FF0A04002F04BFB81465E4802F011
:1010C00047FB49EA0009B9F1000F09D160685B49A3
:1010D000896821F47C110143584A916000BF00BF28
:1010E000607FE16B41EA4030E1680843A168084352
:1010F00094F8241040EA014594F82400012803D113
:10110000208D401E45EA4045E06A28B1A08D00F4DC
:101110007870216B084305432068C068484908403F
:1011200028432168C8602068006920F04060616B36
:10113000084321680861206802F000FB0746002E82
:1011400050D1EFBB207F002141EA803194F8380074
:1011500041EA40052068C06844F202018843284300
:101160002168C860206988B12068006940F4803037
:10117000216808612068D0F8C0006FF30D00216974
:1011800008432168C1F8C0000EE045E0206800690E
:1011900020F48030216808612068D0F8C0006FF327
:1011A0000D002168C1F8C00094F84000012813D157
:1011B000606C40F00101A06C0843E16C084300E062
:1011C00010E0216D08432168096940F2FC729143E7
:1011D00008432168086105E02068006920F00100EB
:1011E000216808616069012809D12068006B20F03E
:1011F0000F00216A491E08432168086305E0206842
:10120000006B20F00F0021680863E06D20F0020001
:1012100040F00100E06505E0E06D40F01000E065A1
:101220004FF001084046E8E6C0FFFF5FC0FFFF7FC8
:101230000C000020400D030000010050000300508E
:101240000740F0FF10B598B00446142113A8FEF72C
:10125000E8FF442102A8FEF7E4FF2068B0F1A04FA8
:1012600030D14FF4004002908003119002A800F0AA
:1012700039FB08B1FFF74EFB00BF1348C06C40F4C8
:1012800000501149C8640846C06C00F40050019039
:1012900000BF00BF00BF0846C06C40F00200C86439
:1012A0000846C06C00F00200019000BF00BF4FF480
:1012B000A0401390032014900020159013A9034818
:1012C00000F0A8F818B010BD00100240000400485B
:1012D0002DE9F0410446434802F022FA0646206810
:1012E00002F045FA00287AD100BF94F8580001288E
:1012F00002D10220BDE8F081012084F8580000BF2F
:101300002046FFF791FA0546002D63D1E06D40F6C7
:101310000161884340F48070E06533492068884269
:1013200002D14FF0A04000E020682168884200D040
:101330001EB9E06D20F48010E065E06D00F480508F
:10134000B0F5805F04D1206E20F00600206601E039
:10135000002020661C202168086000BF002084F85F
:10136000580000BF20492068884202D14FF0A040B9
:1013700000E020682168884204D01EB1052E01D00B
:10138000092E0ED12068C06800F0007028B1E06D11
:1013900020F4005040F48050E065206802F0F2F93B
:1013A0001EE0E06D40F48010E0650F49206888423F
:1013B00002D14FF0A04000E020680746F86800F036
:1013C000007068B1E06D20F4005040F48050E0659A
:1013D00006E004E000BF002084F8580000E0022589
:1013E000284687E7000300500001005070B504460E
:1013F00000F00CF906462546681C10B10448006848
:10140000054400BF00F002F9801BA842FAD370BD6A
:101410000800002078B503460022D2E0012696405D
:101420000D6805EA0604002C7BD00D7905F0030554
:10143000012D04D00D7905F00305022D13D1986814
:1014400056000325B540A8435600CD68B540284353
:101450009860586801259540A8430D79C5F300159B
:101460009540284358600D7905F00305032D07D1F9
:101470000D7905F00305032D0CD18D68012D09D0E0
:10148000D86856000325B540A84356008D68B5407E
:101490002843D8600D7905F00305022D13D1D60835
:1014A00003F1200555F826005507EE0E0F25B5402F
:1014B000A8435607F60E0D69B5402843D60803F138
:1014C000200545F82600186856000325B540A843B6
:1014D0000D7905F003055600B540284318604D68A6
:1014E00005F44035002D6BD000BF394D2D6E45F011
:1014F0000105374E356635462D6E05F00105009520
:1015000000BF00BF4FEAB635960855F8260095078C
:101510002E0F0F25B540A843B3F1904F02D10025FF
:101520001AE04DE02B4DAB4201D1012514E02A4DCC
:10153000AB4201D102250FE0284DAB4201D103257A
:101540000AE0274DAB4201D1042505E0254DAB4211
:1015500001D1052500E006259607360FB540284342
:10156000214D960845F82600204D2868A0434D6877
:1015700005F4801505B120431C4D28602D1D2868F9
:10158000A0434D6805F4001505B12043174D2D1DEE
:101590002860164D2D1F2868A0434D6805F40035BE
:1015A00005B12043114D2D1F28602D1F2868A04331
:1015B0004D6805F4803505B120430C4D083D286089
:1015C000521C0D68D540002D7FF428AF78BD000077
:1015D000001002400004004800080048000C0048C9
:1015E00000100048001400480800014008040140B1
:1015F000024613690B400BB1012000E00020704748
:101600000AB1816100E08162704700000148006812
:101610007047000000000020034800680349096883
:1016200008440149086070470000002008000020BD
:1016300010B50024032000F0ABF80F2000F008F8EC
:1016400008B1012401E000F02FF8204610BD000091
:1016500070B50446002511480068D8B10F480068ED
:101660004FF47A71B1FBF0F00D490968B1FBF0F667
:10167000304600F0FBFE58B9102C07D2002221465C
:10168000501E00F047F80748046004E0012502E01E
:10169000012500E00125284670BD0000080000205B
:1016A0000C0000200400002008B500BF0E48006EAA
:1016B00040F001000C4908660846006E00F0010089
:1016C000009000BF00BF00BF0846806D40F0805012
:1016D00088650846806D00F08050009000BF00BF14
:1016E00000F0F6F808BD0000001002400146084670
:1016F00000280DDB00BF00BF00F01F0301229A404D
:1017000043099B0003F1E023C3F8002100BF00BFA1
:1017100000BF70472DE9F05F80460D46164602F087
:10172000EFFF074639462A46334601F00700C0F16D
:10173000070ABAF1040F02D94FF0040A01E0C0F120
:10174000070AD14600F1040ABAF1070F02D24FF09E
:10175000000A01E0A0F1030AD4464FF0010A0AFA98
:1017600009FAAAF1010A0AEA020A0AFA0CFA4FF087
:10177000010B0BFA0CFBABF1010B0BEA030B4AEA72
:101780000B042146404602F0C3FFBDE8F09F000075
:1017900000BF00F00702064B19684FF6FF0319401F
:1017A000044B0B4343EA0221014B196000BF704711
:1017B0000CED00E00000FA0502468ABB41480068D3
:1017C00000F4C060B0F5806F2BD13E4880300068D7
:1017D00020F480703B4BC3F880001846006820F46A
:1017E000C06040F4007018603748006832235843E6
:1017F000364BB0FBF3F0411C00E0491E3148406914
:1018000000F48060B0F5806F01D10029F5D12D483A
:10181000406900F48060B0F5806F51D103207047BB
:1018200008E028488030006820F48070254BC3F819
:10183000800045E0B2F5007F3AD12248006800F40C
:10184000C060B0F5806F2AD11E488030006840F437
:1018500080701C4BC3F880001846006820F4C060FC
:1018600040F4007018601848006832235843174B42
:10187000B0FBF3F0411C00E0491E1248406900F43F
:101880008060B0F5806F01D10029F5D10D48406925
:1018900000F48060B0F5806F12D10320BFE70948E3
:1018A0008030006840F48070064BC3F8800007E089
:1018B0000448006820F4C06040F48060014B186068
:1018C0000020ACE7007000400C00002040420F00F8
:1018D0000348806840F480400149886070470000F8
:1018E000007000402DE9F84304460027B846206800
:1018F00000F40020B0F5002F73D1B946D348806DB5
:1019000000F0805078B900BFD048806D40F0805022
:10191000CE4988650846806D00F08050009000BF79
:1019200000BF4FF00109CA48006840F48070C84900
:101930000860FFF76BFE064606E0FFF767FE801BB8
:10194000022801D9032705E0C148006800F480702F
:101950000028F2D000BF002F46D1BC48903000686C
:1019600000F44075CDB1206CA84216D0B748903035
:10197000006820F44075B548D0F8900040F48030FD
:10198000B249C1F890000846D0F8900020F48030A9
:10199000C1F890000846C0F8905005F00100A0B1D1
:1019A000FFF734FE064608E0FFF730FE801B41F2E9
:1019B0008831884201D9032706E0A44890300068A6
:1019C00000F002000028EFD000BF5FB99F489030C0
:1019D000006820F44070216C08439C49C1F89000D5
:1019E00003E00CE0B84600E0B846B9F1010F05D1BC
:1019F0009648806D20F080509449886500BF20781B
:101A000000F0010048B191488830006820F00300E0
:101A1000616808438D49C1F88800207800F0020011
:101A2000022809D189488830006820F00C00A1689C
:101A300008438649C1F88800207800F00400042893
:101A400009D182488830006820F03000E1680843FE
:101A50007E49C1F88800207800F00800082809D1E4
:101A60007A488830006820F0C0002169084377492F
:101A7000C1F88800207800F02000202809D17348A0
:101A80008830006820F44060616908436F49C1F8FC
:101A90008800207800F04000402809D16B48883049
:101AA000006820F44050A16908436849C1F88800E3
:101AB000207800F08000802809D1644888300068D0
:101AC00020F44040E16908436049C1F8880020885B
:101AD00000F48070B0F5807F09D15C4888300068E0
:101AE00020F44030216A08435849C1F88800208812
:101AF00000F40070B0F5007F09D1544888300068C8
:101B000020F44020616A08435049C1F888002088C9
:101B100000F48060B0F5806F13D14C4888300068C5
:101B200020F44010A16A0843484988310860A06A3F
:101B3000B0F5801F05D14548C06840F48010434986
:101B4000C860208800F40060B0F5006F13D13F48F2
:101B50008830006820F44000E16A08433B4988313E
:101B60000860E06AB0F5800F05D13848C06840F4DD
:101B700080103649C860208800F48050B0F5805F3E
:101B800013D132488830006820F04070216B084340
:101B90002E4988310860206BB0F1807F05D12B4839
:101BA000C06840F480102949C860208800F40050C3
:101BB000B0F5005F13D125488830006820F0406000
:101BC000616B0843214988310860606BB0F1006F98
:101BD00005D11E48C06840F480101C49C8602088A8
:101BE00000F48040B0F5804F13D118488830006869
:101BF00020F04060A16B0843144988310860A06B55
:101C0000B0F1006F05D11148C06840F480100F4951
:101C1000C860208800F40040B0F5004F13D10B4895
:101C20008830006820F04050E16B08430749883154
:101C30000860E06BB0F1805F05D10448C06840F4F3
:101C400080300249C8604046BDE8F8830010024079
:101C5000007000402DE9F04104460D464FF00008A9
:101C600014B90120BDE8F0817D48006800F00F0044
:101C7000A8420ED27A48006820F00F002843784925
:101C800008600846006800F00F00A84201D001205B
:101C9000E8E7207800F00100002864D0606803289D
:101CA00023D17048006800F0007008B90120D9E71E
:101CB00001F038FF06466C48864237D9694880688B
:101CC00000F0F00030B1207800F0020002282DD1A1
:101CD000A06858BB6348806820F0F00040F08000A6
:101CE000604988604FF0800820E06068022806D1D3
:101CF0005C48006800F4003040B90120B2E7594860
:101D0000006800F4806008B90120ABE700F0B4F887
:101D100006465548864209D95248806820F0F000AE
:101D200040F080004F4988604FF080084D4880683F
:101D300020F00300616808434A498860FFF766FCA9
:101D4000074608E0FFF762FCC01B41F28831884279
:101D500001D9032086E74348806800F00C006168E1
:101D6000B0EB810FEED1207800F00200022820D1E4
:101D7000207800F00400042805D13A48806840F437
:101D8000E06038498860207800F00800082807D112
:101D90003448806820F4605040F4E0603149886045
:101DA0003048806820F0F000A16808432D49886021
:101DB00008E0B8F1800F05D12A48806820F0F000D3
:101DC000284988602648006800F00F00A84219D909
:101DD0002348006820F00F00284321490860FFF7DE
:101DE00015FC074608E0FFF711FCC01B41F28831E3
:101DF000884201D9032035E71948006800F00F0038
:101E0000A842F0D1207800F00400042807D115483A
:101E1000806820F4E060E168084312498860207817
:101E200000F00800082808D10E48806820F46050AF
:101E3000216940EAC1000B49886000F01DF809499A
:101E40008968C1F30311094A515C01F01F01C840C0
:101E50000749086007480068FFF7FAFB02E700003F
:101E6000002002400010024000B4C404D85300080F
:101E70000C0000200400002070B5224DAD6805F074
:101E80000C05042D01D120483AE01E4DAD6805F047
:101E90000C05082D01D11D4832E01A4DAD6805F042
:101EA0000C050C2D2BD1174DED6805F00304154DD5
:101EB000ED68C5F303156A1C022C0CD0032C09D164
:101EC000124DB5FBF2F50F4EF668C6F3062605FB7C
:101ED00006F10AE000BF0C4DB5FBF2F5094EF668BD
:101EE000C6F3062605FB06F100BF00BF054DED68F1
:101EF000C5F341656D1C6B00B1FBF3F000E0002001
:101F000070BD0000001002400024F40000366E0195
:101F10002DE9F843044614B90120BDE8F883207880
:101F200000F00100002865D0FC48806800F00C0734
:101F3000FA48C06800F003060C2F01D1032E01D02F
:101F4000082F0AD1F548006800F40030002851D06D
:101F5000606800284ED10120DFE700BF6068B0F55F
:101F6000803F06D1ED48006840F48030EB490860BE
:101F70001AE06068B0F5A02F0BD1E848006840F483
:101F80008020E64908600846006840F48030086018
:101F90000AE0E248006820F48030E0490860084622
:101FA000006820F48020086000BF606888B1FFF7F7
:101FB0002DFB054606E0FFF729FB401B642801D9ED
:101FC0000320AAE7D548006800F400300028F2D0CA
:101FD00010E0FFF71BFB054606E0FFF717FB401B71
:101FE000642801D9032098E7CC48006800F4003049
:101FF0000028F2D1207800F00200022860D1C74802
:10200000806800F00C07C548C06800F003060C2F7C
:1020100001D1022E01D0042F18D1C048006800F46D
:10202000806018B1E06808B9012076E7BB484068D5
:1020300020F0FE40217C40EA0160B8494860B84881
:102040000068FFF705FB18B3012066E7E06800B3FE
:10205000B248006840F48070B0490860FFF7D6FAD3
:10206000054606E0FFF7D2FA401B022801D90320FB
:1020700053E7AA48006800F480600028F2D0A7481F
:10208000406820F0FE40217C40EA0160A34948609E
:1020900016E0A248006820F48070A0490860FFF7AD
:1020A000B5FA054606E0FFF7B1FA401B022801D950
:1020B000032032E79948006800F480600028F2D1DC
:1020C000207800F00800082836D16069D0B1934824
:1020D0009430006840F001009049C1F89400FFF787
:1020E00095FA054606E0FFF791FA401B022801D950
:1020F000032012E789489430006800F002000028AD
:10210000F1D019E085489430006820F0010083493F
:10211000C1F89400FFF77AFA054606E0FFF776FA71
:10212000401B022801D90320F7E67C489430006860
:1021300000F002000028F1D1207800F0040004280B
:1021400072D14FF000087548806D012121EA1070AE
:1021500078B100BF7148806D40F080506F4988654C
:102160000846806D00F08050009000BF00BF4FF027
:1021700001086C48006800F48070B0B969480068D4
:1021800040F4807067490860FFF740FA054606E0B2
:10219000FFF73CFA401B022801D90320BDE6614845
:1021A000006800F480700028F2D000BFA068012809
:1021B00008D15A489030006840F001005749C1F8F2
:1021C000900021E0A06805280FD1544890300068A5
:1021D00040F004005149C1F890000846D0F8900042
:1021E00040F00100C1F890000EE04C4890300068CB
:1021F00020F001004949C1F890000846D0F890004D
:1022000020F00400C1F8900000BFA068A8B1FFF75B
:10221000FDF9054609E0FFF7F9F9401B41F2883165
:10222000884202D9032078E625E03C4890300068D7
:1022300000F002000028EED013E0FFF7E7F90546B2
:1022400008E0FFF7E3F9401B41F28831884201D9E9
:10225000032062E631489030006800F00200002858
:10226000EFD1B8F1010F05D12C48806D20F08050DE
:102270002A49886500BF207800F02000202836D148
:10228000A069D0B125489830006840F0010023498A
:10229000C1F89800FFF7BAF9054606E0FFF7B6F96E
:1022A000401B022801D9032037E61C4898300068FB
:1022B00000F002000028F1D019E0184898300068BA
:1022C00020F001001549C1F89800FFF79FF9054675
:1022D00006E0FFF79BF9401B022801D903201CE60A
:1022E0000E489830006800F002000028F1D1E06943
:1022F000002860D00948806800F00C000C287AD0D3
:10230000E069022858D10548006820F08070034930
:102310000860FFF77BF905460DE000000010024061
:102320000400002000700040FFF770F9401B0228F5
:1023300001D90320F1E54A48006800F00070002848
:10234000F2D1D4E90810401E41EA0011A06A41EA26
:102350000021208E0122C2EB500041EA405134207E
:10236000005DC2EB500041EA40612C20005D41EA73
:10237000C0603B49C9683B4A114008433849C860BE
:102380000846006840F0807008600846C06840F069
:102390008070C860FFF73AF9054606E0FFF736F9A6
:1023A000401B022801D90320B7E52D48006800F042
:1023B00000700028F2D051E02948006820F08070B9
:1023C00027490860FFF722F9054606E0FFF71EF9E6
:1023D000401B022801D903209FE52148006800F036
:1023E00000700028F2D11E48C0681F4908401C49EF
:1023F000C86033E0FFE7E069012800D18DE51848A7
:10240000C66806F00301206A814225D106F0F0017A
:10241000606A401EB1EB001F1ED106F4FE41A06AA7
:10242000B1EB002F18D106F078412C20005DB1EB04
:10243000C06F11D106F4C001208E0122C2EB500002
:10244000B1EB405F08D106F0C0613420005DC2EB03
:102450005000B1EB406F01D001205EE500205CE54B
:10246000001002400C809F01FCFFEEFE70B5044698
:102470002546681EB0F1807F01D301200FE0681E61
:102480004FF0E02148610F214FF0FF3002F040F99A
:1024900000204FF0E021886107200861002070BD16
:1024A000704770477047000010B50346002200BF18
:1024B00093F83C00012801D1022010BD012083F8CF
:1024C0003C0000BF22F0FF00CC6840EA040222F486
:1024D00040708C6840EA040222F480604C6840EA54
:1024E000040222F400600C6840EA040222F48050E6
:1024F0000C6940EA040222F400504C6940EA0402EC
:1025000022F480400C6B40EA040222F470200C8B11
:1025100040EA044222F08050CC6940EA0402124CA6
:102520001868A04203D0114C1868A04213D122F4BD
:1025300070000C8D40EA045222F080700C6A40EA70
:10254000040222F000704C6A40EA040222F00050BB
:10255000CC6A40EA04021868426400BF002083F895
:102560003C0000BF00BFA8E7002C01400034014040
:10257000704770477047000030B502460B4600BFF9
:1025800092F83C00012801D1022030BD012082F8E0
:102590003C0000BF022082F83D00106841681068CE
:1025A00084681D4D1068A84203D01C4D1068A842D5
:1025B00003D121F47001586801431948014018689B
:1025C000014310684160144D1068A84213D0106890
:1025D000B0F1804F0FD0134D1068A8420BD0124DB0
:1025E0001068A84207D00D4D1068A84203D00F4DC7
:1025F0001068A84205D124F080049868044310684C
:102600008460012082F83D0000BF002082F83C0079
:1026100000BF00BFB9E70000002C014000340140BA
:102620008FFFFFFD00040040000800400040014013
:1026300070470000324A016891425FD1017F012951
:102640002CD13049097841B92D49343109682E4AD5
:10265000118001212B4A117020E0294A343212687E
:10266000294B5A801A4652881B889A4205DD264A11
:102670005288254B1B88D21A06E0234A1288C2F5DD
:102680008032214B5B881A4491B2204A92FBF1F2CE
:102690001F4B1A8000221B4B1A7000BF017F0229BA
:1026A0002CD11C49097841B91549383109681A4AB1
:1026B00011800121174A117020E0114A3832126846
:1026C000154B5A801A4652881B889A4205DD124AD9
:1026D0005288114B1B88D21A06E00F4A1288C2F5A5
:1026E00080320D4B5B881A4491B2084A92FBF1F29A
:1026F0000A4B1A800022074B1A7000BF7047000077
:10270000000400402C0000202E00002040420F005A
:10271000280000202D000020320000202A00002088
:102720002DE9F04104460D461646002700BF94F8F7
:102730003C00012802D10220BDE8F081012084F88C
:102740003C0000BF96B9EB68D5E90012206801F0A3
:10275000A9FE2068806920F00C002168886120684B
:102760008069A96808432168886141E0042E13D17B
:10277000EB68D5E90012206801F0EEFE2068806960
:1027800020F440602168886120688069A96840EA77
:102790000120216888612BE0082E12D1EB68D5E971
:1027A0000012206801F018FF2068C06920F00C00BA
:1027B0002168C8612068C069A96808432168C861A8
:1027C00016E00C2E13D1EB68D5E90012206801F059
:1027D00041FF2068C06920F440602168C86120681A
:1027E000C069A96840EA01202168C86100E00127AA
:1027F00000BF002084F83C0000BF38469CE710B5BD
:1028000004460CB9012010BD94F83D0028B9002001
:1028100084F83C00204600F029F8022084F83D00AE
:10282000211D206801F0EEFB012084F8480000BF64
:1028300084F83E0001213F200155402001554120F0
:102840000155422001554320015500BF00BF012022
:1028500084F8440045200155462001554720015584
:1028600000BF012084F83D000020CCE710B586B001
:102870000446142101A8FDF7D4FC284920688842A9
:102880004AD100BF2648806D40F002002449886587
:102890000846806D00F00200009000BF00BF00BF3E
:1028A0000846C06C40F00100C8640846C06C00F0E7
:1028B0000100009000BF00BF00BF0846C06C40F0A0
:1028C0000200C8640846C06C00F00200009000BF1F
:1028D00000BF80200190022002900020039004900D
:1028E0000220059001A94FF09040FEF793FD1020C3
:1028F0000190022002900020039004900220059095
:1029000001A90848FEF786FD002211461D20FEF7AA
:1029100001FF1D20FEF7EAFE06B010BD00040040D6
:1029200000100240000400482DE9F04304460D4623
:10293000002715B994F83E0015E0042D02D13F2080
:10294000005D10E0082D02D14020005D0BE00C2D51
:1029500002D14120005D06E0102D02D14220005D31
:1029600001E04320005D804615B994F844000BE077
:10297000042D02D14520005D06E0082D02D146203D
:10298000005D01E04720005D8146B8F1010F02D1F2
:10299000B9F1010F02D00120BDE8F0831DB902207A
:1029A00084F83E001AE0042D03D102213F20015596
:1029B00014E0082D03D10221402001550EE00C2D1A
:1029C00003D102214120015508E0102D03D102213D
:1029D0004220015502E00221432001551DB9022089
:1029E00084F844000EE0042D03D102214520015556
:1029F00008E0082D03D102214620015502E0022102
:102A00004720015535B1042D0BD0082D10D00C2DC9
:102A10001CD114E02068C06840F002002168C86042
:102A200016E02068C06840F004002168C8600FE02C
:102A30002068C06840F008002168C86008E020688D
:102A4000C06840F010002168C86001E0012700BFA5
:102A500000BF67BB01222946206801F035FB1849F9
:102A60002068884213D02068B0F1804F0FD01549FC
:102A7000206888420BD014492068884207D0134947
:102A80002068884203D012492068884210D120680B
:102A90008068104900EA0106062E0FD0B6F5803F87
:102AA0000CD02068006840F001002168086005E053
:102AB0002068006840F001002168086038466BE734
:102AC000002C014000040040000800400034014098
:102AD000004001400700010070B504462068C66848
:102AE0002068056905F00200022819D106F00200ED
:102AF000022815D1401F2168086101202077206835
:102B0000806900F0030018B12046FFF793FD05E04F
:102B1000204600F01DF9204600F022FA0020207720
:102B200005F00400042819D106F00400042815D18A
:102B3000C04321680861022020772068806900F482
:102B4000407018B12046FFF775FD05E0204600F003
:102B5000FFF8204600F004FA0020207705F0080076
:102B6000082819D106F00800082815D1C0432168AB
:102B70000861042020772068C06900F0030018B1C4
:102B80002046FFF757FD05E0204600F0E1F820461B
:102B900000F0E6F90020207705F01000102819D188
:102BA00006F01000102815D1C043216808610820E4
:102BB00020772068C06900F4407018B12046FFF704
:102BC00039FD05E0204600F0C3F8204600F0C8F9C2
:102BD0000020207705F0010048B106F0010030B177
:102BE0006FF0010021680861204600F061FA05F0ED
:102BF0008000802804D005F40050B0F5005F0AD1B1
:102C000006F08000802806D16FF402502168086128
:102C10002046FFF746FC05F48070B0F5807F0AD1AE
:102C200006F08000802806D16FF48070216808616A
:102C30002046FFF735FC05F04000402809D106F09A
:102C40004000402805D1C04321680861204600F0BB
:102C500030FA05F02000202809D106F020002028B5
:102C600005D1C043216808612046FFF71BFC05F42D
:102C70008010B0F5801F0BD106F48010B0F5801FD6
:102C800006D16FF48010216808612046FFF771FCBF
:102C900005F40010B0F5001F0BD106F40010B0F5DC
:102CA000001F06D16FF40010216808612046FFF76D
:102CB0005FFC05F48000B0F5800F0BD106F48000B6
:102CC000B0F5800F06D16FF48000216808612046BE
:102CD000FFF750FC05F40000B0F5000F0BD106F42F
:102CE0000000B0F5000F06D16FF400002168086104
:102CF0002046FFF79DFC70BD10B586B00446142138
:102D000001A8FDF78EFA1049206888421AD100BF49
:102D10000E48C06C40F001000C49C8640846C06C05
:102D200000F00100009000BF00BF082001900220C9
:102D300002900020039004900920059001A9C0068C
:102D4000FEF768FB06B010BD0040014000100240D5
:102D500070472DE9F04104460D461646002700BF96
:102D600094F83C00012802D10220BDE8F081012046
:102D700084F83C0000BF0C2E51D005DC4EB1042E6F
:102D80001ED0082E7AD133E0102E60D0142EF9D147
:102D900075E02946206801F0A9F92068806940F0B3
:102DA0000800216888612068806920F0040021689B
:102DB000886120688069296908432168886178E012
:102DC0002946206801F0EAF92068806940F4006033
:102DD000216888612068806920F4806021688861AA
:102DE00020688069296940EA01202168886160E0E3
:102DF0002946206801F02EFA2068C06940F00800DA
:102E00002168C8612068C06920F004002168C86199
:102E10002068C069296908432168C86149E02946DA
:102E2000206801F073FA2068C06940F400602168EE
:102E3000C8612068C06920F480602168C86120688A
:102E4000C069296940EA01202168C86131E029464A
:102E5000206801F0B7FA2068006D40F00800216892
:102E600008652068006D20F004002168086520686E
:102E7000006D29690843216808651AE017E02946B2
:102E8000206801F0D7FA2068006D40F400602168E6
:102E900008652068006D20F480602168086520685E
:102EA000006D296940EA01202168086501E00127D9
:102EB00000BF00BF00BF002084F83C0000BF3846C0
:102EC00053E710B504460CB9012010BD94F83D003D
:102ED00028B9002084F83C00204600F029F80220A0
:102EE00084F83D00211D206801F08CF8012084F851
:102EF000480000BF84F83E0001213F2001554020DA
:102F0000015541200155422001554320015500BF84
:102F100000BF012084F8440045200155462001559A
:102F20004720015500BF012084F83D000020CCE778
:102F300008B5094A016891420DD100BF0749096EE1
:102F400041F48031054A11661146096E01F4803161
:102F5000009100BF00BF08BD0040014000100240CA
:102F60007047000070B504460D4615B994F83E0050
:102F700015E0042D02D13F20005D10E0082D02D1A4
:102F80004020005D0BE00C2D02D14120005D06E0E9
:102F9000102D02D14220005D01E04320005D012898
:102FA00001D0012070BD1DB9022084F83E001AE056
:102FB000042D03D102213F20015514E0082D03D137
:102FC0000221402001550EE00C2D03D102214120A9
:102FD000015508E0102D03D102214220015502E0E5
:102FE00002214320015501222946206801F06CF896
:102FF0002749206888420FD02649206888420BD094
:1030000025492068884207D024492068884203D097
:1030100023492068884201D1012000E0002028B126
:103020002068406C40F400402168486418492068DA
:10303000884213D02068B0F1804F0FD01949206822
:1030400088420BD018492068884207D0114920686F
:10305000884203D010492068884210D120688068D7
:10306000124900EA0106062E0FD0B6F5803F0CD0BB
:103070002068006840F001002168086005E02068D1
:10308000006840F001002168086000208AE7000025
:10309000002C014000340140004001400044014048
:1030A0000048014000040040000800400700010003
:1030B0007047704700BFFEE700B585B01421684631
:1030C000FDF7AFF8C020009001200190029002208F
:1030D000039069460248FEF79DF905B000BD000067
:1030E0000004004870B50825002400F0FFFE13E03E
:1030F0006006040E002000F0D9FE142001F0C2FF8B
:10310000142001F0BFFF012000F0D0FE142001F0D8
:10311000B9FF00F0DFFE0443281EA5F10101CDB286
:10312000E6D100F0C3FE142001F0ACFF00F008FF70
:10313000204670BD70B50446082517E0002000F059
:10314000B5FE142001F09EFF04F0800000F0E4FEC4
:10315000142001F097FF6006040E142001F092FF86
:10316000012000F0A3FE142001F08CFF281EA5F121
:103170000101CDB2E2D100F099FE142001F082FFEE
:1031800070BD10B5012000F0C7FE142001F07AFFD9
:10319000142001F077FF012000F088FE142001F0D8
:1031A00071FF002000F082FE142001F06BFF10BDC3
:1031B00010B5012000F0B0FE142001F063FF0120E3
:1031C00000F074FE142001F05DFF002000F0A4FE6A
:1031D000142001F057FF002000F068FE142001F0D9
:1031E00051FF10BD10B5002000F060FE142001F06A
:1031F00049FF002000F090FE142001F043FF012061
:1032000000F054FE142001F03DFF012000F084FE88
:10321000142001F037FF10BD10B5052400F066FE44
:10322000142001F02FFF012000F040FE142001F0D7
:1032300029FF0BE0601E84B2142001F023FF2CB99B
:1032400000F07EFEFFF7CEFF012010BD00F042FE31
:103250000028EFD100F02AFE00F072FE142001F0E9
:1032600011FF0020F1E7000000B585B01421684689
:10327000FCF7D7FF4FF6FF7000900020019003206D
:1032800003900020029069460248FEF7C3F805B09B
:1032900000BD00000008004800B585B01421684654
:1032A000FCF7BFFF4FF6FF70009001200190032054
:1032B00003900020029069460248FEF7ABF805B083
:1032C00000BD00000008004830B50546002400217C
:1032D000084600F049F900F097F900BF03E02846DE
:1032E00000F056F9641CB4F5963FF8D330BD0000E9
:1032F00000B587B0142102A8FCF793FF00BF2B484C
:10330000C06C40F004002949C8640846C06C00F055
:103310000400019000BF00BF00BF0846C06C40F031
:103320000100C8640846C06C00F00100019000BFB5
:1033300000BF00BF0846C06C40F00200C8640846E9
:10334000C06C00F00200019000BF00BF4FF4487055
:10335000029001200390032005900020049002A910
:103360001348FEF757F84FF4807002900120039045
:10337000032005900020049002A94FF09040FEF732
:1033800049F8FFF789FF4FF09040806940F4807062
:103390004FF09041886106481830006840F408708A
:1033A00003491831086007B000BD0000001002405A
:1033B0000004004870B505460E461446A4F12000EE
:1033C000C4B204EB4400044901EB00123146284624
:1033D00000F01AF870BD0000F0530008F0B5074681
:1033E0000C46002540F23F1609E022783146384667
:1033F000FFF7E0FFA6F1100086B2641C6D1C207878
:1034000008B1142DF1D3F0BD2DE9F04306468946ED
:10341000174600240025A046B0464946404600F025
:10342000A3F800BF1EE000F0EFF800250FE037F82A
:1034300014000121A940084020B90C48008800F080
:10344000A7F803E00A48008800F0A2F86D1C102DD0
:10345000EDD308F1010000F0FF084946404600F0B6
:1034600083F8641C182CDED3BDE8F08346000020EE
:103470004400002010B5FFF73BFF002000F016F8D5
:10348000094908800846008848F23021884202D164
:1034900000F07CFB01E000F009FC002000F006F8E1
:1034A0000149088010BD00004800002070B50446A6
:1034B0002748006840F40070254908600846006805
:1034C00040F48070086022481038006840F0200006
:1034D0001F49103908601F4804601D48006840F00B
:1034E00020001B49086000BF00BF00BF184810380B
:1034F000006840F02000164910390860084600684E
:1035000040F480700860FFF7AFFE4FF09040806A93
:1035100040F480704FF09041886200BF00BF00BF50
:103520000C48001F006885B24FF09040806940F45D
:1035300080704FF090418861FFF7AEFE044810386C
:10354000006840F40070024910390860284670BDD8
:10355000280400481408004801B5BDF800000149DE
:10356000088008BD4600002030B504460D462146BF
:10357000202000F085F82946212000F081F830BD98
:1035800001B5BDF800000149088008BD44000020D5
:103590001B49096841F40071194A11601849103932
:1035A000096841F48071164A103A116011460968A1
:1035B00041F020011160134908601149096841F088
:1035C00020010F4A116000BF00BF00BF0C49103935
:1035D000096841F020010A4A103A11601146096851
:1035E00041F48071116000BF00BF00BF0449103971
:1035F000096841F40071024A103A116070470000F6
:1036000028040048140800481B48006840F4007073
:10361000194908600846006840F480700860164840
:103620001038006840F0200013491039086022204B
:10363000124908601048006840F020000E490860F8
:1036400000BF00BF00BF0C481038006840F02000E9
:103650000949103908600846006840F48070086025
:1036600000BF00BF00BF04481038006840F400707D
:1036700001491039086070472804004814080048C0
:10368000214A126842F400721F4B1A601A461268EF
:1036900042F480721A601C4A103A126842F020020A
:1036A000194B103B1A60194A1060174A126842F011
:1036B0002002154B1A6000BF00BF00BF124A103A2B
:1036C000126842F02002104B103B1A601A46126832
:1036D00042F480721A600D4A11600B4A126842F07F
:1036E0002002094B1A6000BF00BF00BF064A103A13
:1036F000126842F02002044B103B1A601A4612680E
:1037000042F480721A607047280400481408004888
:103710008168024A1140491C81607047C0FFFF7FE9
:103720000146886800F01F007047024602F1600001
:1037300000EB8103186800F0F84070470146886884
:10374000C0F3C000704701468868C0F3400070476E
:103750000146886800F0010070470146886800F063
:103760000100704701468868C0F300707047014649
:103770008868C0F38000704701468868C0F3800005
:10378000704700008168024A1140091D816070473E
:10379000C0FFFF7F70B500F11404C1F3406504EB76
:1037A00085031C68C1F304560725B540AC43C1F33B
:1037B000045502FA05F52C431C6070BD826822F0A6
:1037C000E0720A438260704710B500F1600404EBB8
:1037D00081031C6824F0004414431C6010BD42693E
:1037E00022F000420A4342617047000000B58BB0EE
:1037F0000020089009900A9020216846FCF711FDEE
:103800004FF0A040254908604FF400304860002187
:1038100022488160C160016101214161042181610F
:1038200000210177417702210162002180F82410F4
:10383000C162016380F83810C16380F84010FDF761
:10384000D3FB08B1FDF766F80020089008A91348DB
:10385000FDF7BCF808B1FDF75DF8114800900620AF
:103860000190072002907F20039004200490002004
:10387000059069460948FDF72FF908B1FDF74AF8A8
:10388000084800900C20019069460448FDF724F98F
:1038900008B1FDF73FF80BB000BD00004C00002060
:1038A0002000F0140008302E00B587B0142102A8C3
:1038B000FCF7B7FC00BF4548C06C40F0040043492A
:1038C000C8640846C06C00F00400019000BF00BF4F
:1038D00000BF0846C06C40F02000C8640846C06CB9
:1038E00000F02000019000BF00BF00BF0846C06C80
:1038F00040F00100C8640846C06C00F0010001906F
:1039000000BF00BF00BF0846C06C40F00200C864A2
:103910000846C06C00F00200019000BF00BF00BF6D
:103920000846C06C40F00800C8640846C06C00F04F
:103930000800019000BF00BF01224FF47F412448DE
:10394000FDF75EFE002204212248FDF759FE002209
:10395000C0212148FDF754FE4FF47F400290012022
:10396000039000200490059002A91948FDF752FD2C
:1039700001200290002003900120049002A94FF042
:103980009040FDF747FD07200290002003900120A2
:10399000049002A91048FDF73DFD0420029001208B
:1039A000039000200490059002A90A48FDF732FD1B
:1039B000C02002900120039000200490059002A9ED
:1039C0000548FDF727FD07B000BD000000100240CC
:1039D00000080048000C00480004004800B597B0FB
:1039E00000201490159016901C210DA8FCF719FCCE
:1039F00034216846FCF715FC23482449086040F24E
:103A00001F3048600021214881606321C16000218E
:103A1000016141618161FFF754FA08B1FCF77AFF57
:103A200000201490169014A91848FEF7A5FD08B1BF
:103A3000FCF770FF60200D9032200E9000200F9058
:103A4000109011901290139004220DA90F48FFF7C7
:103A500080F908B1FCF75EFF002000900190029011
:103A6000039004904FF400500590002006900C90B5
:103A700069460648FEF718FD08B1FCF74BFF0348FE
:103A8000FFF73AF917B000BD0040014004010020E3
:103A900000B587B00020049005900690009001903A
:103AA000029003901A481B4908604F20486000218B
:103AB000184881604FF6FF71C1600021016181618A
:103AC000FEF79DFE08B1FCF725FF0020049006904C
:103AD00004A91048FEF750FD08B1FCF71BFF0020B9
:103AE000009001200190002002900390002269467E
:103AF0000848FEF715FE08B1FCF70CFF04226946E2
:103B00000448FEF70DFE08B1FCF704FF07B000BD46
:103B100000040040B800002000BFFEE700BFFEE741
:103B20007047000070B5164DED6805F00304144DA4
:103B3000ED68C5F303156B1C022C0CD0032C09D1C6
:103B4000104DB5FBF3F50E4EF668C6F3062605FBE1
:103B500006F10AE000BF0C4DB5FBF3F5084EF66820
:103B6000C6F3062605FB06F100BF00BF044DED6855
:103B7000C5F341656D1C6A00B1FBF2F070BD000039
:103B80000010024000366E010024F40000B501214F
:103B90000020FFF775FD4FF47A70FCF7ACFE0021B2
:103BA0000120FFF76DFD41F290711020FFF768FDD5
:103BB0004FF41C516020FFF763FD01216120FFF7E6
:103BC0005FFD02214620FFF75BFD48F21001132044
:103BD000FFF756FD48F2FE011220FFF751FD4FF4AA
:103BE000A0610220FFF74CFD41F230010320FFF7F6
:103BF00047FD40F203313020FFF742FD40F2033130
:103C00003120FFF73DFD40F203313220FFF738FD50
:103C10004FF440713320FFF733FD03213420FFF7C9
:103C20002FFD40F203313520FFF72AFD1421362005
:103C3000FFF726FD40F203313720FFF721FD40F268
:103C400003313820FFF71CFD40F203313920FFF724
:103C500017FD4FF440713A20FFF712FD03213B207E
:103C6000FFF70EFD40F203313C20FFF709FD4FF452
:103C7000A0513D20FFF704FD4FF400719220FFF7A3
:103C8000FFFC40F203319320FFF7FAFC40F60D01F0
:103C90009020FFF7F5FC41F218010320FFF7F0FC3C
:103CA00040F273110720FFF7EBFC00BD10B543F2A3
:103CB0000801E320FFF7E4FC1221E720FFF7E0FC16
:103CC00041F23121EF20FFF7DBFC00210120FFF75B
:103CD000D7FC4FF4E0610220FFF7D2FC41F2300143
:103CE0000320FFF7CDFC00210420FFF7C9FC40F2C0
:103CF00007210820FFF7C4FC00210920FFF7C0FCC2
:103D000000210A20FFF7BCFC00210C20FFF7B8FCC3
:103D100000210D20FFF7B4FC00210F20FFF7B0FCBD
:103D200000211020FFF7ACFC07211120FFF7A8FCB1
:103D300000211220FFF7A4FC00211320FFF7A0FCB4
:103D4000C820FDF753FB41F290611020FFF798FC6B
:103D500040F227211120FFF793FC3220FDF746FBAC
:103D60001D211220FFF78CFC3220FDF73FFB4FF4A2
:103D700000611320FFF784FC14212920FFF780FC49
:103D80000B212B20FFF77CFC3220FDF72FFB0021BD
:103D90002020FFF775FC00212120FFF771FC07218F
:103DA0003020FFF76DFC40F207713120FFF768FC0F
:103DB00006213220FFF764FC40F204713520FFF742
:103DC0005FFC41F604713620FFF75AFC04213720CE
:103DD000FFF756FC00213820FFF752FC40F2067135
:103DE0003920FFF74DFC40F201713C20FFF748FC01
:103DF0000F213D20FFF744FC00215020FFF740FC3D
:103E0000EF215120FFF73CFC00215220FFF738FC46
:103E100040F23F115320FFF733FC4FF41C51602058
:103E2000FFF72EFC01216120FFF72AFC00216A2008
:103E3000FFF726FC00218020FFF722FC00218120D3
:103E4000FFF71EFC00218220FFF71AFC00218320CF
:103E5000FFF716FC00218420FFF712FC00218520CB
:103E6000FFF70EFC10219020FFF70AFC00219220A2
:103E7000FFF706FC03219320FFF702FC4FF4887143
:103E80009520FFF7FDFB00219720FFF7F9FB0021AC
:103E90009820FFF7F5FB41F218010320FFF7F0FB34
:103EA00040F273110720FFF7EBFB10BD30B108495A
:103EB000096841F04001064A116007E004491031E9
:103EC000096841F04001024A103211607047000059
:103ED0001804004810B580210348FDF789FB01282C
:103EE00000D110BD0020FCE70004004800B585B0FB
:103EF00014216846FCF795F980200090002001907D
:103F0000012002900220039069460248FDF782FAE0
:103F100005B000BD0004004830B10849096841F00F
:103F20008001064A116007E004491031096841F038
:103F30008001024A103211607047000018040048E6
:103F400000B585B014216846FCF76BF9802000901D
:103F5000112001900020029002200390694602483F
:103F6000FDF758FA05B000BD00040048704710B5D1
:103F7000FDF752FB10BD00B593B0382105A8FCF742
:103F800050F914216846FCF74CF94FF40070FDF726
:103F900013FC012005900004069002200C900321E0
:103FA0000D910E9114210F910221109111911291F6
:103FB00005A8FDF7ADFF08B1FCF7ACFC0F200090A1
:103FC0000320019000200290039004900221684693
:103FD000FDF740FE08B1FCF79DFC13B000BD0000EA
:103FE0000348006840F47000014908607047000011
:103FF00088ED00E010B50248FEF76EFD10BD000030
:10400000B800002010B50268284B98420BD0B0F1E0
:10401000804F08D0264B984205D0264B984202D0BC
:10402000254B984203D122F070024B681A431F4B74
:10403000984214D0B0F1804F11D01D4B98420ED051
:104040001C4B98420BD01C4B984208D01B4B9842FB
:1040500005D01B4B984202D01A4B984203D122F450
:104060004072CB681A4322F080034C6943EA040291
:104070008B68C3620B6883620C4B98420BD00E4B6B
:10408000984208D00D4B984205D00D4B984202D073
:104090000C4B984201D10B690363036843F004039E
:1040A000036001234361026010BD0000002C014049
:1040B000000400400008004000340140004001407E
:1040C000004401400048014030B501F01F050124C3
:1040D00004FA05F3046A9C430462046A01F01F05B4
:1040E00002FA05F52C43046230BD000030B5026AC7
:1040F000056A25F00105056243688469214D2C405D
:1041000024F003040D682C4322F002028D682A4338
:104110001D4DA84200D10FE01C4DA84200D10BE07C
:104120001B4DA84200D107E01A4DA84200D103E080
:10413000194DA84208D100BF056A25F004050562A3
:1041400022F00802CD682A430F4DA8420BD00F4D34
:10415000A84208D00E4DA84205D00E4DA84202D06C
:104160000D4DA84207D123F4807323F400734D69E9
:104170002B438D692B43436084614D684563026224
:1041800030BD00008FFFFEFF002C014000340140D5
:1041900000400140004401400048014030B5026A3F
:1041A000056A25F01005056243688469234D2C409B
:1041B00024F440740D6844EA052422F020028D683E
:1041C00042EA05121E4DA84200D10FE01D4DA84243
:1041D00000D10BE01C4DA84200D100BF1B4DA842EE
:1041E00000D100BF1A4DA84209D108E0056A25F0A8
:1041F0004005056222F08002CD6842EA0512104DAA
:10420000A8420BD00F4DA84208D00F4DA84205D0B0
:104210000E4DA84202D00E4DA84209D123F480636E
:1042200023F400634D6943EA85038D6943EA8503FE
:10423000436084614D688563026230BDFF8FFFFE7D
:10424000002C014000340140004001400044014086
:104250000048014030B5026A056A25F480750562A0
:104260004368C469234D2C4024F003040D682C439B
:1042700022F400728D6842EA05221F4DA84200D147
:104280000FE01E4DA84200D10BE01D4DA84200D109
:1042900000BF1C4DA84200D100BF1B4DA84209D150
:1042A00008E0056A25F48065056222F40062CD68A5
:1042B00042EA0522104DA8420BD0104DA84208D06A
:1042C0000F4DA84205D00F4DA84202D00E4DA84276
:1042D00009D123F4805323F400534D6943EA0513B5
:1042E0008D6943EA05134360C4614D68C56302628A
:1042F00030BD00008FFFFEFF002C01400034014064
:1043000000400140004401400048014030B5026ACD
:10431000056A25F4805505624368C469234D2C4025
:1043200024F440740D6844EA052422F400528D6898
:1043300042EA05321E4DA84200D10FE01D4DA842B1
:1043400000D10BE01C4DA84200D100BF1B4DA8427C
:1043500000D100BF1A4DA84209D108E0056A25F432
:104360008045056222F40042CD6842EA0532104DD4
:10437000A8420BD00F4DA84208D00F4DA84205D03F
:104380000E4DA84202D00E4DA84209D123F480431D
:1043900023F400434D6943EA85138D6943EA85138D
:1043A0004360C4614D680564026230BDFF8FFFFE4B
:1043B000002C014000340140004001400044014015
:1043C0000048014030B5026A056A25F4803505626F
:1043D0004368046D114D2C400D682C4322F40032CB
:1043E0000D8942EA05420E4DA8420BD00D4DA84260
:1043F00008D00D4DA84205D00C4DA84202D00C4D5E
:10440000A84204D123F480334D6943EA0523436075
:1044100004654D688564026230BD00008FFFFEFFB9
:10442000002C0140003401400040014000440140A4
:104430000048014030B5026A056A25F4801505621E
:104440004368046D114D2C400D6844EA052422F4A4
:1044500000120D8942EA05520D4DA8420BD00D4DB8
:10446000A84208D00C4DA84205D00C4DA84202D05D
:104470000B4DA84204D123F480234D6943EA8523E0
:10448000436004654D68C564026230BDFF8FFFFE66
:10449000002C014000340140004001400044014034
:1044A0000048014070B50C461546026A066A26F0BF
:1044B00001060662214EB04200D10FE0204EB0420C
:1044C00000D10BE01F4EB04200D107E01E4EB042BB
:1044D00000D103E01D4EB04204D100BF066A26F0B1
:1044E000040606628169154EB0420ED0B0F1804FCD
:1044F0000BD0174EB04208D0164EB04205D0104E29
:10450000B04202D00F4EB04201D1012600E0002699
:104510001EB121F00301294301E041F0010121F026
:10452000F001F02606EA0316314322F00A0204F0F5
:104530000A0632438161026270BD0000002C014016
:104540000034014000400140004401400048014067
:10455000000400400008004070B50C461546026A91
:10456000066A26F010060662164EB04200D10FE031
:10457000154EB04200D10BE0144EB04200D100BF46
:10458000134EB04200D100BF124EB04204D103E03E
:10459000066A26F040060662816921F4407141EA0C
:1045A000052121F470414FF4704606EA0336314389
:1045B00022F0A002A02606EA0416324381610262BC
:1045C00070BD0000002C014000340140004001405B
:1045D000004401400048014070B50C461546026A8F
:1045E000066A26F480760662154EB04200D10FE0CE
:1045F000144EB04200D10BE0134EB04200D100BFC8
:10460000124EB04200D100BF114EB04204D103E0BF
:10461000066A26F480660662C16921F00301294317
:1046200021F0F001F02606EA0316314322F420625D
:104630004FF4206606EA04263243C161026270BD6F
:10464000002C014000340140004001400044014082
:104650000048014070B50C461546026A066A26F409
:1046600080560662164EB04200D10FE0154EB042A1
:1046700000D10BE0144EB04200D100BF134EB04247
:1046800000D100BF124EB04204D103E0066A26F406
:1046900080460662C16921F4407141EA052121F496
:1046A00070414FF4704606EA0336314322F420424B
:1046B0004FF4204606EA04363243C161026270BDFF
:1046C000002C014000340140004001400044014002
:1046D0000048014000BFFEE70FB4084B10B504A925
:1046E00002AA039800F0FAF8044602A9002000F09C
:1046F00078FC204610BC5DF814FB0000E34F000876
:1047000002480068C0F30220704700000CED00E092
:1047100010B5002804DB0A07130E054A135406E0FF
:104720000A07140E034A00F00F031B1FD45410BDD8
:1047300000E400E018ED00E002E008C8121F08C124
:10474000002AFAD170477047002001E001C1121F12
:10475000002AFBD1704700002DE9FF5F82B00021E5
:10476000DDE90430020DDDF840B0034318D044F613
:104770001050A2F2FF3242431514119801281FD0A5
:10478000A5EB0B00401C5FEA000A4FF000064E4FFD
:10479000DFF83891B046504615D5CAF1000413E051
:1047A000119801244AA3012801D16FEA0B01029854
:1047B000119AC0E90031C0E9024206B0BDE8F09F9D
:1047C000CBF10000DFE704460021404A491842EBE4
:1047D0000450CDE9001012E0E00707D032463B4616
:1047E00040464946FBF728FD8046894632463B460F
:1047F00010461946FBF720FD06460F466410002CB4
:10480000EAD1DDE90401DDE90023BAF1000F06DA9F
:10481000FBF712FD42464B46FBF70EFD05E0FBF7AA
:104820007DFD42464B46FBF779FD04460E460022CD
:10483000284BFBF753FF03D84FF0FF30014607E04A
:104840000022254B20463146FBF788FEFBF72DFF63
:10485000102409E0002C0ADB0A220023FBF7F0FDFC
:10486000039B30321A55641E50EA0102F2D1641CD7
:10487000039AC4F111031444119A012A03D00122AE
:1048800008430DD10AE0084304D000204FF0110B7B
:10489000119072E7A3EB0B056D1E0DE05B4504DD87
:1048A0004FF0000205F1010504E003DA4FF00002C9
:1048B000A5F10105002AECD002981199C0E9023156
:1048C000C0E9004579E70000000014400000F03F17
:1048D000300000000000F0430000E03F2DE9FF4FF2
:1048E00095B09A46884606460025EEE1252877D100
:1048F00000242746F94A0121039400E0044316F8F6
:10490000013F203B01FA03F01042F7D130782A280A
:1049100011D06FF02F033078A0F13002092A16D899
:10492000039A44F0020402EB820203EB42021044B9
:10493000761C0390EFE758F8042B0392002A03DA61
:10494000504244F40054039044F00204761C307842
:104950002E2816D116F8010F44F004042A280DD091
:104960006FF02F023078A0F13003092B09D807EB44
:10497000870302EB4303C718761CF3E758F8047B60
:10498000761C30786C280FD006DC4C2817D06828AD
:104990000DD06A2814D104E0742810D07A280FD1E1
:1049A0000DE044F400140AE044F4801401E044F4FF
:1049B00040147278824202D104F58014761C761C71
:1049C000307866280BD013DC582877D009DC002813
:1049D00075D04528F6D04628F4D047281AD193E15F
:1049E00018E0632835D0642879D0652812D18BE18E
:1049F000702873D008DC6728F1D069286FD06E2842
:104A00000DD06F2806D1ACE073282CD0752874D057
:104A1000782853D05246179990476D1C54E1C4F33F
:104A20000250022809D003280DD0D8F8001004281D
:104A30000DD00D6008F1040846E1D8F80010EA171F
:104A4000C1E90052F6E7D8F800100D80F2E70D70CA
:104A5000F0E718F8041B8DF8001000208DF8010015
:104A6000EB46012003E058F804BB4FF0FF3061072C
:104A70004FF0000102D40DE009F101018946B9426D
:104A80000FDA8145F8DB1BF809100029F4D108E0A2
:104A900009F1010189468142FADB1BF8091000295E
:104AA000F6D103985346A0EB090721463846179ADA
:104AB00000F080FA284400EB090507E044E008E133
:104AC0000DE01BF8010B524617999047B9F1010907
:104AD000F7D2534621463846179AF2E039E00A21C8
:104AE000C4F302524FF0000B0091022A06D058F88E
:104AF000040BC117032A09D00AE023E008F10700DC
:104B000020F00702F2E80201904605E000B2C1176A
:104B1000042A01D140B2C117002906DA0A46002151
:104B2000404261EB02012D2202E0220504D52B2236
:104B30008DF80420012203E0E20701D02022F7E7EC
:104B4000914657E00A2100E010214FF0000B009140
:104B50000BE010214FF0000B44F0040408270091F3
:104B600003E008204FF0000B0090C4F30252022A29
:104B700005D058F8040B0021032A08D008E008F1FA
:104B8000070020F00702F2E80201904603E080B23D
:104B9000042A00D1C0B24FF0000922072AD532788A
:104BA000702A07D0DDF800C08CF0100C5CEA0B0C0A
:104BB00005D00EE040228DF80420012208E050EAE2
:104BC000010306D030238DF804308DF80520022231
:104BD0009146009B83F0080353EA0B030AD150EA85
:104BE000010201D1620705D530228DF804204FF073
:104BF00001097F1E3278582A04D039A20C920CAADF
:104C000002920BE03BA2F9E75B46009AFBF718FC27
:104C10000C9B9B5C029A521E0292137050EA010296
:104C2000F2D1029804A9081A00F1200B600702D5FE
:104C300024F4803400E001275F4502DDA7EB0B0080
:104C400000E0002000EB0B01009003984944401A5B
:104C50000390E00306D453462146179A039800F0C8
:104C6000A9F90544002706E001A85246C05D17993E
:104C700090476D1C7F1C4F45F6DBE0030CD5534677
:104C80002146179A039800F095F9054404E0302076
:104C90005246179990476D1C0099481E00900029B4
:104CA000F5DC08E00298029952460078491C02910E
:104CB000179990476D1CBBF10001ABF1010BF1DCC2
:104CC0005BE100F065F90544761C307800287FF43C
:104CD0000DAE19B02846BDE8F08F0000092801008C
:104CE0003031323334353637383961626364656662
:104CF0000000000030313233343536373839414224
:104D00004344454600000000600700D4062708F130
:104D1000070020F00700F0E80223804603F0004C73
:104D20005FEA0C0001D097A009E0200501D596A00C
:104D300005E0E00701D095A001E0AFF24C00139030
:104D4000307823F0004365280CD006DC452809D0D4
:104D500046281DD047287FD13BE0662818D0672819
:104D60007AD136E00021112F01DB112000E0781C00
:104D7000CDE9000104A90CA8FFF7EEFCDDE90D0167
:104D80000C9A4FF0000B07F10109109200914EE0D0
:104D90004FF000400097CDE9011004A90CA8FFF7DF
:104DA000DBFCDDE90D020C9B0F994FF0000B9146E7
:104DB0001093009211B9791C00EB0109B7EB0900BF
:104DC00003D4C0F1FF3B07F10109A9EB07000190F3
:104DD00042E0012F00DA01270021112F01DD11200F
:104DE00000E03846CDE9000104A90CA8FFF7B4FCA7
:104DF000DDE90D010C9A00914FF0000BB9461092BD
:104E000021070FD4009A4A4503DA914601E0A9F13F
:104E10000109B9F1010F05DD109AA9F10101515CF9
:104E20003029F4D0B84202DA10F1040F03DA01217C
:104E3000CDE9011010E0002803DC8344A9EB000158
:104E400002E0411C494500DD8946A0EB0B00401CF7
:104E500001904FF000400290200705D4019848458A
:104E600002DB4FF0FF30019000208DF84B000298DC
:104E70000DF14B07B0F1004F25D002200C902B20F4
:104E80000D90029800280CDA404202902D200D90DF
:104E900007E00A210298FBF7BDFA3031029007F8CB
:104EA000011D0C99481E0C900029F2DC0298002884
:104EB000EFD1791E0D980870307800F0200040F096
:104EC000450007F8020D11A8C01BC01D02901398E1
:104ED000007800B1012000EB0901019801EBE071BD
:104EE000029801440398401A401E0390E00306D440
:104EF00053462146179A039800F05CF8054413982E
:104F0000007818B15246179990476D1CE00323D5DD
:104F100053462146179A039800F04CF805441BE0CD
:104F2000BBF1000F07DB0098584504DD1098179976
:104F300010F80B0001E01799302052469047019875
:104F40000BF1010B401E05F10105019004D12E204B
:104F50005246179990476D1CB9F10001A9F101095A
:104F6000DEDC05E017F8010B5246179990476D1CDF
:104F70000299481E02900029F4DC53462146179AF4
:104F800003989EE62D0000002B000000200000008A
:104F90002DE9F041044600251E461746880404D436
:104FA00005E039462020B0476D1C641EF9D528461F
:104FB000BDE8F0812DE9F041044600251E469046EB
:104FC000C80301D5302700E02027880404D505E078
:104FD00041463846B0476D1C641EF9D52846BDE8E9
:104FE000F0810A68531C0B60107070472DE9F04186
:104FF0002DED048B04460D461D48FCF769F91C484D
:10500000FBF7EEFF86B23046FBF7F7F941EC190BE0
:105010009FED180B53EC102BFBF70EF941EC180B1E
:105020009FED160B53EC102BFBF778F9C4E9000148
:105030000F48FCF74DF90E48FBF7D2FF87B2384610
:10504000FBF7DBF941EC190B9FED0A0B53EC102B2E
:10505000FBF7F2F841EC180B9FED080B53EC102B0B
:10506000FBF75CF9C5E90001BDEC048BBDE8F081FC
:105070004C0000206666666666660A400000000016
:1050800000FEAF40002100E0491C8142FCD3704784
:1050900010B5FCF7BBFA044639480068201AC82846
:1050A00000D210BD3648046001213648FCF7A0FA52
:1050B00008B1012000E00020334908700221314886
:1050C000FCF796FA08B1012000E000202F49087093
:1050D00004212C48FCF78CFA08B1012000E00020E4
:1050E0002B49087001214FF09040FCF781FA08B17C
:1050F000012000E00020274908702348007880F054
:10510000010025490978084018B10121084600F03E
:10511000CFF81E48007880F0010020490978084047
:1051200018B10021012000F0C3F81948007880F080
:1051300001001B490978084018B10121022000F044
:10514000B7F81448007880F0010016490978084043
:1051500018B10021022000F0ABF80B4800780E498E
:1051600008700A4800780D490870094800780C4911
:105170000870084800780B49087000BF91E70000EC
:1051800038000020000400483C0000203D000020C2
:105190003E0000203F000020400000204100002091
:1051A000420000204300002010B52348006884B26C
:1051B00022A12548FFF790FA23493020FEF70EF987
:1051C0002248027822A12048FFF786FA1E4948208B
:1051D000FEF704F9224890ED000B53EC102B21A1AF
:1051E0001948FFF779FA18496020FEF7F7F82148C7
:1051F00090ED000B53EC102B1FA11348FFF76CFA36
:1052000011497820FEF7EAF81F4802881FA10E48CE
:10521000FFF762FA0C499020FEF7E0F81F48028879
:105220001FA10948FFF758FA0749A820FEF7D6F84A
:105230000148046010BD0000140800482020202010
:105240002020204F72696E005001002010000020C5
:10525000202020204D43503D257520202020000097
:1052600018000020202020206D63703D20252E3264
:105270006620000020000020202020205233383DEE
:1052800020252E326620000028000020202020202B
:105290005233393D202564487A2000002A0000203E
:1052A000202020205041373D202564487A200000EE
:1052B00070B504460D46012204210E48FCF7A0F902
:1052C0004DB1601E4FF48072824091B200220A48B4
:1052D000FCF796F908E0601E4FF48072824091B2AC
:1052E00001220548FCF78CF9002204210148FCF753
:1052F00087F970BD000C00480008004810B5FFF7A2
:10530000C7FEFFF751FF0D2000F055F800F042F8FE
:105310000349087003490448FFF768FE10BD000008
:10532000100000202000002018000020FCF780F969
:10533000FEF721FEFEF7B8FAFEF758FAFEF7A8FBD3
:10534000FEF74CFBFEF796F80020FDF7BDFF4FF689
:10535000FF70FEF715F90020FEF7FEF8FDF7ACFE32
:105360007F210948FBF7DAFA00210848FDF7DCFA4B
:1053700004210648FDF7D8FA04210548FDF7F2FD9F
:1053800001E0FFF7BBFFFCE74C000020B800002065
:105390000401002010B5FDF70BFF5F20FDF7CAFEEA
:1053A000FDF73AFFFDF79EFE0446FDF7EAFEFDF726
:1053B00019FF204610BD10B50446FDF7F9FE5E202A
:1053C000FDF7B8FEFDF728FF2046FDF7B3FEFDF719
:1053D00023FFFDF707FF10BD0000000000000000E4
:1053E000010203040607080900000000010203048B
:1053F00000000000000000000000000000000000AD
:10540000000000000000000000000000000000009C
:10541000000000000000000000000000000000008C
:1054200000008001800180018001800180018001F5
:105430008001800180018001800180010000000066
:10544000800180010000000000000000000000005A
:1054500000000000CC00CC00CC00CC00CC00CC0084
:10546000000000000000000000000000000000003C
:10547000000000000000000000000000000000002C
:10548000000000000000000000000000600C600C44
:10549000600C30063006FE1FFE1F3006380718036A
:1054A000FE1FFE1F180318038C018C018C010000E5
:1054B00000008000E003F80F9C0E8C1C8C188C0000
:1054C0009800F801E007800E801C8C188C189C183E
:1054D000B80CF00FE0038000800000000000000026
:1054E0000000000000000E181B0C110C1106110624
:1054F000110311039B018E01C038C06C60446044ED
:10550000304430441844186C0C380000000000008F
:105510000000E001F0033807180618063003F00118
:10552000F000F8009C310E33061E061C061C063FD8
:10553000FC73F021000000000000000000000000EB
:10554000000000000C000C000C000C000C000C0013
:10555000000000000000000000000000000000004B
:10556000000000000000000000000000000000003B
:105570000000000200038001C000C0006000600065
:10558000300030003000300030003000300030009B
:1055900060006000C000C000800100030002000045
:1055A000000020006000C0008001800100030003B3
:1055B00000060006000600060006000600060006BB
:1055C0000003000380018001C00060002000000093
:1055D000000000000000000000000000C000C0004B
:1055E000D806F807E001300338070000000000008B
:1055F00000000000000000000000000000000000AB
:105600000000000000000000000000008001800198
:10561000800180018001FC3FFC3F8001800180010E
:105620008001800100000000000000000000000078
:10563000000000000000000000000000000000006A
:10564000000000000000000000000000000000005A
:1056500000008001800100010001800000000000C6
:10566000000000000000000000000000000000003A
:105670000000000000000000E007E007000000005C
:10568000000000000000000000000000000000001A
:10569000000000000000000000000000000000000A
:1056A00000000000000000000000000000000000FA
:1056B0000000C000C000000000000000000000006A
:1056C0000000000C000C00060006000600030003AA
:1056D00000038003800180018001C000C000C00081
:1056E00060006000000000000000000000000000FA
:1056F0000000E003F007380E180C0C180C180C18FA
:105700000C180C180C180C180C180C18180C380E57
:10571000F007E003000000000000000000000000AF
:10572000000000018001C001F001980188018001A2
:105730008001800180018001800180018001800161
:105740008001800100000000000000000000000057
:105750000000E003F80F180C0C180C1800180018C3
:10576000000C000600038001C0006000300018003B
:10577000FC1FFC1F000000000000000000000000F3
:105780000000E001F807180E0C0C0C0C000C0006D1
:10579000C003C007000C001800180C180C18180CD7
:1057A000F807E00300000000000000000000000017
:1057B0000000000C000E000F000F800DC00C600CEC
:1057C000600C300C180C0C0CFC3FFC3F000C000C67
:1057D000000C000C000000000000000000000000B1
:1057E0000000F80FF80F180018000C00EC03FC077D
:1057F0001C0E001C0018001800180C181C0C180EA9
:10580000F807E003000000000000000000000000B6
:105810000000C007F00F381C181818000C00CC034B
:10582000EC0F3C0E1C1C0C180C180C18181C380E15
:10583000F007E0030000000000000000000000008E
:105840000000FC1FFC1F000C000600060003800384
:105850008001C001C000E000600060007000300006
:1058600030003000000000000000000000000000D8
:105870000000E003F007380E180C180C180C38065E
:10588000F007F007180C0C180C180C180C18380C32
:10589000F80FE0030000000000000000000000001E
:1058A0000000E003F007380E1C0C0C180C180C1844
:1058B0001C1C381EF81BE0190018000C000C1C0EF4
:1058C000F807F001000000000000000000000000E8
:1058D00000000000000000000000000080018001C6
:1058E00000000000000000000000000000000000B8
:1058F00080018001000000000000000000000000A6
:105900000000000000000000000000008001800195
:105910000000000000000000000000000000000087
:1059200080018001000100018000000000000000F3
:105930000000000000000000000000000000000067
:105940000010001C800FE003F8001800F800E003CE
:10595000800F001C0010000000000000000000008C
:105960000000000000000000000000000000000037
:10597000F81F000000000000F81F000000000000F9
:105980000000000000000000000000000000000017
:105990000000000000000000000000000000000007
:1059A00008003800F001C007001F0018001FC007E2
:1059B000F0013800080000000000000000000000B6
:1059C0000000E003F80F180C0C180C180018000C5D
:1059D000000600038001C000C000C00000000000FD
:1059E000C000C00000000000000000000000000037
:1059F00000000000E00718180420C229224A1144C0
:105A000009440944094409221113E20C024004200C
:105A10001818E0070000000000000000000000006F
:105A2000000080038003C006C006C006600C600C46
:105A3000301830183018F83FF83F1C700C600C60BC
:105A400006C006C0000000000000000000000000CA
:105A50000000FC03FC0F0C0C0C180C180C180C0CA0
:105A6000FC07FC0F0C180C300C300C300C300C18F0
:105A7000FC1FFC0700000000000000000000000008
:105A80000000C007F01F38381C300C70066006009C
:105A90000600060006000600060006600C701C30BA
:105AA000F01FE00700000000000000000000000000
:105AB0000000FE03FE0F060E06180618063006301C
:105AC0000630063006300630063006180618060E78
:105AD000FE0FFE03000000000000000000000000B8
