:020000040800F2
:1000000060040020ED010008691A0008ED140008E2
:10001000651A000885020008B11F000800000000F2
:10002000000000000000000000000000F11E0008B9
:100030008902000800000000991A0008251F000826
:10004000070200080702000807020008070200086C
:10005000070200080702000807020008070200085C
:10006000070200080702000807020008070200084C
:10007000070200080702000807020008070200083C
:10008000070200080000000007020008070200083D
:10009000070200080702000807020008070200081C
:1000A000070200080702000807020008070200080C
:1000B00007020008070200080702000807020008FC
:1000C00007020008070200080702000807020008EC
:1000D00007020008070200080702000807020008DC
:1000E00007020008FD1D00080702000807020008BB
:1000F00007020008070200080702000800000000CD
:1001000000000000070200080000000007020008CD
:1001100007020008000000000702000807020008AC
:10012000070200080702000807020008070200088B
:10013000070200080000000000000000070200089D
:10014000070200080702000800000000000000008D
:10015000000000000000000000000000000000009F
:10016000000000000000000000000000070200087E
:10017000070200080000000000000000000000006E
:10018000000000000702000800000000000000005E
:10019000000000000000000000000000000000005F
:1001A000000000000000000007020008070200082D
:1001B000070200080702000807020008000000000C
:1001C000000000000702000800000000000000001E
:1001D0000702000807020008DFF80CD000F040F822
:1001E0000048004735210008600400200648804789
:1001F00006480047FEE7FEE7FEE7FEE7FEE7FEE70C
:10020000FEE7FEE7FEE7FEE79D1F0008D9010008B4
:10021000D2B201E000F8012B491EFBD27047002248
:10022000F6E710B513460A4604461946FFF7F0FFF5
:10023000204610BD30B50B46014600202022012487
:1002400009E021FA02F59D4205D303FA02F5491BA4
:1002500004FA02F52844151EA2F10102F1DC30BDBA
:10026000064C074D06E0E06840F0010394E8070003
:1002700098471034AC42F6D3FFF7B2FF3837000886
:1002800058370008FEE7000070470000EFF31080C9
:1002900072B600BFFEE70000B0B5044600F0E8F813
:1002A000054640F20800C2F200000068611C18BF59
:1002B000044400BF00F0DCF8401BA042FAD3B0BDFC
:1002C0002DE9F04F83B00D68002D00F0C88000F1DB
:1002D00038424FEAB22241F200470192C4F60007C9
:1002E0000622002600244FF00108B84208BF05226C
:1002F000009209E00D68043435FA08F208F10108AB
:1003000006F1020600F0AB80A8F1010C012202FA0E
:100310000CFB15EA0B09EDD0D1F804A00AF0030597
:10032000A5F1010EBEF1010F11D887680322CB6839
:10033000B24027EA0202B3401A4382604268CAF31D
:10034000001322EA0B0203FA0CF31A434260032D56
:1003500002D18A68012A08D0C26803238F68B3409B
:100360009A4307FA06F31A43C260022D11D16FF0C7
:10037000030202EA5C02024404F01C070F23D2F8D5
:1003800020E003FA07F50B692EEA0505BB402B4375
:100390001362026803234F68B3409A4307F00303D4
:1003A000B3401A4317F4403F0260A3D041F2600308
:1003B000C4F202031A6840F2004E42F001021A60D1
:1003C0001A68C4F2010E02F001020292029A2CF0A5
:1003D00003024FF6084A7244CFF6FF7A52F80A3009
:1003E00004F00C070F25BD4023EA050C019B009D7E
:1003F000052B38BF1D4605FA07F747EA0C0342F8FC
:100400000A30DEF808204B6842EA090740F20C4C3B
:10041000DD0258BF22EA0907CEF80870C4F2010CC9
:10042000DCF800209D0242EA090758BF22EA0907CA
:10043000CCF80070DEF804209D0342EA090758BF9B
:1004400022EA0907CEF80470DEF80020DB0342EA56
:10045000090758BF22EA0907CEF800704AE703B03F
:10046000BDE8F08F1823002A08BF2823C150704729
:1004700040F25800C2F200000068704740F20800E5
:1004800040F25801C2F20000C2F2000100680A689E
:10049000104408607047000080B5032000F068F841
:1004A0000F2000F009F800281CBF012080BD00F0DB
:1004B0002FF8002080BD0000B0B540F20801C2F264
:1004C0000001096801B3044640F20400C2F20000D2
:1004D0004FF47A720068B2FBF1F1B0FBF1F001F079
:1004E00001F80F2C4FF001050CD858B94FF0FF3030
:1004F00021460022002500F02BF840F20C00C2F249
:10050000000004602846B0BD01252846B0BD0000AB
:1005100080B582B041F25800C4F20200816841F017
:1005200001018160816801F0010101910199016877
:1005300041F080510160006800F080500090009808
:1005400000F08CF802B080BD80B501F033FD80BDB5
:1005500070B514460D46064601F03CFD294622467C
:1005600001F084FA0146304601F03CFD70BD000008
:1005700080B501F049FD80BDA8B347F20001C4F287
:1005800000010A68B0F5007F61D1D1F8800002F463
:10059000C06240F48070B2F5806FC1F8800020D155
:1005A0000868012262F34A20086040F20400C2F2A7
:1005B00000000068322358434DF68363C4F21B33B6
:1005C000A0FB030302EB93404B69421E824203D21D
:1005D00013F480601046F7D14869400544BF0320FA
:1005E00070470020704747F20000C4F20000016825
:1005F000D0F8802001F4C06122F48072B1F5806FE0
:10060000C0F88020EDD10168012262F34A21016027
:1006100040F20401C2F200010968322359434DF649
:100620008363C4F21B33A1FB031302EB934100BFAE
:1006300043694A1E8A4203D213F480611146F7D1FE
:100640004069400544BF03207047002070470220E6
:1006500060F34A220A6000207047000047F2080059
:10066000C4F20000016841F480410160704700005D
:100670002DE9F04381B00446807841F288070007F5
:10068000C4F2020702D44FF000096FE057F8300CB3
:10069000C0000ED457F8300C4FF0010840F08050E5
:1006A00047F8300C57F8300C00F08050009000985C
:1006B00001E04FF0000847F20006C4F2000630687F
:1006C00040F480703060FFF7D3FE05463068C00507
:1006D0000AD4FFF7CDFE401B0328F7D34FF00309E0
:1006E000B9F1000F39D104E04FF00009B9F1000F62
:1006F00033D1B86810F4407011D0216C88420BD00F
:10070000B868B96820F4407041F48031B960B968C4
:1007100021F48031B960B860C00703D112E0002035
:10072000C0070FD0FFF7A4FE064641F2893500BF8F
:10073000B868800706D4FFF79BFE801BA842F7D35A
:100740004FF00309B9F1000F07D1B868216C20F40C
:10075000407008434FF00009B860B8F1000F05D0B1
:1007600057F8300C20F0805047F8300C2068C10753
:1007700012D1810718D441071ED4010724D4810661
:100780002AD4410630D4010636D4C1053CD48105B3
:1007900042D4410548D456E03968626821F003012B
:1007A000114339608107E6D53968A26821F00C0150
:1007B000114339604107E0D53968E26821F0300122
:1007C000114339600107DAD53968226921F0C00187
:1007D000114339608106D4D53968626921F44061DA
:1007E000114339604106CED53968A26921F44051E0
:1007F000114339600106C8D53968E26921F44041E6
:1008000011433960C105C2D53968226A21F44031EB
:10081000114339608105BCD53968626A21F44021F1
:100820001143396041050ED53968A26A21F440119F
:100830001143B2F5801F396005D157F87C1C41F493
:10084000801147F87C1C01050ED53968E26A21F455
:1008500040011143B2F5800F396005D157F87C1C77
:1008600041F4801147F87C1CC1040ED53968226B15
:1008700021F040711143B2F1807F396005D157F802
:100880007C1C41F4801147F87C1C81040ED539682A
:10089000626B21F040611143B2F1006F396005D104
:1008A00057F87C1C41F4801147F87C1C41040ED59C
:1008B0003968A26B21F040611143B2F1006F3960D9
:1008C00005D157F87C1C41F4801147F87C1C0004CA
:1008D0000ED53868E16B20F040500843B1F1805FDD
:1008E000386005D157F87C0C40F4803047F87C0C18
:1008F000484601B0BDE8F0832DE9F047002800F03C
:10090000C88042F2000AC4F2020A0446DAF8000083
:100910000D4600F00F0088420DD2DAF8000020F0FA
:100920000F002843CAF80000DAF8000000F00F00BA
:10093000A84240F0AE80207841F20808C007C4F217
:1009400002080CD14FF000092068810728D4B9F1C2
:10095000800F3ED1D8F8000020F0F00037E0616849
:10096000032940F08A8058F8080C800140F19180FA
:1009700001F094F84BF20041C0F2C44188420CD916
:10098000D8F8000010F0F00F00F08F80207880077A
:1009900003D5A068002800F088804FF000098DE0A2
:1009A000410705D5D8F8001041F4E061C8F80010FF
:1009B000000706D5D8F80000072161F30D20C8F81C
:1009C0000000D8F80000A16820F0F0000843C8F843
:1009D0000000DAF8000000F00F00A8421AD9DAF897
:1009E000000020F00F002843CAF80000FFF740FD88
:1009F000064641F2883700BFDAF8000000F00F0029
:100A0000A84207D0FFF734FD801BB842F4D9032079
:100A1000BDE8F0872068410707D5D8F80010E268E4
:100A200021F4E0611143C8F80010000708D5D8F898
:100A30000000216920F4605040EAC100C8F80000BD
:100A400000F05CF8D8F8001042F25852C1F30311DC
:100A5000C0F60002515C40F2040201F01F0120FACE
:100A600001F140F20C00C2F200000068C2F2000284
:100A70001160FFF721FDBDE8F08758F8080C022946
:100A800005D180035CBF0120BDE8F08704E040058C
:100A900002D40120BDE8F08700F030F84BF20041AD
:100AA000C0F2C44188427FF678AFD8F80000082130
:100AB00061F307104FF08009C8F80000D8F8000073
:100AC000616820F003000843C8F80000FFF7D0FC7D
:100AD000064641F2883700BFD8F80000616800F090
:100AE0000C00B0EB810F3FF42FAFFFF7C1FC801B70
:100AF000B842F1D90320BDE8F087000041F20C01B3
:100B0000C4F2020151F8040C42F20042C0F2F402B5
:100B100000F00C000428104608BF704751F8040C80
:100B200000F00C00082847F64000C0F27D1021D0EC
:100B300051F8043C03F00C030C2B1CBF0020704741
:100B4000D1F800C00B680CF0030CC3F30313BCF125
:100B5000030F08BF024608680133B2FBF3F2C0F38B
:100B6000062009685043C1F34161022202EB4101B2
:100B7000B0FBF1F0704700002DE9F04182B0002891
:100B800000F0EB800446007841F20006C007C4F292
:100B9000020654D12078800771D42078000700F134
:100BA00095802078400700F1B3802078800600F11E
:100BB000D880E569002D00F01A82B06800F00C00C2
:100BC0000C2840F03B81012D00F0C780F068216ABD
:100BD00000F003028A4240F0C080626A6FF00F03A7
:100BE00000F0F00103EB0212914240F0B680A16ADE
:100BF00000F4FE42B2EB012F40F0AF80E16A00F05A
:100C00007842B2EBC16F40F0A880226B0023CFF690
:100C1000E07303EA025200F4C001A2F5001291420F
:100C200040F09B80616B4FF07E4202EA016100F070
:100C3000C06001F17E41884240F08F80D7E1B0680A
:100C400000F00C01F068082959D0032281F00C0152
:100C500022EA00000844B0FA80F040094FD16568EC
:100C6000B5F5803F07D03068B5F5A02F40F0108172
:100C700040F480203060306840F480300EE1B0688D
:100C8000F16800F00C00042851D001F0030180F05D
:100C90000C0081F002010844B0FA80F0400946D10E
:100CA000E1683068002900F0B68040F48070306060
:100CB000FFF7DEFB054600BF3068400500F1E0802D
:100CC000FFF7D6FB401B0228F6D932E16169D6F85E
:100CD0009400002900F08C8040F00100C6F89400D8
:100CE000FFF7C6FB054600BFD6F8940080073FF526
:100CF00058AFFFF7BDFB401B0228F5D919E130685A
:100D000080037FF547AF606800287FF443AF24E09D
:100D1000B06DC00041D4B06D4FF0010840F080507C
:100D2000B065B06D00F080500190019837E03068F8
:100D3000400501D5E06880B17068216920F0FE406F
:100D400040EA0160706040F20C00C2F200000068EE
:100D5000FFF7B2FB00283FF420AF012002B0BDE84E
:100D6000F081A169D6F89800002900F0B38040F026
:100D70000100C6F89800FFF77BFB0546D6F89800FF
:100D800080073FF516AFFFF773FB401B02284FF0BB
:100D90000300F3D902B0BDE8F0814FF0000847F23C
:100DA0000007C4F200073868C00510D4386840F462
:100DB00080703860FFF75CFB054600BF3868C005EF
:100DC00005D4FFF755FB401B0228F7D9B1E0A56811
:100DD000012D08D0D6F89000052D40F0908040F00D
:100DE0000400C6F89000D6F8900040F001008EE0B4
:100DF00020F00100C6F89400FFF73AFB054600BF5B
:100E0000D6F8940080077FF5CCAEFFF731FB401B8E
:100E10000228F5D98DE020F480703060FFF728FBC0
:100E2000054600BF306840057FF5B7AEFFF720FBF1
:100E3000401B02284FF00300F4D9ABE7306820F0E4
:100E400080703060FFF714FB022D05460CD100BF07
:100E50003068800140F18780FFF70AFB401B0228C1
:100E60004FF00300F4D995E73068800140F1B88075
:100E7000FFF7FEFA401B02284FF00300F4D989E780
:100E80007068216920F0FE4040EA0160706084E6ED
:100E900020F480303060306820F480203060FFF72C
:100EA000E7FA002D054611D0306880033FF572AE99
:100EB000FFF7DEFA401B6428F6D93AE0FFF7D8FACC
:100EC000401B64284FF003003FF664AF3068800396
:100ED000F4D45FE620F00100C6F89800FFF7C8FAE6
:100EE000054600BFD6F8980080077FF562AEFFF791
:100EF000BFFA401B02284FF00300F3D94AE720F065
:100F00000100C6F89000D6F8900020F00400C6F862
:100F10009000FFF7ADFA002D054641F2883715D055
:100F2000D6F89000800715D4FFF7A2FA401BB8420C
:100F3000F6D9032002B0BDE8F08100BFFFF798FAB0
:100F4000401BB8424FF003003FF624AFD6F89000A4
:100F50008007F3D4B8F1000F3FF427AEB06D20F056
:100F60008050B06521E6F06848F20C01C0F29F1194
:100F700004F1200700EA010C8ECF6FF00F00D4E9D6
:100F80000C5400EB02100022CFF6E07241EA0C0193
:100F900002EA05520843A2F500124FF07E4540EAEE
:100FA000032005EA0465104305F17E4540EAC76069
:100FB0002843F060306840F080703060F06840F0A6
:100FC0008070F060FFF754FA0446306880010ED458
:100FD000FFF74EFA001B02284FF00300F5D9D9E6BF
:100FE000F0684FF6FC71CFF6EE610840F06000202B
:100FF00002B0BDE8F08100007047000040F2400000
:10100000C2F20000012101707047000070B5044673
:10101000006840F21445466DC4F20105F10707D09F
:101020000121C1654FF4003028602046FFF7E6FF3C
:10103000B00708D520680221C1654FF40030286050
:101040002046FFF7D9FF012084F8250070BD00007D
:1010500070B500680C4643684FEA1340C870C3F38C
:10106000042603F03F054E708D70C3F342312170AA
:101070000AB1002070BDC0B200F0C8FEE07030467A
:1010800000F0C4FE6070284600F0C0FEA070002092
:1010900070BD000070B500680C4683684B60016944
:1010A0006FF3DF31A1600168C1F305402070C1F327
:1010B000062601F07F056670A570C1F38051E170CE
:1010C0000AB1002070BD00F0A1FE2070304600F093
:1010D0009DFE6070284600F099FEA070002070BD53
:1010E00010B5E8B1044690F8250028B9002084F82E
:1010F0002400204600F044F8022084F825002068EF
:10110000C168C9060ED4CA214162532141622046FA
:1011100000F09EFE68B120B32168FF224A6202E01F
:10112000012010BD0020002804BF012184F82510F3
:1011300010BD94E803504FF6BF738269CFF68F332A
:101140001A40826122691143A269836911431943DC
:1011500081614EEA0C410161204600F0A1FE0028A9
:10116000DAD12168D4F814C0D4E907E28B6923F0FE
:1011700060431A4342EA0E0242EA0C028A61CBE75C
:1011800010B592B0044601A84421FFF748F8206842
:1011900042F60001C4F20001884201D012B010BD35
:1011A0004FF4002001904FF40070119001A8FFF758
:1011B0005FFA002818BFFFF769F841F25800C4F23F
:1011C0000200816B002241F400418163016841F417
:1011D000806101600068002100F480600090009848
:1011E0002920FFF7B5F92920FFF7AEF912B010BD9D
:1011F0002DE9F047044690F8240001284FF0020042
:1012000008BFBDE8F0870D46012184F8241084F85A
:1012100025002768B86900F0400082B1002804BFAB
:101220000020E87069782878AA780902EB7841EA0A
:101230000040811895F8200041EA835619E0002803
:1012400004BF0020E870287800F0EAFD69780646BF
:10125000084600F0E5FD0102A87841EA064600F0E4
:10126000DFFD3118EA7895F8200041EA825600F057
:10127000D7FDEA69D5F80480324342EA0062CA2009
:10128000D5E905197862532078626B6A40F2004A0A
:10129000B869C4F2010AB3F5807F42EA010616D1AB
:1012A00020F48850B8610120F8654FF40030CAF886
:1012B0001400FFF7DDF805462068C168C90720D192
:1012C000FFF7D6F8401BB0F57A7FF5D916E020F489
:1012D0000850B8610220F8654FF40030CAF81400D5
:1012E000FFF7C6F8054600BF2068C16889070ED41D
:1012F000FFF7BEF8401BB0F57A7FF5D90321032034
:101300001EE0066400F144014FF4885204E000F14D
:101310004C014FF40852866449EA08030B60816966
:1013200011438161DAF80000012140F40030CAF86D
:101330000000DAF8080040F40030CAF80800002085
:101340002268FF23536284F82510002184F82410BA
:10135000BDE8F087F0B581B0044690F8240001287C
:101360004FF0020043D00D46012184F8241084F888
:10137000250032B96878C10642BF00F0EF000A309C
:101380006870E8782AB16978AE78090241EA0047C6
:101390000DE000F045FD69780646084600F040FD86
:1013A0000102A87841EA064700F03AFD06462068A7
:1013B000CA212D78416253214162204600F048FD48
:1013C00050B947EA060020F0C000216840EA4530E5
:1013D0004860204600F064FD2168FF2200284A6230
:1013E00004BF012184F82510002184F8241001B0E5
:1013F000F0BD0000F0B581B0044690F8240001284B
:101400004FF0020053D00D46012184F8241084F8D7
:1014100025002068CA2141625321416220461646B8
:1014200000F016FDC0BB2768B86900F0400056B157
:10143000002804BF0020E8706A782978A878120292
:1014400042EA014611E0002804BF0020E870287835
:1014500000F0E6FC69780646084600F0E1FC01026F
:10146000A87841EA064600F0DBFCE978304340EA20
:10147000815047F67F71C0F27F0108403860B8693B
:1014800020F48020B861D5E90301BA69084310430C
:10149000B861204600F004FD2168FF2200284A625E
:1014A00004BF012184F82510002184F8241001B024
:1014B000F0BD0000B0B5044600685F21C0F2010134
:1014C000C160FEF7D5FF05462068C068800607D4D6
:1014D000FEF7CEFF401BB0F57A7FF5D90320B0BDF3
:1014E0000020B0BD80B500F005FD80BDFEE7000026
:1014F00080B586B000200590CDE902004FF6FF7060
:1015000001900320049040F60000C4F6000001A9F9
:10151000FEF7D6FE06B080BD80B586B000200590EF
:1015200003904FF6FF700190012002900320049079
:1015300040F60000C4F6000001A9FEF7C1FE06B0A7
:1015400080BD0000B0B504460020002100F020F965
:1015500000F060F94FF49635204600F031F9013D76
:10156000FAD1B0BD2DE9F04186B0002541F24C0022
:101570000595CDE90355CDE90155C4F20200016896
:10158000182641F0040101600168C4F6000601F06C
:10159000040100910099016801AC41F00101016072
:1015A00001684FF0010801F0010100910099016804
:1015B000032741F0020101600068214600F00200AB
:1015C000009000984FF44870019006F57A70CDF8BD
:1015D0000880CDE90357FEF773FE4FF48070CDE924
:1015E00001084FF090402146CDE90357FEF768FE11
:1015F000FFF792FF306840F480703060D6F8000446
:1016000040F40870C6F8000406B0BDE8F0810000A0
:1016100080B5203AD3B25B0053FA82F242F26853AB
:10162000C0F6000303EB021200F01AF880BD0000C0
:10163000F0B581B00A788AB104464D1C002740F20B
:101640003F1600BFB1B2D2B22046FFF7E1FF122F22
:1016500004D8EA5D103E0137002AF3D101B0F0BD95
:101660002DE9F04714468846814600F091F840F293
:10167000000A40F210060027C2F2000AC2F2000679
:1016800000F0C8F8002500BF34F81700E840C00794
:10169000304608BF5046008800F092F80135102D02
:1016A000F2D109F101095FFA89F0414600F070F8C2
:1016B0000137182F08BFBDE8F087E1E710B5FFF745
:1016C00051FF002000F014F840F21604C2F20004AA
:1016D0002080208848F23021884202D100F002FAAE
:1016E00001E000F08BFA002000F002F8208010BD2D
:1016F000B0B540F21844C4F60004216941F4007109
:101700002161216941F480712161216841F020014A
:10171000216040F61401C4F600010860206940F021
:101720002000206100BF00BF00BF206840F0200003
:101730002060206840F480702060FFF7D9FE4FF6EB
:101740001040CFF6FF70215841F48071215000BF46
:1017500000BF4FF6004000BFCFF6FF70D4F8F8533B
:10176000215841F480712150FFF7D6FE206840F4E3
:101770000071A8B22160B0BD81B0ADF80200BDF823
:10178000020040F20001C2F20001088001B070477F
:1017900010B50C460146202000F066F821202146B5
:1017A00000F062F810BD000081B0ADF80200BDF895
:1017B000020040F21001C2F20001088001B070473F
:1017C00040F21841C4F600010A6942F400720A614D
:1017D0000A6842F480720A600A6842F020020A60D5
:1017E000C1F8FC03086940F02000086100BF00BF99
:1017F00000BF086840F020000860086840F480706E
:10180000086000BF00BF00BF086840F400700860B7
:101810007047000040F21840C4F60000016941F42E
:1018200000710161016941F480710161016841F059
:10183000200101602221C0F8FC13016941F0200160
:10184000016100BF00BF00BF016841F020010160DD
:10185000016841F48071016000BF00BF00BF0168F2
:1018600041F400710160704740F21842C4F6000272
:10187000136943F400731361136943F480731361B4
:10188000136843F020031360C2F8FC03106940F0B2
:101890002000106100BF00BF00BF106840F02000B2
:1018A0001060106840F480701060C2F8FC1310697A
:1018B00040F02000106100BF00BF00BF106840F082
:1018C00020001060106840F48070106070470000C5
:1018D0002DE9F04387B0002741F24C000697CDE98F
:1018E0000477CDE90277C4F20200016840F60004F3
:1018F00041F0040101600168C4F6000401F0040134
:10190000019101990168012241F020010160016803
:101910004FF47F4601F020010191019901684FF0D9
:10192000010841F001010160016801F0010101912C
:101930000199016841F00801016000684FF47F419E
:1019400000F00800019001982046FEF78BFD04F599
:1019500080652846042101224FF00409FEF782FD2C
:10196000CDE9026802AE20463146CDE90477FEF7A4
:10197000A7FC28463146CDE90298CDE90477FEF769
:101980009FFC07B0BDE8F08310B590B00024684616
:101990002821CDE90E44CDE90C44CDE90A44FEF7F7
:1019A0003EFC40F2180042F60001C2F20000C4F210
:1019B00000017F224FF0804CC0E9001400F10801C3
:1019C000FF231CC1C0E90544C0E907C4FFF788FB39
:1019D000002818BFFEF75AFC40F21800C2F20000BF
:1019E0000BA90022ADF82C408DF82E400C94CDE9C7
:1019F0000E44FFF7FFFC002818BFFEF747FC40F23B
:101A00000110C0F201000A9040F21800C2F200007A
:101A10000AA900220024FFF79DFC002818BFFEF74A
:101A200035FC41F61760ADF800001E208DF802006D
:101A30004FF000400194CDE9050401208DF820000D
:101A40004FF48070099040F21800C2F2000069461D
:101A500000220794FFF7CCFB002818BFFEF716FC06
:101A600010B010BDFEE70000FEE7000000F0070028
:101A700080F00703042B28BF04234FF0FF3C0338FA
:101A80000CFA03F338BF0020994381400CFA00F0B0
:101A900022EA0000084370477047000041F20C0042
:101AA000C4F202000168026842F2004301F003013F
:101AB000C0F2F403C2F30312032904BF47F6400344
:101AC000C0F27D1301680132B3FBF2F2C1F30621CB
:101AD00000685143C0F34160022202EB4000B1FBB9
:101AE000F0F0704780B500200121FFF7BDFE012016
:101AF0000021FFF7B9FE102041F29071FFF7B4FE0C
:101B000060204FF41C51FFF7AFFE61200121FFF769
:101B1000ABFE46200221FFF7A7FE132048F210017A
:101B2000FFF7A2FE122048F2FE01FFF79DFE022001
:101B30004FF4A061FFF798FE032041F23001FFF758
:101B400093FE302040F20331FFF78EFE312040F249
:101B50000331FFF789FE322040F20331FFF784FEA4
:101B600033204FF44071FFF77FFE34200321FFF74D
:101B70007BFE352040F20331FFF776FE362014213C
:101B8000FFF772FE372040F20331FFF76DFE382079
:101B900040F20331FFF768FE392040F20331FFF7CE
:101BA00063FE3A204FF44071FFF75EFE3B200321B5
:101BB000FFF75AFE3C2040F20331FFF755FE3D206F
:101BC0004FF4A051FFF750FE92204FF40071FFF741
:101BD0004BFE932040F20331FFF746FE902040F683
:101BE0000D01FFF741FE032041F21801FFF73CFE13
:101BF000072040F27311FFF737FE80BD80B5E32068
:101C000043F20801FFF730FEE7201221FFF72CFE18
:101C1000EF2041F23121FFF727FE01200021FFF7DD
:101C200023FE02204FF4E061FFF71EFE032041F285
:101C30003001FFF719FE04200021FFF715FE0820F0
:101C400040F20721FFF710FE09200021FFF70CFEEC
:101C50000A200021FFF708FE0C200021FFF704FEF8
:101C60000D200021FFF700FE0F200021FFF7FCFDF3
:101C700010200021FFF7F8FD11200721FFF7F4FDE8
:101C800012200021FFF7F0FD13200021FFF7ECFDEB
:101C9000C820FEF701FB102041F29061FFF7E4FD40
:101CA000112040F22721FFF7DFFD3220FEF7F4FA82
:101CB00012201D21FFF7D8FD3220FEF7EDFA132088
:101CC0004FF40061FFF7D0FD29201421FFF7CCFD70
:101CD0002B200B21FFF7C8FD3220FEF7DDFA202074
:101CE0000021FFF7C1FD21200021FFF7BDFD3020BD
:101CF0000721FFF7B9FD312040F20771FFF7B4FD6E
:101D000032200621FFF7B0FD352040F20471FFF7C5
:101D1000ABFD362041F60471FFF7A6FD3720042104
:101D2000FFF7A2FD38200021FFF79EFD392040F289
:101D30000671FFF799FD3C2040F20171FFF794FD19
:101D40003D200F21FFF790FD50200021FFF78CFD73
:101D50005120EF21FFF788FD52200021FFF784FD7D
:101D6000532040F23F11FFF77FFD60204FF41C51DC
:101D7000FFF77AFD61200121FFF776FD6A2000213F
:101D8000FFF772FD80200021FFF76EFD812000210A
:101D9000FFF76AFD82200021FFF766FD8320002106
:101DA000FFF762FD84200021FFF75EFD8520002102
:101DB000FFF75AFD90201021FFF756FD92200021D9
:101DC000FFF752FD93200321FFF74EFD95204FF4BE
:101DD0008871FFF749FD97200021FFF745FD982006
:101DE0000021FFF741FD032041F21801FFF73CFD00
:101DF000072040F27311FFF737FD80BD80B540F238
:101E00001800C2F20000FFF701F980BD010901EBE3
:101E1000810100F00F0000EB4100C0B270470000EC
:101E20000A2810D30A384CF6CD42C1B2CCF6CC42C7
:101E3000A1FB0212D10801EB8102A0EB42001022AB
:101E400002EB011100E000210843C0B2704700001E
:101E500070B504460068C16849061DD4C16841F0E8
:101E60008001C160FEF704FB2168C968490613D4EC
:101E700005460026FEF7FCFA401BB0F57A7F84BFCA
:101E8000032684F825602068032EC06802D010F075
:101E90004000EFD0F0B270BD0026F0B270BD00007F
:101EA00010B504460068C16821F08001C1608169F5
:101EB000890609D42046FFF7FDFA00280EBF00204E
:101EC000032084F8250010BD816921F02001816183
:101ED0002046FFF7EFFA00281ABF032084F82500F8
:101EE000002021688A6942F020028A6110BD00004A
:101EF00070470000B0B501380024B4EB106F1CBF70
:101F00000120B0BD4EF21005CEF2000568604FF022
:101F1000FF300F2100F066F80720AC6028602046F3
:101F2000B0BD000080B5FEF7A9FA80BD70B594B0D1
:101F300006AC20463821FEF772F900254FF40070F8
:101F40000595CDE90355CDE90155FEF715FB0920AF
:101F500006904FF480300790012005210B9002205D
:101F600003260F9120210D900E96CDE91010CDE99A
:101F700012002046FEF700FE68B90F20CDE90106E9
:101F800001A80221CDE903550595FEF7B5FC00280F
:101F900004BF14B070BDFEF779F900004EF688500A
:101FA000CEF20000016841F470010160704700004A
:101FB000FEE70000002848BF704700F01F01012223
:101FC00002FA01F14EF200124009CEF2000242F88C
:101FD000201070474EF60C50CEF200000068C0F39F
:101FE000022070474EF6145300F00F02CEF20003A9
:101FF00009011A4400F16043B0F1FF3FC8BF03F587
:1020000064421170704700004EF60C51CEF2000190
:102010000A684FF6FF031A4060F30A2242F080601C
:1020200040F0FD7008607047F0B587B040F61407C7
:1020300040F24401C4F60007C2F200013E680020ED
:102040000A784B788D7802ACCDE90500CDE9030024
:1020500002900FA12046009500F0AAF81820214612
:10206000FFF7E6FA40F21200C2F20000C1784378AE
:10207000857801F5FA620BA12046009500F098F8EA
:1020800030202146FFF7D4FAB0B2386007B0F0BD77
:1020900054696D653A253032642D253032642D2522
:1020A00030326400446174653A253032642D253045
:1020B00032642D253032640070B540F60046C4F617
:1020C00000060C460546304604210122FEF7CAF9F7
:1020D000681E4FF48071814084F00102A6F5806093
:1020E00089B2FEF7BFF9304604210022FEF7BAF9A3
:1020F00070BD000010B540F21804C2F2000440F2B6
:102100004401C2F2000120460022FEF7C3FF40F264
:102110001201C2F2000120460022FEF799FFFFF7EC
:1021200083FF40F24000C2F2000001780120FFF777
:10213000C3FF10BDFEF7B0F9FFF7F8FEFFF7BEFAD8
:102140000020FFF7FFF94FF6FF70FFF72DFB00208F
:10215000FFF712FBFFF7BCFBFFF716FC00F004F8DB
:10216000FFF7C8FFFCE7000010B586B042F244500C
:10217000C0F6000090E81E0000690DF1040C8CE828
:102180001E00059040F2054040F21804C1F60A20F6
:10219000C2F20004009001A920460022FFF72AF9AC
:1021A000694620460022FFF7D5F806B010BD0000B2
:1021B0000FB4084B10B504A902AA039800F01CF84C
:1021C000044602A9002000F0B8F9204610BC5DF8D2
:1021D00014FB00003B25000802E008C8121F08C1DC
:1021E000002AFAD170477047002001E001C1121F98
:1021F000002AFBD1704700002DE9FF4F8BB08846C5
:102200000546002606E025280BD0DDE90D12904793
:102210006D1C761C28780028F5D10FB03046BDE83B
:10222000F08F0024A146A2460122AE4900E00443FB
:1022300015F8013F203B02FA03F00842F7D1287855
:102240002A2810D06FF02F022878A0F13001092938
:1022500015D809EB890102EB410144F0020400EBBF
:1022600001096D1CF0E758F8041B5FEA010903D56A
:1022700044F40054C9F1000944F002046D1C2878AC
:102280002E2817D115F8010F44F004042A280ED087
:102290006FF02F022878A0F1300109290AD80AEB43
:1022A0008A0102EB410100EB010A6D1CF2E758F8CC
:1022B00004AB6D1C28786C280FD006DC4C2817D096
:1022C00068280DD06A2814D104E0742810D07A2828
:1022D0000FD10DE044F400140AE044F4801401E04E
:1022E00044F440146978814202D104F580146D1CD5
:1022F0006D1C2878692865D006DC00288DD06328FD
:1023000027D0642806D15DE06E2808D073282AD033
:10231000752877D0DDE90D129047761CE0E0C4F314
:102320000250022809D003280DD0D8F80010042844
:102330000DD00E6008F10408D2E0D8F80010F217B2
:10234000C1E90062F6E7D8F800100E80F2E70E70DF
:10235000F0E718F8041B8DF8001000208DF801003C
:10236000EB46012003E058F804BB4FF0FF30610753
:102370004FF0000701D40AE07F1C57450DDA874271
:10238000FADB1BF807100029F6D106E07F1C874214
:10239000FCDB1BF807100029F8D1DDE90D23A9EBC0
:1023A00007008146214600F0B1F83044C61904E028
:1023B000DDE90D121BF8010B90477F1EF8D2214674
:1023C000484688E058F8040BC4F302514FF00A0B5A
:1023D000032900D100B2042900D140B2002802DA5A
:1023E00040422D2102E0210505D52B218DF8241036
:1023F000012104E006E0E10710D02021F6E708AF54
:10240000089113E058F8040BC4F302514FF00A0B83
:10241000032900D180B2042900D1C0B20021EEE727
:102420005946FDF707FF303107F8011D0028F7D1A5
:10243000ADEB070000F1200B600702D524F48034D7
:1024400001E04FF0010ADA4502DDAAEB0B0000E0E3
:102450000020824600EB0B0108980144A9EB010023
:102460000A90E00306D4DDE90D2321460A9800F026
:102470004DF806444FF0000908E009A911F80900D9
:10248000DDE90D12904709F10109761C089989458B
:10249000F3DBE0030CD5DDE90D2321460A9800F0BB
:1024A00035F8064404E0DDE90D1230209047761C33
:1024B000BAF10001AAF1010AF5DC05E0DDE90D122F
:1024C00017F8010B9047761CBBF10001ABF1010B33
:1024D000F4DC0A982146DDE90D2300F005F80644F6
:1024E0006D1C97E6092801002DE9F04104460025FE
:1024F0001E461746880404D405E039462020B0471C
:102500006D1C641EF9D52846BDE8F0812DE9F04127
:10251000044600251E469046C80301D5302700E03A
:102520002027880404D505E041463846B0476D1C95
:10253000641EF9D52846BDE8F0810A68531C0B607B
:1025400010707047171E0C00000000000000000013
:10255000000000000000000000000000000000007B
:102560000102030406070809000000000000000043
:10257000000000000000000000000000000000005B
:10258000000000000000000000000000000000004B
:1025900000000000000000000000800180018001B8
:1025A0008001800180018001800180018001800123
:1025B0008001800100000000800180010000000017
:1025C000000000000000000000000000CC00CC0073
:1025D000CC00CC00CC00CC000000000000000000CB
:1025E00000000000000000000000000000000000EB
:1025F00000000000000000000000000000000000DB
:1026000000000000600C600C600C30063006FE1FFD
:10261000FE1F300638071803FE1FFE1F180318039D
:102620008C018C018C01000000008000E003F80F99
:102630009C0E8C1C8C188C009800F801E007800E12
:10264000801C8C188C189C18B80CF00FE0038000CC
:1026500080000000000000000000000000000E18D4
:102660001B0C110C11061106110311039B018E01A5
:10267000C038C06C60446044304430441844186C26
:102680000C380000000000000000E001F0033807F3
:10269000180618063003F001F000F8009C310E33E4
:1026A000061E061C061C063FFC73F02100000000FD
:1026B0000000000000000000000000000C000C0002
:1026C0000C000C000C000C000000000000000000DA
:1026D00000000000000000000000000000000000FA
:1026E0000000000000000000000000020003800164
:1026F000C000C000600060003000300030003000DA
:10270000300030003000300060006000C000C000C9
:102710008001000300020000000020006000C000F3
:102720008001800100030003000600060006000689
:102730000006000600060006000300038001800179
:10274000C000600020000000000000000000000049
:1027500000000000C000C000D806F807E001300308
:10276000380700000000000000000000000000002A
:102770000000000000000000000000000000000059
:102780000000000080018001800180018001FC3F89
:10279000FC3F800180018001800180010000000079
:1027A0000000000000000000000000000000000029
:1027B0000000000000000000000000000000000019
:1027C0000000000000000000000080018001000106
:1027D0000001800000000000000000000000000078
:1027E00000000000000000000000000000000000E9
:1027F000E007E0070000000000000000000000000B
:1028000000000000000000000000000000000000C8
:1028100000000000000000000000000000000000B8
:1028200000000000000000000000C000C000000028
:1028300000000000000000000000000C000C00067A
:1028400000060006000300030003800380018001EE
:102850008001C000C000C0006000600000000000F7
:1028600000000000000000000000E003F007380E48
:10287000180C0C180C180C180C180C180C180C1838
:102880000C180C18180C380EF007E00300000000BC
:102890000000000000000000000000018001C001F5
:1028A000F001980188018001800180018001800190
:1028B0008001800180018001800180010000000012
:1028C00000000000000000000000E003F80F180CFA
:1028D0000C180C1800180018000C000600038001EA
:1028E000C000600030001800FC1FFC1F000000004A
:1028F00000000000000000000000E001F807180ED2
:102900000C0C0C0C000C0006C003C007000C0018D7
:1029100000180C180C18180CF807E0030000000051
:1029200000000000000000000000000C000E000F7E
:10293000000F800DC00C600C600C300C180C0C0CDF
:10294000FC3FFC3F000C000C000C000C00000000E1
:1029500000000000000000000000F80FF80F180051
:1029600018000C00EC03FC071C0E001C00180018DB
:1029700000180C181C0C180EF807E00300000000EB
:1029800000000000000000000000C007F00F381C2D
:10299000181818000C00CC03EC0F3C0E1C1C0C1873
:1029A0000C180C18181C380EF007E003000000008B
:1029B00000000000000000000000FC1FFC1F000CD5
:1029C00000060006000380038001C001C000E00093
:1029D0006000600070003000300030000000000037
:1029E00000000000000000000000E003F007380EC7
:1029F000180C180C180C3806F007F007180C0C18F7
:102A00000C180C180C18380CF80FE003000000002C
:102A100000000000000000000000E003F007380E96
:102A20001C0C0C180C180C181C1C381EF81BE01978
:102A30000018000C000C1C0EF807F001000000004C
:102A40000000000000000000000000000000000086
:102A50000000000080018001000000000000000074
:102A60000000000000000000800180010000000064
:102A70000000000000000000000000000000000056
:102A80000000000080018001000000000000000044
:102A90000000000000000000800180010001000132
:102AA00080000000000000000000000000000000A6
:102AB00000000000000000000010001C800FE00378
:102AC000F8001800F800E003800F001C0010000060
:102AD00000000000000000000000000000000000F6
:102AE0000000000000000000F81F000000000000CF
:102AF000F81F0000000000000000000000000000BF
:102B000000000000000000000000000000000000C5
:102B1000000000000000000008003800F001C007BD
:102B2000001F0018001FC007F00138000800000057
:102B300000000000000000000000E003F80F180C87
:102B40000C180C180018000C000600038001C000CF
:102B5000C000C00000000000C000C0000000000075
:102B6000000000000000000000000000E00718184E
:102B70000420C229224A1144094409440944092273
:102B80001113E20C024004201818E00700000000B6
:102B90000000000000000000000080038003C00669
:102BA000C006C006600C600C301830183018F83FB2
:102BB000F83F1C700C600C6006C006C000000000EE
:102BC00000000000000000000000FC03FC0F0C0CE3
:102BD0000C180C180C180C0CFC07FC0F0C180C3003
:102BE0000C300C300C300C18FC1FFC0700000000EF
:102BF00000000000000000000000C007F01F38388F
:102C00001C300C7006600600060006000600060078
:102C1000060006600C701C30F01FE007000000008A
:102C200000000000000000000000FE03FE0F060E82
:102C30000618061806300630063006300630063014
:102C4000063006180618060EFE0FFE0300000000F0
:102C500000000000000000000000FC3FFC3F0C00F2
:102C60000C000C000C000C00FC1FFC1F0C000C00E6
:102C70000C000C000C000C00FC3FFC3F00000000AE
:102C800000000000000000000000F83FF83F1800BE
:102C90001800180018001800F81FF81F1800180076
:102CA0001800180018001800180018000000000094
:102CB00000000000000000000000E00FF83F3C783A
:102CC0000E6006E007C00300030003FE03FE03C01E
:102CD00007C006C00EC03CF0F83FE00F0000000047
:102CE000000000000000000000000C300C300C3030
:102CF0000C300C300C300C30FC3FFC3F0C300C30F6
:102D00000C300C300C300C300C300C30000000005B
:102D10000000000000000000000080018001800130
:102D2000800180018001800180018001800180019B
:102D3000800180018001800180018001000000008D
:102D40000000000000000000000000060006000671
:102D50000006000600060006000600060006000643
:102D60000006180618063807F003E001000000000E
:102D70000000000000000000000006300618060CED
:102D8000060606038601C60066007600DE008E0198
:102D900006030606060C0618063006600000000052
:102DA00000000000000000000000180018001800DB
:102DB0001800180018001800180018001800180053
:102DC0001800180018001800F81FF81F0000000075
:102DD000000000000000000000000EE01EF01EF0E9
:102DE0001EF036D836D836D836D866CC66CC66CC07
:102DF000C6C6C6C6C6C6C6C686C386C30000000011
:102E0000000000000000000000000C301C303C30CE
:102E10003C306C306C30CC30CC308C310C330C33DB
:102E20000C360C360C3C0C3C0C380C30000000000E
:102E300000000000000000000000E007F81F1C3840
:102E40000E70066003C003C003C003C003C003C00C
:102E500003C006600E701C38F81FE0070000000079
:102E600000000000000000000000FC0FFC1F0C38F8
:102E70000C300C300C300C300C18FC1FFC070C0014
:102E80000C000C000C000C000C000C0000000000FA
:102E900000000000000000000000E007F81F1C38E0
:102EA0000E70066003E003C003C003C003C003C08C
:102EB00007E006630E3F1C3CF83FE0F700C000004F
:102EC00000000000000000000000FE0FFE1F06389A
:102ED0000630063006300638FE1FFE0706030606DB
:102EE000060C0618061806300630066000000000C2
:102EF00000000000000000000000E003F80F1C0CC0
:102F00000C180C180C001C00F803E00F001E003811
:102F1000063006300E301C1CF80FE00700000000E1
:102F200000000000000000000000FE7FFE7F800126
:102F30008001800180018001800180018001800189
:102F4000800180018001800180018001000000007B
:102F5000000000000000000000000C300C300C30BD
:102F60000C300C300C300C300C300C300C300C3081
:102F70000C300C300C301818F81FE007000000006F
:102F80000000000000000000000003600630063072
:102F900006300C180C180C18180C180C380E3006CB
:102FA0003006700760036003C001C001000000002C
:102FB000000000000000000000000360C361C36166
:102FC000C3616633663366336633663366336C1BC0
:102FD0006C1B6C1B2C1A3C1E380E380E00000000B7
:102FE000000000000000000000000FE00C7018302E
:102FF0003018700C600EC00780038003C003E00629
:10300000700C301C18180C300E6007E00000000037
:103010000000000000000000000003C006600C304B
:103020001C383818300C6006E007C00380018001AE
:10303000800180018001800180018001000000008A
:1030400000000000000000000000FC7FFC7F00602A
:1030500000300018000C000600038001C000600072
:10306000300018000C000600FE7FFE7F000000000C
:1030700000000000000000000000E003E00360002A
:103080006000600060006000600060006000600040
:103090006000600060006000600060006000600030
:1030A0006000E003E003000000003000300060003A
:1030B00060006000C000C000C000C001800180014D
:1030C000800100030003000300060006000000006A
:1030D00000000000000000000000E003E003000327
:1030E00000030003000300030003000300030003C8
:1030F00000030003000300030003000300030003B8
:103100000003E003E003000000000000C001C00174
:1031100060036003600330063006180C180C0000D2
:10312000000000000000000000000000000000009F
:10313000000000000000000000000000000000008F
:10314000000000000000000000000000000000007F
:1031500000000000000000000000FFFFFFFF000073
:10316000000000000000000000000C000C000C003B
:103170000C000C000C00000000000000000000002B
:10318000000000000000000000000000000000003F
:10319000000000000000000000000000000000002F
:1031A00000000000F003F8071C0C0C0C000FF00FDF
:1031B000F80C0C0C0C0C1C0FF80FF01800000000A1
:1031C00000000000000000000000180018001800B7
:1031D00018001800D803F80F380C18181818181809
:1031E000181818181818380CF80FD8030000000029
:1031F00000000000000000000000000000000000CF
:1032000000000000C003F007300E180C1800180072
:1032100018001800180C300EF007C0030000000062
:103220000000000000000000000000180018001856
:1032300000180018C01BF01F301C18181818181898
:10324000181818181818301CF01FC01B00000000B8
:10325000000000000000000000000000000000006E
:1032600000000000C003F00F300C1818F81FF81F02
:10327000180018003818301CF00FC00700000000BC
:1032800000000000000000000000800FC00FC00020
:10329000C000C000F007F007C000C000C000C000C0
:1032A000C000C000C000C000C000C000000000009E
:1032B000000000000000000000000000000000000E
:1032C00000000000E00DF80F180E0C0C0C0C0C0C9C
:1032D0000C0C0C0C0C0C180EF80FE00D000C0C0C68
:1032E0001C06F807F0010000000018001800180084
:1032F00018001800D807F80F381C181818181818D4
:10330000181818181818181818181818000000009D
:1033100000000000000000000000C000C00000002D
:1033200000000000C000C000C000C000C000C0001D
:10333000C000C000C000C000C000C000000000000D
:1033400000000000000000000000C000C0000000FD
:1033500000000000C000C000C000C000C000C000ED
:10336000C000C000C000C000C000C000C000C0005D
:10337000C000F8007800000000000C000C000C00F9
:103380000C000C000C0C0C060C038C01CC006C0027
:10339000FC009C018C030C030C060C0C00000000CC
:1033A00000000000000000000000C000C000C000DD
:1033B000C000C000C000C000C000C000C000C0000D
:1033C000C000C000C000C000C000C000000000007D
:1033D00000000000000000000000000000000000ED
:1033E000000000007C3CFF7EC7E383C183C183C132
:1033F00083C183C183C183C183C183C10000000035
:1034000000000000000000000000000000000000BC
:10341000000000009807F80F381C18181818181822
:10342000181818181818181818181818000000007C
:10343000000000000000000000000000000000008C
:1034400000000000C003F00F300C181818181818EE
:10345000181818181818300CF00FC00300000000DE
:10346000000000000000000000000000000000005C
:1034700000000000D803F80F380C18181818181896
:10348000181818181818380CF80FD8031800180056
:1034900018001800180000000000000000000000E4
:1034A00000000000C01BF01F301C18181818181856
:1034B000181818181818301CF01FC01B0018001816
:1034C00000180018001800000000000000000000B4
:1034D00000000000B007F003700030003000300042
:1034E00030003000300030003000300000000000BC
:1034F00000000000000000000000000000000000CC
:1035000000000000E003F003380E180C3800F00350
:10351000C007000C180C380EF007E0030000000094
:103520000000000000000000000000008000C0005B
:10353000C000C000F007F007C000C000C000C0001D
:10354000C000C000C000C000C0078007000000002D
:10355000000000000000000000000000000000006B
:10356000000000001818181818181818181818183B
:10357000181818181818381CF01FE019000000005F
:10358000000000000000000000000000000000003B
:10359000000000000C18180C180C180C300630062F
:1035A0003006600360036003C001C001000000003A
:1035B000000000000000000000000000000000000B
:1035C00000000000C141C141C36163636363636381
:1035D0003636363636361C1C1C1C1C1C00000000FF
:1035E00000000000000000000000000000000000DB
:1035F000000000001C38381C300C600660036003BB
:10360000600360036006300C381C1C3800000000AA
:1036100000000000000000000000000000000000AA
:10362000000000001830301830187018600C600C62
:10363000E00CC006C0068003800380038001800187
:10364000C001F00070000000000000000000000059
:1036500000000000FC1FFC1F000C0006000380019E
:10366000C000600030001800FC1FFC1F00000000BC
:103670000000000000000000000000038001C00006
:10368000C000C000C000C000C0006000600030008A
:1036900060004000C000C000C000C000C000C0000A
:1036A0008001000300000000000080018001800113
:1036B0008001800180018001800180018001800102
:1036C00080018001800180018001800180018001F2
:1036D000800180018001000000006000C000C00186
:1036E0008001800180018001800100030003000649
:1036F00000030001800180018001800180018001C0
:10370000C000600000000000000000000000000099
:103710000000000000000000F010F81F080F00007B
:103720000000000000000000000000000000000099
:1037300000000000000000005837000800000020D2
:1037400010000000D8210008683700081000002091
:1037500050040000E8210008FFFF00000024F400EE
:08376000010000001000000050
:04000005080001D915
:00000001FF
