:020000040800F2
:1000000038040020ED0100080D160008A10E0008BC
:100010000916000885020008753600080000000077
:100020000000000000000000000000001D36000875
:10003000890200080000000011160008213600089F
:10004000070200080702000807020008070200086C
:10005000070200080702000807020008070200085C
:10006000070200080702000807020008070200084C
:10007000070200080702000807020008070200083C
:10008000070200080000000007020008070200083D
:10009000070200080702000807020008070200081C
:1000A000070200080702000807020008070200080C
:1000B00007020008070200080702000807020008FC
:1000C00007020008070200080702000807020008EC
:1000D00007020008070200080702000807020008DC
:1000E00007020008070200080702000807020008CC
:1000F00007020008070200080702000800000000CD
:1001000000000000070200080000000007020008CD
:1001100007020008000000000702000807020008AC
:10012000070200080702000807020008070200088B
:10013000070200080000000000000000070200089D
:10014000070200080702000800000000000000008D
:10015000000000000000000000000000000000009F
:10016000000000000000000000000000070200087E
:10017000070200080000000000000000000000006E
:10018000000000000702000800000000000000005E
:10019000000000000000000000000000000000005F
:1001A000000000000000000007020008070200082D
:1001B000070200080702000807020008000000000C
:1001C000000000000702000800000000000000001E
:1001D0000702000807020008DFF80CD000F040F822
:1001E0000048004769390008380400200648804765
:1001F00006480047FEE7FEE7FEE7FEE7FEE7FEE70C
:10020000FEE7FEE7FEE7FEE761360008D9010008D9
:10021000D2B201E000F8012B491EFBD27047002248
:10022000F6E710B513460A4604461946FFF7F0FFF5
:10023000204610BD30B50B46014600202022012487
:1002400009E021FA02F59D4205D303FA02F5491BA4
:1002500004FA02F52844151EA2F10102F1DC30BDBA
:10026000064C074D06E0E06840F0010394E8070003
:1002700098471034AC42F6D3FFF7B2FF944D000814
:10028000B44D0008FEE7000070470000B0B504461A
:1002900000F0EEF8054640F20C00C2F200000068E3
:1002A000611C18BF044400BF00F0E2F8401BA042EC
:1002B000FAD3B0BD2DE9F04F82B00A68002A00F0F1
:1002C000C88041F2004600F13844C4F60006062317
:1002D00040F2004C4FEAB425B04208BF0523C4F2F7
:1002E000010C052D38BF4FEAB42300244FF0030E54
:1002F00000270025009309E00A68013532FA05F36A
:1003000007F1020704F1040400F0A380012303FABB
:1003100005F912EA0908EFD0D1F804A00AF00302A7
:10032000A2F1010BBBF1010F11D8D0F808B0CE68D3
:100330000EFA07F32BEA0303BE403343836043689E
:10034000CAF3001623EA0903AE4033434360032A8D
:1003500002D18B68012B09D0D0F80C908B680EFA73
:1003600007F629EA0606BB403343C360022A12D1CE
:100370006FF0030202EA5502024404F01C060F2348
:10038000D2F8209003FA06FA0B6929EA0A09B34069
:1003900043EA0903136202684E680EFA07F39A43B0
:1003A00006F00303BB401A4316F4403F0260A3D09B
:1003B00041F26003C4F202031A684FF6084A42F0A1
:1003C00001021A601A68CFF6FF7A02F00102019268
:1003D000019A25F00302624452F80A9004F00C06D8
:1003E0000F23B34029EA0309009B03FA06F646EA05
:1003F000090342F80A30DCF808904B6849EA08061D
:1004000040F20C4ADA0258BF29EA0806CCF8086024
:10041000C4F2010ADAF800909A0249EA080658BFC5
:1004200029EA0806CAF80060DCF804909A0349EA51
:10043000080658BF29EA0806CCF80460DCF800205A
:10044000DB0342EA080658BF22EA0806CCF800603F
:1004500052E702B0BDE8F08F0069084018BF0120E4
:10046000704700001823002A08BF2823C150704796
:1004700040F23000C2F200000068704740F20C0009
:1004800040F23001C2F20000C2F2000100680A68C6
:10049000104408607047000080B5032000F07CF82D
:1004A0000F2000F009F800281CBF012080BD00F0DB
:1004B0002DF8002080BD0000B0B540F20C01C2F262
:1004C0000001096801B3044640F20400C2F20000D2
:1004D0004FF47A720068B2FBF1F1B0FBF1F000F07A
:1004E000C9FC0F2C4FF001050CD858B94FF0FF3064
:1004F00021460022002500F023F840F21000C2F24D
:10050000000004602846B0BD0120B0BD82B041F2B9
:100510005800C4F20200816841F0010181608168E5
:1005200001F0010101910199016841F080510160E0
:10053000006800F080500090009802B000F0C0B851
:1005400010B54EF60C5CCEF2000CDCF80030C3F3B4
:10055000022E8EF00704042C28BF0424BEF10303EE
:100560004FF0FF3E0EFA04F438BF0023A143994038
:100570000EFA03F39A43114300F1604200F00F03B7
:10058000090102F56442043B6344002848BF03F1BB
:100590000C02117010BD00004EF60C51CEF200019D
:1005A0000A684FF6FF031A4060F30A2242F08060A7
:1005B00040F0FD7008607047B0F5007F3BD0002828
:1005C00072D147F2000CC4F2000CDCF80010DCF829
:1005D000802001F4C06122F48072B1F5806FCCF804
:1005E000802026D1DCF80010012262F34A21CCF8E9
:1005F000001040F20401C2F200010968322359439D
:100600004DF68363C4F21B33A1FB031302EB93414A
:10061000002200BFDCF81400013942F1000340055C
:1006200001D5002BF6D1DCF81400400544BF0320AF
:1006300070470020704747F2000CC4F2000CDCF851
:100640000010DCF8802001F4C06142F48072B1F542
:10065000806FCCF88020ECD1DCF80010012262F32E
:100660004A21CCF8001040F20401C2F200010968EE
:10067000322359434DF68363C4F21B33A1FB0313AA
:1006800002EB9341002200BFDCF81400013942F173
:100690000003400501D5002BF6D1DCF8140040051D
:1006A00044BF03207047C4E747F20000C4F20000D3
:1006B0000168022262F34A210160002070470000B5
:1006C00047F20800C4F20000016841F48041016073
:1006D000704700002DE9F047002800F0088142F241
:1006E000000AC4F2020A0446DAF800000D4600F0DF
:1006F0000F0088420DD2DAF8000020F00F002843E6
:10070000CAF80000DAF8000000F00F00A84240F03C
:10071000EE80216841F20808C807C4F202080CD133
:100720004FF00009206881074BD4B9F1800F61D1E7
:10073000D8F8000020F0F0005AE06068022800F0CD
:10074000CA80032840F0CF8058F8082C920140F16D
:10075000CE80D8F80420D8F8043042F20046C3F323
:10076000031302F00302D8F804700133C0F2F40658
:10077000032A04BF47F64006C0F27D16B6FBF3F22B
:10078000D8F80430C7F306277A43C3F3416302273E
:1007900007EB4303B2FBF3F24BF20043C0F2C44356
:1007A0009A4240F2EC80D8F8002012F0F00F00F0EE
:1007B000DC80890740F1E380A168002940F0DF80F8
:1007C000D3E0410705D5D8F8001041F4E061C8F83E
:1007D0000010000706D5D8F80000072161F30D20AE
:1007E000C8F80000D8F80000A16820F0F000084325
:1007F000C8F80000DAF8000000F00F00A84219D98C
:10080000DAF8000020F00F002843CAF80000FFF7D4
:100810002FFE064641F28837DAF8000000F00F009C
:10082000A84207D0FFF724FE801BB842F4D903206A
:10083000BDE8F0872068410707D5D8F80010E268C6
:1008400021F4E0611143C8F80010000708D5D8F87A
:100850000000216920F4605040EAC100C8F800009F
:10086000D8F8000042F20041C0F2F40100F00C00A0
:100870000428084600F0A480D8F8000000F00C001E
:10088000082847F64000C0F27D1000F09980D8F8A3
:10089000002002F00C020C2A40F09180D8F80420CD
:1008A000D8F8043002F00302C3F30313D8F804703D
:1008B0000133032A08BF0146B1FBF3F0D8F8041056
:1008C000C7F30627C1F341610222784302EB4101DD
:1008D000B0FBF1F074E058F8081C89035CBF0120FC
:1008E000BDE8F08706E058F8081C490502D401204D
:1008F000BDE8F087D8F8001001F00C0104293ED0C3
:10090000D8F8001001F00C01082938D0D8F80010F0
:1009100001F00C010C2932D1D8F80410D8F80420C9
:1009200042F20047C2F3031201F00301D8F8043089
:100930000132C0F2F407032904BF47F64007C0F2B2
:100940007D17B7FBF2F1D8F80420C3F3062359430F
:10095000C2F34162022303EB4202B1FBF2F14BF21C
:100960000042C0F2C442914209D9D8F800100822CE
:1009700062F307114FF08009C8F8001001E04FF052
:100980000009D8F8001021F003010843C8F800005E
:10099000FFF76EFD064641F2883700BFD8F8000029
:1009A000616800F00C00B0EB810F3FF4BBAEFFF7C5
:1009B0005FFD801BB842F1D90320BDE8F08700201D
:1009C000D8F8001043F6AA32C1F30311C0F60002B2
:1009D000515C40F2040201F01F0120FA01F140F2E3
:1009E0001000C2F200000068C2F200021160BDE80F
:1009F000F047FFF761BD00002DE9F04182B000280B
:100A000000F001810446007841F20006C007C4F2FC
:100A1000020654D12078800772D42078000700F1B4
:100A200095802078400700F1B3802078800600F19F
:100A30000081E569002D00F01882B06800F00C001C
:100A40000C2840F05981012D00F0DD80F068216A0A
:100A500000F003028A4240F0D680626A6FF00F0312
:100A600000F0F00103EB0212914240F0CC80A16A49
:100A700000F4FE42B2EB012F40F0C580E16A00F0C5
:100A80007842B2EBC16F40F0BE80226B0023CFF6FC
:100A9000E07303EA025200F4C001A2F50012914291
:100AA00040F0B180616B4FF07E4202EA016100F0DC
:100AB000C06001F17E41884240F0A580D5E1B06878
:100AC00000F00C01F068082959D0032281F00C01D4
:100AD00022EA00000844B0FA80F040094FD165686E
:100AE000B5F5A02F00F0D380B5F5803F00F0D3809E
:100AF000306820F480303060306820F48020CDE011
:100B0000B068F16800F00C00042866D001F0030121
:100B100080F00C0081F002010844B0FA80F0400936
:100B20005BD1E1683068002900F0D38040F4807028
:100B30003060FFF79DFC05463068400500F1FE80FF
:100B4000FFF796FC401B0228F6D930E16169D6F820
:100B50009400002900F0898040F00100C6F894005C
:100B6000FFF786FC054600BFD6F8940080073FF5E6
:100B700058AFFFF77DFC401B0228F5D917E130681C
:100B800080037FF547AF606800287FF443AF3AE009
:100B9000B06D10F0805808D1B06D40F08050B06555
:100BA000B06D00F080500190019847F20007C4F248
:100BB00000073868C0052AD4386840F4807038606F
:100BC000FFF756FC054600BF3868C0051FD4FFF785
:100BD0004FFC401B0228F7D9E9E03068400501D5F9
:100BE000E06880B17068216920F0FE4040EA016051
:100BF000706040F21000C2F200000068FFF75CFC79
:100C000000283FF40AAF012002B0BDE8F081A568DA
:100C1000052D00F0B080012D00F0B380D6F89000D3
:100C200020F00100C6F89000D6F8900020F00400F3
:100C3000ABE0A169D6F89800002900F0878040F069
:100C40000100C6F89800FFF713FC0546D6F8980097
:100C500080073FF5EEAEFFF70BFC401B02284FF07C
:100C60000300F3D902B0BDE8F08120F00100C6F81E
:100C70009400FFF7FDFB0546D6F8940080077FF54A
:100C8000D0AEFFF7F5FB401B0228F5D98FE03068A6
:100C900040F480203060306840F480303060FFF7EE
:100CA000E7FB002D054610D0306880033FF5B2AE5B
:100CB000FFF7DEFB401B6428F6D978E0FFF7D8FB8E
:100CC000401B64284FF00300CCD830688003F5D473
:100CD000A0E620F480703060FFF7CAFB054600BF35
:100CE000306840057FF599AEFFF7C2FB401B022834
:100CF0004FF00300F4D9B5E7306820F08070306021
:100D0000FFF7B6FB022D05460CD100BF306880010D
:100D100067D5FFF7ADFB401B02284FF00300F5D964
:100D2000A0E700BF3068800140F19880FFF7A0FB8A
:100D3000401B02284FF00300F4D993E77068216943
:100D400020F0FE4040EA0160706066E620F001009D
:100D5000C6F89800FFF78CFB054600BFD6F8980050
:100D600080077FF566AEFFF783FB401B02284FF03C
:100D70000300F3D976E7D6F8900040F00400C6F8F7
:100D80009000D6F8900040F00100C6F89000FFF700
:100D90006FFB002D054641F2883715D0D6F890003C
:100DA000800715D4FFF764FB401BB842F6D9032037
:100DB00002B0BDE8F08100BFFFF75AFB401BB8420C
:100DC0004FF003003FF64EAFD6F890008007F3D403
:100DD000B8F1000F7FF429AEB06D20F08050B065FF
:100DE00023E6F06848F20C01C0F29F1104F12007DD
:100DF00000EA010C8ECF6FF00F00D4E90C5400EB29
:100E000002100022CFF6E07241EA0C0102EA05521C
:100E10000843A2F500124FF07E4540EA032005EAA0
:100E20000465104305F17E4540EAC7602843F06041
:100E3000306840F080703060F06840F08070F060A2
:100E4000FFF716FB0446306880010ED4FFF710FB55
:100E5000001B02284FF00300F5D903E7F0684FF6B6
:100E6000FC71CFF6EE610840F060002002B0BDE8F2
:100E7000F0810000411E0020B0EB116F1CBF01206B
:100E800070474EF21002CEF2000251604EF623512E
:100E9000CEF20001F0230B700721906011607047C3
:100EA000FEE7000040F21841C4F600010A6942F46E
:100EB00000720A610A6942F480720A610A6842F0AB
:100EC00020020A602022C1F8FC230A6942F02002B5
:100ED0000A6100BF00BF00BF0A6842F020020A603A
:100EE0000A6842F480720A600022C1F8FC230B6990
:100EF00043F020030B6100BF00BF00BF0B6843F04D
:100F000020030B600B6843F480730B600B6943F4A0
:100F100000730B610B6943F480730B610B6843F042
:100F200020030B602123C1F8FC330B6943F020033D
:100F30000B6100BF00BF00BF0B6843F020030B60D4
:100F40000B6843F480730B60C1F8FC230A6942F01C
:100F500020020A6100BF00BF00BF0A6842F0200201
:100F60000A600A6842F480720A600A6942F40072F8
:100F70000A610A6942F480720A610A6842F020023A
:100F80000A602222C1F8FC230A6942F020020A61A9
:100F900000BF00BF00BF0A6842F020020A600A6872
:100FA00042F480720A6000BF00BF00BF0A6842F4CA
:100FB00000720A604FF496320B69013A43F40073F1
:100FC0000B610B6843F480730B600B6843F02003E4
:100FD0000B60C1F8FC030B6943F020030B6100BFF9
:100FE00000BF00BF0B6843F020030B600B6843F4A5
:100FF00080730B6000BF00BF00BF0B6843F4007339
:101000000B60D9D1704700002DE9F0410A78FAB1A0
:1010100043F6BA3804464D1C002740F23F16C0F68E
:10102000000800BFA2F12000C1B2490051FA80F0CF
:1010300008EB0012B1B2204600F00CF8EA5D002A7D
:1010400008BFBDE8F081103E132F07F10107E9D377
:10105000BDE8F0812DE9F04740F21843C4F60003E3
:101060001F694FF0200C47F400771F611F694FF094
:10107000210E47F480771F611F6840F2000947F096
:1010800020071F60C3F8FCC31F6940F2180A47F02D
:1010900020071F6100BF00BF00BF1F684FF022087C
:1010A00047F020071F601F68C2F2000947F48077ED
:1010B0001F60C3F8FC031F69C2F2000A47F0200753
:1010C0001F6100BF00BF00BF1F6847F020071F60FF
:1010D0001F6847F480771F601F6947F400771F611E
:1010E0001F6947F480771F611F6847F020071F6062
:1010F000C3F8FCE31C6944F020041C6100BF00BF7E
:1011000000BF1C6844F020041C601C6844F4807418
:101110001C60C3F8FC131C6944F020041C6100BF70
:1011200000BF00BF1C6844F020041C601C6844F42D
:1011300080741C60002400BF1D6945F400751D61AA
:101140001D6945F480751D611D6845F020051D6011
:10115000C3F8FC831D6945F020051D6100BF00BF79
:1011600000BF1D6845F020051D601D6845F48075B1
:101170001D6000BF00BF00BF1D6845F400751D6005
:10118000002500BF32F81460EE40F607564608BF4F
:101190004E4636881F69013547F400771F611F6886
:1011A000102D47F480771F601F6847F020071F60ED
:1011B000C3F8FC631E6946F020061E6100BF00BF35
:1011C00000BF1E6846F020061E601E6846F480764A
:1011D0001E6000BF00BF00BF1E6846F400761E60A0
:1011E000D0D11D69013045F400751D611D690134C0
:1011F00045F480751D611D68182C45F020051D60A3
:10120000C3F8FCC31D6945F020051D6100BF00BF88
:1012100000BF1D6845F020051D601D6845F4807500
:101220001D60C5B2C3F8FC531D6945F020051D6162
:1012300000BF00BF00BF1D6845F020051D601D6890
:1012400045F480751D601D6945F400751D611D69BB
:1012500045F480751D611D6845F020051D60C3F8CB
:10126000FCE31D6945F020051D6100BF00BF00BF04
:101270001D6845F020051D601D6845F480751D60E2
:10128000C3F8FC131D6945F020051D6100BF00BFB8
:1012900000BF1D6845F020051D601D6845F4807580
:1012A0001D6008BFBDE8F08746E700002DE9F04F5C
:1012B0008BB0002641F24C000596CDE90366CDE9DE
:1012C0000166C4F20200016840F2184541F00401D1
:1012D00001600168C4F6000501F004010691069959
:1012E000016801AC41F001010160016840F6140998
:1012F00001F001010691069901684FF0030841F0E1
:10130000020101600068214600F002000690069884
:101310004FF44870019001200290A5F11800C4F626
:1013200000090127CDE90368FEF7C4FF4FF4807080
:10133000CDE901074FF090402146CDE90368FEF763
:10134000B9FF4FF6FF7005F57A74069006A920469E
:101350000A9608964FF6FF7B0797CDF82480FEF794
:10136000A9FF4FF6004ACFF6FF7A55F80A0006A902
:1013700040F4807045F80A0028684FF6FF7740F483
:1013800008702860286940F400702861286940F4DA
:1013900080702861286840F020002860C9F800604B
:1013A000286940F02000286100BF00BF00BF286806
:1013B00040F020002860286840F4807028602046B3
:1013C0000A960896CDE906B6CDF82480FEF772FF9E
:1013D0004FF6104BCFF6FF7B55F80B0006A940F4F3
:1013E000807045F80B0000BF00BF00BFD5F8F89330
:1013F00055F80A0040F4807045F80A0001200A966A
:101400000896079020460697CDF82480FEF752FFF5
:10141000286848F2302140F40070286040F228002B
:10142000C2F20000A0F800900088884202D100F0CB
:10143000F1F801E000F062FE2869002740F4007036
:10144000286128694FF6FF7840F480702861286889
:101450004FF0030940F02000286040F61400C4F665
:1014600000000760286906A940F02000286100BF3D
:1014700000BF00BF286840F020002860286840F4C2
:101480008070286020460A97CDE90777CDF818804C
:10149000CDF82490FEF70EFF55F80B0006A940F496
:1014A000807045F80B0000BF00BF00BFD5F8F8639F
:1014B00055F80A0040F4807045F80A0001200A97A8
:1014C000089707902046CDF81880CDF82490FEF7B5
:1014D000F1FE286840F40070286040F22800C2F253
:1014E000000006800BB0BDE8F08F000081B0ADF8C1
:1014F0000200BDF8020040F20001C2F200010880C3
:1015000001B0704781B0ADF80200BDF8020040F2B2
:101510001801C2F20001088001B070472DE9F043C4
:1015200087B0002741F24C000697CDE90477CDE95A
:101530000277C4F20200016840F6000841F004019D
:1015400001600168C4F6000801F0040101910199ED
:101550000168012241F02001016001684FF47F46DB
:1015600001F02001019101990168012541F001017B
:101570000160016801F0010101910199016841F0E8
:1015800002010160016801F0020101910199016805
:1015900041F00801016000684FF47F4100F008004D
:1015A000019001984046FEF75DFF08F580642046F3
:1015B000042101224FF00409FEF754FFCDE9026532
:1015C00002AE40463146CDE90477FEF773FE4FF098
:1015D00090403146CDE902570495FEF76BFE072097
:1015E000CDE90207A8F5806031460495FEF762FE5A
:1015F00020463146CDE90295CDE90477FEF75AFE43
:1016000007B0BDE8F0830000FEE70000FEE7000041
:101610007047000040F21840C4F600000169002243
:1016200041F40071016101694FF0030C41F48071D4
:101630000161016841F020010160C0F8FC230169EB
:1016400041F02001016100BF00BF00BF016841F00F
:1016500020010160016841F4807101600121C0F83E
:10166000FC13036943F02003036100BF00BF00BF08
:10167000036843F020030360036843F4807303604E
:10168000036943F400730361036943F480730361E6
:10169000036843F020030360C0F8FC13036943F0C0
:1016A0002003036100BF00BF00BF036843F02003B5
:1016B0000360036843F480730360C0F8FC2302698D
:1016C00042F02002026100BF00BF00BF026842F08A
:1016D00020020260026842F480720260026942F4F1
:1016E00000720261026942F480720261026842F093
:1016F000200202601022C0F8FC23026942F020029E
:10170000026100BF00BF00BF026842F02002026019
:10171000026842F48072026041F29072C0F8FC23C9
:10172000026942F02002026100BF00BF00BF0268F0
:1017300042F020020260026842F480720260026994
:1017400042F400720261026942F48072026102682E
:1017500042F0200202606022C0F8FC23026942F0DD
:101760002002026100BF00BF00BF026842F02002F9
:101770000260026842F4807202604FF41C52C0F8AA
:10178000FC23026942F02002026100BF00BF00BFDB
:10179000026842F020020260026842F48072026035
:1017A000026942F400720261026942F480720261CD
:1017B000026842F0200202606122C0F8FC23026944
:1017C00042F02002026100BF00BF00BF026842F089
:1017D00020020260026842F480720260C0F8FC13CA
:1017E000016941F02001016100BF00BF00BF016835
:1017F00041F020010160016841F4807101600169DC
:1018000041F400710161016941F480710161016875
:1018100041F0200101604621C0F8FC13016941F04C
:101820002001016100BF00BF00BF016841F020013D
:101830000160016841F4807101600221C0F8FC136D
:10184000026942F02002026100BF00BF00BF0268CF
:1018500042F020020260026842F480720260026973
:1018600042F400720261026942F48072026102680D
:1018700042F0200202601322C0F8FC23026942F009
:101880002002026100BF00BF00BF026842F02002D8
:101890000260026842F48072026048F21002C0F8EE
:1018A000FC23026942F02002026100BF00BF00BFBA
:1018B000026842F020020260026842F48072026014
:1018C000026942F400720261026942F480720261AC
:1018D000026842F0200202601222C0F8FC23026972
:1018E00042F02002026100BF00BF00BF026842F068
:1018F00020020260026842F48072026048F2FE0236
:10190000C0F8FC23026942F02002026100BF00BF60
:1019100000BF026842F020020260026842F4807256
:101920000260026942F400720261026942F480724C
:101930000261026842F020020260C0F8FC130169F3
:1019400041F02001016100BF00BF00BF016841F00C
:1019500020010160016841F4807101604FF4A061D1
:10196000C0F8FC13016941F02001016100BF00BF14
:1019700000BF016841F020010160016841F48071FD
:101980000160016941F400710161016941F48071F4
:101990000161016841F020010160C0F8FCC30269E7
:1019A00042F02002026100BF00BF00BF026842F0A7
:1019B00020020260026842F48072026041F230024A
:1019C000C0F8FC23026942F02002026100BF00BFA0
:1019D00000BF026842F020020260026842F4807296
:1019E0000260026942F400720261026942F480728C
:1019F0000261026842F0200202603022C0F8FC233B
:101A0000026942F02002026100BF00BF00BF02680D
:101A100042F020020260026842F48072026040F2EA
:101A20000332C0F8FC23036943F02003036100BFC5
:101A300000BF00BF036843F020030360036843F462
:101A400080730360036943F400730361036943F423
:101A500080730361036843F0200303603123C0F8FF
:101A6000FC33036943F02003036100BF00BF00BFE4
:101A7000036843F020030360036843F4807303604A
:101A8000C0F8FC23036943F02003036100BF00BFDB
:101A900000BF036843F020030360036843F48073CE
:101AA0000360036943F400730361036943F48073C3
:101AB0000361036843F0200303603223C0F8FC3362
:101AC000036943F02003036100BF00BF00BF036848
:101AD00043F020030360036843F480730360C0F89D
:101AE000FC23036943F02003036100BF00BF00BF74
:101AF000036843F020030360036843F480730360CA
:101B0000036943F400730361036943F48073036161
:101B1000036843F0200303603323C0F8FC330369F8
:101B200043F02003036100BF00BF00BF036843F020
:101B300020030360036843F4807303604FF4407331
:101B4000C0F8FC33016941F02001016100BF00BF12
:101B500000BF016841F020010160016841F480711B
:101B60000160016941F400710161016941F4807112
:101B70000161016841F0200101603421C0F8FC13CB
:101B8000016941F02001016100BF00BF00BF016891
:101B900041F020010160016841F480710160C0F8EA
:101BA000FCC3016941F02001016100BF00BF00BF1B
:101BB000016841F020010160016841F48071016019
:101BC000016941F400710161016941F480710161B1
:101BD000016841F0200101603521C0F8FC13016962
:101BE00041F02001016100BF00BF00BF016841F06A
:101BF00020010160016841F480710160C0F8FC239C
:101C0000016941F02001016100BF00BF00BF016810
:101C100041F020010160016841F4807101600169B7
:101C200041F400710161016941F480710161016851
:101C300041F0200101603621C0F8FC13016941F038
:101C40002001016100BF00BF00BF016841F0200119
:101C50000160016841F4807101601421C0F8FC1337
:101C6000016941F02001016100BF00BF00BF0168B0
:101C700041F020010160016841F480710160016957
:101C800041F400710161016941F4807101610168F1
:101C900041F0200101603721C0F8FC13016941F0D7
:101CA0002001016100BF00BF00BF016841F02001B9
:101CB0000160016841F480710160C0F8FC23016992
:101CC00041F02001016100BF00BF00BF016841F089
:101CD00020010160016841F480710160016941F4F3
:101CE00000710161016941F480710161016841F095
:101CF000200101603821C0F8FC13016941F0200186
:101D0000016100BF00BF00BF016841F02001016018
:101D1000016841F480710160C0F8FC23016941F061
:101D20002001016100BF00BF00BF016841F0200138
:101D30000160016841F480710160016941F4007142
:101D40000161016941F480710161016841F0200184
:101D500001603921C0F8FC13016941F020010161E3
:101D600000BF00BF00BF016841F0200101600168B1
:101D700041F480710160C0F8FC23016941F0200149
:101D8000016100BF00BF00BF016841F02001016098
:101D9000016841F480710160016941F400710161E1
:101DA000016941F480710161016841F02001016025
:101DB0003A21C0F8FC13016941F02001016100BF24
:101DC00000BF00BF016841F020010160016841F4DB
:101DD00080710160C0F8FC33016941F020010161AC
:101DE00000BF00BF00BF016841F020010160016831
:101DF00041F480710160016941F400710161016980
:101E000041F480710161016841F0200101603B21D2
:101E1000C0F8FC13016941F02001016100BF00BF5F
:101E200000BF016841F020010160016841F4807148
:101E30000160C0F8FCC3016941F02001016100BFED
:101E400000BF00BF016841F020010160016841F45A
:101E500080710160016941F400710161016941F41F
:101E600080710161016841F0200101603C21C0F8EE
:101E7000FC13016941F02001016100BF00BF00BFF8
:101E8000016841F020010160016841F48071016046
:101E9000C0F8FC23016941F02001016100BF00BFCF
:101EA00000BF016841F020010160016841F48071C8
:101EB0000160016941F400710161016941F48071BF
:101EC0000161016841F0200101603D21C0F8FC136F
:101ED000016941F02001016100BF00BF00BF01683E
:101EE00041F020010160016841F4807101604FF40C
:101EF000A051C0F8FC13016941F02001016100BF4D
:101F000000BF00BF016841F020010160016841F499
:101F100080710160016941F400710161016941F45E
:101F200080710161016841F0200101609221C0F8D7
:101F3000FC13016941F02001016100BF00BF00BF37
:101F4000016841F020010160016841F48071016085
:101F50004FF40071C0F8FC13016941F020010161E8
:101F600000BF00BF00BF016841F0200101600168AF
:101F700041F480710160016941F4007101610169FE
:101F800041F480710161016841F0200101609321F9
:101F9000C0F8FC13016941F02001016100BF00BFDE
:101FA00000BF016841F020010160016841F48071C7
:101FB0000160C0F8FC23016941F02001016100BF0C
:101FC00000BF00BF016841F020010160016841F4D9
:101FD00080710160016941F400710161016941F49E
:101FE00080710161016841F0200101609021C0F819
:101FF000FC13016941F02001016100BF00BF00BF77
:10200000016841F020010160016841F480710160C4
:1020100040F60D01C0F8FC13016941F02001016197
:1020200000BF00BF00BF016841F0200101600168EE
:1020300041F480710160016941F40071016101693D
:1020400041F480710161016841F020010160C0F834
:10205000FCC3016941F02001016100BF00BF00BF66
:10206000016841F020010160016841F48071016064
:1020700041F21801C0F8FC13016941F0200101612F
:1020800000BF00BF00BF016841F02001016001688E
:1020900041F480710160016941F4007101610169DD
:1020A00041F480710161016841F020010160072164
:1020B000C0F8FC13016941F02001016100BF00BFBD
:1020C00000BF016841F020010160016841F48071A6
:1020D000016040F27311C0F8FC13016941F0200166
:1020E000016100BF00BF00BF016841F02001016035
:1020F000016841F480710160704700002DE9F04FE4
:1021000081B040F21844C4F6000420694FF012096F
:1021100040F4007020612069002540F48070206147
:102120002068112640F020002060E320C4F8FC0362
:1021300020694FF0130B40F02000206100BF00BF6A
:1021400000BF2068102740F02000206020684FF07A
:10215000070840F48070206043F20800C4F8FC03D4
:10216000206940F02000206100BF00BF00BF206850
:1021700040F020002060206840F4807020602069DA
:1021800040F400702061206940F480702061206874
:1021900040F020002060E720C4F8FC03206940F0F4
:1021A0002000206100BF00BF00BF206840F0200079
:1021B0002060206840F480702060C4F8FC9320699F
:1021C00040F02000206100BF00BF00BF206840F049
:1021D00020002060206840F480702060206940F476
:1021E00000702061206940F480702061206840F018
:1021F00020002060EF20C4F8FC03206940F020009C
:10220000206100BF00BF00BF206840F020002060B8
:10221000206840F48070206041F23120C4F8FC0353
:10222000206940F02000206100BF00BF00BF20688F
:1022300040F020002060206840F480702060206919
:1022400040F400702061206940F4807020612068B3
:1022500040F0200020600120C4F8FC03206940F019
:102260002000206100BF00BF00BF206840F02000B8
:102270002060206840F480702060C4F8FC5320691E
:1022800040F02000206100BF00BF00BF206840F088
:1022900020002060206840F480702060206940F4B5
:1022A00000702061206940F480702061206840F057
:1022B000200020600220C4F8FC03206940F02000C8
:1022C000206100BF00BF00BF206840F020002060F8
:1022D000206840F4807020604FF4E060C4F8FC0394
:1022E000206940F02000206100BF00BF00BF2068CF
:1022F00040F020002060206840F480702060206959
:1023000040F400702061206940F4807020612068F2
:1023100040F0200020600320C4F8FC03206940F056
:102320002000206100BF00BF00BF206840F02000F7
:102330002060206840F48070206041F23000C4F8D2
:10234000FC03206940F02000206100BF00BF00BFF7
:10235000206840F020002060206840F480702060F9
:10236000206940F400702061206940F48070206191
:10237000206840F0200020600420C4F8FC0320699D
:1023800040F02000206100BF00BF00BF206840F087
:1023900020002060206840F480702060C4F8FC5366
:1023A000206940F02000206100BF00BF00BF20680E
:1023B00040F020002060206840F480702060206998
:1023C00040F400702061206940F480702061206832
:1023D00040F0200020600820C4F8FC03206940F091
:1023E0002000206100BF00BF00BF206840F0200037
:1023F0002060206840F48070206040F20720C4F81C
:10240000FC03206940F02000206100BF00BF00BF36
:10241000206840F020002060206840F48070206038
:10242000206940F400702061206940F480702061D0
:10243000206840F0200020600920C4F8FC032069D7
:1024400040F02000206100BF00BF00BF206840F0C6
:1024500020002060206840F480702060C4F8FC53A5
:10246000206940F02000206100BF00BF00BF20684D
:1024700040F020002060206840F4807020602069D7
:1024800040F400702061206940F480702061206871
:1024900040F0200020600A20C4F8FC03206940F0CE
:1024A0002000206100BF00BF00BF206840F0200076
:1024B0002060206840F480702060C4F8FC532069DC
:1024C00040F02000206100BF00BF00BF206840F046
:1024D00020002060206840F480702060206940F473
:1024E00000702061206940F480702061206840F015
:1024F000200020600C20C4F8FC03206940F020007C
:10250000206100BF00BF00BF206840F020002060B5
:10251000206840F480702060C4F8FC53206940F0CB
:102520002000206100BF00BF00BF206840F02000F5
:102530002060206840F480702060206940F40070C2
:102540002061206940F480702061206840F0200004
:1025500020600D20C4F8FC03206940F020002061B9
:1025600000BF00BF00BF206840F02000206020684E
:1025700040F480702060C4F8FC53206940F02000D3
:10258000206100BF00BF00BF206840F02000206035
:10259000206840F480702060206940F40070206161
:1025A000206940F480702061206840F020002060A5
:1025B0000F20C4F8FC03206940F02000206100BF18
:1025C00000BF00BF206840F020002060206840F479
:1025D00080702060C4F8FC53206940F02000206126
:1025E00000BF00BF00BF206840F0200020602068CE
:1025F00040F480702060206940F400702061206900
:1026000040F480702061206840F02000206010209D
:10261000C4F8FC03206940F02000206100BF00BF27
:1026200000BF206840F020002060206840F48070E7
:102630002060C4F8FC53206940F02000206100BFF6
:1026400000BF00BF206840F020002060206840F4F8
:1026500080702060206940F400702061206940F49F
:1026600080702061206840F020002060C4F8FC6386
:10267000206940F02000206100BF00BF00BF20683B
:1026800040F020002060206840F480702060072027
:10269000C4F8FC03206940F02000206100BF00BFA7
:1026A00000BF206840F020002060206840F4807067
:1026B0002060206940F400702061206940F480703F
:1026C0002061206840F020002060C4F8FC9320695D
:1026D00040F02000206100BF00BF00BF206840F034
:1026E00020002060206840F480702060C4F8FC5313
:1026F000206940F02000206100BF00BF00BF2068BB
:1027000040F020002060206840F480702060206944
:1027100040F400702061206940F4807020612068DE
:1027200040F020002060C4F8FCB3206940F0200095
:10273000206100BF00BF00BF206840F02000206083
:10274000206840F480702060C4F8FC53206940F099
:102750002000206100BF00BF00BF206840F02000C3
:102760002060206840F480702060C820FDF78EFD56
:1027700020694FF0320A40F400702061206940F473
:1027800080702061206840F020002060C4F8FC7355
:102790002069102740F02000206100BF00BF00BF6B
:1027A000206840F020002060206840F480702060A5
:1027B00041F29060C4F8FC03206940F020002061E1
:1027C00000BF00BF00BF206840F0200020602068EC
:1027D00040F480702060206940F40070206120691E
:1027E00040F480702061206840F020002060C4F830
:1027F000FC63206940F02000206100BF00BF00BFE3
:10280000206840F020002060206840F48070206044
:1028100040F22720C4F8FC03206940F0200020612A
:1028200000BF00BF00BF206840F02000206020688B
:1028300040F4807020603220FDF728FD206940F4CC
:1028400000702061206940F480702061206840F0B1
:1028500020002060C4F8FC93206940F02000206133
:1028600000BF00BF00BF206840F02000206020684B
:1028700040F4807020601D20C4F8FC03206940F003
:102880002000206100BF00BF00BF206840F0200092
:102890002060206840F4807020603220FDF7F6FC54
:1028A000206940F400702061206940F4807020614C
:1028B000206840F020002060C4F8FCB3206940F09C
:1028C0002000206100BF00BF00BF206840F0200052
:1028D0002060206840F4807020604FF40060C4F8ED
:1028E000FC03206940F02000206100BF00BF00BF52
:1028F000206840F020002060206840F48070206054
:10290000206940F400702061206940F480702061EB
:10291000206840F0200020602920C4F8FC032069D2
:1029200040F02000206100BF00BF00BF206840F0E1
:1029300020002060206840F4807020601420C4F8DB
:10294000FC03206940F02000206100BF00BF00BFF1
:10295000206840F020002060206840F480702060F3
:10296000206940F400702061206940F4807020618B
:10297000206840F0200020602B20C4F8FC03206970
:1029800040F02000206100BF00BF00BF206840F081
:1029900020002060206840F4807020600B20C4F884
:1029A000FC03206940F02000206100BF00BF00BF91
:1029B000206840F020002060206840F48070206093
:1029C0003220FDF763FC2069032140F40070206190
:1029D0002069072240F480702061206840F02000C8
:1029E00020602020C4F8FC03206940F02000206112
:1029F00000BF00BF00BF206840F0200020602068BA
:102A000040F480702060C4F8FC53206940F020003E
:102A1000206100BF00BF00BF206840F020002060A0
:102A2000206840F480702060206940F400702061CC
:102A3000206940F480702061206840F02000206010
:102A40002120C4F8FC03206940F02000206100BF71
:102A500000BF00BF206840F020002060206840F4E4
:102A600080702060C4F8FC53206940F02000206191
:102A700000BF00BF00BF206840F020002060206839
:102A800040F480702060206940F40070206120696B
:102A900040F480702061206840F0200020603020E9
:102AA000C4F8FC03206940F02000206100BF00BF93
:102AB00000BF206840F020002060206840F4807053
:102AC0002060C4F8FC83206940F02000206100BF32
:102AD00000BF00BF206840F020002060206840F464
:102AE00080702060206940F400702061206940F40B
:102AF00080702061206840F0200020603120C4F800
:102B0000FC03206940F02000206100BF00BF00BF2F
:102B1000206840F020002060206840F48070206031
:102B200040F20770C4F8FC03206940F020002061E7
:102B300000BF00BF00BF206840F020002060206878
:102B400040F480702060206940F4007020612069AA
:102B500040F480702061206840F020002060C4F8BC
:102B6000FCA3206940F02000206100BF00BF00BF2F
:102B7000206840F020002060206840F480702060D1
:102B80000620C4F8FC03206940F02000206100BF4B
:102B900000BF00BF206840F020002060206840F4A3
:102BA00080702060206940F400702061206940F44A
:102BB00080702061206840F0200020603520C4F83B
:102BC000FC03206940F02000206100BF00BF00BF6F
:102BD000206840F020002060206840F48070206071
:102BE00040F20470C4F8FC03206940F0200020612A
:102BF00000BF00BF00BF206840F0200020602068B8
:102C000040F480702060206940F4007020612069E9
:102C100040F480702061206840F020002060362061
:102C2000C4F8FC03206940F02000206100BF00BF11
:102C300000BF206840F020002060206840F48070D1
:102C4000206041F60470C4F8FC03206940F02000C5
:102C5000206100BF00BF00BF206840F0200020605E
:102C6000206840F480702060206940F4007020618A
:102C7000206940F480702061206840F020002060CE
:102C80003720C4F8FC03206940F02000206100BF19
:102C900000BF00BF206840F020002060206840F4A2
:102CA000807020600420C4F8FC03206940F02000FC
:102CB000206100BF00BF00BF206840F020002060FE
:102CC000206840F480702060206940F4007020612A
:102CD000206940F480702061206840F0200020606E
:102CE0003820C4F8FC03206940F02000206100BFB8
:102CF00000BF00BF206840F020002060206840F442
:102D000080702060C4F8FC53206940F020002061EE
:102D100000BF00BF00BF206840F020002060206896
:102D200040F480702060206940F4007020612069C8
:102D300040F480702061206840F02000206039203D
:102D4000C4F8FC03206940F02000206100BF00BFF0
:102D500000BF206840F020002060206840F48070B0
:102D6000206040F20670C4F8FC03206940F02000A7
:102D7000206100BF00BF00BF206840F0200020603D
:102D8000206840F480702060206940F40070206169
:102D9000206940F480702061206840F020002060AD
:102DA0003C20C4F8FC03206940F02000206100BFF3
:102DB00000BF00BF206840F020002060206840F481
:102DC0008070206040F20170C4F8FC03206940F07C
:102DD0002000206100BF00BF00BF206840F020003D
:102DE0002060206840F480702060206940F400700A
:102DF0002061206940F480702061206840F020004C
:102E000020603D20C4F8FC03206940F020002061D0
:102E100000BF00BF00BF206840F020002060206895
:102E200040F4807020600F20C4F8FC03206940F05B
:102E30002000206100BF00BF00BF206840F02000DC
:102E40002060206840F480702060206940F40070A9
:102E50002061206940F480702061206840F02000EB
:102E600020605020C4F8FC03206940F0200020615D
:102E700000BF00BF00BF206840F020002060206835
:102E800040F480702060C4F8FC53206940F02000BA
:102E9000206100BF00BF00BF206840F0200020601C
:102EA000206840F480702060206940F40070206148
:102EB000206940F480702061206840F0200020608C
:102EC0005120C4F8FC03206940F02000206100BFBD
:102ED00000BF00BF206840F020002060206840F460
:102EE00080702060EF20C4F8FC03206940F02000CF
:102EF000206100BF00BF00BF206840F020002060BC
:102F0000206840F480702060206940F400702061E7
:102F1000206940F480702061206840F0200020602B
:102F20005220C4F8FC03206940F02000206100BF5B
:102F300000BF00BF206840F020002060206840F4FF
:102F400080702060C4F8FC53206940F020002061AC
:102F500000BF00BF00BF206840F020002060206854
:102F600040F480702060206940F400702061206986
:102F700040F480702061206840F0200020605320E1
:102F8000C4F8FC03206940F02000206100BF00BFAE
:102F900000BF206840F020002060206840F480706E
:102FA000206040F23F10C4F8FC03206940F020008C
:102FB000206100BF00BF00BF206840F020002060FB
:102FC000206840F480702060206940F40070206127
:102FD000206940F480702061206840F0200020606B
:102FE0006020C4F8FC03206940F02000206100BF8D
:102FF00000BF00BF206840F020002060206840F43F
:10300000807020604FF41C50C4F8FC03206940F02D
:103010002000206100BF00BF00BF206840F02000FA
:103020002060206840F480702060206940F40070C7
:103030002061206940F480702061206840F0200009
:1030400020606120C4F8FC03206940F0200020616A
:1030500000BF00BF00BF206840F020002060206853
:1030600040F4807020600120C4F8FC03206940F027
:103070002000206100BF00BF00BF206840F020009A
:103080002060206840F480702060206940F4007067
:103090002061206940F480702061206840F02000A9
:1030A00020606A20C4F8FC03206940F02000206101
:1030B00000BF00BF00BF206840F0200020602068F3
:1030C00040F480702060C4F8FC53206940F0200078
:1030D000206100BF00BF00BF206840F020002060DA
:1030E000206840F480702060206940F40070206106
:1030F000206940F480702061206840F0200020604A
:103100008020C4F8FC03206940F02000206100BF4B
:1031100000BF00BF206840F020002060206840F41D
:1031200080702060C4F8FC53206940F020002061CA
:1031300000BF00BF00BF206840F020002060206872
:1031400040F480702060206940F4007020612069A4
:1031500040F480702061206840F0200020608120D1
:10316000C4F8FC03206940F02000206100BF00BFCC
:1031700000BF206840F020002060206840F480708C
:103180002060C4F8FC53206940F02000206100BF9B
:1031900000BF00BF206840F020002060206840F49D
:1031A00080702060206940F400702061206940F444
:1031B00080702061206840F0200020608220C4F8E8
:1031C000FC03206940F02000206100BF00BF00BF69
:1031D000206840F020002060206840F4807020606B
:1031E000C4F8FC53206940F02000206100BF00BFFC
:1031F00000BF206840F020002060206840F480700C
:103200002060206940F400702061206940F48070E3
:103210002061206840F0200020608320C4F8FC0377
:10322000206940F02000206100BF00BF00BF20687F
:1032300040F020002060206840F480702060C4F8D6
:10324000FC53206940F02000206100BF00BF00BF98
:10325000206840F020002060206840F480702060EA
:10326000206940F400702061206940F48070206182
:10327000206840F0200020608420C4F8FC0320690E
:1032800040F02000206100BF00BF00BF206840F078
:1032900020002060206840F480702060C4F8FC5357
:1032A000206940F02000206100BF00BF00BF2068FF
:1032B00040F020002060206840F480702060206989
:1032C00040F400702061206940F480702061206823
:1032D00040F0200020608520C4F8FC03206940F005
:1032E0002000206100BF00BF00BF206840F0200028
:1032F0002060206840F480702060C4F8FC5320698E
:1033000040F02000206100BF00BF00BF206840F0F7
:1033100020002060206840F480702060206940F424
:1033200000702061206940F480702061206840F0C6
:10333000200020609020C4F8FC03206940F02000A9
:10334000206100BF00BF00BF206840F02000206067
:10335000206840F480702060C4F8FC73206940F05D
:103360002000206100BF00BF00BF206840F02000A7
:103370002060206840F480702060206940F4007074
:103380002061206940F480702061206840F02000B6
:1033900020609220C4F8FC03206940F020002061E6
:1033A00000BF00BF00BF206840F020002060206800
:1033B00040F480702060C4F8FC53206940F0200085
:1033C000206100BF00BF00BF206840F020002060E7
:1033D000206840F480702060206940F40070206113
:1033E000206940F480702061206840F02000206057
:1033F0009320C4F8FC03206940F02000206100BF46
:1034000000BF00BF206840F020002060206840F42A
:1034100080702060C4F8FC13206940F02000206117
:1034200000BF00BF00BF206840F02000206020687F
:1034300040F480702060206940F4007020612069B1
:1034400040F480702061206840F0200020609520CA
:10345000C4F8FC03206940F02000206100BF00BFD9
:1034600000BF206840F020002060206840F4807099
:1034700020604FF48870C4F8FC03206940F02000FD
:10348000206100BF00BF00BF206840F02000206026
:10349000206840F480702060206940F40070206152
:1034A000206940F480702061206840F02000206096
:1034B0009720C4F8FC03206940F02000206100BF81
:1034C00000BF00BF206840F020002060206840F46A
:1034D00080702060C4F8FC53206940F02000206117
:1034E00000BF00BF00BF206840F0200020602068BF
:1034F00040F480702060206940F4007020612069F1
:1035000040F480702061206840F020002060982006
:10351000C4F8FC03206940F02000206100BF00BF18
:1035200000BF206840F020002060206840F48070D8
:103530002060C4F8FC53206940F02000206100BFE7
:1035400000BF00BF206840F020002060206840F4E9
:1035500080702060206940F400702061206940F490
:1035600080702061206840F020002060C4F8FC13C7
:10357000206940F02000206100BF00BF00BF20682C
:1035800040F020002060206840F48070206041F20C
:103590001800C4F8FC03206940F02000206100BF3F
:1035A00000BF00BF206840F020002060206840F489
:1035B00080702060206940F400702061206940F430
:1035C00080702061206840F020002060C4F8FC2357
:1035D000206940F02000206100BF00BF00BF2068CC
:1035E00040F020002060206840F48070206040F2AD
:1035F0007310C4F8FC03206940F02000206100BF74
:1036000000BF00BF206840F020002060206840F428
:103610008070206001B0BDE8F08F000070470000AE
:1036200040F22E00C2F20000007830B140F22000DB
:10363000C2F2000001680131016040F22A00C2F2CA
:1036400000000078002808BFFCF718BF40F22400F3
:10365000C2F20000016801310160FCF70FBF0000F9
:103660004EF68850CEF20000016841F4700101600E
:1036700070470000FEE700002DE9F04F81B0FCF735
:10368000F7FE40F20044C4F6000420460121012662
:10369000FCF7E2FE40F22B07002818BF0120C2F21F
:1036A0000007387020460221FCF7D6FE40F22C05B8
:1036B000002818BF0120C2F200052870204604210E
:1036C000FCF7CAFE40F22D01002818BF0120C2F20B
:1036D000000108704FF090400121FCF7BDFE40F260
:1036E0000809C2F20009002818BF0120397899F8AA
:1036F000002081F0FF0382F001021A4240F2200311
:1037000040F22E0BC2F20003C2F2000B0CD01F6875
:103710008BF80060B7F5FA6F06D940F21C07C2F2C9
:1037200000073E6801363E600A420ED01A68120950
:103730007C2A06D840F21C02C2F200021768013748
:10374000176000221A608BF8002040F22F04C2F2AA
:103750000004227840F2090AC2F2000ABAB39AF8C9
:1037600000202D7882F0FF0215420FD01A6812094E
:103770007C2A06D840F21C02C2F200021768013708
:10378000176000228BF8002022701A6040F22A0C89
:10379000C2F2000C9CF8002040F2240E40F20A0312
:1037A000C2F2000EC2F2000352B3DEF8002092080B
:1037B0004A2A32D898461A7840F22D03C2F2000302
:1037C0001E7882F0FF02164235D0022227E02A78C6
:1037D0009AF8007082F0FF0287F001071742BED00E
:1037E0001F680122B7F5FA6F8BF80020B7D940F2B5
:1037F0001C07C2F200073E68227002363E60AEE748
:1038000098461A7840F22D03C2F200031E7882F027
:10381000FF0216420FD001220BE09846012240F22F
:103820001C06C2F2000633681A4432600022CEF849
:1038300000208CF8002022789CF80060002A40F2DA
:103840000B02C2F2000208BF002E2FD0AEB1DEF88C
:1038500000309B084A2B48D81378DB43034250D0F2
:1038600040F21C03C2F200031F6802371F600023EE
:10387000CEF800308CF8003043E01378DB4303428D
:103880003FD040F22006C2F20006336840F22F0714
:103890001B097C2B9CBF01238CF800300023C2F253
:1038A00000073B708BF8003033602AE0137880F01B
:1038B000FF0783F001033B42C8D040F22003C2F26D
:1038C00000031B680124B3F5FA6F8BF80040BDD9E3
:1038D00040F21C03C2F200031F6803371F6040F26E
:1038E0002F03C2F200031C70B0E740F21C03C2F2C7
:1038F00000031F6801371F600023CEF800308CF8EA
:10390000003089F8001040F22D01C2F20001097860
:103910008AF8005088F80010107001B0BDE8F08FF0
:1039200070B586B040F6140540F21C00C4F60005E0
:10393000C2F200002E680268002044F68A5101ACF1
:103940000590CDE90300CDE90100C0F60001204655
:1039500000F058F830202146FDF756FBB0B2286041
:10396000FFF78AFE06B070BD94B0FCF795FD06AC7B
:1039700020463821FCF753FC00254FF400700595D4
:10398000CDE90355CDE90155FCF716FE012006905F
:103990004FF480300521079002200F9120210D90D7
:1039A0000326CDE91010CDE9120020460E96FDF752
:1039B00023F820B1EFF3108072B600BFFEE70F20AE
:1039C000CDE9010601A80221CDE903550595FCF7D3
:1039D00081FE20B1EFF3108072B600BFFEE7FDF765
:1039E00065FC0020FDF75EFA4FF6FF70FDF78AFDDB
:1039F0000020FDF77BFDFDF791FD00BFFFF790FF75
:103A0000FCE700000FB4084B10B504A902AA039804
:103A100000F01CF8044602A9002000F0C1F820467E
:103A200010BC5DF814FB0000A13B000802E008C8D0
:103A3000121F08C1002AFAD170477047002001E028
:103A400001C1121F002AFBD1704700002DE9FF4F72
:103A500089B09B460446002506E025280BD05A462F
:103A60000B999047641C6D1C20780028F5D10DB08F
:103A70002846BDE8F08F0027B8460122474900E0FC
:103A8000074314F8013F203B02FA03F00842F7D144
:103A900020782E2819D114F8010F47F004072A289E
:103AA0000ED06FF02F022078A0F1300109290CD838
:103AB00008EB880102EB410100EB0108641CF2E70E
:103AC0000A98641C50F8048B0A9020780028CED005
:103AD000642808D0692806D075281ED05A460B994C
:103AE00090476D1C58E00A994FF00A0901C90A91E4
:103AF000002802DA40422D2102E0390504D52B21AD
:103B00008DF82010012103E0F90704D02021F7E708
:103B10008A4608AE0DE00021FAE70A994FF00A093B
:103B200001C90A91F7E74946FCF784FB303106F8F2
:103B3000011D0028F7D1ADEB060000F12009780740
:103B400001D44FF00108C84502DDA8EB090000E0F0
:103B500000208046002706E008A85A46C05D0B9961
:103B600090476D1C7F1C5745F6DB04E030205A4619
:103B70000B9990476D1CB8F10001A8F10108F5DC24
:103B800005E016F8010B5A460B9990476D1CB9F1E8
:103B90000001A9F10109F4DC641C65E709280100B2
:103BA0000A68531C0B601070704700000000000092
:103BB00000000102030406070809000000000000DD
:103BC00000000000000000000000000000000000F5
:103BD00000000000000000000000000000000000E5
:103BE00000000000000000000000000080018001D3
:103BF00080018001800180018001800180018001BD
:103C0000800180018001000000008001800100002F
:103C10000000000000000000000000000000CC00D8
:103C2000CC00CC00CC00CC00CC0000000000000098
:103C30000000000000000000000000000000000084
:103C40000000000000000000000000000000000074
:103C5000000000000000600C600C600C30063006B4
:103C6000FE1FFE1F300638071803FE1FFE1F180335
:103C700018038C018C018C01000000008000E0031F
:103C8000F80F9C0E8C1C8C188C009800F801E00733
:103C9000800E801C8C188C189C18B80CF00FE00358
:103CA0008000800000000000000000000000000014
:103CB0000E181B0C110C11061106110311039B01A8
:103CC0008E01C038C06C60446044304430441844B5
:103CD000186C0C380000000000000000E001F00348
:103CE0003807180618063003F001F000F8009C3180
:103CF0000E33061E061C061C063FFC73F021000056
:103D000000000000000000000000000000000C00A7
:103D10000C000C000C000C000C0000000000000067
:103D20000000000000000000000000000000000093
:103D3000000000000000000000000000000200037E
:103D40008001C000C0006000600030003000300022
:103D50003000300030003000300060006000C000F3
:103D6000C00080010003000200000000200060008D
:103D7000C000800180010003000300060006000669
:103D8000000600060006000600060003000380018E
:103D90008001C00060002000000000000000000062
:103DA000000000000000C000C000D806F807E001D5
:103DB0003003380700000000000000000000000091
:103DC00000000000000000000000000000000000F3
:103DD000000000000000800180018001800180015E
:103DE000FC3FFC3F800180018001800180010000D8
:103DF00000000000000000000000000000000000C3
:103E000000000000000000000000000000000000B2
:103E100000000000000000000000000080018001A0
:103E20000001000180000000000000000000000010
:103E30000000000000000000000000000000000082
:103E40000000E007E00700000000000000000000A4
:103E50000000000000000000000000000000000062
:103E60000000000000000000000000000000000052
:103E7000000000000000000000000000C000C000C2
:103E8000000000000000000000000000000C000C1A
:103E90000006000600060003000300038003800103
:103EA00080018001C000C000C00060006000000010
:103EB000000000000000000000000000E003F00728
:103EC000380E180C0C180C180C180C180C180C18B0
:103ED0000C180C180C18180C380EF007E003000032
:103EE0000000000000000000000000000001800150
:103EF000C001F001980188018001800180018001EA
:103F0000800180018001800180018001800100002A
:103F1000000000000000000000000000E003F80FB7
:103F2000180C0C180C1800180018000C00060003E0
:103F30008001C000600030001800FC1FFC1F000062
:103F4000000000000000000000000000E001F80791
:103F5000180E0C0C0C0C000C0006C003C007000C63
:103F6000001800180C180C18180CF807E0030000D3
:103F7000000000000000000000000000000C000E27
:103F8000000F000F800DC00C600C600C300C180C82
:103F90000C0CFC3FFC3F000C000C000C000C000063
:103FA000000000000000000000000000F80FF80F03
:103FB000180018000C00EC03FC071C0E001C001875
:103FC000001800180C181C0C180EF807E00300006D
:103FD000000000000000000000000000C007F00F1B
:103FE000381C181818000C00CC03EC0F3C0E1C1CDD
:103FF0000C180C180C18181C380EF007E003000001
:10400000000000000000000000000000FC1FFC1F7A
:10401000000C00060006000380038001C001C00000
:10402000E0006000600070003000300030000000F0
:10403000000000000000000000000000E003F007A6
:10404000380E180C180C180C3806F007F007180C6E
:104050000C180C180C180C18380CF80FE0030000A2
:10406000000000000000000000000000E003F00776
:10407000380E1C0C0C180C180C181C1C381EF81BC5
:10408000E0190018000C000C1C0EF807F0010000ED
:104090000000000000000000000000000000000020
:1040A000000000000000800180010000000000000E
:1040B00000000000000000000000800180010000FE
:1040C00000000000000000000000000000000000F0
:1040D00000000000000080018001000000000000DE
:1040E00000000000000000000000800180010001CD
:1040F000000180000000000000000000000000003F
:10410000000000000000000000000010001C800FF4
:10411000E003F8001800F800E003800F001C001016
:10412000000000000000000000000000000000008F
:1041300000000000000000000000F81F0000000068
:104140000000F81F00000000000000000000000058
:10415000000000000000000000000000000000005F
:104160000000000000000000000008003800F0011E
:10417000C007001F0018001FC007F001380008002A
:10418000000000000000000000000000E003F80F45
:10419000180C0C180C180018000C00060003800105
:1041A000C000C000C00000000000C000C00000004F
:1041B0000000000000000000000000000000E00718
:1041C00018180420C229224A114409440944094408
:1041D00009221113E20C024004201818E007000025
:1041E00000000000000000000000000080038003C9
:1041F000C006C006C006600C600C301830183018BD
:10420000F83FF83F1C700C600C6006C006C0000050
:10421000000000000000000000000000FC03FC0F94
:104220000C0C0C180C180C180C0CFC07FC0F0C18C0
:104230000C300C300C300C300C18FC1FFC0700004C
:10424000000000000000000000000000C007F01F98
:1042500038381C300C7006600600060006000600A8
:104260000600060006600C701C30F01FE00700001E
:10427000000000000000000000000000FE03FE0F30
:10428000060E0618061806300630063006300630D0
:104290000630063006180618060EFE0FFE03000054
:1042A000000000000000000000000000FC3FFC3F98
:1042B0000C000C000C000C000C00FC1FFC1F0C0080
:1042C0000C000C000C000C000C00FC3FFC3F00003C
:1042D000000000000000000000000000F83FF83F70
:1042E00018001800180018001800F81FF81F180010
:1042F0001800180018001800180018001800000016
:10430000000000000000000000000000E00FF83F87
:104310003C780E6006E007C00300030003FE03FEC6
:1043200003C007C006C00EC03CF0F83FE00F00001D
:104330000000000000000000000000000C300C3005
:104340000C300C300C300C300C30FC3FFC3F0C308F
:104350000C300C300C300C300C300C300C300000B9
:10436000000000000000000000000000800180014B
:104370008001800180018001800180018001800135
:1043800080018001800180018001800180010000A6
:104390000000000000000000000000000006000611
:1043A00000060006000600060006000600060006DD
:1043B00000060006180618063807F003E0010000A2
:1043C0000000000000000000000000000630061899
:1043D000060C060606038601C60066007600DE00AF
:1043E0008E0106030606060C06180630066000005D
:1043F000000000000000000000000000180018008D
:1044000018001800180018001800180018001800EC
:1044100018001800180018001800F81FF81F0000F6
:104420000000000000000000000000000EE01EF090
:104430001EF01EF036D836D836D836D866CC66CCC4
:1044400066CCC6C6C6C6C6C6C6C686C386C3000078
:104450000000000000000000000000000C301C30D4
:104460003C303C306C306C30CC30CC308C310C3348
:104470000C330C360C360C3C0C3C0C380C30000069
:10448000000000000000000000000000E007F81F2E
:104490001C380E70066003C003C003C003C003C015
:1044A00003C003C006600E701C38F81FE007000050
:1044B000000000000000000000000000FC0FFC1FD6
:1044C0000C380C300C300C300C300C18FC1FFC0776
:1044D0000C000C000C000C000C000C000C00000088
:1044E000000000000000000000000000E007F81FCE
:1044F0001C380E70066003E003C003C003C003C095
:1045000003C007E006630E3F1C3CF83FE0F700C025
:10451000000000000000000000000000FE0FFE1F71
:1045200006380630063006300638FE1FFE07060342
:104530000606060C0618061806300630066000004F
:10454000000000000000000000000000E003F80F81
:104550001C0C0C180C180C001C00F803E00F001EBB
:104560000038063006300E301C1CF80FE007000043
:10457000000000000000000000000000FE7FFE7F41
:104580008001800180018001800180018001800123
:104590008001800180018001800180018001000094
:1045A0000000000000000000000000000C300C3093
:1045B0000C300C300C300C300C300C300C300C301B
:1045C0000C300C300C300C301818F81FE0070000CD
:1045D0000000000000000000000000000360063042
:1045E000063006300C180C180C18180C180C380E65
:1045F00030063006700760036003C001C001000090
:104600000000000000000000000000000360C36123
:10461000C361C361663366336633663366336633BC
:104620006C1B6C1B6C1B2C1A3C1E380E380E0000C9
:104630000000000000000000000000000FE00C700F
:1046400018303018700C600EC00780038003C00360
:10465000E006700C301C18180C300E6007E00000EB
:1046600000000000000000000000000003C0066021
:104670000C301C383818300C6006E007C00380018D
:1046800080018001800180018001800180010000A3
:10469000000000000000000000000000FC7FFC7F24
:1046A000006000300018000C000600038001C0000C
:1046B0006000300018000C000600FE7FFE7F000046
:1046C000000000000000000000000000E003E00324
:1046D00060006000600060006000600060006000DA
:1046E00060006000600060006000600060006000CA
:1046F00060006000E003E0030000000030003000D4
:10470000600060006000C000C000C000C001800107
:104710008001800100030003000300060006000082
:10472000000000000000000000000000E003E003C3
:104730000003000300030003000300030003000361
:104740000003000300030003000300030003000351
:1047500000030003E003E003000000000000C001CC
:10476000C00160036003600330063006180C180CAB
:104770000000000000000000000000000000000039
:104780000000000000000000000000000000000029
:104790000000000000000000000000000000000019
:1047A000000000000000000000000000FFFFFFFF0D
:1047B0000000000000000000000000000C000C00E1
:1047C0000C000C000C000C000000000000000000B9
:1047D00000000000000000000000000000000000D9
:1047E00000000000000000000000000000000000C9
:1047F000000000000000F003F8071C0C0C0C000F78
:10480000F00FF80C0C0C0C0C1C0FF80FF01800003B
:104810000000000000000000000000001800180068
:10482000180018001800D803F80F380C18181818BA
:104830001818181818181818380CF80FD803000092
:104840000000000000000000000000000000000068
:10485000000000000000C003F007300E180C180024
:10486000180018001800180C300EF007C0030000E4
:104870000000000000000000000000000018001808
:10488000001800180018C01BF01F301C181818184A
:104890001818181818181818301CF01FC01B000022
:1048A0000000000000000000000000000000000008
:1048B000000000000000C003F00F300C1818F81FB3
:1048C000F81F180018003818301CF00FC00700003F
:1048D000000000000000000000000000800FC00F7A
:1048E000C000C000C000F007F007C000C000C0005A
:1048F000C000C000C000C000C000C000C000000078
:1049000000000000000000000000000000000000A7
:10491000000000000000E00DF80F180E0C0C0C0C4D
:104920000C0C0C0C0C0C0C0C180EF80FE00D000C01
:104930000C0C1C06F807F00100000000180018001D
:10494000180018001800D807F80F381C1818181885
:104950001818181818181818181818181818000007
:10496000000000000000000000000000C000C000C7
:10497000000000000000C000C000C000C000C00077
:10498000C000C000C000C000C000C000C0000000E7
:10499000000000000000000000000000C000C00097
:1049A000000000000000C000C000C000C000C00047
:1049B000C000C000C000C000C000C000C000C000F7
:1049C000C000C000F8007800000000000C000C00DF
:1049D0000C000C000C000C0C0C060C038C01CC0021
:1049E0006C00FC009C018C030C030C060C0C0000FA
:1049F000000000000000000000000000C000C00037
:104A0000C000C000C000C000C000C000C000C000A6
:104A1000C000C000C000C000C000C000C000000056
:104A20000000000000000000000000000000000086
:104A30000000000000007C3CFF7EC7E383C183C10F
:104A400083C183C183C183C183C183C183C100008A
:104A50000000000000000000000000000000000056
:104A60000000000000009807F80F381C18181818EC
:104A700018181818181818181818181818180000E6
:104A80000000000000000000000000000000000026
:104A9000000000000000C003F00F300C18181818B8
:104AA0001818181818181818300CF00FC003000048
:104AB00000000000000000000000000000000000F6
:104AC000000000000000D803F80F380C1818181860
:104AD0001818181818181818380CF80FD8031800D8
:104AE0001800180018001800000000000000000066
:104AF000000000000000C01BF01F301C1818181820
:104B00001818181818181818301CF01FC01B001897
:104B10000018001800180018000000000000000035
:104B2000000000000000B007F0037000300030000B
:104B30003000300030003000300030003000000025
:104B40000000000000000000000000000000000065
:104B5000000000000000E003F003380E180C3800DD
:104B6000F003C007000C180C380EF007E00300003B
:104B700000000000000000000000000000008000B5
:104B8000C000C000C000F007F007C000C000C000B7
:104B9000C000C000C000C000C000C0078007000007
:104BA0000000000000000000000000000000000005
:104BB0000000000000001818181818181818181805
:104BC0001818181818181818381CF01FE0190000C9
:104BD00000000000000000000000000000000000D5
:104BE0000000000000000C18180C180C180C3006FF
:104BF00030063006600360036003C001C00100009E
:104C000000000000000000000000000000000000A4
:104C1000000000000000C141C141C36163636363E0
:104C200063633636363636361C1C1C1C1C1C0000D2
:104C30000000000000000000000000000000000074
:104C40000000000000001C38381C300C60066003B7
:104C50006003600360036006300C381C1C380000E1
:104C60000000000000000000000000000000000044
:104C70000000000000001830301830187018600C68
:104C8000600CE00CC006C006800380038003800136
:104C90008001C001F0007000000000000000000072
:104CA000000000000000FC1FFC1F000C00060003B9
:104CB0008001C000600030001800FC1FFC1F0000D5
:104CC0000000000000000000000000000003800160
:104CD000C000C000C000C000C000C0006000600094
:104CE000300060004000C000C000C000C000C00034
:104CF000C00080010003000000000000800180016E
:104D0000800180018001800180018001800180019B
:104D1000800180018001800180018001800180018B
:104D20008001800180018001000000006000C0005F
:104D3000C001800180018001800180010003000327
:104D400000060003000180018001800180018001D4
:104D50008001C000600000000000000000000000B2
:104D600000000000000000000000F010F81F080F15
:104D70000000000000000000000000000000000033
:104D800000000000000000000000636F756E743DBD
:104D900025640000B84D0008000000201800000045
:104DA0002C3A0008D04D0008180000202004000014
:104DB0003C3A000800000000FFFF00000024F4005F
:104DC00001010101010000001000000000000000CE
:04000005080001D915
:00000001FF
