:020000040800F2
:1000000000430020F1010008294600087B3C00085D
:1000100025460008210A0008D15A00080000000007
:10002000000000000000000000000000B9490008C6
:10003000ED0A0008000000002D460008BD49000838
:100040000B0200080B0200080B0200080B0200085C
:100050000B0200080B0200080B0200080B0200084C
:100060000B0200080B0200080B020008250A00081A
:100070000B0200080B0200080B0200080B0200082C
:100080000B020008000000000B0200080B02000831
:100090000B0200080B0200080B0200080B0200080C
:1000A0000B0200080B0200080B0200080B020008FC
:1000B000594A00080B0200080B0200080B02000856
:1000C0000B0200080B0200080B0200080B020008DC
:1000D0000B020008C15A00080B0200080B020008BE
:1000E0000B0200080B0200080B0200080B020008BC
:1000F0000B0200080B0200080B02000800000000C1
:10010000000000000B020008000000000B020008C5
:100110000B020008000000000B0200080B020008A0
:100120000B0200080B0200080B0200080B0200087B
:100130000B02000800000000000000000B02000895
:100140000B0200080B020008000000000000000085
:10015000000000000000000000000000000000009F
:100160000000000000000000000000000B0200087A
:100170000B0200080000000000000000000000006A
:10018000000000000B02000800000000000000005A
:10019000000000000000000000000000000000005F
:1001A00000000000000000000B0200080B02000825
:1001B0000B0200080B0200080B0200080000000000
:1001C000000000000B02000800000000000000001A
:1001D0000B0200080B020008DFF810D000F00EFB45
:1001E0000048004781780008AFF3008000430020FA
:1001F0000648804706480047FEE7FEE7FEE7FEE7C1
:10020000FEE7FEE7FEE7FEE7FEE7FEE7454A0008F9
:10021000D90100082DE9F05F0546002092469B4673
:1002200088460646814640241BE02846414647460C
:10023000224600F024FA53465A46C01A914110D380
:1002400011461846224600F00BFA2D1A67EB0108FA
:100250004F4622460120002100F002FA17EB000968
:100260004E41201EA4F10104DFDC484631462A46F7
:100270004346BDE8F09FD2B201E000F8012B491ED1
:10028000FBD270470022F6E710B513460A46044633
:100290001946FFF7F0FF204610BD421C10F8011B65
:1002A0000029FBD1801A70472DE9FE4F804681EA74
:1002B0000300C00F0C46009021F0004123F00045E0
:1002C000B8EB0200A94105D24046214690461C46A3
:1002D0000B46024623F00040104347D0270DC7F3DA
:1002E0000A00C3F30A510290401A019040286BDAC9
:1002F000C3F3130040F4801B0098924620B1002302
:10030000D2EB030A63EB0B0B01985946C0F1400294
:10031000504600F0A5F906460D4650465946019A4A
:1003200000F0BDF910EB08006141002487EA11528A
:1003300084EAE7731A4340D0009A62B3019A012A13
:100340004FEA075215DC001B61EB02014FF000423F
:1003500002EA0752CDE90042001C41F58011324605
:100360002B4600F0BDF903B0BDE8F08F40462146B2
:10037000F9E7001B61EB0201001C41F58013001836
:100380005B412018A2F5001747EB030140EAD57046
:10039000B6196D4111E06D084FEA360645EAC075A1
:1003A0004FEA0752001B61EB0201001C41F580116E
:1003B00049084FEA30000019514132462B4603B03C
:1003C000BDE8F04F00F07DB9009801224000002305
:1003D000D0EB020263EBE073009821464FEAE07431
:1003E000B8EB000061EB0401E9E783F000435BE751
:1003F00081F0004158E72DE9FE4F81EA030404F043
:10040000004421F0004100944FF0000B23F0004322
:1004100050EA01045ED052EA03045BD0C3F30A54ED
:10042000C1F30A552C44A4F2F3340194A0FB025406
:10043000C1F3130141F48011C3F3130343F4801398
:1004400001FB024400FB034E840A970A44EA8154EC
:1004500047EA8357A4FB076802958D0A05FB0785C9
:100460004FEA932C04FB0C542705029D4FEA0658D3
:1004700047EA1637B5EB08056EEB070C870E920EB0
:1004800047EA811742EA8312A7FB0201B6EB0B0190
:1004900064EB00042B0D43EA0C335E1844EB1C5054
:1004A000DA465146E7FB0201C5F313044FEA0B336A
:1004B00043EA14534FEA0432019C43EA0603A4F1D1
:1004C0000C040294009CCDE900B400F009F903B0DB
:1004D000BDE8F08F00200146F9E72DE9F04D81EAF3
:1004E000030404F0004B21F0004514464FF0000ACD
:1004F00023F0004150EA050220D054EA01021DD049
:10050000C5F30A570246C5F31303C1F31300C1F341
:100510000A5640F4801543F48013A7EB0608101B1D
:10052000D64608F2FD3873EB050002D308F1010846
:1005300001E092185B41B8F1000F03DA0020014698
:10054000BDE8F08D00204FF48011064684460EE091
:10055000171B73EB050705D3121B63EB050306435B
:100560004CEA010C49084FEA300092185B4150EA0E
:100570000107EDD152EA030012D082EA040083EAB7
:100580000501084305D0101BAB4106D20122002310
:1005900006E000224FF0004302E06FF0010253102A
:1005A0001AEB06004CEB085110EB0A0041EB0B0173
:1005B000BDE8F04D00F085B80EB540F23341029130
:1005C0000021CDE900110A460B4600F089F803B07E
:1005D00000BDC1F30A5210B5C1F3130140F2FF335D
:1005E00041F480119A4201DA002010BD40F23343F9
:1005F0009A42A2F2334203DC524200F040F810BDAE
:10060000904010BD30B5041E71F1000404DB4FF0C2
:100610000044404264EB0101141E73F1000405DB49
:100620001C464FF00043524263EB0403994208BF5B
:10063000904230BD30B50B460146002020220124F7
:1006400009E021FA02F59D4205D303FA02F5491BA0
:1006500004FA02F52844151EA2F10102F1DC30BDB6
:10066000202A04DB203A00FA02F100207047914072
:10067000C2F1200320FA03F3194390407047202A67
:1006800004DB203A21FA02F00021704721FA02F33C
:10069000D040C2F120029140084319467047202AF9
:1006A00006DBCB17203A41FA02F043EAE07306E09A
:1006B00041FA02F3D040C2F12002914008431946AA
:1006C000704710B5141E73F1000408DA401C41F1A4
:1006D000000192185B411A4301D120F0010010BDC6
:1006E0002DE9F04D92469B4611B1B1FA81F202E03C
:1006F000B0FA80F220329046FFF7B2FF04460F4670
:1007000040EA0A0041EA0B0153465A46084313D017
:10071000114653EA010019D0C8F140025046FFF7D4
:10072000AEFF05460E46504659464246FFF798FF33
:10073000084305D0012004E020463946BDE8F08D8D
:100740000020054346EAE0762C4337430A986305C8
:10075000E40AA0EB08000022FD0A44EA47540A30EC
:1007600002D500200146E9E7010510196941DDE9DC
:10077000084500196941BDE8F04DA2E770B521F0C8
:10078000004303430CD0C1F30A550024D5EB040504
:1007900064EB0403D617AD1AB34102DB0020014617
:1007A00070BD201841EB025170BD0EB5C10F80EA3B
:1007B000E0700844CA07002140F233438DE80E0080
:1007C0000A460B46FFF78CFF03B000BDC1F30A5287
:1007D000C1F3130140F2FF3341F480119A4202DA6F
:1007E00000200146704740F233439A42A2F233425E
:1007F00002DC5242FFF743BFFFF732BF064C074D02
:1008000006E0E06840F0010394E8070098471034E0
:10081000AC42F6D3FFF7E4FC408C0008608C000883
:100820002DE9F04D00231A461B1A8A4103DB0020F4
:100830000146BDE8F08DC1F30A52C1F3130141F442
:1008400080154FF0000BD10702D100186D41521EE8
:100850000027044640F2FF11384601EB620A3E468B
:100860008046024600204FF48011FFF708FFC219AE
:100870007141BB1846EB0100B4EB030C75EB000CA7
:1008800004D3E41A65EB000517460E46241908F157
:1008900001006D4180463428E3DDF91946EB06007E
:1008A000091BA84103D24FF0FF32134601E000229A
:1008B00013461BEB070046EB0A51BDE8F04DFFF76E
:1008C00000BF000070B50446206803F05AFC0646DD
:1008D000206803F05BFC98B396BB2068806800F04A
:1008E0000D0001280AD1206881681A4A1140891C2C
:1008F000816000BF03202168086009E0E06D40F0DE
:100900001000E065206E40F001002066012070BDFF
:1009100001F0C8F8054614E001F0C4F8401B0228B5
:100920000FD92068806800F0010050B1E06D40F000
:100930001000E065206E40F0010020660120E6E72F
:1009400005E02068806800F001000028E4D1002064
:10095000DDE70000C0FFFF7F38B5044600200090AF
:10096000206803F013FC00284FD1206880682849D4
:10097000084048B1E06D40F01000E065206E40F0A6
:1009800001002066012038BD206803F0DFFB00BFB6
:100990002048806800F0E07000F4000080B11E483C
:1009A00000681E49B0FBF1F0401C00EB40008000E5
:1009B000009002E00098401E009000980028F9D1B5
:1009C00001F070F805461AE0206803F0DFFB10B96B
:1009D000206803F0BBFB01F065F8401B02280ED92C
:1009E0002068006800F0010048B9E06D40F0100098
:1009F000E065206E40F0010020660120C3E720681A
:100A0000006800F001000028DED00020BBE70000F5
:100A10003F000080000300500C000020400D030048
:100A200000BFFEE710B5024800F0E1FD10BD000078
:100A30006C02002030B5114D0468AC4206D210495A
:100A40000478083C1425B4FBF5F207E00C4920318A
:100A50000478083C1425B4FBF5F4A21D0B46446C45
:100A6000A40803EB84048464054C8034C46402F05D
:100A70001F050124AC40046530BD0000080402409D
:100A800000080240027902F07F014A1E064B03EB88
:100A900082024265044A403282654A1E02F01F0308
:100AA00001229A40C26570470009024030B5D0E982
:100AB00013546C60446D14B1D0E916546C6090F816
:100AC000444004F01F050124AC40056C6C600468D0
:100AD00063608468102C04D10468A2600468E1603B
:100AE00003E00468A1600468E26030BD7047002143
:100AF00009E0002201E0531C9AB240F6B8339A4252
:100B0000F9DB4B1C99B28142F3DB704772B600BF30
:100B1000FEE70000F8B504460D460020009000BF37
:100B200094F85800012801D10220F8BD012084F872
:100B3000580000BF2046FFF7C5FE06468EBBE06D9D
:100B400020F4885040F00200E065206881681B4A6C
:100B5000114005F0804242F000421143816000BF25
:100B600013E00098401C00901549009888420CD36F
:100B7000E06D20F0020040F01000E06500BF0020B2
:100B800084F8580000BF0120CFE720688168C90FB2
:100B90000029E6D1E06D20F0020040F00100E065A0
:100BA00004E0FFE7E06D40F01000E06500BF0020CA
:100BB00084F8580000BF3046B7E70000C0FFFF3F91
:100BC00002DE04002DE9F84F05460C464FF0000AFE
:100BD00000200090FE49E068884200D000E000BF9D
:100BE00000BF95F85800012802D10220BDE8F88F17
:100BF000012085F8580000BF286803F0D1FA0028CA
:100C00007DD12968D4E9002001F1300CC0F3012B1B
:100C10000CEB8B03D3F800C000F01F0E4FF01F0B3E
:100C20000BFA0EFB2CEA0B0C00F01F0BC2F3846EC8
:100C30000EFA0BFE4CEA0E0CC3F800C000BF286889
:100C400003F0AEFA8146286803F096FA8046B9F1BF
:100C5000000F64D1B8F1000FFBD1A068B0F1004FD4
:100C60000AD121680022286803F0A8FA4FF0004159
:100C7000286803F0C8FA08E0A2682168286803F031
:100C80009DFA0021286803F0BEFA60692968C968E6
:100C9000C1F3C101490000FA01F7206904283FD0DF
:100CA00028682268216900F1600C0CEB8103D3F8FD
:100CB00000C0DFF820B30CEA0B0C02F0F84B4BF04D
:100CC000004B4BEA070B4CEA0B0CC3F800C000BF0B
:100CD0002868A269216900F1600C0CEB8103D3F84C
:100CE00000C02CF0807C4CEA020CC3F800C000BFAE
:100CF0002868227F2169012A02D1520601E0C6E15B
:100D00000022134600F1600C0CEB8102D2F800C007
:100D10002CF0007C4CEA030CC2F800C000BFA7E036
:100D20000021286803F01FFAC0F3120030B9002137
:100D3000286803F018FAC0F3846007E000212868EF
:100D400003F011FA90FAA0F0B0FA80F02168C1F334
:100D5000120119B92168C1F3846104E0216891FA94
:100D6000A1F1B1FA81F1884204D10022114628682C
:100D700003F03EFA0121286803F0F5F9C0F31200F0
:100D800030B90121286803F0EEF9C0F3846007E070
:100D90000121286803F0E7F990FAA0F0B0FA80F09A
:100DA0002168C1F3120119B92168C1F3846104E01B
:100DB000216891FAA1F1B1FA81F1884204D10022AF
:100DC0000121286803F014FA0221286803F0CBF906
:100DD000C0F3120030B90221286803F0C4F9C0F34F
:100DE000846007E00221286803F0BDF990FAA0F0C2
:100DF000B0FA80F02168C1F3120119B92168C1F37A
:100E0000846104E0216891FAA1F1B1FA81F188428C
:100E100004D100220221286803F0EAF9032128689E
:100E200003F0A1F9C0F3120030B90321286803F0E0
:100E30009AF9C0F3846007E00321286803F093F96E
:100E400090FAA0F0B0FA80F02168C1F3120119B94C
:100E50002168C1F3846104E0216891FAA1F1B1FA3B
:100E600081F1884204D100220321286803F0C0F9EF
:100E7000286803F08BF9002872D12868E26821689D
:100E8000D0F8B030C1F3120C23EA0C0302F0180BB7
:100E9000DFF844C12CFA0BFC0CEA010C43EA0C030A
:100EA000C0F8B03000BF4A49E068884258D1236892
:100EB000C3F312031BB92368C3F3846304E02368FC
:100EC00093FAA3F3B3FA83F35B1C03F01F03092B1C
:100ED0003ED82368C3F312031BB92368C3F38463AA
:100EE00004E0236893FAA3F3B3FA83F35B1C03F0E3
:100EF0001F034FF0010C0CFA03FC2368C3F3120329
:100F00001BB92368C3F3846304E0236893FAA3F353
:100F1000B3FA83F35B1C03F01F034CEA836C236872
:100F2000C3F312031BB92368C3F3846304E023688B
:100F300093FAA3F3B3FA83F35B1C03F01F0303EBF1
:100F400043034FF0000B4BEA03534CEA030347E023
:100F50002368C3F3120323B92368C3F3846305E052
:100F600043E0236893FAA3F3B3FA83F35B1C03F023
:100F70001F034FF0010C0CFA03FC2368C3F31203A8
:100F80001BB92368C3F3846304E0236893FAA3F3D3
:100F9000B3FA83F35B1C03F01F034CEA836C2368F2
:100FA000C3F312031BB92368C3F3846304E023680B
:100FB00093FAA3F3B3FA83F35B1C03F01F030A3B1A
:100FC00003EB43034FF0007B4BEA035306E00000C2
:100FD00000007F4000F0FF03FFFF07004CEA03031F
:100FE0001946A268286803F0E9F82F4920680840EC
:100FF00050B300BF2D48806800F0E07600BF2C4958
:101000002068884203D02B49206888421DD106F40D
:101010000000D0B92868B0F1A04F3ED146F40001DD
:10102000224803F0DFF8244800682449B0FBF1F0BF
:10103000401C00EB40008000009002E00098401E41
:10104000009000980028F9D127E01D4920688842C7
:101050000CD106F0807048B91A49286888421CD023
:1010600046F08071114803F0BDF816E0164920687B
:10107000884212D106F4800078B912492868884263
:101080000BD046F48001094803F0ACF805E0E86DA8
:1010900040F02000E8654FF0010A00BF002085F80D
:1010A000580000BF5046A1E5000008800003005032
:1010B000000021C31000C0900C000020400D030070
:1010C000000052C700010050000084CB01460868B0
:1010D000006C70472DE9F84304464FF000080020EB
:1010E000009014B90120BDE8F883606920B194F83C
:1010F0002400012800D100BFE06D30B9204600F087
:1011000017F90020206684F8580020688168C1F330
:10111000407131B1206881687E4A1140816000BF12
:1011200000BF206803F037F8B0B9206881687A4AB8
:10113000114041F08051816000BF784800687849D3
:10114000B0FBF1F0401C4000009002E00098401E0F
:10115000009000980028F9D1206803F01CF848B9E5
:10116000E06D40F01000E065206E40F00100206668
:101170004FF00108206803F013F80646E06D00F018
:101180001000002877D1002EFCD1E06D20F4807093
:1011900040F00200E065206802F0F8FFB0B94FF0BF
:1011A000A04002F0F3FF81465E4802F0EFFF49EAFB
:1011B0000009B9F1000F09D160685B49896821F421
:1011C0007C110143584A916000BF00BF607FE16B12
:1011D00041EA4030E1680843A168084394F82410CC
:1011E00040EA014594F82400012803D1208D401ED7
:1011F00045EA4045E06A28B1A08D00F47870216B83
:10120000084305432068C0684849084028432168CE
:10121000C8602068006920F04060616B0843216865
:101220000861206802F0A8FF0746002E50D1EFBBEE
:10123000207F002141EA803194F8380041EA4005DE
:101240002068C06844F20201884328432168C860CE
:10125000206988B12068006940F480302168086105
:101260002068D0F8C0006FF30D00216908432168A1
:10127000C1F8C0000EE045E02068006920F480302D
:10128000216808612068D0F8C0006FF30D00216864
:10129000C1F8C00094F84000012813D1606C40F000
:1012A0000101A06C0843E16C084300E010E0216DEF
:1012B00008432168096940F2FC72914308432168A0
:1012C000086105E02068006920F0010021680861DC
:1012D0006069012809D12068006B20F00F00216AA5
:1012E000491E08432168086305E02068006B20F070
:1012F0000F0021680863E06D20F0020040F001005B
:10130000E06505E0E06D40F01000E0654FF0010899
:101310004046E8E6C0FFFF5FC0FFFF7F0C000020F3
:10132000400D030000010050000300500740F0FF93
:1013300010B598B00446142113A8FEF7A3FF44216A
:1013400002A8FEF79FFF1B49206888422FD1C001E9
:1013500002908003119002A800F010FD08B1FFF781
:10136000D5FB00BF1448C06C40F400501249C8645B
:101370000846C06C00F40050019000BF00BF00BFE1
:101380000846C06C40F00200C8640846C06C00F01B
:101390000200019000BF00BF4FF4004013900320F3
:1013A00014900020159013A9044800F07FFA18B09B
:1013B00010BD000000010050001002400004004871
:1013C0002DE9F0410446434802F0C8FE0646206875
:1013D00002F0E6FE00287AD100BF94F858000128F8
:1013E00002D10220BDE8F081012084F8580000BF3E
:1013F0002046FFF7B1FA0546002D63D1E06D40F6B7
:101400000161884340F48070E06533492068884278
:1014100002D14FF0A04000E020682168884200D04F
:101420001EB9E06D20F48010E065E06D00F480509E
:10143000B0F5805F04D1206E20F00600206601E048
:10144000002020661C202168086000BF002084F86E
:10145000580000BF20492068884202D14FF0A040C8
:1014600000E020682168884204D01EB1052E01D01A
:10147000092E0ED12068C06800F0007028B1E06D20
:1014800020F4005040F48050E065206802F08EFEA9
:101490001EE0E06D40F48010E0650F49206888424E
:1014A00002D14FF0A04000E020680746F86800F045
:1014B000007068B1E06D20F4005040F48050E065A9
:1014C00006E004E000BF002084F8580000E0022598
:1014D000284687E700030050000100500146002223
:1014E00009B90120704791F82500022803D0042093
:1014F000C863012227E00868006820F001000B683B
:1015000018600868006820F00E000B681860886C8E
:10151000006820F480708B6C186091F8440000F033
:101520001F03012098400B6C5860D1E913305860BC
:10153000486D40B1486D006820F480704B6D1860B4
:10154000D1E916305860012081F8250000BF002045
:1015500081F8240000BF1046C4E770B5044600259A
:1015600094F8250002280BD00420E063012084F8C1
:10157000250000BF002084F8240000BF012534E0CE
:101580002068006820F00100216808602068006879
:1015900020F00E0021680860A06C006820F48070C4
:1015A000A16C086094F8440000F01F0101208840FD
:1015B000216C4860D4E913104860606D40B1606DE3
:1015C000006820F48070616D0860D4E916104860EE
:1015D000012084F8250000BF002084F8240000BF0B
:1015E000A06B10B12046A16B8847284670BD70B52E
:1015F0000446206C05682068066894F8440000F0F2
:101600001F01042088402840E0B106F00400C8B162
:101610002068006800F0200028B92068006820F0E9
:1016200004002168086094F8440000F01F010420C1
:101630008840216C4860206B002856D02046216BE2
:10164000884752E094F8440000F01F0102208840CF
:10165000284018B306F0020000B32068006800F0CC
:10166000200040B92068006820F00A002168086066
:10167000012084F8250094F8440000F01F010220A6
:101680008840216C486000BF002084F8240000BF1F
:10169000E06A50B32046E16A884726E094F84400A7
:1016A00000F01F01082088402840F0B106F0080033
:1016B000D8B12068006820F00E002168086094F816
:1016C000440000F01F0101208840216C4860012087
:1016D000E06384F8250000BF002084F8240000BFE8
:1016E000606B10B12046616B884770BD70B50446D1
:1016F0000CB9012070BD3049206888420BD22F49B7
:101700002068401A1421B0FBF1F0800060642B487F
:10171000083820640AE028492068401A1421B0FBE8
:10172000F1F080006064244808382064022084F8C6
:1017300025002068056847F6F0708543D4E902016A
:1017400008432169084361690843A1690843E169C5
:101750000843216A08430543206805602046FFF7D7
:1017600069F9A068B0F5804F01D100206060207950
:1017700000F07F00A16C0860D4E913104860606835
:1017800060B16068042809D82046FFF77BF9002083
:10179000616D0860D4E91610486003E000206065C0
:1017A000A065E0650020E063012084F825000020AA
:1017B00084F8240000BF9DE70804024008000240AE
:1017C0002DE9F04104460D4616461F464FF000082D
:1017D00000BF94F82400012802D10220BDE8F08166
:1017E000012084F8240000BF94F8250001283FD18F
:1017F000022084F825000020E0632068006820F0C3
:101800000100216808603B46324629462046FFF722
:101810004DF9206B30B12068006840F00E0021685F
:1018200008600BE02068006820F004002168086070
:101830002068006840F00A0021680860A06C006819
:1018400000F4803028B1A06C006840F48070A16C76
:101850000860606D28B1606D006840F48070616D53
:1018600008602068006840F001002168086006E018
:1018700000BF002084F8240000BF4FF0020840465B
:10188000ACE7000070B5044600F00CF906462546AA
:10189000681C10B104480068054400BF00F002F95C
:1018A000801BA842FAD370BD0800002078B503461B
:1018B0000022D2E0012696400D6805EA0604002CBD
:1018C0007BD00D7905F00305012D04D00D7905F0CD
:1018D0000305022D13D1986856000325B540A8438F
:1018E0005600CD68B540284398605868012595405A
:1018F000A8430D79C5F300159540284358600D792C
:1019000005F00305032D07D10D7905F00305032D1F
:101910000CD18D68012D09D0D86856000325B5403B
:10192000A84356008D68B5402843D8600D7905F06E
:101930000305022D13D1D60803F1200555F8260022
:101940005507EE0E0F25B540A8435607F60E0D6954
:10195000B5402843D60803F1200545F8260018684D
:1019600056000325B540A8430D7905F00305560040
:10197000B540284318604D6805F44035002D6BD004
:1019800000BF394D2D6E45F00105374E35663546A1
:101990002D6E05F00105009500BF00BF4FEAB6357A
:1019A000960855F8260095072E0F0F25B540A84339
:1019B000B3F1904F02D100251AE04DE02B4DAB4220
:1019C00001D1012514E02A4DAB4201D102250FE0DF
:1019D000284DAB4201D103250AE0274DAB4201D18E
:1019E000042505E0254DAB4201D1052500E0062583
:1019F0009607360FB5402843214D960845F8260036
:101A0000204D2868A0434D6805F4801505B120439A
:101A10001C4D28602D1D2868A0434D6805F4001555
:101A200005B12043174D2D1D2860164D2D1F286828
:101A3000A0434D6805F4003505B12043114D2D1F1D
:101A400028602D1F2868A0434D6805F4803505B136
:101A500020430C4D083D2860521C0D68D540002DD8
:101A60007FF428AF78BD0000001002400004004859
:101A700000080048000C004800100048001400480E
:101A80000800014008040140024613690B400BB1F5
:101A9000012000E0002070470AB1816100E081620E
:101AA00070470000014800687047000000000020F7
:101AB0000348006803490968084401490860704701
:101AC000000000200800002010B50024032000F0D2
:101AD000ABF80F2000F008F808B1012401E000F095
:101AE0002FF8204610BD000070B5044600251148AF
:101AF0000068D8B10F4800684FF47A71B1FBF0F07C
:101B00000D490968B1FBF0F6304600F025FF58B9E1
:101B1000102C07D200222146501E00F047F807483B
:101B2000046004E0012502E0012500E001252846CB
:101B300070BD0000080000200C0000200400002000
:101B400008B500BF0E48006E40F001000C49086661
:101B50000846006E00F00100009000BF00BF00BF0B
:101B60000846806D40F0805088650846806D00F022
:101B70008050009000BF00BF00F0F6F808BD0000E4
:101B8000001002400146084600280DDB00BF00BFE0
:101B900000F01F0301229A4043099B0003F1E02358
:101BA000C3F8002100BF00BF00BF70472DE9F05F00
:101BB00080460D46164603F0B9FF074639462A46C9
:101BC000334601F00700C0F1070ABAF1040F02D949
:101BD0004FF0040A01E0C0F1070AD14600F1040AFF
:101BE000BAF1070F02D24FF0000A01E0A0F1030A98
:101BF000D4464FF0010A0AFA09FAAAF1010A0AEAE0
:101C0000020A0AFA0CFA4FF0010B0BFA0CFBABF1CB
:101C1000010B0BEA030B4AEA0B042146404603F092
:101C20008DFFBDE8F09F000000BF00F00702064BEB
:101C300019684FF6FF031940044B0B4343EA022196
:101C4000014B196000BF70470CED00E00000FA0581
:101C500002468ABB4148006800F4C060B0F5806F5E
:101C60002BD13E488030006820F480703B4BC3F895
:101C700080001846006820F4C06040F400701860CE
:101C80003748006832235843364BB0FBF3F0411C11
:101C900000E0491E3148406900F48060B0F5806F73
:101CA00001D10029F5D12D48406900F48060B0F5DC
:101CB000806F51D10320704708E0284880300068C9
:101CC00020F48070254BC3F8800045E0B2F5007F1A
:101CD0003AD12248006800F4C060B0F5806F2AD184
:101CE0001E488030006840F480701C4BC3F88000B0
:101CF0001846006820F4C06040F40070186018486E
:101D0000006832235843174BB0FBF3F0411C00E04E
:101D1000491E1248406900F48060B0F5806F01D11F
:101D20000029F5D10D48406900F48060B0F5806F5E
:101D300012D10320BFE709488030006840F480706A
:101D4000064BC3F8800007E00448006820F4C06038
:101D500040F48060014B18600020ACE70070004048
:101D60000C00002040420F000348806840F480408F
:101D70000149886070470000007000402DE9F84379
:101D800004460027B846206800F40020B0F5002F74
:101D900073D1B946D348806D00F0805078B900BF48
:101DA000D048806D40F08050CE4988650846806DEF
:101DB00000F08050009000BF00BF4FF00109CA48FA
:101DC000006840F48070C8490860FFF76BFE064663
:101DD00006E0FFF767FE801B022801D9032705E014
:101DE000C148006800F480700028F2D000BF002FC6
:101DF00046D1BC489030006800F44075CDB1206CED
:101E0000A84216D0B7489030006820F44075B54815
:101E1000D0F8900040F48030B249C1F890000846F4
:101E2000D0F8900020F48030C1F890000846C0F847
:101E3000905005F00100A0B1FFF734FE064608E01F
:101E4000FFF730FE801B41F28831884201D9032719
:101E500006E0A4489030006800F002000028EFD0AF
:101E600000BF5FB99F489030006820F44070216C3B
:101E700008439C49C1F8900003E00CE0B84600E03C
:101E8000B846B9F1010F05D19648806D20F0805019
:101E90009449886500BF207800F0010048B191485E
:101EA0008830006820F00300616808438D49C1F85C
:101EB0008800207800F00200022809D18948883083
:101EC000006820F00C00A16808438649C1F888002A
:101ED000207800F00400042809D182488830006886
:101EE00020F03000E16808437E49C1F8880020787E
:101EF00000F00800082809D17A488830006820F0EE
:101F0000C000216908437749C1F88800207800F0B3
:101F10002000202809D173488830006820F44060F0
:101F2000616908436F49C1F88800207800F04000DB
:101F3000402809D16B488830006820F44050A169DE
:101F400008436849C1F88800207800F080008028A4
:101F500009D164488830006820F44040E1690843B2
:101F60006049C1F88800208800F48070B0F5807F57
:101F700009D15C488830006820F44030216A084369
:101F80005849C1F88800208800F40070B0F5007F3F
:101F900009D154488830006820F44020616A084321
:101FA0005049C1F88800208800F48060B0F5806F47
:101FB00013D14C488830006820F44010A16A0843CF
:101FC000484988310860A06AB0F5801F05D14548AE
:101FD000C06840F480104349C860208800F4006065
:101FE000B0F5006F13D13F488830006820F44000FE
:101FF000E16A08433B4988310860E06AB0F5800F28
:1020000005D13848C06840F480103649C86020883F
:1020100000F48050B0F5805F13D1324888300068FA
:1020200020F04070216B08432E4988310860206BF6
:10203000B0F1807F05D12B48C06840F48010294959
:10204000C860208800F40050B0F5005F13D1254827
:102050008830006820F04060616B08432149883176
:102060000860606BB0F1006F05D11E48C06840F495
:1020700080101C49C860208800F48040B0F5804F73
:1020800013D118488830006820F04060A16B0843E5
:10209000144988310860A06BB0F1006F05D1114878
:1020A000C06840F480100F49C860208800F40040E8
:1020B000B0F5004F13D10B488830006820F0405035
:1020C000E16B0843074988310860E06BB0F1805F3D
:1020D00005D10448C06840F480300249C8604046D9
:1020E000BDE8F88300100240007000402DE9F04187
:1020F00004460D464FF0000814B90120BDE8F081F8
:102100007D48006800F00F00A8420ED27A480068AF
:1021100020F00F002843784908600846006800F066
:102120000F00A84201D00120E8E7207800F001006C
:10213000002864D06068032823D17048006800F04C
:10214000007008B90120D9E702F072FA06466C481F
:10215000864237D96948806800F0F00030B12078B5
:1021600000F0020002282DD1A06858BB63488068A7
:1021700020F0F00040F08000604988604FF0800857
:1021800020E06068022806D15C48006800F4003056
:1021900040B90120B2E75948006800F4806008B9EE
:1021A0000120ABE700F0DEF806465548864209D923
:1021B0005248806820F0F00040F080004F4988606D
:1021C0004FF080084D48806820F0030061680843A4
:1021D0004A498860FFF766FC074608E0FFF762FCA3
:1021E000C01B41F28831884201D9032086E7434869
:1021F000806800F00C006168B0EB810FEED12078B0
:1022000000F00200022820D1207800F00400042809
:1022100005D13A48806840F4E06038498860207809
:1022200000F00800082807D13448806820F4605086
:1022300040F4E060314988603048806820F0F00068
:10224000A16808432D49886008E0B8F1800F05D1E6
:102250002A48806820F0F0002849886026480068F5
:1022600000F00F00A84219D92348006820F00F00A1
:10227000284321490860FFF715FC074608E0FFF7EF
:1022800011FCC01B41F28831884201D9032035E797
:102290001948006800F00F00A842F0D1207800F043
:1022A0000400042807D11548806820F4E060E16844
:1022B000084312498860207800F00800082808D1F7
:1022C0000E48806820F46050216940EAC1000B4943
:1022D000886000F047F809498968C1F30311094A89
:1022E000515C01F01F01C8400749086007480068B9
:1022F000FFF7FAFB02E70000002002400010024056
:1023000000B4C404C27900080C00002004000020BE
:1023100001480068704700000C00002000B5FFF77E
:10232000F7FF05498968C1F30221044A515C01F0B5
:102330001F01C84000BD000000100240D279000813
:1023400000B5FFF7E5FF05498968C1F3C221044ADA
:10235000515C01F01F01C84000BD000000100240A8
:10236000D279000870B5224DAD6805F00C05042D3A
:1023700001D120483AE01E4DAD6805F00C05082D4E
:1023800001D11D4832E01A4DAD6805F00C050C2D49
:102390002BD1174DED6805F00304154DED68C5F31D
:1023A00003156A1C022C0CD0032C09D1124DB5FB6D
:1023B000F2F50F4EF668C6F3062605FB06F10AE0B5
:1023C00000BF0C4DB5FBF2F5094EF668C6F30626C4
:1023D00005FB06F100BF00BF054DED68C5F3416583
:1023E0006D1C6B00B1FBF3F000E0002070BD00003D
:1023F000001002400024F40000366E012DE9F8437D
:10240000044614B90120BDE8F883207800F00100EB
:10241000002865D0FC48806800F00C07FA48C068C6
:1024200000F003060C2F01D1032E01D0082F0AD192
:10243000F548006800F40030002851D0606800289A
:102440004ED10120DFE700BF6068B0F5803F06D1C4
:10245000ED48006840F48030EB4908601AE060689D
:10246000B0F5A02F0BD1E848006840F48020E64981
:1024700008600846006840F4803008600AE0E248DE
:10248000006820F48030E04908600846006820F4C5
:102490008020086000BF606888B1FFF703FB054635
:1024A00006E0FFF7FFFA401B642801D90320AAE7E2
:1024B000D548006800F400300028F2D010E0FFF7A3
:1024C000F1FA054606E0FFF7EDFA401B642801D952
:1024D000032098E7CC48006800F400300028F2D1CF
:1024E000207800F00200022860D1C748806800F020
:1024F0000C07C548C06800F003060C2F01D1022E5E
:1025000001D0042F18D1C048006800F4806018B1D1
:10251000E06808B9012076E7BB48406820F0FE403B
:10252000217C40EA0160B8494860B8480068FFF77C
:10253000DBFA18B3012066E7E06800B3B248006830
:1025400040F48070B0490860FFF7ACFA054606E039
:10255000FFF7A8FA401B022801D9032053E7AA4835
:10256000006800F480600028F2D0A748406820F09E
:10257000FE40217C40EA0160A349486016E0A24881
:10258000006820F48070A0490860FFF78BFA0546C8
:1025900006E0FFF787FA401B022801D9032032E743
:1025A0009948006800F480600028F2D1207800F09B
:1025B0000800082836D16069D0B19348943000688B
:1025C00040F001009049C1F89400FFF76BFA05460E
:1025D00006E0FFF767FA401B022801D9032012E743
:1025E00089489430006800F002000028F1D019E01A
:1025F00085489430006820F001008349C1F89400B8
:10260000FFF750FA054606E0FFF74CFA401B022898
:1026100001D90320F7E67C489430006800F00200FE
:102620000028F1D1207800F00400042872D14FF086
:1026300000087548806D012121EA107078B100BF53
:102640007148806D40F080506F4988650846806D04
:1026500000F08050009000BF00BF4FF001086C48B0
:10266000006800F48070B0B96948006840F4807078
:1026700067490860FFF716FA054606E0FFF712FA09
:10268000401B022801D90320BDE66148006800F420
:1026900080700028F2D000BFA068012808D15A48F5
:1026A0009030006840F001005749C1F8900021E0E7
:1026B000A06805280FD154489030006840F004000D
:1026C0005149C1F890000846D0F8900040F0010050
:1026D000C1F890000EE04C489030006820F00100F6
:1026E0004949C1F890000846D0F8900020F0040055
:1026F000C1F8900000BFA068A8B1FFF7D3F9054664
:1027000009E0FFF7CFF9401B41F28831884202D936
:10271000032078E625E03C489030006800F0020095
:102720000028EED013E0FFF7BDF9054608E0FFF7FB
:10273000B9F9401B41F28831884201D9032062E691
:1027400031489030006800F002000028EFD1B8F165
:10275000010F05D12C48806D20F080502A498865F2
:1027600000BF207800F02000202836D1A069D0B129
:1027700025489830006840F001002349C1F89800CE
:10278000FFF790F9054606E0FFF78CF9401B022899
:1027900001D9032037E61C489830006800F0020099
:1027A0000028F1D019E018489830006820F00100A6
:1027B0001549C1F89800FFF775F9054606E0FFF7DF
:1027C00071F9401B022801D903201CE60E489830FD
:1027D000006800F002000028F1D1E069002860D014
:1027E0000948806800F00C000C287AD0E0690228C3
:1027F00058D10548006820F0807003490860FFF751
:1028000051F905460DE000000010024004000020D0
:1028100000700040FFF746F9401B022801D9032051
:10282000F1E54A48006800F000700028F2D1D4E9D0
:102830000810401E41EA0011A06A41EA0021208EE2
:102840000122C2EB500041EA40513420005DC2EB4E
:10285000500041EA40612C20005D41EAC0603B49E4
:10286000C9683B4A114008433849C86008460068B7
:1028700040F0807008600846C06840F08070C86012
:10288000FFF710F9054606E0FFF70CF9401B022898
:1028900001D90320B7E52D48006800F0007000283A
:1028A000F2D051E02948006820F080702749086084
:1028B000FFF7F8F8054606E0FFF7F4F8401B02289A
:1028C00001D903209FE52148006800F0007000282E
:1028D000F2D11E48C0681F4908401C49C86033E057
:1028E000FFE7E069012800D18DE51848C66806F0C9
:1028F0000301206A814225D106F0F001606A401E82
:10290000B1EB001F1ED106F4FE41A06AB1EB002F0F
:1029100018D106F078412C20005DB1EBC06F11D1C9
:1029200006F4C001208E0122C2EB5000B1EB405FE3
:1029300008D106F0C0613420005DC2EB5000B1EB5D
:10294000406F01D001205EE500205CE500100240F0
:102950000C809F01FCFFEEFE70B504462546681E04
:10296000B0F1807F01D301200FE0681E4FF0E0211D
:1029700048610F214FF0FF3003F0E0F800204FF0E6
:10298000E021886107200861002070BD7047704712
:102990007047000010B50346002200BF93F83C00CA
:1029A000012801D1022010BD012083F83C0000BFA6
:1029B00022F0FF00CC6840EA040222F440708C68E8
:1029C00040EA040222F480604C6840EA040222F4E7
:1029D00000600C6840EA040222F480500C6940EA6E
:1029E000040222F400504C6940EA040222F48040C0
:1029F0000C6B40EA040222F470200C8B40EA044283
:102A000022F08050CC6940EA0402124C1868A042BF
:102A100003D0114C1868A04213D122F470000C8D21
:102A200040EA045222F080700C6A40EA040222F06C
:102A300000704C6A40EA040222F00050CC6A40EA7E
:102A400004021868426400BF002083F83C0000BF05
:102A500000BFA8E7002C01400034014070477047D8
:102A60007047000030B502460B4600BF92F83C00AC
:102A7000012801D1022030BD012082F83C0000BFB6
:102A8000022082F83D0010684168106884681D4D7E
:102A90001068A84203D01C4D1068A84203D121F44D
:102AA00070015868014319480140186801431068D3
:102AB0004160144D1068A84213D01068B0F1804FE7
:102AC0000FD0134D1068A8420BD0124D1068A842C9
:102AD00007D00D4D1068A84203D00F4D1068A842D2
:102AE00005D124F0800498680443106884600120B4
:102AF00082F83D0000BF002082F83C0000BF00BF0C
:102B0000B9E70000002C0140003401408FFFFFFDB9
:102B1000000400400008004000400140704710B52C
:102B200004460CB9012010BD94F83D0028B90020DE
:102B300084F83C00204600F029F8022084F83D008B
:102B4000211D206801F090FF012084F8480000BF9B
:102B500084F83E0001213F200155402001554120CD
:102B60000155422001554320015500BF00BF0120FF
:102B700084F8440045200155462001554720015561
:102B800000BF012084F83D000020CCE708B5124AC0
:102B9000016891420DD100BF1049096E41F4003126
:102BA0000E4A11661146096E01F40031009100BF12
:102BB00011E00B4A016891420DD100BF0749096E2F
:102BC00041F48021054A11661146096E01F4802105
:102BD000009100BF00BF08BD00440140001002404A
:102BE000004801400168B1F1804F1FD14FF0804192
:102BF000496B491C0E4AB2FBF1F10E4A11600021EB
:102C00004FF0804251620B490968B1F5C87F04D288
:102C10004FF4C871074A116008E00649096844F694
:102C20002062914202D91146024A116070470000A9
:102C300040420F001C0000202DE9F04104460D46E3
:102C40001646002700BF94F83C00012802D102205C
:102C5000BDE8F081012084F83C0000BF96B9EB6824
:102C6000D5E90012206802F04FF92068806920F051
:102C70000C002168886120688069A9680843216880
:102C8000886141E0042E13D1EB68D5E90012206879
:102C900002F094F92068806920F44060216888611E
:102CA00020688069A96840EA0120216888612BE0DA
:102CB000082E12D1EB68D5E90012206802F0BEF9A7
:102CC0002068C06920F00C002168C8612068C069D4
:102CD000A96808432168C86116E00C2E13D1EB687F
:102CE000D5E90012206802F0E7F92068C06920F4F5
:102CF00040602168C8612068C069A96840EA012075
:102D00002168C86100E0012700BF002084F83C0072
:102D100000BF38469CE710B504460CB9012010BD31
:102D200094F83D0028B9002084F83C00204600F0CB
:102D300029F8022084F83D00211D206801F094FE4E
:102D4000012084F8480000BF84F83E0001213F20A4
:102D50000155402001554120015542200155432095
:102D6000015500BF00BF012084F8440045200155F3
:102D7000462001554720015500BF012084F83D0041
:102D80000020CCE710B586B00446142101A8FDF759
:102D900079FA2068B0F1804F31D100BF1948806DB9
:102DA00040F00100174988650846806D00F0010079
:102DB000009000BF00BF00BF0846C06C40F001009B
:102DC000C8640846C06C00F00100009000BF00BF5E
:102DD0004FF40040019002200290002003900490E4
:102DE0000120059001A94FF09040FEF75FFD002201
:102DF00011461C20FEF7DAFE1C20FEF7C3FE06B0CB
:102E000010BD0000001002402DE9F04304460D46BD
:102E1000002715B994F83E0015E0042D02D13F209B
:102E2000005D10E0082D02D14020005D0BE00C2D6C
:102E300002D14120005D06E0102D02D14220005D4C
:102E400001E04320005D804615B994F844000BE092
:102E5000042D02D14520005D06E0082D02D1462058
:102E6000005D01E04720005D8146B8F1010F02D10D
:102E7000B9F1010F02D00120BDE8F0831DB9022095
:102E800084F83E001AE0042D03D102213F200155B1
:102E900014E0082D03D10221402001550EE00C2D35
:102EA00003D102214120015508E0102D03D1022158
:102EB0004220015502E00221432001551DB90220A4
:102EC00084F844000EE0042D03D102214520015571
:102ED00008E0082D03D102214620015502E002211D
:102EE0004720015535B1042D0BD0082D10D00C2DE5
:102EF0001CD114E02068C06840F002002168C8605E
:102F000016E02068C06840F004002168C8600FE047
:102F10002068C06840F008002168C86008E02068A8
:102F2000C06840F010002168C86001E0012700BFC0
:102F300000BF67BB01222946206801F0F7FD184950
:102F40002068884213D02068B0F1804F0FD0154917
:102F5000206888420BD014492068884207D0134962
:102F60002068884203D012492068884210D1206826
:102F70008068104900EA0106062E0FD0B6F5803FA2
:102F80000CD02068006840F001002168086005E06E
:102F90002068006840F001002168086038466BE74F
:102FA000002C0140000400400008004000340140B3
:102FB000004001400700010070B504462068C66863
:102FC0002068056905F00200022819D106F0020008
:102FD000022815D1401F2168086101202077206850
:102FE000806900F0030018B12046FFF7FBFD05E003
:102FF000204600F041F9204600F02FFA002020770B
:1030000005F00400042819D106F00400042815D1A5
:10301000C04321680861022020772068806900F49D
:10302000407018B12046FFF7DDFD05E0204600F0B6
:1030300023F9204600F011FA0020207705F008005F
:10304000082819D106F00800082815D1C0432168C6
:103050000861042020772068C06900F0030018B1DF
:103060002046FFF7BFFD05E0204600F005F92046A9
:1030700000F0F3F90020207705F01000102819D196
:1030800006F01000102815D1C043216808610820FF
:1030900020772068C06900F4407018B12046FFF71F
:1030A000A1FD05E0204600F0E7F8204600F0D5F944
:1030B0000020207705F0010048B106F0010030B192
:1030C0006FF0010021680861204600F06DFA05F0FC
:1030D0008000802804D005F40050B0F5005F0AD1CC
:1030E00006F08000802806D16FF402502168086144
:1030F0002046FFF74CFC05F48070B0F5807F0AD1C4
:1031000006F08000802806D16FF480702168086185
:103110002046FFF73BFC05F04000402809D106F0AF
:103120004000402805D1C04321680861204600F0D6
:103130003CFA05F02000202809D106F020002028C4
:1031400005D1C043216808612046FFF721FC05F442
:103150008010B0F5801F0BD106F48010B0F5801FF1
:1031600006D16FF48010216808612046FFF777FCD4
:1031700005F40010B0F5001F0BD106F40010B0F5F7
:10318000001F06D16FF40010216808612046FFF788
:1031900065FC05F48000B0F5800F0BD106F48000CB
:1031A000B0F5800F06D16FF48000216808612046D9
:1031B000FFF756FC05F40000B0F5000F0BD106F444
:1031C0000000B0F5000F06D16FF40000216808611F
:1031D0002046FFF7A3FC70BD10B586B0044614214D
:1031E00001A8FDF74FF82149206888421CD100BF93
:1031F0001F48C06C40F001001D49C8640846C06CFF
:1032000000F00100009000BF00BF402001900220AC
:1032100002900020039004900120059001A94FF036
:103220009040FEF743FB1FE01249206888421BD103
:1032300000BF0F48C06C40F001000D49C86408464B
:10324000C06C00F00100009000BF00BF8020019022
:10325000022002900020039004900120059001A913
:103260004FF09040FEF722FB06B010BD0044014035
:10327000001002400048014070472DE9F04104462B
:103280000D461646002700BF94F83C00012802D1E5
:103290000220BDE8F081012084F83C0000BF0C2E24
:1032A00051D005DC4EB1042E1ED0082E7AD133E069
:1032B000102E60D0142EF9D175E02946206801F057
:1032C00047FC2068806940F0080021688861206818
:1032D000806920F00400216888612068806929697C
:1032E00008432168886178E02946206801F088FC5D
:1032F0002068806940F400602168886120688069E6
:1033000020F480602168886120688069296940EA2A
:1033100001202168886160E02946206801F0CCFC2A
:103320002068C06940F008002168C8612068C06951
:1033300020F004002168C8612068C0692969084339
:103340002168C86149E02946206801F011FD206824
:10335000C06940F400602168C8612068C06920F439
:1033600080602168C8612068C069296940EA01203D
:103370002168C86131E02946206801F055FD2068C8
:10338000006D40F00800216808652068006D20F09D
:103390000400216808652068006D296908432168D8
:1033A00008651AE017E02946206801F075FD2068DD
:1033B000006D40F40060216808652068006D20F40D
:1033C0008060216808652068006D296940EA012055
:1033D0002168086501E0012700BF00BF00BF002091
:1033E00084F83C0000BF384653E710B504460CB9DA
:1033F000012010BD94F83D0028B9002084F83C005D
:10340000204600F029F8022084F83D00211D2068A4
:1034100001F02AFB012084F8480000BF84F83E0038
:1034200001213F20015540200155412001554220F6
:1034300001554320015500BF00BF012084F844001E
:1034400045200155462001554720015500BF012068
:1034500084F83D000020CCE77047704770B5044603
:103460000D4615B994F83E0015E0042D02D13F2019
:10347000005D10E0082D02D14020005D0BE00C2D16
:1034800002D14120005D06E0102D02D14220005DF6
:1034900001E04320005D012801D0012070BD1DB96D
:1034A000022084F83E001AE0042D03D102213F20BF
:1034B000015514E0082D03D10221402001550EE0F2
:1034C0000C2D03D102214120015508E0102D03D11C
:1034D00002214220015502E0022143200155012230
:1034E0002946206801F022FB2749206888420FD036
:1034F0002649206888420BD025492068884207D099
:1035000024492068884203D023492068884201D199
:10351000012000E0002028B12068406C40F4004009
:103520002168486418492068884213D02068B0F1A7
:10353000804F0FD01949206888420BD01849206865
:10354000884207D011492068884203D0104920687A
:10355000884210D120688068124900EA0106062ED0
:103560000FD0B6F5803F0CD02068006840F0010015
:103570002168086005E02068006840F001002168CB
:10358000086000208AE70000002C01400034014060
:103590000040014000440140004801400004004058
:1035A000000800400700010070477047014600BF57
:1035B00091F88400012801D102207047012081F890
:1035C000840000BF2420C1F88800086802680868E9
:1035D000006820F001000B68186022F00052002003
:1035E0004866086802602020C1F8880000BF0020FB
:1035F00081F8840000BF00BFDFE72DE9F0410446F9
:103600000E461746D4F88C00202825D106B117B9EC
:103610000120BDE8F0810120E066002020673A46E5
:103620003146204602F092F905469DB9E06E012828
:103630000FD110202168086200BF00BF216851E847
:10364000001F41F01000226842E800010029F5D176
:1036500000E001252846DCE70220DAE770B50446E1
:103660000D4606492068884207D1012004490870A8
:10367000642204492046FFF7C0FF70BD00380140B6
:1036800010000020E0020020704770B504460D468F
:1036900000BF94F88400012801D1022070BD0120F0
:1036A00084F8840000BF2420C4F8880020680668DD
:1036B0002068006820F001002168086020688068A8
:1036C00020F06060284321688860204601F034FDC6
:1036D000206806602020C4F8880000BF002084F81D
:1036E000840000BF00BFD9E770B504460D4600BF97
:1036F00094F88400012801D1022070BD012084F8D3
:10370000840000BF2420C4F8880020680668206870
:10371000006820F00100216808602068806820F0BF
:103720006040284321688860204601F005FD20683C
:1037300006602020C4F8880000BF002084F88400C0
:1037400000BF00BFD9E77047704770472DE9F047C9
:1037500004462068C569206806682068876840F6C6
:103760000F0005EA0009B9F1000F0FD105F02000A4
:1037700060B106F0200010B907F0805030B1606FE2
:1037800010B12046616F8847BDE8F087B9F1000F9E
:103790007ED0DF48384018B9DE4830400028F7D0E6
:1037A00005F0010058B106F4807040B10120216895
:1037B0000862D4F8900040F00100C4F8900005F0D1
:1037C000020058B107F0010040B1022021680862F0
:1037D000D4F8900040F00400C4F8900005F0040014
:1037E00058B107F0010040B1042021680862D4F804
:1037F000900040F00200C4F8900005F0080070B19D
:1038000006F0200010B9C248384040B108202168B5
:103810000862D4F8900040F00800C4F8900005F465
:10382000006060B106F0806048B14FF4006021682C
:103830000862D4F8900040F02000C4F89000D4F85A
:103840009000002852D005F0200050B106F0200072
:1038500010B907F0805020B1606F10B12046616F41
:103860008847D4F890A02068806800F04000402885
:1038700002D00AF0280070B3204601F037FE20681D
:10388000806800F04000402826D100BF00BF00E063
:103890002DE02168083151E8001F21F04000216827
:1038A000083141E80002002AF1D100BFD4F88000BD
:1038B00068B19948D4F880108863D4F88000FDF787
:1038C0004CFE98B1D4F88000816B88470EE020460A
:1038D000FFF73BFF0AE003E02046FFF736FF05E075
:1038E0002046FFF732FF0020C4F890004CE7E06E5E
:1038F000012865D105F01000002861D006F0100005
:103900000028FAD01020216808622068806800F042
:10391000400040287AD1D4F88000006840681FFA3F
:1039200080F8B8F1000F5CD0B4F85C00404558DD79
:10393000A4F85E80D4F880000068006800F02000E1
:10394000E8BB00BF00BF216851E8001F21F4807070
:10395000226842E800010029F5D100BF00BF00BF86
:103960002168083151E8001F21F001002168083169
:1039700041E80002002AF3D100BF00BF00BF216868
:10398000083151E8001F21F040002168083141E86A
:103990000002002AF3D100BF2020C4F88C000020D0
:1039A000E06600BF00BF216851E8001F21F0100051
:1039B000226842E800010029F5D100BF01E004E0DF
:1039C00068E0D4F88000FDF789FD02202067B4F894
:1039D0005C00B4F85E20801A81B22046FFF73EFEFC
:1039E00012E0B4F85C0040450ED1D4F880000068C5
:1039F000006800F02000202806D102202067B4F8DB
:103A00005C102046FFF72AFEBEE6FFE734F85C0FA5
:103A10006188401A1FFA80F860885C3CC8B3B8F12E
:103A2000000F36D000BF00BF216851E8001F21F40D
:103A30009070226842E800010029F5D100BF00BF64
:103A400000BF2168083151E8001F314AD24301EA22
:103A500002002168083141E80002002AF1D100BFCC
:103A60002020C4F88C000020E066606700BF00BF23
:103A7000216851E8001F21F01000226842E800018F
:103A80000029F5D100BF0220206741462046FFF7FC
:103A9000E5FD79E605F4801050B107F4800038B1F7
:103AA0004FF48010216808622046FFF74DFE6BE658
:103AB00005F0800058B106F0800010B907F400004E
:103AC00028B1A06F10B12046A16F88475CE605F0D1
:103AD000400030B106F0400018B1204601F03CFD36
:103AE00052E605F4000030B106F0804018B12046DF
:103AF000FFF729FE48E605F0807030B106F000407F
:103B000018B12046FFF7C0FD3EE600BF3CE60000CE
:103B100001000010200100047353000810B5044692
:103B20000CB9012010BDA06900B100E000BFD4F8BD
:103B3000880028B9002084F88400204600F02AF884
:103B40002420C4F888002068006820F00100216863
:103B50000860A06A10B1204601F01AFB204601F06F
:103B600033FD012800D1DDE72068406820F4904053
:103B7000216848602068806820F02A0021688860F9
:103B80002068006840F0010021680860204601F0CC
:103B90007BFBC7E710B598B00446142113A8FCF7C7
:103BA00071FB442102A8FCF76DFB2E492068884276
:103BB00056D1012002900020039002A8FEF7DEF803
:103BC00008B1FCF7A3FF00BF2748006E40F4804017
:103BD000254908660846006E00F48040019000BF49
:103BE00000BF00BF0846C06C40F00100C864084632
:103BF000C06C00F00100019000BF00BF4FF4C06036
:103C00001390022014900020159016900720179012
:103C100013A94FF09040FDF749FE1448144908607D
:103C200018204860002112488160C1608021016134
:103C3000002141618161C1610162FDF757FD08B159
:103C4000FCF764FF00BF0A48C4F88000846200BF2C
:103C5000002211462520FDF7A9FF2520FDF792FF40
:103C600018B010BD003801400010024008000240AA
:103C70006C02002070477047704700BFFEE70000ED
:103C800000B585B014216846FCF7FCFA4FF6FF70CA
:103C900000900020019003200390002002906946CC
:103CA0000248FDF703FE05B000BD00000008004813
:103CB00000B585B014216846FCF7E4FA4FF6FF70B2
:103CC000009001200190032003900020029069469B
:103CD0000248FDF7EBFD05B000BD000000080048FC
:103CE00030B5054600240021084600F05BF900F0DD
:103CF000A9F900BF03E0284600F068F9641CB4F598
:103D0000963FF8D330BD000010B5044602A120460E
:103D100000F082F810BD000020202020202020206C
:103D20002020202020202020202020200000000013
:103D300000B587B0142102A8FCF7A4FA00BF2A48F6
:103D4000C06C40F004002849C8640846C06C00F00C
:103D50000400019000BF00BF00BF0846C06C40F0E7
:103D60000100C8640846C06C00F00100019000BF6B
:103D700000BF00BF0846C06C40F00200C86408469F
:103D8000C06C00F00200019000BF00BF4FF448700B
:103D900002900120039000200590049002A913488E
:103DA000FDF784FD4FF48070029001200390002005
:103DB0000590049002A94FF09040FDF777FDFFF7C2
:103DC00077FF4FF09040806940F480704FF0904151
:103DD000886106481830006840F4087003491831BB
:103DE000086007B000BD0000001002400004004859
:103DF00070B505460E461446A4F12000C4B204EB8B
:103E00004400044901EB00123146284600F01AF83C
:103E100070BD0000DA790008F0B507460C460025B1
:103E200040F23F1609E0227831463846FFF7E0FFBE
:103E3000A6F1100086B2641C6D1C207808B1142D08
:103E4000F1D3F0BD2DE9F04306468946174600241C
:103E50000025A046B0464946404600F0A3F800BF02
:103E60001EE000F0EFF800250FE037F81400012104
:103E7000A940084020B90C48008800F0A7F803E0EA
:103E80000A48008800F0A2F86D1C102DEDD308F14F
:103E9000010000F0FF084946404600F083F8641C2A
:103EA000182CDED3BDE8F083800000207E000020C7
:103EB00010B5FFF73DFF002000F016F80949088013
:103EC0000846008848F23021884202D100F0E4FB25
:103ED00001E000F071FC002000F006F801490880C4
:103EE00010BD00008200002070B50446274800681D
:103EF00040F40070254908600846006840F480706E
:103F0000086022481038006840F020001F4910392E
:103F100008601F4804601D48006840F020001B49ED
:103F2000086000BF00BF00BF18481038006840F0AC
:103F300020001649103908600846006840F4807077
:103F40000860FFF79DFE4FF09040806A40F480705B
:103F50004FF09041886200BF00BF00BF0C48001FB7
:103F6000006885B24FF09040806940F480704FF057
:103F700090418861FFF79CFE04481038006840F4C7
:103F80000070024910390860284670BD28040048B6
:103F90001408004801B5BDF800000149088008BDBB
:103FA0008000002030B504460D462146202000F058
:103FB00085F82946212000F081F830BD01B5BDF813
:103FC00000000149088008BD7E0000201B490968E7
:103FD00041F40071194A116018491039096841F417
:103FE0008071164A103A11601146096841F02001AB
:103FF0001160134908601149096841F020010F4A16
:10400000116000BF00BF00BF0C491039096841F0C2
:1040100020010A4A103A11601146096841F4807182
:10402000116000BF00BF00BF04491039096841F4A6
:104030000071024A103A11607047000028040048DD
:10404000140800481B48006840F4007019490860D3
:104050000846006840F48070086016481038006810
:1040600040F02000134910390860222012490860EE
:104070001048006840F020000E49086000BF00BFF3
:1040800000BF0C481038006840F020000949103982
:1040900008600846006840F48070086000BF00BFF8
:1040A00000BF04481038006840F40070014910391E
:1040B000086070472804004814080048214A126824
:1040C00042F400721F4B1A601A46126842F4807262
:1040D0001A601C4A103A126842F02002194B103B39
:1040E0001A60194A1060174A126842F02002154BF4
:1040F0001A6000BF00BF00BF124A103A126842F0B7
:104100002002104B103B1A601A46126842F480726B
:104110001A600D4A11600B4A126842F02002094BE6
:104120001A6000BF00BF00BF064A103A126842F092
:104130002002044B103B1A601A46126842F4807247
:104140001A60704728040048140800488168024A31
:104150001140491C81607047C0FFFF7F014688689D
:1041600000F01F007047024602F1600000EB81037F
:10417000186800F0F840704701468868C0F3C00036
:10418000704701468868C0F3400070470146886860
:1041900000F00100704701468868C0F30070704766
:1041A00001468868C0F38000704700008168024AB9
:1041B0001140091D81607047C0FFFF7F70B500F19D
:1041C0001404C1F3406504EB85031C68C1F3045675
:1041D0000725B540AC43C1F3045502FA05F52C435D
:1041E0001C6070BD826822F0E0720A4382607047F2
:1041F00010B500F1600404EB81031C6824F0004456
:1042000014431C6010BD426922F000420A4342611F
:104210007047000000B589B0202101A8FCF732F8F2
:104220001A481B4908604002486000211848816014
:10423000C160016141610421816100210177417701
:1042400001210162002180F82410C162016380F81D
:104250003810C16380F84010FCF73CFF08B1FCF750
:1042600055FC0C48019006200290042003907F200A
:104270000490042005900020069001A90448FCF752
:10428000A1FC08B1FCF742FC09B000BD00010050E0
:10429000880000200080F03E08B500BF1148806C07
:1042A00040F004000F4988640846806C00F0040068
:1042B000009000BF00BF00BF0846806C40F00100C6
:1042C00088640846806C00F00100009000BF00BFC9
:1042D000002211460B20FDF769FC0B20FDF752FC74
:1042E00008BD00000010024000B587B0142102A8EC
:1042F000FBF7C8FF00BF3D48C06C40F004003B49DD
:10430000C8640846C06C00F00400019000BF00BF04
:1043100000BF0846C06C40F02000C8640846C06C6E
:1043200000F02000019000BF00BF00BF0846C06C35
:1043300040F00100C8640846C06C00F00100019024
:1043400000BF00BF00BF0846C06C40F00200C86458
:104350000846C06C00F00200019000BF00BF00BF23
:104360000846C06C40F00800C8640846C06C00F005
:104370000800019000BF00BF01224FF47F411C489C
:10438000FDF78AFB002204211A48FDF785FB4FF454
:104390007F4002900120039000200490059002A924
:1043A0001348FDF783FA01200290002003900120BA
:1043B000049002A94FF09040FDF778FA0720029090
:1043C000002003900120049002A90B48FDF76EFA2B
:1043D000042002900120039000200490059002A97F
:1043E0000448FDF763FA07B000BD0000001002406A
:1043F00000080048000C00480004004800B595B0D3
:104400001C210EA8FBF73EFF342101A8FBF73AFF61
:1044100021482249086040F21F30486000211F48AF
:1044200081606321C1600021016141618161FEF70A
:1044300076FB08B1FCF76AFB1848FEF7D6FF08B117
:10444000FCF764FB60200E9032200F90002010904B
:10445000119012901390149000220EA90F48FEF7AD
:104460000CFF08B1FCF752FB002001900290039072
:10447000049005904FF400500690002007900D9096
:1044800001A90648FEF786FA08B1FCF73FFB03488E
:10449000FEF7A2FE15B000BD00440140400100201F
:1044A00000B595B01C210EA8FBF7ECFE342101A845
:1044B000FBF7E8FE21482249086040F21F304860BF
:1044C00000211F4881606321C160002101614161B9
:1044D0008161FEF724FB08B1FCF718FB1848FEF7D2
:1044E00084FF08B1FCF712FB60200E9032200F9081
:1044F00000201090119012901390149000220EA999
:104500000F48FEF7BAFE08B1FCF700FB002001904F
:1045100002900390049005904FF400500690002004
:1045200007900D9001A90648FEF734FA08B1FCF790
:10453000EDFA0348FEF750FE15B000BD00480140FB
:104540008C01002000B587B00020049005900690F3
:1045500000900190029003904FF080401549086050
:104560004F204860002113488160491EC16000212E
:1045700001618161FEF7CFFB08B1FCF7C7FA0020AB
:104580000490069004A90B48FEF76CFA08B1FCF7FA
:10459000BDFA0020009001200190002002900390BD
:1045A000002269460348FEF747FB08B1FCF7AEFA64
:1045B00007B000BDF400002010B518481849086085
:1045C0004FF416504860002115488160C1600161B8
:1045D0000C21416100218161C161016241620020C1
:1045E0000F4988620846FFF799FA08B1FCF78EFA7E
:1045F00000210B48FFF778F808B1FCF787FA002193
:104600000748FFF742F808B1FCF780FA0448FEF7C4
:10461000CDFF08B1FCF77AFA10BD00000038014068
:10462000D801002000BFFEE700BFFEE77047000092
:1046300070B5164DED6805F00304144DED68C5F333
:1046400003156B1C022C0CD0032C09D1104DB5FBAB
:10465000F3F50E4EF668C6F3062605FB06F10AE0F2
:1046600000BF0C4DB5FBF3F5084EF668C6F3062601
:1046700005FB06F100BF00BF044DED68C5F34165C1
:104680006D1C6A00B1FBF2F070BD0000001002402A
:1046900000366E010024F40000B501210020FFF770
:1046A0000DFD4FF47A70FCF722FA00210120FFF78C
:1046B00005FD41F290711020FFF700FD4FF41C51F1
:1046C0006020FFF7FBFC01216120FFF7F7FC0221CE
:1046D0004620FFF7F3FC48F210011320FFF7EEFC31
:1046E00048F2FE011220FFF7E9FC4FF4A06102201E
:1046F000FFF7E4FC41F230010320FFF7DFFC40F25A
:1047000003313020FFF7DAFC40F203313120FFF7AC
:10471000D5FC40F203313220FFF7D0FC4FF440715A
:104720003320FFF7CBFC03213420FFF7C7FC40F216
:1047300003313520FFF7C2FC14213620FFF7BEFC01
:1047400040F203313720FFF7B9FC40F20331382043
:10475000FFF7B4FC40F203313920FFF7AFFC4FF410
:1047600040713A20FFF7AAFC03213B20FFF7A6FC8B
:1047700040F203313C20FFF7A1FC4FF4A0513D2053
:10478000FFF79CFC4FF400719220FFF797FC40F27A
:1047900003319320FFF792FC40F60D019020FFF7C4
:1047A0008DFC41F218010320FFF788FC40F27311E1
:1047B0000720FFF783FC00BD10B543F20801E3209A
:1047C000FFF77CFC1221E720FFF778FC41F2312152
:1047D000EF20FFF773FC00210120FFF76FFC4FF47F
:1047E000E0610220FFF76AFC41F230010320FFF78D
:1047F00065FC00210420FFF761FC40F2072108203E
:10480000FFF75CFC00210920FFF758FC00210A207B
:10481000FFF754FC00210C20FFF750FC00210D2075
:10482000FFF74CFC00210F20FFF748FC002110206F
:10483000FFF744FC07211120FFF740FC0021122064
:10484000FFF73CFC00211320FFF738FCC820FDF7E0
:1048500019F841F290611020FFF730FC40F2272157
:104860001120FFF72BFC3220FDF70CF81D21122040
:10487000FFF724FC3220FDF705F84FF40061132008
:10488000FFF71CFC14212920FFF718FC0B212B201B
:10489000FFF714FC3220FCF7F5FF00212020FFF782
:1048A0000DFC00212120FFF709FC07213020FFF734
:1048B00005FC40F207713120FFF700FC0621322091
:1048C000FFF7FCFB40F204713520FFF7F7FB41F6E0
:1048D00004713620FFF7F2FB04213720FFF7EEFBCF
:1048E00000213820FFF7EAFB40F206713920FFF77C
:1048F000E5FB40F201713C20FFF7E0FB0F213D207A
:10490000FFF7DCFB00215020FFF7D8FBEF215120FF
:10491000FFF7D4FB00215220FFF7D0FB40F23F11FC
:104920005320FFF7CBFB4FF41C516020FFF7C6FB71
:1049300001216120FFF7C2FB00216A20FFF7BEFBC7
:1049400000218020FFF7BAFB00218120FFF7B6FB92
:1049500000218220FFF7B2FB00218320FFF7AEFB8E
:1049600000218420FFF7AAFB00218520FFF7A6FB8A
:1049700010219020FFF7A2FB00219220FFF79EFB61
:1049800003219320FFF79AFB4FF488719520FFF7DE
:1049900095FB00219720FFF791FB00219820FFF75E
:1049A0008DFB41F218010320FFF788FB40F27311E1
:1049B0000720FFF783FB10BD7047000010B50548C6
:1049C000007820B104480068401C03490860FDF7E6
:1049D0006FF810BD750000207800002000B593B07E
:1049E000382105A8FBF74EFC14216846FBF74AFC6A
:1049F0004FF40070FDF72CF901200590000406909B
:104A000002200C9003210D910E9114210F9102218F
:104A100010911191129105A8FDF7F0FC08B1FCF777
:104A200075F80F2000900320019000200290039061
:104A3000049002216846FDF759FB08B1FCF766F8BF
:104A400013B000BD0348006840F4700001490860DD
:104A50007047000088ED00E010B50248FEF7ACFAA0
:104A600010BD0000F400002010B50268284B9842E9
:104A70000BD0B0F1804F08D0264B984205D0264B82
:104A8000984202D0254B984203D122F070024B6825
:104A90001A431F4B984214D0B0F1804F11D01D4BD8
:104AA00098420ED01C4B98420BD01C4B984208D019
:104AB0001B4B984205D01B4B984202D01A4B984290
:104AC00003D122F44072CB681A4322F080034C6970
:104AD00043EA04028B68C3620B6883620C4B984202
:104AE0000BD00E4B984208D00D4B984205D00D4B81
:104AF000984202D00C4B984201D10B6903630368C2
:104B000043F00403036001234361026010BD000011
:104B1000002C014000040040000800400034014027
:104B200000400140004401400048014030B501F020
:104B30001F05012404FA05F3046A9C430462046A15
:104B400001F01F0502FA05F52C43046230BD000098
:104B500030B5026A056A25F001050562436884697B
:104B6000214D2C4024F003040D682C4322F0020256
:104B70008D682A431D4DA84200D10FE01C4DA8426C
:104B800000D10BE01B4DA84200D107E01A4DA8420E
:104B900000D103E0194DA84208D100BF056A25F0F5
:104BA0000405056222F00802CD682A430F4DA84291
:104BB0000BD00F4DA84208D00E4DA84205D00E4D87
:104BC000A84202D00D4DA84207D123F4807323F4EC
:104BD00000734D692B438D692B43436084614D689D
:104BE0004563026230BD00008FFFFEFF002C0140D4
:104BF00000340140004001400044014000480140B1
:104C000030B5026A056A25F01005056243688469BB
:104C1000234D2C4024F440740D6844EA052422F00E
:104C200020028D6842EA05121E4DA84200D10FE015
:104C30001D4DA84200D10BE01C4DA84200D100BF81
:104C40001B4DA84200D100BF1A4DA84209D108E06F
:104C5000056A25F04005056222F08002CD6842EA2F
:104C60000512104DA8420BD00F4DA84208D00F4D91
:104C7000A84205D00E4DA84202D00E4DA84209D13F
:104C800023F4806323F400634D6943EA85038D694F
:104C900043EA8503436084614D688563026230BDE9
:104CA000FF8FFFFE002C0140003401400040014016
:104CB000004401400048014030B5026A056A25F40D
:104CC000807505624368C469234D2C4024F00304B9
:104CD0000D682C4322F400728D6842EA05221F4DB4
:104CE000A84200D10FE01E4DA84200D10BE01D4D9F
:104CF000A84200D100BF1C4DA84200D100BF1B4DEF
:104D0000A84209D108E0056A25F48065056222F40D
:104D10000062CD6842EA0522104DA8420BD0104D2A
:104D2000A84208D00F4DA84205D00F4DA84202D08E
:104D30000E4DA84209D123F4805323F400534D694A
:104D400043EA05138D6943EA05134360C4614D6866
:104D5000C563026230BD00008FFFFEFF002C0140E2
:104D6000003401400040014000440140004801403F
:104D700030B5026A056A25F4805505624368C46946
:104D8000234D2C4024F440740D6844EA052422F499
:104D900000528D6842EA05321E4DA84200D10FE054
:104DA0001D4DA84200D10BE01C4DA84200D100BF10
:104DB0001B4DA84200D100BF1A4DA84209D108E0FE
:104DC000056A25F48045056222F40042CD6842EA76
:104DD0000532104DA8420BD00F4DA84208D00F4D00
:104DE000A84205D00E4DA84202D00E4DA84209D1CE
:104DF00023F4804323F400434D6943EA85138D690E
:104E000043EA85134360C4614D680564026230BDA6
:104E1000FF8FFFFE002C01400034014000400140A4
:104E2000004401400048014030B5026A056A25F49B
:104E3000803505624368046D114D2C400D682C438C
:104E400022F400320D8942EA05420E4DA8420BD0F1
:104E50000D4DA84208D00D4DA84205D00C4DA842DA
:104E600002D00C4DA84204D123F480334D6943EAAB
:104E70000523436004654D688564026230BD00000F
:104E80008FFFFEFF002C0140003401400040014034
:104E9000004401400048014030B5026A056A25F42B
:104EA000801505624368046D114D2C400D6844EA7D
:104EB000052422F400120D8942EA05520D4DA84244
:104EC0000BD00D4DA84208D00C4DA84205D00C4D7A
:104ED000A84202D00B4DA84204D123F480234D698F
:104EE00043EA8523436004654D68C564026230BDB2
:104EF000FF8FFFFE002C01400034014000400140C4
:104F0000004401400048014070B50C461546026A55
:104F1000066A26F001060662214EB04200D10FE07B
:104F2000204EB04200D10BE01F4EB04200D107E04E
:104F30001E4EB04200D103E01D4EB04204D100BF6E
:104F4000066A26F0040606628169154EB0420ED04C
:104F5000B0F1804F0BD0174EB04208D0164EB04281
:104F600005D0104EB04202D00F4EB04201D1012602
:104F700000E000261EB121F00301294301E041F0C9
:104F8000010121F0F001F02606EA0316314322F078
:104F90000A0204F00A0632438161026270BD000019
:104FA000002C014000340140004001400044014019
:104FB00000480140000400400008004070B50C4665
:104FC0001546026A066A26F010060662164EB042C0
:104FD00000D10FE0154EB04200D10BE0144EB042AC
:104FE00000D100BF134EB04200D100BF124EB042FC
:104FF00004D103E0066A26F040060662816921F4C6
:10500000407141EA052121F470414FF4704606EAEF
:105010000336314322F0A002A02606EA04163243EA
:105020008161026270BD0000002C0140003401402B
:1050300000400140004401400048014070B50C466A
:105040001546026A066A26F480760662154EB0425C
:1050500000D10FE0144EB04200D10BE0134EB0422D
:1050600000D100BF124EB04200D100BF114EB0427D
:1050700004D103E0066A26F480660662C16921F065
:105080000301294321F0F001F02606EA031631431B
:1050900022F420624FF4206606EA04263243C161FE
:1050A000026270BD002C014000340140004001400C
:1050B000004401400048014070B50C461546026AA4
:1050C000066A26F480560662164EB04200D10FE002
:1050D000154EB04200D10BE0144EB04200D100BFDB
:1050E000134EB04200D100BF124EB04204D103E0D3
:1050F000066A26F480460662C16921F4407141EADD
:10510000052121F470414FF4704606EA033631431D
:1051100022F420424FF4204606EA04363243C161AD
:10512000026270BD002C014000340140004001408B
:10513000004401400048014070B5456E2DB901257D
:10514000A0F86A50A0F868501CE0082308240568FD
:10515000AD68C5F342610568AD686A0F0A4DAD5C84
:1051600015FB04F5094EB65C95FBF6F5A0F86A5000
:10517000054D6D5C15FB03F5044E765C95FBF6F56D
:10518000A0F8685070BD0000B2790008BA79000834
:1051900090F8281001F00801082907D10168496832
:1051A00021F40041826B11430268516090F828108D
:1051B00001F0010139B10168496821F40031C26A86
:1051C00011430268516090F8281001F00201022991
:1051D00007D10168496821F48031026B11430268EC
:1051E000516090F8281001F00401042907D10168EA
:1051F000496821F48021426B11430268516090F8A4
:10520000281001F01001102907D10168896821F4E4
:105210008051C26B11430268916090F8281001F030
:105220002001202907D10168896821F40051026C0E
:1052300011430268916090F8281001F04001402964
:1052400013D10168496821F48011426C114302684E
:105250005160416CB1F5801F07D10168496821F4A4
:10526000C001826C11430268516090F8281001F06F
:105270008001802907D10168496821F40021C26CAE
:10528000114302685160704738B504460020C4F8E5
:105290009000FCF707FC05462068006800F0080055
:1052A000082821D16FF07E402B4600224FF40011D8
:1052B0000090204600F0AEFBB0B100BF00BF2168F7
:1052C00051E8001F21F08000226842E80001002917
:1052D000F5D100BF2020C4F8880000BF002084F86A
:1052E000840000BF032038BD2068006800F004007F
:1052F000042830D16FF07E402B4600224FF480010D
:105300000090204600F086FB28B300BF00BF216854
:1053100051E8001F21F49070226842E80001002942
:10532000F5D100BF00BF00BF2168083151E8001F60
:1053300021F001002168083141E80002002AF3D180
:1053400000BF2020C4F88C0000BF002084F8840037
:1053500000BF0320C7E72020C4F88800C4F88C00F1
:105360000020E066206700BF84F8840000BF00BF13
:10537000B9E770B50446A56A2846FEF7E6F970BDA0
:105380002DE9F0410546AC6AD4F88860D4F88C70F9
:105390002068806800F08000802804D1212E02D18E
:1053A000204600F0F1F82068806800F040004028B6
:1053B00004D1222F02D1204600F098F8D4F89000B2
:1053C00040F01000C4F890002046FEF7BEF9BDE89A
:1053D000F08170B50546AC6A2868006800F02000CE
:1053E000E0BB0020A4F85E0000BF00BF216851E8C8
:1053F000001F21F48070226842E800010029F5D1E5
:1054000000BF00BF00BF2168083151E8001F21F034
:1054100001002168083141E80002002AF3D100BFF1
:1054200000BF00BF2168083151E8001F21F0400093
:105430002168083141E80002002AF3D100BF202092
:10544000C4F88C00E06E01280ED100BF00BF2168B7
:1054500051E8001F21F01000226800E004E042E85B
:1054600000010029F3D100BF00202067E06E012871
:1054700015D10020A4F85E002868406886B2B4F810
:105480005C00B04201DDA4F85E60B4F85C00B4F8E2
:105490005E20801A81B22046FEF7E0F802E0204646
:1054A000FEF7E8FB70BD70B50546AC6A01202067C9
:1054B000E06E012816D134F85C0F4008608028683F
:1054C000406886B234F85C09B04201DBA4F85E6043
:1054D000B4F85C00B4F85E20801A81B22046FEF772
:1054E000BDF802E02046FEF7C6FB70BD00BF00BF5E
:1054F000026852E8002F22F49071036843E800121A
:10550000002AF5D100BF00BF00BF0268083252E890
:10551000002F104B02EA03010268083242E8001330
:10552000002BF2D100BFC16E01290CD100BF00BF1A
:10553000026852E8002F22F01001036843E80012CD
:10554000002AF5D100BF2021C0F88C100021C166CF
:1055500041677047FEFFFFEF10B5044600BF00BF74
:10556000216851E8001F21F04000226842E8000154
:105570000029F5D100BF2020C4F888000020A067D2
:105580002046FEF779FB10BD00BF00BF026852E85D
:10559000002F22F0C001036843E80012002AF5D171
:1055A00000BF00BF00BF0268083252E8002F22F49B
:1055B00000010268083242E80013002BF3D100BF5B
:1055C0002021C0F8881070472DE9FE4F04460020C6
:1055D0000290D4492068884200D100E000BF2169D0
:1055E000A068084361690843E16940EA010820684E
:1055F0000068CD49084040EA08002168086020683A
:10560000406820F44050E168084321684860D4F8BD
:105610001880C4492068884202D0206A40EA0808FD
:1056200020688068C149084040EA08002168886015
:105630002068C06A20F00F00616A08432168C862D0
:1056400000BFBB492068884216D1BA48006800F004
:10565000030030B1012808D0022804D0032808D163
:1056600005E0012507E0022505E0042503E0082503
:1056700001E0102500BF6FE0AF492068884216D1D5
:10568000AC48006800F00C0030B1042808D00828AD
:1056900004D00C2808D105E0002507E0022505E02C
:1056A000042503E0082501E0102500BF54E0A349CC
:1056B0002068884216D19F48006800F0300030B161
:1056C000102808D0202804D0302808D105E0002573
:1056D00007E0022505E0042503E0082501E0102588
:1056E00000BF39E096492068884216D19148006889
:1056F00000F0C00030B1402808D0802804D0C02875
:1057000008D105E0002507E0022505E0042503E0B7
:10571000082501E0102500BF1EE08249206888426C
:1057200019D18448006800F4406048B1B0F5806F3A
:105730000AD0B0F5006F05D0B0F5406F08D105E094
:10574000002507E0022505E0042503E0082501E027
:10575000102500BF00E0102500BF72492068884274
:1057600059D135B1022D08D0042D08D0082D0DD106
:1057700009E0FCF7D3FD06460CE0724E0AE0FCF7A8
:10578000F1FD064606E04FF4004603E00026012046
:10579000029000BF00BF002E10D06B49606A31F844
:1057A0001000B6FBF0F9606800EB4000484503D8F4
:1057B00060680003484502D201200290A6E06249D9
:1057C000606A31F810C06246002330461946FAF785
:1057D00021FD4FF4807C0022A0FB0C3B01FB0CB1AF
:1057E00000FB02116068400818185141CDE9000122
:1057F000D4F804C062460023FAF70CFD0746B7F55B
:10580000407F05D3B7F5801F02D22068C7607DE0D6
:10581000012002907AE0E069B0F5004F3FD1092DF8
:1058200017D2DFE805F005090D160F16161613003E
:10583000FCF774FD064610E0FCF782FD06460CE01E
:10584000404E0AE0FCF78EFD064606E04FF40046A7
:1058500003E000260120029000BF00BF86B33A4952
:10586000606A31F81000B6FBF0F04000616800EBB0
:105870005100B0FBF1F7102F0ED3B7F5803F0BD2DC
:105880004FF6F07007EA000AC7F342004AEA000A3E
:105890002068C0F80CA039E00120029036E0092D04
:1058A00018D2DFE805F005090E17101717171400B6
:1058B000FCF734FD064611E0FCF742FD06460DE01C
:1058C00024E0204E0AE0FCF74DFD064606E04FF4CA
:1058D000004603E000260120029000BF00BFAEB1E9
:1058E0001949606A31F81000B6FBF0F0616800EB0E
:1058F0005100B0FBF1F7102F06D3B7F5803F03D26C
:10590000B8B22168C86001E0012002900120A4F82B
:105910006A00A4F8680000206067A0670298BDE8EC
:10592000FE8F000000800040F369FFCFFFF4FF11FD
:105930000038014088100240004400400048004008
:10594000004C00400024F4009A79000870B5044629
:105950000E46154644F8586FA5800020A06322200B
:105960006063A06A583CF8B12748241DE16FC86203
:105970002648E16F08632648E16F48630020E16F25
:10598000886354F8043C03F12401626DE06F241F26
:105990002B46FBF715FF38B11020C4F890002020EB
:1059A000C4F88C00012070BD206960B100BF00BF49
:1059B000216851E8001F41F48070226842E800012C
:1059C0000029F5D100BF00BF00BF2168083151E8B0
:1059D000001F41F001002168083141E80002002A5F
:1059E000F3D100BF00BF00BF2168083151E8001F9C
:1059F00041F040002168083141E80002002AF3D15B
:105A000000BF0020CFE70000D3530008A7540008D0
:105A1000815300082DE9F04104460D46174698468B
:105A2000069E41E0701C00283ED0FCF73BF8A0EB3E
:105A30000800B04200D816B90320BDE8F081206804
:105A4000006800F0040070B3802D2DD0402D2BD0C5
:105A50002068C069C0F3C00078B1082021680862DE
:105A60002046FFF743FD0820C4F8900000BF002047
:105A700084F8840000BF0120DFE72068C069C0F31C
:105A8000C02080B14FF40060216808622046FFF713
:105A90002DFD2020C4F8900000BF002084F8840071
:105AA00000BF0320C9E7FFE72068C0692840A8427B
:105AB00001D1012000E00020B842B3D00020BCE7B3
:105AC00010B50248FDF742FE10BD0000D8010020CD
:105AD00000BFFEE70FB4084B10B504A902AA039853
